{
  "contractName": "Casino",
  "abi": [
    {
      "inputs": [],
      "payable": false,
      "stateMutability": "nonpayable",
      "type": "constructor"
    },
    {
      "anonymous": false,
      "inputs": [
        {
          "indexed": false,
          "internalType": "address",
          "name": "player",
          "type": "address"
        },
        {
          "indexed": false,
          "internalType": "uint8",
          "name": "bet",
          "type": "uint8"
        }
      ],
      "name": "EventBet",
      "type": "event"
    },
    {
      "anonymous": false,
      "inputs": [
        {
          "indexed": false,
          "internalType": "address",
          "name": "player",
          "type": "address"
        }
      ],
      "name": "EventCancelBet",
      "type": "event"
    },
    {
      "anonymous": false,
      "inputs": [
        {
          "indexed": false,
          "internalType": "address",
          "name": "player",
          "type": "address"
        },
        {
          "indexed": false,
          "internalType": "bool",
          "name": "gameSet",
          "type": "bool"
        }
      ],
      "name": "EventGameSet",
      "type": "event"
    },
    {
      "anonymous": false,
      "inputs": [
        {
          "indexed": false,
          "internalType": "address",
          "name": "player",
          "type": "address"
        },
        {
          "indexed": false,
          "internalType": "uint256",
          "name": "amount",
          "type": "uint256"
        }
      ],
      "name": "EventPlayerReceives",
      "type": "event"
    },
    {
      "anonymous": false,
      "inputs": [
        {
          "indexed": false,
          "internalType": "address",
          "name": "player",
          "type": "address"
        },
        {
          "indexed": false,
          "internalType": "uint8",
          "name": "bet",
          "type": "uint8"
        },
        {
          "indexed": false,
          "internalType": "uint8",
          "name": "result",
          "type": "uint8"
        }
      ],
      "name": "EventResult",
      "type": "event"
    },
    {
      "anonymous": false,
      "inputs": [
        {
          "indexed": true,
          "internalType": "address",
          "name": "previousOwner",
          "type": "address"
        },
        {
          "indexed": true,
          "internalType": "address",
          "name": "newOwner",
          "type": "address"
        }
      ],
      "name": "OwnershipTransferred",
      "type": "event"
    },
    {
      "constant": true,
      "inputs": [],
      "name": "_owner",
      "outputs": [
        {
          "internalType": "address",
          "name": "",
          "type": "address"
        }
      ],
      "payable": false,
      "stateMutability": "view",
      "type": "function"
    },
    {
      "constant": true,
      "inputs": [
        {
          "internalType": "address",
          "name": "",
          "type": "address"
        }
      ],
      "name": "gamesMap",
      "outputs": [
        {
          "internalType": "contract Game",
          "name": "",
          "type": "address"
        }
      ],
      "payable": false,
      "stateMutability": "view",
      "type": "function"
    },
    {
      "constant": true,
      "inputs": [],
      "name": "isOwner",
      "outputs": [
        {
          "internalType": "bool",
          "name": "",
          "type": "bool"
        }
      ],
      "payable": false,
      "stateMutability": "view",
      "type": "function"
    },
    {
      "constant": true,
      "inputs": [],
      "name": "owner",
      "outputs": [
        {
          "internalType": "address",
          "name": "",
          "type": "address"
        }
      ],
      "payable": false,
      "stateMutability": "view",
      "type": "function"
    },
    {
      "constant": true,
      "inputs": [
        {
          "internalType": "address",
          "name": "",
          "type": "address"
        }
      ],
      "name": "playerInfoMap",
      "outputs": [
        {
          "internalType": "string",
          "name": "name",
          "type": "string"
        },
        {
          "internalType": "bool",
          "name": "gameSet",
          "type": "bool"
        }
      ],
      "payable": false,
      "stateMutability": "view",
      "type": "function"
    },
    {
      "constant": false,
      "inputs": [],
      "name": "renounceOwnership",
      "outputs": [],
      "payable": false,
      "stateMutability": "nonpayable",
      "type": "function"
    },
    {
      "constant": false,
      "inputs": [
        {
          "internalType": "address",
          "name": "newOwner",
          "type": "address"
        }
      ],
      "name": "transferOwnership",
      "outputs": [],
      "payable": false,
      "stateMutability": "nonpayable",
      "type": "function"
    },
    {
      "constant": false,
      "inputs": [
        {
          "internalType": "uint8",
          "name": "gameType",
          "type": "uint8"
        }
      ],
      "name": "setGameType",
      "outputs": [
        {
          "internalType": "bool",
          "name": "",
          "type": "bool"
        },
        {
          "internalType": "uint8",
          "name": "",
          "type": "uint8"
        }
      ],
      "payable": false,
      "stateMutability": "nonpayable",
      "type": "function"
    },
    {
      "constant": true,
      "inputs": [],
      "name": "isBetSetGame",
      "outputs": [
        {
          "internalType": "bool",
          "name": "",
          "type": "bool"
        }
      ],
      "payable": false,
      "stateMutability": "view",
      "type": "function"
    },
    {
      "constant": false,
      "inputs": [
        {
          "internalType": "string",
          "name": "empty",
          "type": "string"
        },
        {
          "internalType": "uint8",
          "name": "playerBet",
          "type": "uint8"
        }
      ],
      "name": "betGame",
      "outputs": [
        {
          "internalType": "uint8",
          "name": "",
          "type": "uint8"
        },
        {
          "internalType": "bool",
          "name": "",
          "type": "bool"
        },
        {
          "internalType": "uint256",
          "name": "",
          "type": "uint256"
        }
      ],
      "payable": true,
      "stateMutability": "payable",
      "type": "function"
    },
    {
      "constant": false,
      "inputs": [],
      "name": "cancelBetGame",
      "outputs": [
        {
          "internalType": "uint256",
          "name": "",
          "type": "uint256"
        }
      ],
      "payable": false,
      "stateMutability": "nonpayable",
      "type": "function"
    },
    {
      "constant": false,
      "inputs": [],
      "name": "playGame",
      "outputs": [
        {
          "internalType": "uint8",
          "name": "",
          "type": "uint8"
        },
        {
          "internalType": "uint8",
          "name": "",
          "type": "uint8"
        }
      ],
      "payable": false,
      "stateMutability": "nonpayable",
      "type": "function"
    },
    {
      "constant": false,
      "inputs": [],
      "name": "playerWithdrawMoney",
      "outputs": [
        {
          "internalType": "uint256",
          "name": "",
          "type": "uint256"
        }
      ],
      "payable": false,
      "stateMutability": "nonpayable",
      "type": "function"
    },
    {
      "constant": false,
      "inputs": [],
      "name": "addFundsCasinoBalance",
      "outputs": [],
      "payable": true,
      "stateMutability": "payable",
      "type": "function"
    },
    {
      "constant": false,
      "inputs": [],
      "name": "withdrawCasinoBalance",
      "outputs": [],
      "payable": false,
      "stateMutability": "nonpayable",
      "type": "function"
    },
    {
      "constant": true,
      "inputs": [],
      "name": "getCasinoBalance",
      "outputs": [
        {
          "internalType": "uint256",
          "name": "",
          "type": "uint256"
        }
      ],
      "payable": false,
      "stateMutability": "view",
      "type": "function"
    }
  ],
  "bytecode": "0x608060405260006001556000600360006101000a81548160ff0219169083151502179055503480156200003157600080fd5b50336000806101000a81548173ffffffffffffffffffffffffffffffffffffffff021916908373ffffffffffffffffffffffffffffffffffffffff1602179055506000809054906101000a900473ffffffffffffffffffffffffffffffffffffffff1673ffffffffffffffffffffffffffffffffffffffff16600073ffffffffffffffffffffffffffffffffffffffff167f8be0079c531659141344cd1fd0a4f28419497f9722a3daafe3b4186f6b6457e060405160405180910390a36002604051620000fe9062000216565b604051809103906000f0801580156200011b573d6000803e3d6000fd5b5090806001815401808255809150509060018203906000526020600020016000909192909190916101000a81548173ffffffffffffffffffffffffffffffffffffffff021916908373ffffffffffffffffffffffffffffffffffffffff1602179055505060026040516200018f9062000224565b604051809103906000f080158015620001ac573d6000803e3d6000fd5b5090806001815401808255809150509060018203906000526020600020016000909192909190916101000a81548173ffffffffffffffffffffffffffffffffffffffff021916908373ffffffffffffffffffffffffffffffffffffffff1602179055505062000232565b610f088062001e2883390190565b61237d8062002d3083390190565b611be680620002426000396000f3fe6080604052600436106100f35760003560e01c8063af8997351161008a578063c24fb94611610059578063c24fb9461461049f578063da436d35146104b6578063ed10e636146104e5578063f2fde38b14610576576100f3565b8063af8997351461030a578063afae8edc14610348578063b18a82ab1461041d578063b2bdfa7b14610448576100f3565b80637e1ba4f2116100c65780637e1ba4f21461024f5780638da5cb5b146102595780638f32d59b146102b0578063a906180a146102df576100f3565b80631a0843c0146100f8578063437de86f146101235780636f80e30a14610186578063715018a614610238575b600080fd5b34801561010457600080fd5b5061010d6105c7565b6040518082815260200191505060405180910390f35b34801561012f57600080fd5b5061015f6004803603602081101561014657600080fd5b81019080803560ff169060200190929190505050610676565b60405180831515151581526020018260ff1660ff1681526020019250505060405180910390f35b61020a6004803603604081101561019c57600080fd5b81019080803590602001906401000000008111156101b957600080fd5b8201836020820111156101cb57600080fd5b803590602001918460018302840111640100000000831117156101ed57600080fd5b9091929391929390803560ff1690602001909291905050506108b1565b604051808460ff1660ff16815260200183151515158152602001828152602001935050505060405180910390f35b34801561024457600080fd5b5061024d610b54565b005b610257610cb8565b005b34801561026557600080fd5b5061026e610de5565b604051808273ffffffffffffffffffffffffffffffffffffffff1673ffffffffffffffffffffffffffffffffffffffff16815260200191505060405180910390f35b3480156102bc57600080fd5b506102c5610e0e565b604051808215151515815260200191505060405180910390f35b3480156102eb57600080fd5b506102f4610e65565b6040518082815260200191505060405180910390f35b34801561031657600080fd5b5061031f6110d8565b604051808360ff1660ff1681526020018260ff1660ff1681526020019250505060405180910390f35b34801561035457600080fd5b506103976004803603602081101561036b57600080fd5b81019080803573ffffffffffffffffffffffffffffffffffffffff169060200190929190505050611321565b604051808060200183151515158152602001828103825284818151815260200191508051906020019080838360005b838110156103e15780820151818401526020810190506103c6565b50505050905090810190601f16801561040e5780820380516001836020036101000a031916815260200191505b50935050505060405180910390f35b34801561042957600080fd5b506104326113ea565b6040518082815260200191505060405180910390f35b34801561045457600080fd5b5061045d61164c565b604051808273ffffffffffffffffffffffffffffffffffffffff1673ffffffffffffffffffffffffffffffffffffffff16815260200191505060405180910390f35b3480156104ab57600080fd5b506104b4611671565b005b3480156104c257600080fd5b506104cb6117d9565b604051808215151515815260200191505060405180910390f35b3480156104f157600080fd5b506105346004803603602081101561050857600080fd5b81019080803573ffffffffffffffffffffffffffffffffffffffff169060200190929190505050611989565b604051808273ffffffffffffffffffffffffffffffffffffffff1673ffffffffffffffffffffffffffffffffffffffff16815260200191505060405180910390f35b34801561058257600080fd5b506105c56004803603602081101561059957600080fd5b81019080803573ffffffffffffffffffffffffffffffffffffffff1690602001909291905050506119bc565b005b60008060009054906101000a900473ffffffffffffffffffffffffffffffffffffffff1673ffffffffffffffffffffffffffffffffffffffff163373ffffffffffffffffffffffffffffffffffffffff161461066e576040517f08c379a0000000000000000000000000000000000000000000000000000000008152600401808060200182810382526026815260200180611b8c6026913960400191505060405180910390fd5b600154905090565b600080600080905060026001850360ff168154811061069157fe5b9060005260206000200160009054906101000a900473ffffffffffffffffffffffffffffffffffffffff16600460003373ffffffffffffffffffffffffffffffffffffffff1673ffffffffffffffffffffffffffffffffffffffff16815260200190815260200160002060006101000a81548173ffffffffffffffffffffffffffffffffffffffff021916908373ffffffffffffffffffffffffffffffffffffffff1602179055506001600560003373ffffffffffffffffffffffffffffffffffffffff1673ffffffffffffffffffffffffffffffffffffffff16815260200190815260200160002060010160006101000a81548160ff021916908315150217905550600190507f0ebb942dea6f40cad40cbff551df274fe1896de8aadfb4f13f447442ff815ea333600560003373ffffffffffffffffffffffffffffffffffffffff1673ffffffffffffffffffffffffffffffffffffffff16815260200190815260200160002060010160009054906101000a900460ff16604051808373ffffffffffffffffffffffffffffffffffffffff1673ffffffffffffffffffffffffffffffffffffffff168152602001821515151581526020019250505060405180910390a1600560003373ffffffffffffffffffffffffffffffffffffffff1673ffffffffffffffffffffffffffffffffffffffff16815260200190815260200160002060010160009054906101000a900460ff16849250925050915091565b600080600060011515600560003373ffffffffffffffffffffffffffffffffffffffff1673ffffffffffffffffffffffffffffffffffffffff16815260200190815260200160002060010160009054906101000a900460ff1615151461097f576040517f08c379a000000000000000000000000000000000000000000000000000000000815260040180806020018281038252601c8152602001807f5468657265206973206e6f2063757272656e742067616d65207365740000000081525060200191505060405180910390fd5b6000806000600460003373ffffffffffffffffffffffffffffffffffffffff1673ffffffffffffffffffffffffffffffffffffffff16815260200190815260200160002060009054906101000a900473ffffffffffffffffffffffffffffffffffffffff1673ffffffffffffffffffffffffffffffffffffffff166385e77b2a8a8a8a6040518463ffffffff1660e01b815260040180806020018360ff1660ff1681526020018281038252858582818152602001925080828437600081840152601f19601f820116905080830192505050945050505050606060405180830381600087803b158015610a7057600080fd5b505af1158015610a84573d6000803e3d6000fd5b505050506040513d6060811015610a9a57600080fd5b81019080805190602001909291908051906020019092919080519060200190929190505050925092509250610ace81611a6d565b7fa752596e1bf1e1c14de436a4ec7dfd467ab2810adbaa4d8fa378faba5de3f3943388604051808373ffffffffffffffffffffffffffffffffffffffff1673ffffffffffffffffffffffffffffffffffffffff1681526020018260ff1660ff1681526020019250505060405180910390a182828295509550955050505093509350939050565b6000809054906101000a900473ffffffffffffffffffffffffffffffffffffffff1673ffffffffffffffffffffffffffffffffffffffff163373ffffffffffffffffffffffffffffffffffffffff1614610bf9576040517f08c379a0000000000000000000000000000000000000000000000000000000008152600401808060200182810382526026815260200180611b8c6026913960400191505060405180910390fd5b600073ffffffffffffffffffffffffffffffffffffffff166000809054906101000a900473ffffffffffffffffffffffffffffffffffffffff1673ffffffffffffffffffffffffffffffffffffffff167f8be0079c531659141344cd1fd0a4f28419497f9722a3daafe3b4186f6b6457e060405160405180910390a360008060006101000a81548173ffffffffffffffffffffffffffffffffffffffff021916908373ffffffffffffffffffffffffffffffffffffffff160217905550565b6000809054906101000a900473ffffffffffffffffffffffffffffffffffffffff1673ffffffffffffffffffffffffffffffffffffffff163373ffffffffffffffffffffffffffffffffffffffff1614610d5d576040517f08c379a0000000000000000000000000000000000000000000000000000000008152600401808060200182810382526026815260200180611b8c6026913960400191505060405180910390fd5b60003411610dd3576040517f08c379a00000000000000000000000000000000000000000000000000000000081526004018080602001828103825260138152602001807f4e6f2066756e6473207472616e7366657265640000000000000000000000000081525060200191505060405180910390fd5b34600160008282540192505081905550565b60008060009054906101000a900473ffffffffffffffffffffffffffffffffffffffff16905090565b60008060009054906101000a900473ffffffffffffffffffffffffffffffffffffffff1673ffffffffffffffffffffffffffffffffffffffff163373ffffffffffffffffffffffffffffffffffffffff1614905090565b600060011515600560003373ffffffffffffffffffffffffffffffffffffffff1673ffffffffffffffffffffffffffffffffffffffff16815260200190815260200160002060010160009054906101000a900460ff16151514610f30576040517f08c379a000000000000000000000000000000000000000000000000000000000815260040180806020018281038252601c8152602001807f5468657265206973206e6f2063757272656e742067616d65207365740000000081525060200191505060405180910390fd5b6000600460003373ffffffffffffffffffffffffffffffffffffffff1673ffffffffffffffffffffffffffffffffffffffff16815260200190815260200160002060009054906101000a900473ffffffffffffffffffffffffffffffffffffffff1673ffffffffffffffffffffffffffffffffffffffff1663168b47b96040518163ffffffff1660e01b8152600401602060405180830381600087803b158015610fd957600080fd5b505af1158015610fed573d6000803e3d6000fd5b505050506040513d602081101561100357600080fd5b8101908080519060200190929190505050905061101f81611a80565b3373ffffffffffffffffffffffffffffffffffffffff166108fc829081150290604051600060405180830381858888f19350505050158015611065573d6000803e3d6000fd5b507f83188de2cb5d7641681aae234acaeaebf71ce5a507e50690788de0f7b5e0bd3f3382604051808373ffffffffffffffffffffffffffffffffffffffff1673ffffffffffffffffffffffffffffffffffffffff1681526020018281526020019250505060405180910390a18091505090565b60008060011515600560003373ffffffffffffffffffffffffffffffffffffffff1673ffffffffffffffffffffffffffffffffffffffff16815260200190815260200160002060010160009054906101000a900460ff161515146111a4576040517f08c379a000000000000000000000000000000000000000000000000000000000815260040180806020018281038252601c8152602001807f5468657265206973206e6f2063757272656e742067616d65207365740000000081525060200191505060405180910390fd5b600080600460003373ffffffffffffffffffffffffffffffffffffffff1673ffffffffffffffffffffffffffffffffffffffff16815260200190815260200160002060009054906101000a900473ffffffffffffffffffffffffffffffffffffffff1673ffffffffffffffffffffffffffffffffffffffff166393e84cd96040518163ffffffff1660e01b81526004016040805180830381600087803b15801561124d57600080fd5b505af1158015611261573d6000803e3d6000fd5b505050506040513d604081101561127757600080fd5b810190808051906020019092919080519060200190929190505050915091507f863216ad3ce00034d688c4ff5947333501f68cf3d4836c6b5626a7500337fa45338383604051808473ffffffffffffffffffffffffffffffffffffffff1673ffffffffffffffffffffffffffffffffffffffff1681526020018360ff1660ff1681526020018260ff1660ff168152602001935050505060405180910390a181819350935050509091565b6005602052806000526040600020600091509050806000018054600181600116156101000203166002900480601f0160208091040260200160405190810160405280929190818152602001828054600181600116156101000203166002900480156113cd5780601f106113a2576101008083540402835291602001916113cd565b820191906000526020600020905b8154815290600101906020018083116113b057829003601f168201915b5050505050908060010160009054906101000a900460ff16905082565b600060011515600560003373ffffffffffffffffffffffffffffffffffffffff1673ffffffffffffffffffffffffffffffffffffffff16815260200190815260200160002060010160009054906101000a900460ff161515146114b5576040517f08c379a000000000000000000000000000000000000000000000000000000000815260040180806020018281038252601c8152602001807f5468657265206973206e6f2063757272656e742067616d65207365740000000081525060200191505060405180910390fd5b6000600460003373ffffffffffffffffffffffffffffffffffffffff1673ffffffffffffffffffffffffffffffffffffffff16815260200190815260200160002060009054906101000a900473ffffffffffffffffffffffffffffffffffffffff1673ffffffffffffffffffffffffffffffffffffffff16637b6d79f16040518163ffffffff1660e01b8152600401602060405180830381600087803b15801561155e57600080fd5b505af1158015611572573d6000803e3d6000fd5b505050506040513d602081101561158857600080fd5b810190808051906020019092919050505090503373ffffffffffffffffffffffffffffffffffffffff166108fc829081150290604051600060405180830381858888f193505050501580156115e1573d6000803e3d6000fd5b507f13684f18ba9ea835d5e044be0b93fc42751bb23220adf533c8d078bba00dd91133604051808273ffffffffffffffffffffffffffffffffffffffff1673ffffffffffffffffffffffffffffffffffffffff16815260200191505060405180910390a18091505090565b6000809054906101000a900473ffffffffffffffffffffffffffffffffffffffff1681565b6000809054906101000a900473ffffffffffffffffffffffffffffffffffffffff1673ffffffffffffffffffffffffffffffffffffffff163373ffffffffffffffffffffffffffffffffffffffff1614611716576040517f08c379a0000000000000000000000000000000000000000000000000000000008152600401808060200182810382526026815260200180611b8c6026913960400191505060405180910390fd5b60006001541161178e576040517f08c379a00000000000000000000000000000000000000000000000000000000081526004018080602001828103825260128152602001807f4e6f7420656e6f7567682062616c616e6365000000000000000000000000000081525060200191505060405180910390fd5b3373ffffffffffffffffffffffffffffffffffffffff166108fc6001549081150290604051600060405180830381858888f193505050501580156117d6573d6000803e3d6000fd5b50565b600060011515600560003373ffffffffffffffffffffffffffffffffffffffff1673ffffffffffffffffffffffffffffffffffffffff16815260200190815260200160002060010160009054906101000a900460ff161515146118a4576040517f08c379a000000000000000000000000000000000000000000000000000000000815260040180806020018281038252601c8152602001807f5468657265206973206e6f2063757272656e742067616d65207365740000000081525060200191505060405180910390fd5b600460003373ffffffffffffffffffffffffffffffffffffffff1673ffffffffffffffffffffffffffffffffffffffff16815260200190815260200160002060009054906101000a900473ffffffffffffffffffffffffffffffffffffffff1673ffffffffffffffffffffffffffffffffffffffff16631ae651c86040518163ffffffff1660e01b815260040160206040518083038186803b15801561194957600080fd5b505afa15801561195d573d6000803e3d6000fd5b505050506040513d602081101561197357600080fd5b8101908080519060200190929190505050905090565b60046020528060005260406000206000915054906101000a900473ffffffffffffffffffffffffffffffffffffffff1681565b6000809054906101000a900473ffffffffffffffffffffffffffffffffffffffff1673ffffffffffffffffffffffffffffffffffffffff163373ffffffffffffffffffffffffffffffffffffffff1614611a61576040517f08c379a0000000000000000000000000000000000000000000000000000000008152600401808060200182810382526026815260200180611b8c6026913960400191505060405180910390fd5b611a6a81611a93565b50565b8060016000828254019250508190555050565b8060016000828254039250508190555050565b600073ffffffffffffffffffffffffffffffffffffffff168173ffffffffffffffffffffffffffffffffffffffff161415611acd57600080fd5b8073ffffffffffffffffffffffffffffffffffffffff166000809054906101000a900473ffffffffffffffffffffffffffffffffffffffff1673ffffffffffffffffffffffffffffffffffffffff167f8be0079c531659141344cd1fd0a4f28419497f9722a3daafe3b4186f6b6457e060405160405180910390a3806000806101000a81548173ffffffffffffffffffffffffffffffffffffffff021916908373ffffffffffffffffffffffffffffffffffffffff1602179055505056fe596f7520617265206e6f7420746865206f776e6572206f66207468697320636f6e7472616374a265627a7a723158207e44914bfd972dbe9b51f888e5ee19a1e85ed11937df570cac97dcac2f5b50ef64736f6c63430005100032608060405260008055678ac7230489e800006001556000600255600a600460006101000a81548160ff021916908360ff16021790555034801561004157600080fd5b50610eb7806100516000396000f3fe6080604052600436106100705760003560e01c80637b6d79f11161004e5780637b6d79f1146100fa57806385e77b2a1461012557806393e84cd9146101d7578063c32ec3361461021557610070565b8063168b47b9146100755780631ae651c8146100a05780635d5ae245146100cf575b600080fd5b34801561008157600080fd5b5061008a610240565b6040518082815260200191505060405180910390f35b3480156100ac57600080fd5b506100b56102eb565b604051808215151515815260200191505060405180910390f35b3480156100db57600080fd5b506100e4610342565b6040518082815260200191505060405180910390f35b34801561010657600080fd5b5061010f610348565b6040518082815260200191505060405180910390f35b6101a96004803603604081101561013b57600080fd5b810190808035906020019064010000000081111561015857600080fd5b82018360208201111561016a57600080fd5b8035906020019184600183028401116401000000008311171561018c57600080fd5b9091929391929390803560ff1690602001909291905050506105be565b604051808460ff1660ff16815260200183151515158152602001828152602001935050505060405180910390f35b3480156101e357600080fd5b506101ec610a61565b604051808360ff1660ff1681526020018260ff1660ff1681526020019250505060405180910390f35b34801561022157600080fd5b5061022a610dc5565b6040518082815260200191505060405180910390f35b600080600460009054906101000a900460ff1660ff16600360003373ffffffffffffffffffffffffffffffffffffffff1673ffffffffffffffffffffffffffffffffffffffff168152602001908152602001600020600101540290506000600360003373ffffffffffffffffffffffffffffffffffffffff1673ffffffffffffffffffffffffffffffffffffffff168152602001908152602001600020600101819055508091505090565b6000600360003373ffffffffffffffffffffffffffffffffffffffff1673ffffffffffffffffffffffffffffffffffffffff16815260200190815260200160002060000160009054906101000a900460ff16905090565b60025481565b6000600360003373ffffffffffffffffffffffffffffffffffffffff1673ffffffffffffffffffffffffffffffffffffffff16815260200190815260200160002060000160009054906101000a900460ff166001151581151514610414576040517f08c379a000000000000000000000000000000000000000000000000000000000815260040180806020018281038252601e8152602001807f596f75206e65656420746f20626574206265666f726520706c6179696e67000081525060200191505060405180910390fd5b6000600360003373ffffffffffffffffffffffffffffffffffffffff1673ffffffffffffffffffffffffffffffffffffffff16815260200190815260200160002060020160006101000a81548160ff021916908360ff1602179055506000600360003373ffffffffffffffffffffffffffffffffffffffff1673ffffffffffffffffffffffffffffffffffffffff16815260200190815260200160002060000160006101000a81548160ff0219169083151502179055506000600360003373ffffffffffffffffffffffffffffffffffffffff1673ffffffffffffffffffffffffffffffffffffffff16815260200190815260200160002060020160016101000a81548160ff021916908360ff1602179055506000600360003373ffffffffffffffffffffffffffffffffffffffff1673ffffffffffffffffffffffffffffffffffffffff1681526020019081526020016000206001015490506000600360003373ffffffffffffffffffffffffffffffffffffffff1673ffffffffffffffffffffffffffffffffffffffff16815260200190815260200160002060010181905550809250505090565b600080600060025434101561063b576040517f08c379a00000000000000000000000000000000000000000000000000000000081526004018080602001828103825260118152602001807f546f6f206c6f77206265742076616c756500000000000000000000000000000081525060200191505060405180910390fd5b6001543411156106b3576040517f08c379a00000000000000000000000000000000000000000000000000000000081526004018080602001828103825260128152602001807f546f6f2068696768206265742076616c7565000000000000000000000000000081525060200191505060405180910390fd5b600360003373ffffffffffffffffffffffffffffffffffffffff1673ffffffffffffffffffffffffffffffffffffffff16815260200190815260200160002060000160009054906101000a900460ff16600015158115151461077d576040517f08c379a000000000000000000000000000000000000000000000000000000000815260040180806020018281038252601c8152602001807f546865726520697320616c72656164792061206265742072656164790000000081525060200191505060405180910390fd5b60028560ff1610156107f7576040517f08c379a000000000000000000000000000000000000000000000000000000000815260040180806020018281038252601c8152602001807f426574206d757374206265206265747765656e203220616e642031320000000081525060200191505060405180910390fd5b600c8560ff161115610871576040517f08c379a000000000000000000000000000000000000000000000000000000000815260040180806020018281038252601c8152602001807f426574206d757374206265206265747765656e203220616e642031320000000081525060200191505060405180910390fd5b84600360003373ffffffffffffffffffffffffffffffffffffffff1673ffffffffffffffffffffffffffffffffffffffff16815260200190815260200160002060020160006101000a81548160ff021916908360ff1602179055506001600360003373ffffffffffffffffffffffffffffffffffffffff1673ffffffffffffffffffffffffffffffffffffffff16815260200190815260200160002060000160006101000a81548160ff02191690831515021790555034600360003373ffffffffffffffffffffffffffffffffffffffff1673ffffffffffffffffffffffffffffffffffffffff16815260200190815260200160002060010181905550600360003373ffffffffffffffffffffffffffffffffffffffff1673ffffffffffffffffffffffffffffffffffffffff16815260200190815260200160002060020160009054906101000a900460ff16600360003373ffffffffffffffffffffffffffffffffffffffff1673ffffffffffffffffffffffffffffffffffffffff16815260200190815260200160002060000160009054906101000a900460ff16600360003373ffffffffffffffffffffffffffffffffffffffff1673ffffffffffffffffffffffffffffffffffffffff168152602001908152602001600020600101549350935093505093509350939050565b600080600360003373ffffffffffffffffffffffffffffffffffffffff1673ffffffffffffffffffffffffffffffffffffffff16815260200190815260200160002060000160009054906101000a900460ff166001151581151514610b2e576040517f08c379a000000000000000000000000000000000000000000000000000000000815260040180806020018281038252601e8152602001807f596f75206e65656420746f20626574206265666f726520706c6179696e67000081525060200191505060405180910390fd5b610b36610dcb565b600360003373ffffffffffffffffffffffffffffffffffffffff1673ffffffffffffffffffffffffffffffffffffffff16815260200190815260200160002060020160016101000a81548160ff021916908360ff1602179055506000600360003373ffffffffffffffffffffffffffffffffffffffff1673ffffffffffffffffffffffffffffffffffffffff16815260200190815260200160002060000160006101000a81548160ff021916908315150217905550600360003373ffffffffffffffffffffffffffffffffffffffff1673ffffffffffffffffffffffffffffffffffffffff16815260200190815260200160002060020160009054906101000a900460ff1660ff16600360003373ffffffffffffffffffffffffffffffffffffffff1673ffffffffffffffffffffffffffffffffffffffff16815260200190815260200160002060020160019054906101000a900460ff1660ff161415610d1c573073ffffffffffffffffffffffffffffffffffffffff1663168b47b96040518163ffffffff1660e01b8152600401602060405180830381600087803b158015610cdf57600080fd5b505af1158015610cf3573d6000803e3d6000fd5b505050506040513d6020811015610d0957600080fd5b8101908080519060200190929190505050505b600360003373ffffffffffffffffffffffffffffffffffffffff1673ffffffffffffffffffffffffffffffffffffffff16815260200190815260200160002060020160009054906101000a900460ff16600360003373ffffffffffffffffffffffffffffffffffffffff1673ffffffffffffffffffffffffffffffffffffffff16815260200190815260200160002060020160019054906101000a900460ff1692509250509091565b60015481565b6000610dd960016006610deb565b610de560016006610deb565b01905090565b600080600081548092919060010191905055508260ff168260ff164233600054604051602001808481526020018373ffffffffffffffffffffffffffffffffffffffff1673ffffffffffffffffffffffffffffffffffffffff1660601b815260140182815260200193505050506040516020818303038152906040528051906020012060001c81610e7857fe5b060190509291505056fea265627a7a72315820076fd89de633b225d744e82ed54692d74327fc9c5f21b4a1f7fa2f5dc6e57d1264736f6c63430005100032608060405260008055678ac7230489e800006001556000600255604051806104800160405280600115151515815260200160001515151581526020016001151515158152602001600015151515815260200160011515151581526020016000151515158152602001600115151515815260200160001515151581526020016001151515158152602001600015151515815260200160001515151581526020016001151515158152602001600015151515815260200160011515151581526020016000151515158152602001600115151515815260200160001515151581526020016001151515158152602001600115151515815260200160001515151581526020016001151515158152602001600015151515815260200160011515151581526020016000151515158152602001600115151515815260200160001515151581526020016001151515158152602001600015151515815260200160001515151581526020016001151515158152602001600015151515815260200160011515151581526020016000151515158152602001600115151515815260200160001515151581526020016001151515158152506004906024620001c1929190620001d6565b50348015620001cf57600080fd5b50620002a9565b826024601f01602090048101928215620002635791602002820160005b838211156200023257835183826101000a81548160ff0219169083151502179055509260200192600101602081600001049283019260010302620001f3565b8015620002615782816101000a81549060ff021916905560010160208160000104928301926001030262000232565b505b50905062000272919062000276565b5090565b620002a691905b80821115620002a257600081816101000a81549060ff0219169055506001016200027d565b5090565b90565b6120c480620002b96000396000f3fe6080604052600436106100705760003560e01c80637b6d79f11161004e5780637b6d79f1146100fa57806385e77b2a1461012557806393e84cd9146101d7578063c32ec3361461021557610070565b8063168b47b9146100755780631ae651c8146100a05780635d5ae245146100cf575b600080fd5b34801561008157600080fd5b5061008a610240565b6040518082815260200191505060405180910390f35b3480156100ac57600080fd5b506100b561043b565b604051808215151515815260200191505060405180910390f35b3480156100db57600080fd5b506100e4610492565b6040518082815260200191505060405180910390f35b34801561010657600080fd5b5061010f610498565b6040518082815260200191505060405180910390f35b6101a96004803603604081101561013b57600080fd5b810190808035906020019064010000000081111561015857600080fd5b82018360208201111561016a57600080fd5b8035906020019184600183028401116401000000008311171561018c57600080fd5b9091929391929390803560ff16906020019092919050505061070e565b604051808460ff1660ff16815260200183151515158152602001828152602001935050505060405180910390f35b3480156101e357600080fd5b506101ec6117f9565b604051808360ff1660ff1681526020018260ff1660ff1681526020019250505060405180910390f35b34801561022157600080fd5b5061022a611fa7565b6040518082815260200191505060405180910390f35b600080600360003373ffffffffffffffffffffffffffffffffffffffff1673ffffffffffffffffffffffffffffffffffffffff16815260200190815260200160002060020160009054906101000a900460ff1660ff1660248161029f57fe5b0460ff16600360003373ffffffffffffffffffffffffffffffffffffffff1673ffffffffffffffffffffffffffffffffffffffff16815260200190815260200160002060010154029050600360003373ffffffffffffffffffffffffffffffffffffffff1673ffffffffffffffffffffffffffffffffffffffff16815260200190815260200160002060020160009054906101000a900460ff1660ff16600360003373ffffffffffffffffffffffffffffffffffffffff1673ffffffffffffffffffffffffffffffffffffffff16815260200190815260200160002060010154600360003373ffffffffffffffffffffffffffffffffffffffff1673ffffffffffffffffffffffffffffffffffffffff16815260200190815260200160002060020160009054906101000a900460ff1660ff166024816103db57fe5b0660ff1602816103e757fe5b04810190506000600360003373ffffffffffffffffffffffffffffffffffffffff1673ffffffffffffffffffffffffffffffffffffffff168152602001908152602001600020600101819055508091505090565b6000600360003373ffffffffffffffffffffffffffffffffffffffff1673ffffffffffffffffffffffffffffffffffffffff16815260200190815260200160002060000160009054906101000a900460ff16905090565b60025481565b6000600360003373ffffffffffffffffffffffffffffffffffffffff1673ffffffffffffffffffffffffffffffffffffffff16815260200190815260200160002060000160009054906101000a900460ff166001151581151514610564576040517f08c379a000000000000000000000000000000000000000000000000000000000815260040180806020018281038252601e8152602001807f596f75206e65656420746f20626574206265666f726520706c6179696e67000081525060200191505060405180910390fd5b6000600360003373ffffffffffffffffffffffffffffffffffffffff1673ffffffffffffffffffffffffffffffffffffffff16815260200190815260200160002060020160016101000a81548160ff021916908360ff1602179055506000600360003373ffffffffffffffffffffffffffffffffffffffff1673ffffffffffffffffffffffffffffffffffffffff16815260200190815260200160002060000160006101000a81548160ff0219169083151502179055506000600360003373ffffffffffffffffffffffffffffffffffffffff1673ffffffffffffffffffffffffffffffffffffffff16815260200190815260200160002060020160006101000a81548160ff021916908360ff1602179055506000600360003373ffffffffffffffffffffffffffffffffffffffff1673ffffffffffffffffffffffffffffffffffffffff1681526020019081526020016000206001015490506000600360003373ffffffffffffffffffffffffffffffffffffffff1673ffffffffffffffffffffffffffffffffffffffff16815260200190815260200160002060010181905550809250505090565b600080600060025434101561078b576040517f08c379a00000000000000000000000000000000000000000000000000000000081526004018080602001828103825260118152602001807f546f6f206c6f77206265742076616c756500000000000000000000000000000081525060200191505060405180910390fd5b600154341115610803576040517f08c379a00000000000000000000000000000000000000000000000000000000081526004018080602001828103825260128152602001807f546f6f2068696768206265742076616c7565000000000000000000000000000081525060200191505060405180910390fd5b600360003373ffffffffffffffffffffffffffffffffffffffff1673ffffffffffffffffffffffffffffffffffffffff16815260200190815260200160002060000160009054906101000a900460ff1660001515811515146108cd576040517f08c379a000000000000000000000000000000000000000000000000000000000815260040180806020018281038252601c8152602001807f546865726520697320616c72656164792061206265742072656164790000000081525060200191505060405180910390fd5b6108d561205f565b6040518060800160405280600115158152602001348152602001600060ff168152602001600060ff16815250905061098688888080601f016020809104026020016040519081016040528093929190818152602001838380828437600081840152601f19601f820116905080830192505050505050506040518060400160405280600681526020017f53696e676c650000000000000000000000000000000000000000000000000000815250611fad565b156109d3578560ff166000111580156109a3575060248660ff1611155b156109ce576001816040019060ff16908160ff168152505085816060019060ff16908160ff16815250505b6115f9565b610a5688888080601f016020809104026020016040519081016040528093929190818152602001838380828437600081840152601f19601f820116905080830192505050505050506040518060400160405280601081526020017f486f72697a6f6e74616c2073706c697400000000000000000000000000000000815250611fad565b15610ae5578560ff16600111158015610a73575060238660ff1611155b8015610a905750600060038760ff1681610a8957fe5b0660ff1614155b15610ae0576002816040019060ff16908160ff168152505060036001870360ff1681610ab857fe5b0660036001880360ff1681610ac957fe5b0460020201816060019060ff16908160ff16815250505b6115f8565b610b6888888080601f016020809104026020016040519081016040528093929190818152602001838380828437600081840152601f19601f820116905080830192505050505050506040518060400160405280600e81526020017f566572746963616c2073706c6974000000000000000000000000000000000000815250611fad565b15610bb8578560ff16600111158015610b85575060218660ff1611155b15610bb3576002816040019060ff16908160ff168152505085601701816060019060ff16908160ff16815250505b6115f7565b610c3b88888080601f016020809104026020016040519081016040528093929190818152602001838380828437600081840152601f19601f820116905080830192505050505050506040518060400160405280600681526020017f5374726565740000000000000000000000000000000000000000000000000000815250611fad565b15610c8b578560ff16600111158015610c585750600c8660ff1611155b15610c86576003816040019060ff16908160ff168152505060018603816060019060ff16908160ff16815250505b6115f6565b610d0e88888080601f016020809104026020016040519081016040528093929190818152602001838380828437600081840152601f19601f820116905080830192505050505050506040518060400160405280600681526020017f5371756172650000000000000000000000000000000000000000000000000000815250611fad565b15610d9d578560ff16600111158015610d2b575060208660ff1611155b8015610d485750600060038760ff1681610d4157fe5b0660ff1614155b15610d98576004816040019060ff16908160ff168152505060036001870360ff1681610d7057fe5b0660036001880360ff1681610d8157fe5b0460020201816060019060ff16908160ff16815250505b6115f5565b610e2088888080601f016020809104026020016040519081016040528093929190818152602001838380828437600081840152601f19601f820116905080830192505050505050506040518060400160405280600d81526020017f446f75626c652073747265657400000000000000000000000000000000000000815250611fad565b15610e70578560ff16600111158015610e3d5750600b8660ff1611155b15610e6b576006816040019060ff16908160ff168152505060018603816060019060ff16908160ff16815250505b6115f4565b610ef388888080601f016020809104026020016040519081016040528093929190818152602001838380828437600081840152601f19601f820116905080830192505050505050506040518060400160405280600681526020017f436f6c756d6e0000000000000000000000000000000000000000000000000000815250611fad565b15610f43578560ff16600111158015610f10575060038660ff1611155b15610f3e57600c816040019060ff16908160ff168152505060018603816060019060ff16908160ff16815250505b6115f3565b610fc688888080601f016020809104026020016040519081016040528093929190818152602001838380828437600081840152601f19601f820116905080830192505050505050506040518060400160405280600581526020017f446f7a656e000000000000000000000000000000000000000000000000000000815250611fad565b15611016578560ff16600111158015610fe3575060038660ff1611155b1561101157600c816040019060ff16908160ff168152505085600201816060019060ff16908160ff16815250505b6115f2565b61109988888080601f016020809104026020016040519081016040528093929190818152602001838380828437600081840152601f19601f820116905080830192505050505050506040518060400160405280600381526020017f4c6f770000000000000000000000000000000000000000000000000000000000815250611fad565b156110c9576012816040019060ff16908160ff16815250506000816060019060ff16908160ff16815250506115f1565b61114c88888080601f016020809104026020016040519081016040528093929190818152602001838380828437600081840152601f19601f820116905080830192505050505050506040518060400160405280600481526020017f4869676800000000000000000000000000000000000000000000000000000000815250611fad565b1561117c576012816040019060ff16908160ff16815250506001816060019060ff16908160ff16815250506115f0565b6111ff88888080601f016020809104026020016040519081016040528093929190818152602001838380828437600081840152601f19601f820116905080830192505050505050506040518060400160405280600381526020017f5265640000000000000000000000000000000000000000000000000000000000815250611fad565b1561122f576012816040019060ff16908160ff16815250506002816060019060ff16908160ff16815250506115ef565b6112b288888080601f016020809104026020016040519081016040528093929190818152602001838380828437600081840152601f19601f820116905080830192505050505050506040518060400160405280600581526020017f426c61636b000000000000000000000000000000000000000000000000000000815250611fad565b156112e2576012816040019060ff16908160ff16815250506003816060019060ff16908160ff16815250506115ee565b61136588888080601f016020809104026020016040519081016040528093929190818152602001838380828437600081840152601f19601f820116905080830192505050505050506040518060400160405280600481526020017f4576656e00000000000000000000000000000000000000000000000000000000815250611fad565b15611395576012816040019060ff16908160ff16815250506004816060019060ff16908160ff16815250506115ed565b61141888888080601f016020809104026020016040519081016040528093929190818152602001838380828437600081840152601f19601f820116905080830192505050505050506040518060400160405280600381526020017f4f64640000000000000000000000000000000000000000000000000000000000815250611fad565b15611448576012816040019060ff16908160ff16815250506005816060019060ff16908160ff16815250506115ec565b6114cb88888080601f016020809104026020016040519081016040528093929190818152602001838380828437600081840152601f19601f820116905080830192505050505050506040518060400160405280600d81526020017f446f75626c6520636f6c756d6e00000000000000000000000000000000000000815250611fad565b1561151b578560ff166001111580156114e8575060028660ff1611155b15611516576018816040019060ff16908160ff168152505060018603816060019060ff16908160ff16815250505b6115eb565b61159e88888080601f016020809104026020016040519081016040528093929190818152602001838380828437600081840152601f19601f820116905080830192505050505050506040518060400160405280600c81526020017f446f75626c6520646f7a656e0000000000000000000000000000000000000000815250611fad565b156115ea578560ff166001111580156115bb575060028660ff1611155b156115e9576018816040019060ff16908160ff168152505085600101816060019060ff16908160ff16815250505b5b5b5b5b5b5b5b5b5b5b5b5b5b5b5b5b6000816040015160ff161415611655573373ffffffffffffffffffffffffffffffffffffffff166108fc349081150290604051600060405180830381858888f1935050505015801561164f573d6000803e3d6000fd5b50611705565b80600360003373ffffffffffffffffffffffffffffffffffffffff1673ffffffffffffffffffffffffffffffffffffffff16815260200190815260200160002060008201518160000160006101000a81548160ff0219169083151502179055506020820151816001015560408201518160020160006101000a81548160ff021916908360ff16021790555060608201518160020160016101000a81548160ff021916908360ff1602179055509050505b600360003373ffffffffffffffffffffffffffffffffffffffff1673ffffffffffffffffffffffffffffffffffffffff16815260200190815260200160002060020160019054906101000a900460ff16600360003373ffffffffffffffffffffffffffffffffffffffff1673ffffffffffffffffffffffffffffffffffffffff16815260200190815260200160002060000160009054906101000a900460ff16600360003373ffffffffffffffffffffffffffffffffffffffff1673ffffffffffffffffffffffffffffffffffffffff16815260200190815260200160002060010154945094509450505093509350939050565b600080600360003373ffffffffffffffffffffffffffffffffffffffff1673ffffffffffffffffffffffffffffffffffffffff16815260200190815260200160002060000160009054906101000a900460ff1660011515811515146118c6576040517f08c379a000000000000000000000000000000000000000000000000000000000815260040180806020018281038252601e8152602001807f596f75206e65656420746f20626574206265666f726520706c6179696e67000081525060200191505060405180910390fd5b6000600360003373ffffffffffffffffffffffffffffffffffffffff1673ffffffffffffffffffffffffffffffffffffffff16815260200190815260200160002060000160006101000a81548160ff021916908315150217905550600061192f60006024611fc8565b9050600080905061193e61205f565b600360003373ffffffffffffffffffffffffffffffffffffffff1673ffffffffffffffffffffffffffffffffffffffff1681526020019081526020016000206040518060800160405290816000820160009054906101000a900460ff16151515158152602001600182015481526020016002820160009054906101000a900460ff1660ff1660ff1681526020016002820160019054906101000a900460ff1660ff1660ff168152505090506001816040015160ff161415611a1557806060015160ff168360ff161415611a1057600191505b611eff565b6002816040015160ff161415611ac8576017816060015160ff1611611a8f57600060016002836060015160ff1681611a4957fe5b066002846060015160ff1681611a5b57fe5b04600302010190508060ff168460ff161480611a7f57506001810160ff168460ff16145b15611a8957600192505b50611ac3565b6000601782606001510390508060ff168460ff161480611ab757506003810160ff168460ff16145b15611ac157600192505b505b611efe565b6003816040015160ff161415611b29576000600182606001516003020190508360ff168160ff1611158015611b0657506001810160ff168460ff1611155b80611b1957506002810160ff168460ff16145b15611b2357600192505b50611efd565b6004816040015160ff161415611bba57600060016002836060015160ff1681611b4e57fe5b066002846060015160ff1681611b6057fe5b04600302010190508060ff168460ff161480611b8457506001810160ff168460ff16145b80611b9757506003810160ff168460ff16145b80611baa57506004810160ff168460ff16145b15611bb457600192505b50611efc565b6006816040015160ff161415611c2857600060016002836060015160ff1681611bdf57fe5b066002846060015160ff1681611bf157fe5b04600302010190508360ff168160ff1611158015611c1857506006810160ff168460ff1611155b15611c2257600192505b50611efb565b600c816040015160ff161415611cb6576002816060015160ff1611611c7357806060015160ff1660036001850360ff1681611c5f57fe5b0660ff161415611c6e57600191505b611cb1565b8260ff166001600c6003846060015103020160ff1611158015611ca65750600c60028260600151030260ff168360ff1611155b15611cb057600191505b5b611efa565b6012816040015160ff161415611e51576000816060015160ff161415611cfd578260ff16600111158015611cee575060128360ff1611155b15611cf857600191505b611e4c565b6001816060015160ff161415611d34578260ff16601311158015611d25575060248360ff1611155b15611d2f57600191505b611e4b565b6002816060015160ff161415611d8c5760008360ff1614158015611d7d575060046001840360ff1660248110611d6657fe5b602091828204019190069054906101000a900460ff165b15611d8757600191505b611e4a565b6003816060015160ff161415611de55760008360ff1614158015611dd6575060046001840360ff1660248110611dbe57fe5b602091828204019190069054906101000a900460ff16155b15611de057600191505b611e49565b6004816060015160ff161415611e1857600060028460ff1681611e0457fe5b0660ff161415611e1357600191505b611e48565b6005816060015160ff161415611e4757600160028460ff1681611e3757fe5b0660ff161415611e4657600191505b5b5b5b5b5b5b611ef9565b6018816040015160ff161415611ef8576001816060015160ff1611611eb957600060036001850360ff1681611e8257fe5b069050816060015160ff168160ff161480611ea95750600182606001510160ff168160ff16145b15611eb357600192505b50611ef7565b8260ff166001600c6001846060015103020160ff1611158015611eec5750600c60018260600151010260ff168360ff1611155b15611ef657600191505b5b5b5b5b5b5b5b5b5b600115158215151415611f91573073ffffffffffffffffffffffffffffffffffffffff1663168b47b96040518163ffffffff1660e01b8152600401602060405180830381600087803b158015611f5457600080fd5b505af1158015611f68573d6000803e3d6000fd5b505050506040513d6020811015611f7e57600080fd5b8101908080519060200190929190505050505b8060600151816040015195509550505050509091565b60015481565b60008180519060200120838051906020012014905092915050565b600080600081548092919060010191905055508260ff168260ff164233600054604051602001808481526020018373ffffffffffffffffffffffffffffffffffffffff1673ffffffffffffffffffffffffffffffffffffffff1660601b815260140182815260200193505050506040516020818303038152906040528051906020012060001c8161205557fe5b0601905092915050565b604051806080016040528060001515815260200160008152602001600060ff168152602001600060ff168152509056fea265627a7a723158202a5d67467638957c8745b375ec9acddf318dcf939b08fdcf1a60e09c27378db564736f6c63430005100032",
  "source": "pragma solidity ^0.5.0;\n\nimport \"./SafeMath.sol\";\nimport \"./Ownable.sol\";\nimport \"./Game.sol\";\nimport \"./Dice.sol\";\nimport \"./Roulette.sol\";\nimport \"./Utility.sol\";\n\ncontract Casino is Ownable{ //Ownable allows using onlyOwner modifier so we can make admin functions\n\n\n\n\tusing SafeMath for uint256; //Using SafeMath lib to avoid overflow errors\n\n\n\n\t//Variables\n\tuint256 casinoBalance = 0;\n\tGame[] games;\n\tbool gameSet = false;\n\tstruct PlayerInfo{\n\t\tstring name;\n\t\tbool gameSet;\n\t}\n\tmapping (address => Game) public gamesMap; //address : currentPlayer ; Game : Dice or Roulette contract\n\tmapping (address => PlayerInfo) public playerInfoMap; //address : currentPlayer ; PlayerInfo : player infos structure\n\n\n\n\t//Events\n\tevent EventGameSet(address player, bool gameSet);\n\tevent EventBet(address player , uint8 bet);\n\tevent EventResult(address player, uint8 bet , uint8 result);\n\tevent EventCancelBet(address player);\n\tevent EventPlayerReceives(address player, uint256 amount);\n\n\n\n\t//Constructor\n\tconstructor() public{\n\t\tgames.push(new Dice());\n\t\tgames.push(new Roulette());\n\t}\n\n\n\n\t//Modifiers\n\tmodifier isGameSet(){\n\t\trequire(playerInfoMap[msg.sender].gameSet == true, \"There is no current game set\");\n\t\t_;\n\t}\n\n\n\n\t//Game type setter\n\tfunction setGameType(uint8 gameType) external returns(bool, uint8){\n\t\tbool _success = false;\n\t\tgamesMap[msg.sender] = games[gameType-1];\n\t\tplayerInfoMap[msg.sender].gameSet = true;\n\t\t_success = true;\n\t\temit EventGameSet(msg.sender, playerInfoMap[msg.sender].gameSet);\n\t\treturn (playerInfoMap[msg.sender].gameSet, gameType);\n\t}\n\n\n\n\t//Playing game\n\tfunction isBetSetGame() external view isGameSet returns(bool){\n\t\treturn gamesMap[msg.sender].isBetSet();\n\t}\n\tfunction betGame(string calldata empty, uint8 playerBet) external payable isGameSet returns(uint8, bool, uint256){\n\t\t(uint8 betValue, bool isSet, uint256 moneyBet) = gamesMap[msg.sender].bet(empty, playerBet);\n\t\tincreaseCasinoBalance(moneyBet);\n\t\temit EventBet(msg.sender, playerBet);\n\t\treturn (betValue, isSet, moneyBet);\n\t}\n\tfunction cancelBetGame() external isGameSet returns(uint256){\n\t\tuint256 moneyBack = gamesMap[msg.sender].cancelBet();\n\t\tmsg.sender.transfer(moneyBack);\n\t\temit EventCancelBet(msg.sender);\n\t\treturn moneyBack;\n\t}\t\n\tfunction playGame() external isGameSet returns(uint8 , uint8){\n\t\t(uint8 betValue, uint8 result) = gamesMap[msg.sender].play();\n\t\temit EventResult(msg.sender, betValue, result);\n\t\treturn (betValue, result);\n\t}\n\tfunction playerWithdrawMoney() isGameSet external returns(uint256){\n\t\tuint256 moneyWin = gamesMap[msg.sender].playerMoneyWin();\n\t\tdecreaseCasinoBalance(moneyWin);\n\t\tmsg.sender.transfer(moneyWin);\n\t\temit EventPlayerReceives(msg.sender, moneyWin);\n\t\treturn moneyWin;\n\t}\n\n\n\n    //Admin functions with onlyOwner\n    function addFundsCasinoBalance() external payable onlyOwner{\n    \trequire(msg.value > 0, \"No funds transfered\");\n\t\tcasinoBalance += msg.value;\n\t}\n    function withdrawCasinoBalance() external onlyOwner{\n    \trequire(casinoBalance > 0, \"Not enough balance\");\n\t\tmsg.sender.transfer(casinoBalance);\n\t}\n\tfunction getCasinoBalance() external view onlyOwner returns(uint){\n\t\treturn casinoBalance;\n\t}\n\tfunction increaseCasinoBalance(uint amount) internal{\n\t\tcasinoBalance += amount;\n\t}\n\tfunction decreaseCasinoBalance(uint amount) internal{\n\t\tcasinoBalance -= amount;\n\t}\n\n}\n",
  "sourcePath": "/home/hanzo/Desktop/DecentralizedCasino/dapp/contracts/Casino.sol",
  "compiler": {
    "name": "solc",
    "version": "0.5.16+commit.9c3226ce.Emscripten.clang"
  },
  "schemaVersion": "3.3.4",
  "updatedAt": "2021-03-16T21:22:40.748Z",
  "devdoc": {
    "methods": {
      "isOwner()": {
        "return": "true if `msg.sender` is the owner of the contract."
      },
      "owner()": {
        "return": "the address of the owner."
      },
      "renounceOwnership()": {
        "details": "Allows the current owner to relinquish control of the contract."
      },
      "transferOwnership(address)": {
        "details": "Allows the current owner to transfer control of the contract to a newOwner.",
        "params": {
          "newOwner": "The address to transfer ownership to."
        }
      }
    }
  },
  "userdoc": {
    "methods": {
      "renounceOwnership()": {
        "notice": "Renouncing to ownership will leave the contract without an owner. It will not be possible to call the functions with the `onlyOwner` modifier anymore."
      }
    }
  }
}