{
  "contractName": "Casino",
  "abi": [
    {
      "inputs": [],
      "payable": false,
      "stateMutability": "nonpayable",
      "type": "constructor"
    },
    {
      "anonymous": false,
      "inputs": [
        {
          "indexed": false,
          "internalType": "address",
          "name": "player",
          "type": "address"
        },
        {
          "indexed": false,
          "internalType": "string",
          "name": "betInfo",
          "type": "string"
        },
        {
          "indexed": false,
          "internalType": "uint8",
          "name": "bet",
          "type": "uint8"
        },
        {
          "indexed": false,
          "internalType": "uint256",
          "name": "money",
          "type": "uint256"
        }
      ],
      "name": "EventBet",
      "type": "event"
    },
    {
      "anonymous": false,
      "inputs": [
        {
          "indexed": false,
          "internalType": "address",
          "name": "player",
          "type": "address"
        },
        {
          "indexed": false,
          "internalType": "uint256",
          "name": "amount",
          "type": "uint256"
        }
      ],
      "name": "EventCancelBet",
      "type": "event"
    },
    {
      "anonymous": false,
      "inputs": [
        {
          "indexed": false,
          "internalType": "address",
          "name": "player",
          "type": "address"
        },
        {
          "indexed": false,
          "internalType": "uint256",
          "name": "gameType",
          "type": "uint256"
        }
      ],
      "name": "EventGameSet",
      "type": "event"
    },
    {
      "anonymous": false,
      "inputs": [
        {
          "indexed": false,
          "internalType": "address",
          "name": "player",
          "type": "address"
        },
        {
          "indexed": false,
          "internalType": "uint256",
          "name": "amount",
          "type": "uint256"
        }
      ],
      "name": "EventPlayerReceives",
      "type": "event"
    },
    {
      "anonymous": false,
      "inputs": [
        {
          "indexed": false,
          "internalType": "address",
          "name": "player",
          "type": "address"
        },
        {
          "indexed": false,
          "internalType": "uint8",
          "name": "result",
          "type": "uint8"
        }
      ],
      "name": "EventResult",
      "type": "event"
    },
    {
      "anonymous": false,
      "inputs": [
        {
          "indexed": false,
          "internalType": "address",
          "name": "player",
          "type": "address"
        },
        {
          "indexed": false,
          "internalType": "uint256",
          "name": "tokenBought",
          "type": "uint256"
        }
      ],
      "name": "EventTokenBought",
      "type": "event"
    },
    {
      "anonymous": false,
      "inputs": [
        {
          "indexed": true,
          "internalType": "address",
          "name": "previousOwner",
          "type": "address"
        },
        {
          "indexed": true,
          "internalType": "address",
          "name": "newOwner",
          "type": "address"
        }
      ],
      "name": "OwnershipTransferred",
      "type": "event"
    },
    {
      "constant": true,
      "inputs": [],
      "name": "_owner",
      "outputs": [
        {
          "internalType": "address",
          "name": "",
          "type": "address"
        }
      ],
      "payable": false,
      "stateMutability": "view",
      "type": "function"
    },
    {
      "constant": true,
      "inputs": [
        {
          "internalType": "address",
          "name": "",
          "type": "address"
        }
      ],
      "name": "gamesMap",
      "outputs": [
        {
          "internalType": "contract Game",
          "name": "",
          "type": "address"
        }
      ],
      "payable": false,
      "stateMutability": "view",
      "type": "function"
    },
    {
      "constant": true,
      "inputs": [],
      "name": "isOwner",
      "outputs": [
        {
          "internalType": "bool",
          "name": "",
          "type": "bool"
        }
      ],
      "payable": false,
      "stateMutability": "view",
      "type": "function"
    },
    {
      "constant": true,
      "inputs": [],
      "name": "maximumTokenValue",
      "outputs": [
        {
          "internalType": "uint16",
          "name": "",
          "type": "uint16"
        }
      ],
      "payable": false,
      "stateMutability": "view",
      "type": "function"
    },
    {
      "constant": true,
      "inputs": [],
      "name": "minimumTokenValue",
      "outputs": [
        {
          "internalType": "uint16",
          "name": "",
          "type": "uint16"
        }
      ],
      "payable": false,
      "stateMutability": "view",
      "type": "function"
    },
    {
      "constant": true,
      "inputs": [],
      "name": "owner",
      "outputs": [
        {
          "internalType": "address",
          "name": "",
          "type": "address"
        }
      ],
      "payable": false,
      "stateMutability": "view",
      "type": "function"
    },
    {
      "constant": true,
      "inputs": [
        {
          "internalType": "address",
          "name": "",
          "type": "address"
        }
      ],
      "name": "ownerTokenCount",
      "outputs": [
        {
          "internalType": "uint256",
          "name": "",
          "type": "uint256"
        }
      ],
      "payable": false,
      "stateMutability": "view",
      "type": "function"
    },
    {
      "constant": false,
      "inputs": [],
      "name": "renounceOwnership",
      "outputs": [],
      "payable": false,
      "stateMutability": "nonpayable",
      "type": "function"
    },
    {
      "constant": true,
      "inputs": [
        {
          "internalType": "uint256",
          "name": "",
          "type": "uint256"
        }
      ],
      "name": "tokens",
      "outputs": [
        {
          "internalType": "uint256",
          "name": "",
          "type": "uint256"
        }
      ],
      "payable": false,
      "stateMutability": "view",
      "type": "function"
    },
    {
      "constant": true,
      "inputs": [
        {
          "internalType": "uint256",
          "name": "",
          "type": "uint256"
        }
      ],
      "name": "tokensToOwner",
      "outputs": [
        {
          "internalType": "address",
          "name": "",
          "type": "address"
        }
      ],
      "payable": false,
      "stateMutability": "view",
      "type": "function"
    },
    {
      "constant": false,
      "inputs": [
        {
          "internalType": "address",
          "name": "newOwner",
          "type": "address"
        }
      ],
      "name": "transferOwnership",
      "outputs": [],
      "payable": false,
      "stateMutability": "nonpayable",
      "type": "function"
    },
    {
      "constant": true,
      "inputs": [],
      "name": "getNbTokensOf",
      "outputs": [
        {
          "internalType": "uint256",
          "name": "",
          "type": "uint256"
        }
      ],
      "payable": false,
      "stateMutability": "view",
      "type": "function"
    },
    {
      "constant": false,
      "inputs": [
        {
          "internalType": "uint256",
          "name": "nbtok",
          "type": "uint256"
        }
      ],
      "name": "buyCasitokens",
      "outputs": [
        {
          "internalType": "uint256",
          "name": "",
          "type": "uint256"
        }
      ],
      "payable": true,
      "stateMutability": "payable",
      "type": "function"
    },
    {
      "constant": false,
      "inputs": [
        {
          "internalType": "uint8",
          "name": "gameType",
          "type": "uint8"
        }
      ],
      "name": "setGameType",
      "outputs": [
        {
          "internalType": "bool",
          "name": "",
          "type": "bool"
        }
      ],
      "payable": false,
      "stateMutability": "nonpayable",
      "type": "function"
    },
    {
      "constant": true,
      "inputs": [],
      "name": "isBetSetGame",
      "outputs": [
        {
          "internalType": "bool",
          "name": "",
          "type": "bool"
        }
      ],
      "payable": false,
      "stateMutability": "view",
      "type": "function"
    },
    {
      "constant": false,
      "inputs": [
        {
          "internalType": "string",
          "name": "betInfo",
          "type": "string"
        },
        {
          "internalType": "uint8",
          "name": "betData",
          "type": "uint8"
        },
        {
          "internalType": "uint256",
          "name": "tokenAmount",
          "type": "uint256"
        }
      ],
      "name": "betGame",
      "outputs": [
        {
          "internalType": "bool",
          "name": "",
          "type": "bool"
        }
      ],
      "payable": false,
      "stateMutability": "nonpayable",
      "type": "function"
    },
    {
      "constant": false,
      "inputs": [],
      "name": "cancelBetGame",
      "outputs": [
        {
          "internalType": "bool",
          "name": "",
          "type": "bool"
        }
      ],
      "payable": false,
      "stateMutability": "nonpayable",
      "type": "function"
    },
    {
      "constant": false,
      "inputs": [],
      "name": "playGame",
      "outputs": [
        {
          "internalType": "uint8",
          "name": "",
          "type": "uint8"
        },
        {
          "internalType": "uint256",
          "name": "",
          "type": "uint256"
        }
      ],
      "payable": false,
      "stateMutability": "nonpayable",
      "type": "function"
    },
    {
      "constant": false,
      "inputs": [],
      "name": "addFundsCasinoBalance",
      "outputs": [],
      "payable": true,
      "stateMutability": "payable",
      "type": "function"
    },
    {
      "constant": false,
      "inputs": [
        {
          "internalType": "uint256",
          "name": "amount",
          "type": "uint256"
        }
      ],
      "name": "withdrawCasinoBalance",
      "outputs": [],
      "payable": false,
      "stateMutability": "nonpayable",
      "type": "function"
    },
    {
      "constant": true,
      "inputs": [],
      "name": "getCasinoBalance",
      "outputs": [
        {
          "internalType": "uint256",
          "name": "",
          "type": "uint256"
        }
      ],
      "payable": false,
      "stateMutability": "view",
      "type": "function"
    }
  ],
  "bytecode": "0x6080604052600080556103e8600160006101000a81548161ffff021916908361ffff16021790555060018060026101000a81548161ffff021916908361ffff16021790555067016345785d8a000060055566038d7ea4c680006009553480156200006857600080fd5b5033600160046101000a81548173ffffffffffffffffffffffffffffffffffffffff021916908373ffffffffffffffffffffffffffffffffffffffff160217905550600160049054906101000a900473ffffffffffffffffffffffffffffffffffffffff1673ffffffffffffffffffffffffffffffffffffffff16600073ffffffffffffffffffffffffffffffffffffffff167f8be0079c531659141344cd1fd0a4f28419497f9722a3daafe3b4186f6b6457e060405160405180910390a3600260405162000137906200024f565b604051809103906000f08015801562000154573d6000803e3d6000fd5b5090806001815401808255809150509060018203906000526020600020016000909192909190916101000a81548173ffffffffffffffffffffffffffffffffffffffff021916908373ffffffffffffffffffffffffffffffffffffffff160217905550506002604051620001c8906200025d565b604051809103906000f080158015620001e5573d6000803e3d6000fd5b5090806001815401808255809150509060018203906000526020600020016000909192909190916101000a81548173ffffffffffffffffffffffffffffffffffffffff021916908373ffffffffffffffffffffffffffffffffffffffff160217905550506200026b565b6113e880620025de83390190565b61263680620039c683390190565b612363806200027b6000396000f3fe60806040526004361061012a5760003560e01c80638da5cb5b116100ab578063b2bdfa7b1161006f578063b2bdfa7b146104d0578063c2fb09a814610527578063cb5b43201461058c578063da436d3514610607578063ed10e63614610636578063f2fde38b146106c75761012a565b80638da5cb5b146103b85780638f32d59b1461040f5780639fe71a931461043e578063af89973514610469578063b18a82ab146104a15761012a565b806368bc8f2d116100f257806368bc8f2d14610274578063715018a6146103295780637579000b146103405780637b12f6d3146103735780637e1ba4f2146103ae5761012a565b80631a0843c01461012f57806332994a271461015a578063437de86f1461018d5780634f64b2be146101e357806352d4bad414610232575b600080fd5b34801561013b57600080fd5b50610144610718565b6040518082815260200191505060405180910390f35b34801561016657600080fd5b5061016f6107e3565b604051808261ffff1661ffff16815260200191505060405180910390f35b34801561019957600080fd5b506101c9600480360360208110156101b057600080fd5b81019080803560ff1690602001909291905050506107f7565b604051808215151515815260200191505060405180910390f35b3480156101ef57600080fd5b5061021c6004803603602081101561020657600080fd5b81019080803590602001909291905050506109b9565b6040518082815260200191505060405180910390f35b61025e6004803603602081101561024857600080fd5b81019080803590602001909291905050506109da565b6040518082815260200191505060405180910390f35b34801561028057600080fd5b5061030f6004803603606081101561029757600080fd5b81019080803590602001906401000000008111156102b457600080fd5b8201836020820111156102c657600080fd5b803590602001918460018302840111640100000000831117156102e857600080fd5b9091929391929390803560ff16906020019092919080359060200190929190505050610ee2565b604051808215151515815260200191505060405180910390f35b34801561033557600080fd5b5061033e611338565b005b34801561034c57600080fd5b5061035561149f565b604051808261ffff1661ffff16815260200191505060405180910390f35b34801561037f57600080fd5b506103ac6004803603602081101561039657600080fd5b81019080803590602001909291905050506114b3565b005b6103b6611636565b005b3480156103c457600080fd5b506103cd611754565b604051808273ffffffffffffffffffffffffffffffffffffffff1673ffffffffffffffffffffffffffffffffffffffff16815260200191505060405180910390f35b34801561041b57600080fd5b5061042461177e565b604051808215151515815260200191505060405180910390f35b34801561044a57600080fd5b506104536117d6565b6040518082815260200191505060405180910390f35b34801561047557600080fd5b5061047e61181d565b604051808360ff1660ff1681526020018281526020019250505060405180910390f35b3480156104ad57600080fd5b506104b6611b8c565b604051808215151515815260200191505060405180910390f35b3480156104dc57600080fd5b506104e5611e82565b604051808273ffffffffffffffffffffffffffffffffffffffff1673ffffffffffffffffffffffffffffffffffffffff16815260200191505060405180910390f35b34801561053357600080fd5b506105766004803603602081101561054a57600080fd5b81019080803573ffffffffffffffffffffffffffffffffffffffff169060200190929190505050611ea8565b6040518082815260200191505060405180910390f35b34801561059857600080fd5b506105c5600480360360208110156105af57600080fd5b8101908080359060200190929190505050611ec0565b604051808273ffffffffffffffffffffffffffffffffffffffff1673ffffffffffffffffffffffffffffffffffffffff16815260200191505060405180910390f35b34801561061357600080fd5b5061061c611ef3565b604051808215151515815260200191505060405180910390f35b34801561064257600080fd5b506106856004803603602081101561065957600080fd5b81019080803573ffffffffffffffffffffffffffffffffffffffff169060200190929190505050612112565b604051808273ffffffffffffffffffffffffffffffffffffffff1673ffffffffffffffffffffffffffffffffffffffff16815260200191505060405180910390f35b3480156106d357600080fd5b50610716600480360360208110156106ea57600080fd5b81019080803573ffffffffffffffffffffffffffffffffffffffff169060200190929190505050612145565b005b6000600160049054906101000a900473ffffffffffffffffffffffffffffffffffffffff1673ffffffffffffffffffffffffffffffffffffffff163373ffffffffffffffffffffffffffffffffffffffff16146107c0576040517f08c379a00000000000000000000000000000000000000000000000000000000081526004018080602001828103825260268152602001806123096026913960400191505060405180910390fd5b60003090508073ffffffffffffffffffffffffffffffffffffffff163191505090565b600160029054906101000a900461ffff1681565b60006002805490508260ff161115610877576040517f08c379a00000000000000000000000000000000000000000000000000000000081526004018080602001828103825260178152602001807f546869732067616d6520646f65736e277420657869737400000000000000000081525060200191505060405180910390fd5b600261089060018460ff166121f790919063ffffffff16565b8154811061089a57fe5b9060005260206000200160009054906101000a900473ffffffffffffffffffffffffffffffffffffffff16600360003373ffffffffffffffffffffffffffffffffffffffff1673ffffffffffffffffffffffffffffffffffffffff16815260200190815260200160002060006101000a81548173ffffffffffffffffffffffffffffffffffffffff021916908373ffffffffffffffffffffffffffffffffffffffff1602179055507fb4b4034191b68cd986ada67a48ab3037785015a1dff2494e7ea519db06715ea63383604051808373ffffffffffffffffffffffffffffffffffffffff1673ffffffffffffffffffffffffffffffffffffffff1681526020018260ff1681526020019250505060405180910390a160019050919050565b600881815481106109c657fe5b906000526020600020016000915090505481565b6000348260055480600160029054906101000a900461ffff1661ffff1602831015610a6d576040517f08c379a00000000000000000000000000000000000000000000000000000000081526004018080602001828103825260118152602001807f546f6f206c6f77206265742076616c756500000000000000000000000000000081525060200191505060405180910390fd5b80600160009054906101000a900461ffff1661ffff1602831115610af9576040517f08c379a00000000000000000000000000000000000000000000000000000000081526004018080602001828103825260128152602001807f546f6f2068696768206265742076616c7565000000000000000000000000000081525060200191505060405180910390fd5b600160029054906101000a900461ffff1661ffff16821015610b83576040517f08c379a00000000000000000000000000000000000000000000000000000000081526004018080602001828103825260138152602001807f546f6f206c6f7720746f6b656e2076616c75650000000000000000000000000081525060200191505060405180910390fd5b600160009054906101000a900461ffff1661ffff16821115610c0d576040517f08c379a00000000000000000000000000000000000000000000000000000000081526004018080602001828103825260148152602001807f546f6f206869676820746f6b656e2076616c756500000000000000000000000081525060200191505060405180910390fd5b600185118015610c21575084600554023410155b610c93576040517f08c379a000000000000000000000000000000000000000000000000000000000815260040180806020018281038252601d8152602001807f496e76616c6964206574686572206f7220746f6b656e206e756d62657200000081525060200191505060405180910390fd5b8460055402341115610cf1573373ffffffffffffffffffffffffffffffffffffffff166108fc60095434886005540203039081150290604051600060405180830381858888f19350505050158015610cef573d6000803e3d6000fd5b505b60008090505b85811015610ded57600060086004600081548092919060010191905055908060018154018082558091505090600182039060005260206000200160009091929091909150559050336007600083815260200190815260200160002060006101000a81548173ffffffffffffffffffffffffffffffffffffffff021916908373ffffffffffffffffffffffffffffffffffffffff160217905550600660003373ffffffffffffffffffffffffffffffffffffffff1673ffffffffffffffffffffffffffffffffffffffff16815260200190815260200160002060008154809291906001019190505550508080600101915050610cf7565b507f898f9250b5f7a41fe60974912e5f980a0636f99831234b32b1aa8a4f6ee7267833600660003373ffffffffffffffffffffffffffffffffffffffff1673ffffffffffffffffffffffffffffffffffffffff16815260200190815260200160002054604051808373ffffffffffffffffffffffffffffffffffffffff1673ffffffffffffffffffffffffffffffffffffffff1681526020018281526020019250505060405180910390a1600660003373ffffffffffffffffffffffffffffffffffffffff1673ffffffffffffffffffffffffffffffffffffffff168152602001908152602001600020549350505050919050565b600081600660003373ffffffffffffffffffffffffffffffffffffffff1673ffffffffffffffffffffffffffffffffffffffff1681526020019081526020016000205481811015610f9b576040517f08c379a000000000000000000000000000000000000000000000000000000000815260040180806020018281038252601b8152602001807f4e6f7420656e6f75676820746f6b656e20696e2062616c616e6365000000000081525060200191505060405180910390fd5b600073ffffffffffffffffffffffffffffffffffffffff16600360003373ffffffffffffffffffffffffffffffffffffffff1673ffffffffffffffffffffffffffffffffffffffff16815260200190815260200160002060009054906101000a900473ffffffffffffffffffffffffffffffffffffffff1673ffffffffffffffffffffffffffffffffffffffff16141561109d576040517f08c379a000000000000000000000000000000000000000000000000000000000815260040180806020018281038252601c8152602001807f5468657265206973206e6f2063757272656e742067616d65207365740000000081525060200191505060405180910390fd5b6000600360003373ffffffffffffffffffffffffffffffffffffffff1673ffffffffffffffffffffffffffffffffffffffff16815260200190815260200160002060009054906101000a900473ffffffffffffffffffffffffffffffffffffffff1673ffffffffffffffffffffffffffffffffffffffff166362127da8338a8a8a8a6040518663ffffffff1660e01b8152600401808673ffffffffffffffffffffffffffffffffffffffff1673ffffffffffffffffffffffffffffffffffffffff168152602001806020018460ff1660ff1681526020018381526020018281038252868682818152602001925080828437600081840152601f19601f8201169050808301925050509650505050505050602060405180830381600087803b1580156111c757600080fd5b505af11580156111db573d6000803e3d6000fd5b505050506040513d60208110156111f157600080fd5b8101908080519060200190929190505050905080156112c0577f267cb178779c6a6b09797e6bc54eb6236adf347c72a6e0617d58e6a6378e89e23389898989604051808673ffffffffffffffffffffffffffffffffffffffff1673ffffffffffffffffffffffffffffffffffffffff168152602001806020018460ff1660ff1681526020018381526020018281038252868682818152602001925080828437600081840152601f19601f820116905080830192505050965050505050505060405180910390a18093505061132e565b6040517f08c379a000000000000000000000000000000000000000000000000000000000815260040180806020018281038252600d8152602001807f496e636f7272656374206265740000000000000000000000000000000000000081525060200191505060405180910390fd5b5050949350505050565b600160049054906101000a900473ffffffffffffffffffffffffffffffffffffffff1673ffffffffffffffffffffffffffffffffffffffff163373ffffffffffffffffffffffffffffffffffffffff16146113de576040517f08c379a00000000000000000000000000000000000000000000000000000000081526004018080602001828103825260268152602001806123096026913960400191505060405180910390fd5b600073ffffffffffffffffffffffffffffffffffffffff16600160049054906101000a900473ffffffffffffffffffffffffffffffffffffffff1673ffffffffffffffffffffffffffffffffffffffff167f8be0079c531659141344cd1fd0a4f28419497f9722a3daafe3b4186f6b6457e060405160405180910390a36000600160046101000a81548173ffffffffffffffffffffffffffffffffffffffff021916908373ffffffffffffffffffffffffffffffffffffffff160217905550565b600160009054906101000a900461ffff1681565b600160049054906101000a900473ffffffffffffffffffffffffffffffffffffffff1673ffffffffffffffffffffffffffffffffffffffff163373ffffffffffffffffffffffffffffffffffffffff1614611559576040517f08c379a00000000000000000000000000000000000000000000000000000000081526004018080602001828103825260268152602001806123096026913960400191505060405180910390fd5b6000309050818173ffffffffffffffffffffffffffffffffffffffff163110156115eb576040517f08c379a00000000000000000000000000000000000000000000000000000000081526004018080602001828103825260128152602001807f4e6f7420656e6f7567682062616c616e6365000000000000000000000000000081525060200191505060405180910390fd5b3373ffffffffffffffffffffffffffffffffffffffff166108fc839081150290604051600060405180830381858888f19350505050158015611631573d6000803e3d6000fd5b505050565b600160049054906101000a900473ffffffffffffffffffffffffffffffffffffffff1673ffffffffffffffffffffffffffffffffffffffff163373ffffffffffffffffffffffffffffffffffffffff16146116dc576040517f08c379a00000000000000000000000000000000000000000000000000000000081526004018080602001828103825260268152602001806123096026913960400191505060405180910390fd5b60003411611752576040517f08c379a00000000000000000000000000000000000000000000000000000000081526004018080602001828103825260138152602001807f4e6f2066756e6473207472616e7366657265640000000000000000000000000081525060200191505060405180910390fd5b565b6000600160049054906101000a900473ffffffffffffffffffffffffffffffffffffffff16905090565b6000600160049054906101000a900473ffffffffffffffffffffffffffffffffffffffff1673ffffffffffffffffffffffffffffffffffffffff163373ffffffffffffffffffffffffffffffffffffffff1614905090565b6000600660003373ffffffffffffffffffffffffffffffffffffffff1673ffffffffffffffffffffffffffffffffffffffff16815260200190815260200160002054905090565b600080600073ffffffffffffffffffffffffffffffffffffffff16600360003373ffffffffffffffffffffffffffffffffffffffff1673ffffffffffffffffffffffffffffffffffffffff16815260200190815260200160002060009054906101000a900473ffffffffffffffffffffffffffffffffffffffff1673ffffffffffffffffffffffffffffffffffffffff161415611922576040517f08c379a000000000000000000000000000000000000000000000000000000000815260040180806020018281038252601c8152602001807f5468657265206973206e6f2063757272656e742067616d65207365740000000081525060200191505060405180910390fd5b600080600360003373ffffffffffffffffffffffffffffffffffffffff1673ffffffffffffffffffffffffffffffffffffffff16815260200190815260200160002060009054906101000a900473ffffffffffffffffffffffffffffffffffffffff1673ffffffffffffffffffffffffffffffffffffffff1663e492814f336040518263ffffffff1660e01b8152600401808273ffffffffffffffffffffffffffffffffffffffff1673ffffffffffffffffffffffffffffffffffffffff1681526020019150506040805180830381600087803b158015611a0257600080fd5b505af1158015611a16573d6000803e3d6000fd5b505050506040513d6040811015611a2c57600080fd5b810190808051906020019092919080519060200190929190505050915091507fa6a067cdc40995e0a89d03e63c485b72543d9befa19082c9cebda31b84127cb33383604051808373ffffffffffffffffffffffffffffffffffffffff1673ffffffffffffffffffffffffffffffffffffffff1681526020018260ff1660ff1681526020019250505060405180910390a16000811115611b80573373ffffffffffffffffffffffffffffffffffffffff166108fc6009546005548402039081150290604051600060405180830381858888f19350505050158015611b13573d6000803e3d6000fd5b507f83188de2cb5d7641681aae234acaeaebf71ce5a507e50690788de0f7b5e0bd3f3382604051808373ffffffffffffffffffffffffffffffffffffffff1673ffffffffffffffffffffffffffffffffffffffff1681526020018281526020019250505060405180910390a15b81819350935050509091565b60008073ffffffffffffffffffffffffffffffffffffffff16600360003373ffffffffffffffffffffffffffffffffffffffff1673ffffffffffffffffffffffffffffffffffffffff16815260200190815260200160002060009054906101000a900473ffffffffffffffffffffffffffffffffffffffff1673ffffffffffffffffffffffffffffffffffffffff161415611c8f576040517f08c379a000000000000000000000000000000000000000000000000000000000815260040180806020018281038252601c8152602001807f5468657265206973206e6f2063757272656e742067616d65207365740000000081525060200191505060405180910390fd5b6000600360003373ffffffffffffffffffffffffffffffffffffffff1673ffffffffffffffffffffffffffffffffffffffff16815260200190815260200160002060009054906101000a900473ffffffffffffffffffffffffffffffffffffffff1673ffffffffffffffffffffffffffffffffffffffff1663f74640b3336040518263ffffffff1660e01b8152600401808273ffffffffffffffffffffffffffffffffffffffff1673ffffffffffffffffffffffffffffffffffffffff168152602001915050602060405180830381600087803b158015611d6f57600080fd5b505af1158015611d83573d6000803e3d6000fd5b505050506040513d6020811015611d9957600080fd5b810190808051906020019092919050505090506000811115611e79573373ffffffffffffffffffffffffffffffffffffffff166108fc6009546005548402039081150290604051600060405180830381858888f19350505050158015611e03573d6000803e3d6000fd5b507fd4a208b1b444c7e2d115b4367a20a153a705ea4d7122c910203cdcb71ed69b1e3382604051808373ffffffffffffffffffffffffffffffffffffffff1673ffffffffffffffffffffffffffffffffffffffff1681526020018281526020019250505060405180910390a16001915050611e7f565b60009150505b90565b600160049054906101000a900473ffffffffffffffffffffffffffffffffffffffff1681565b60066020528060005260406000206000915090505481565b60076020528060005260406000206000915054906101000a900473ffffffffffffffffffffffffffffffffffffffff1681565b60008073ffffffffffffffffffffffffffffffffffffffff16600360003373ffffffffffffffffffffffffffffffffffffffff1673ffffffffffffffffffffffffffffffffffffffff16815260200190815260200160002060009054906101000a900473ffffffffffffffffffffffffffffffffffffffff1673ffffffffffffffffffffffffffffffffffffffff161415611ff6576040517f08c379a000000000000000000000000000000000000000000000000000000000815260040180806020018281038252601c8152602001807f5468657265206973206e6f2063757272656e742067616d65207365740000000081525060200191505060405180910390fd5b600360003373ffffffffffffffffffffffffffffffffffffffff1673ffffffffffffffffffffffffffffffffffffffff16815260200190815260200160002060009054906101000a900473ffffffffffffffffffffffffffffffffffffffff1673ffffffffffffffffffffffffffffffffffffffff16635cbe6c54336040518263ffffffff1660e01b8152600401808273ffffffffffffffffffffffffffffffffffffffff1673ffffffffffffffffffffffffffffffffffffffff16815260200191505060206040518083038186803b1580156120d257600080fd5b505afa1580156120e6573d6000803e3d6000fd5b505050506040513d60208110156120fc57600080fd5b8101908080519060200190929190505050905090565b60036020528060005260406000206000915054906101000a900473ffffffffffffffffffffffffffffffffffffffff1681565b600160049054906101000a900473ffffffffffffffffffffffffffffffffffffffff1673ffffffffffffffffffffffffffffffffffffffff163373ffffffffffffffffffffffffffffffffffffffff16146121eb576040517f08c379a00000000000000000000000000000000000000000000000000000000081526004018080602001828103825260268152602001806123096026913960400191505060405180910390fd5b6121f48161220e565b50565b60008282111561220357fe5b818303905092915050565b600073ffffffffffffffffffffffffffffffffffffffff168173ffffffffffffffffffffffffffffffffffffffff16141561224857600080fd5b8073ffffffffffffffffffffffffffffffffffffffff16600160049054906101000a900473ffffffffffffffffffffffffffffffffffffffff1673ffffffffffffffffffffffffffffffffffffffff167f8be0079c531659141344cd1fd0a4f28419497f9722a3daafe3b4186f6b6457e060405160405180910390a380600160046101000a81548173ffffffffffffffffffffffffffffffffffffffff021916908373ffffffffffffffffffffffffffffffffffffffff1602179055505056fe596f7520617265206e6f7420746865206f776e6572206f66207468697320636f6e7472616374a265627a7a723158206296c6e7494eeb7a2a72a8bc57774d5c7b2d0a0325a2defc8e611fcf07415e2064736f6c634300051000326080604052600080556103e8600160006101000a81548161ffff021916908361ffff16021790555060018060026101000a81548161ffff021916908361ffff160217905550600660035533600160046101000a81548173ffffffffffffffffffffffffffffffffffffffff021916908373ffffffffffffffffffffffffffffffffffffffff160217905550600160049054906101000a900473ffffffffffffffffffffffffffffffffffffffff1673ffffffffffffffffffffffffffffffffffffffff16600073ffffffffffffffffffffffffffffffffffffffff167f8be0079c531659141344cd1fd0a4f28419497f9722a3daafe3b4186f6b6457e060405160405180910390a36112d2806101166000396000f3fe608060405234801561001057600080fd5b50600436106100a95760003560e01c80638da5cb5b116100715780638da5cb5b146102285780638f32d59b14610272578063b2bdfa7b14610294578063e492814f146102de578063f2fde38b14610343578063f74640b314610387576100a9565b806332994a27146100ae5780635cbe6c54146100d457806362127da814610130578063715018a6146101f85780637579000b14610202575b600080fd5b6100b66103df565b604051808261ffff1661ffff16815260200191505060405180910390f35b610116600480360360208110156100ea57600080fd5b81019080803573ffffffffffffffffffffffffffffffffffffffff1690602001909291905050506103f3565b604051808215151515815260200191505060405180910390f35b6101de6004803603608081101561014657600080fd5b81019080803573ffffffffffffffffffffffffffffffffffffffff1690602001909291908035906020019064010000000081111561018357600080fd5b82018360208201111561019557600080fd5b803590602001918460018302840111640100000000831117156101b757600080fd5b9091929391929390803560ff169060200190929190803590602001909291905050506104f2565b604051808215151515815260200191505060405180910390f35b6102006108b1565b005b61020a610a18565b604051808261ffff1661ffff16815260200191505060405180910390f35b610230610a2c565b604051808273ffffffffffffffffffffffffffffffffffffffff1673ffffffffffffffffffffffffffffffffffffffff16815260200191505060405180910390f35b61027a610a56565b604051808215151515815260200191505060405180910390f35b61029c610aae565b604051808273ffffffffffffffffffffffffffffffffffffffff1673ffffffffffffffffffffffffffffffffffffffff16815260200191505060405180910390f35b610320600480360360208110156102f457600080fd5b81019080803573ffffffffffffffffffffffffffffffffffffffff169060200190929190505050610ad4565b604051808360ff1660ff1681526020018281526020019250505060405180910390f35b6103856004803603602081101561035957600080fd5b81019080803573ffffffffffffffffffffffffffffffffffffffff169060200190929190505050610d78565b005b6103c96004803603602081101561039d57600080fd5b81019080803573ffffffffffffffffffffffffffffffffffffffff169060200190929190505050610e2a565b6040518082815260200191505060405180910390f35b600160029054906101000a900461ffff1681565b6000600160049054906101000a900473ffffffffffffffffffffffffffffffffffffffff1673ffffffffffffffffffffffffffffffffffffffff163373ffffffffffffffffffffffffffffffffffffffff161461049b576040517f08c379a00000000000000000000000000000000000000000000000000000000081526004018080602001828103825260268152602001806112786026913960400191505060405180910390fd5b600260008373ffffffffffffffffffffffffffffffffffffffff1673ffffffffffffffffffffffffffffffffffffffff16815260200190815260200160002060000160009054906101000a900460ff169050919050565b6000600160049054906101000a900473ffffffffffffffffffffffffffffffffffffffff1673ffffffffffffffffffffffffffffffffffffffff163373ffffffffffffffffffffffffffffffffffffffff161461059a576040517f08c379a00000000000000000000000000000000000000000000000000000000081526004018080602001828103825260268152602001806112786026913960400191505060405180910390fd5b600260008773ffffffffffffffffffffffffffffffffffffffff1673ffffffffffffffffffffffffffffffffffffffff16815260200190815260200160002060000160009054906101000a900460ff166000151581151514610664576040517f08c379a000000000000000000000000000000000000000000000000000000000815260040180806020018281038252601c8152602001807f546865726520697320616c72656164792061206265742072656164790000000081525060200191505060405180910390fd5b60028460ff1610156106de576040517f08c379a000000000000000000000000000000000000000000000000000000000815260040180806020018281038252601c8152602001807f426574206d757374206265206265747765656e203220616e642031320000000081525060200191505060405180910390fd5b600c8460ff161115610758576040517f08c379a000000000000000000000000000000000000000000000000000000000815260040180806020018281038252601c8152602001807f426574206d757374206265206265747765656e203220616e642031320000000081525060200191505060405180910390fd5b83600260008973ffffffffffffffffffffffffffffffffffffffff1673ffffffffffffffffffffffffffffffffffffffff16815260200190815260200160002060020160006101000a81548160ff021916908360ff1602179055506001600260008973ffffffffffffffffffffffffffffffffffffffff1673ffffffffffffffffffffffffffffffffffffffff16815260200190815260200160002060000160006101000a81548160ff02191690831515021790555082600260008973ffffffffffffffffffffffffffffffffffffffff1673ffffffffffffffffffffffffffffffffffffffff16815260200190815260200160002060010181905550600260008873ffffffffffffffffffffffffffffffffffffffff1673ffffffffffffffffffffffffffffffffffffffff16815260200190815260200160002060000160009054906101000a900460ff1691505095945050505050565b600160049054906101000a900473ffffffffffffffffffffffffffffffffffffffff1673ffffffffffffffffffffffffffffffffffffffff163373ffffffffffffffffffffffffffffffffffffffff1614610957576040517f08c379a00000000000000000000000000000000000000000000000000000000081526004018080602001828103825260268152602001806112786026913960400191505060405180910390fd5b600073ffffffffffffffffffffffffffffffffffffffff16600160049054906101000a900473ffffffffffffffffffffffffffffffffffffffff1673ffffffffffffffffffffffffffffffffffffffff167f8be0079c531659141344cd1fd0a4f28419497f9722a3daafe3b4186f6b6457e060405160405180910390a36000600160046101000a81548173ffffffffffffffffffffffffffffffffffffffff021916908373ffffffffffffffffffffffffffffffffffffffff160217905550565b600160009054906101000a900461ffff1681565b6000600160049054906101000a900473ffffffffffffffffffffffffffffffffffffffff16905090565b6000600160049054906101000a900473ffffffffffffffffffffffffffffffffffffffff1673ffffffffffffffffffffffffffffffffffffffff163373ffffffffffffffffffffffffffffffffffffffff1614905090565b600160049054906101000a900473ffffffffffffffffffffffffffffffffffffffff1681565b600080600160049054906101000a900473ffffffffffffffffffffffffffffffffffffffff1673ffffffffffffffffffffffffffffffffffffffff163373ffffffffffffffffffffffffffffffffffffffff1614610b7d576040517f08c379a00000000000000000000000000000000000000000000000000000000081526004018080602001828103825260268152602001806112786026913960400191505060405180910390fd5b600260008473ffffffffffffffffffffffffffffffffffffffff1673ffffffffffffffffffffffffffffffffffffffff16815260200190815260200160002060000160009054906101000a900460ff166001151581151514610c47576040517f08c379a000000000000000000000000000000000000000000000000000000000815260040180806020018281038252601e8152602001807f596f75206e65656420746f20626574206265666f726520706c6179696e67000081525060200191505060405180910390fd5b6000610c51611042565b90506000809050600260008773ffffffffffffffffffffffffffffffffffffffff1673ffffffffffffffffffffffffffffffffffffffff16815260200190815260200160002060020160009054906101000a900460ff1660ff168260ff161415610d0f57610d0c600354600260008973ffffffffffffffffffffffffffffffffffffffff1673ffffffffffffffffffffffffffffffffffffffff1681526020019081526020016000206001015461107890919063ffffffff16565b90505b6000600260008873ffffffffffffffffffffffffffffffffffffffff1673ffffffffffffffffffffffffffffffffffffffff16815260200190815260200160002060000160006101000a81548160ff021916908315150217905550818194509450505050915091565b600160049054906101000a900473ffffffffffffffffffffffffffffffffffffffff1673ffffffffffffffffffffffffffffffffffffffff163373ffffffffffffffffffffffffffffffffffffffff1614610e1e576040517f08c379a00000000000000000000000000000000000000000000000000000000081526004018080602001828103825260268152602001806112786026913960400191505060405180910390fd5b610e27816110af565b50565b6000600160049054906101000a900473ffffffffffffffffffffffffffffffffffffffff1673ffffffffffffffffffffffffffffffffffffffff163373ffffffffffffffffffffffffffffffffffffffff1614610ed2576040517f08c379a00000000000000000000000000000000000000000000000000000000081526004018080602001828103825260268152602001806112786026913960400191505060405180910390fd5b600260008373ffffffffffffffffffffffffffffffffffffffff1673ffffffffffffffffffffffffffffffffffffffff16815260200190815260200160002060000160009054906101000a900460ff166001151581151514610f9c576040517f08c379a000000000000000000000000000000000000000000000000000000000815260040180806020018281038252601e8152602001807f596f75206e65656420746f20626574206265666f726520706c6179696e67000081525060200191505060405180910390fd5b6000600260008573ffffffffffffffffffffffffffffffffffffffff1673ffffffffffffffffffffffffffffffffffffffff16815260200190815260200160002060000160006101000a81548160ff021916908315150217905550600260008473ffffffffffffffffffffffffffffffffffffffff1673ffffffffffffffffffffffffffffffffffffffff16815260200190815260200160002060010154915050919050565b6000611073611053600160066111a9565b60ff16611062600160066111a9565b60ff1661125b90919063ffffffff16565b905090565b60008083141561108b57600090506110a9565b600082840290508284828161109c57fe5b04146110a457fe5b809150505b92915050565b600073ffffffffffffffffffffffffffffffffffffffff168173ffffffffffffffffffffffffffffffffffffffff1614156110e957600080fd5b8073ffffffffffffffffffffffffffffffffffffffff16600160049054906101000a900473ffffffffffffffffffffffffffffffffffffffff1673ffffffffffffffffffffffffffffffffffffffff167f8be0079c531659141344cd1fd0a4f28419497f9722a3daafe3b4186f6b6457e060405160405180910390a380600160046101000a81548173ffffffffffffffffffffffffffffffffffffffff021916908373ffffffffffffffffffffffffffffffffffffffff16021790555050565b60006111c1600160005461125b90919063ffffffff16565b6000819055506112538360ff168360ff164233600054604051602001808481526020018373ffffffffffffffffffffffffffffffffffffffff1673ffffffffffffffffffffffffffffffffffffffff1660601b815260140182815260200193505050506040516020818303038152906040528051906020012060001c8161124457fe5b0661125b90919063ffffffff16565b905092915050565b60008082840190508381101561126d57fe5b809150509291505056fe596f7520617265206e6f7420746865206f776e6572206f66207468697320636f6e7472616374a265627a7a723158202aaa4c54fae50bc17af9251e3709257bb061cef6c19d34d5f9f7a4eebf834e8864736f6c634300051000326080604052600080556103e8600160006101000a81548161ffff021916908361ffff16021790555060018060026101000a81548161ffff021916908361ffff160217905550604051806104800160405280600115151515815260200160001515151581526020016001151515158152602001600015151515815260200160011515151581526020016000151515158152602001600115151515815260200160001515151581526020016001151515158152602001600015151515815260200160001515151581526020016001151515158152602001600015151515815260200160011515151581526020016000151515158152602001600115151515815260200160001515151581526020016001151515158152602001600115151515815260200160001515151581526020016001151515158152602001600015151515815260200160011515151581526020016000151515158152602001600115151515815260200160001515151581526020016001151515158152602001600015151515815260200160001515151581526020016001151515158152602001600015151515815260200160011515151581526020016000151515158152602001600115151515815260200160001515151581526020016001151515158152506003906024620001ec929190620002b1565b5033600160046101000a81548173ffffffffffffffffffffffffffffffffffffffff021916908373ffffffffffffffffffffffffffffffffffffffff160217905550600160049054906101000a900473ffffffffffffffffffffffffffffffffffffffff1673ffffffffffffffffffffffffffffffffffffffff16600073ffffffffffffffffffffffffffffffffffffffff167f8be0079c531659141344cd1fd0a4f28419497f9722a3daafe3b4186f6b6457e060405160405180910390a362000384565b826024601f016020900481019282156200033e5791602002820160005b838211156200030d57835183826101000a81548160ff0219169083151502179055509260200192600101602081600001049283019260010302620002ce565b80156200033c5782816101000a81549060ff02191690556001016020816000010492830192600103026200030d565b505b5090506200034d919062000351565b5090565b6200038191905b808211156200037d57600081816101000a81549060ff02191690555060010162000358565b5090565b90565b6122a280620003946000396000f3fe608060405234801561001057600080fd5b50600436106100a95760003560e01c80638da5cb5b116100715780638da5cb5b146102285780638f32d59b14610272578063b2bdfa7b14610294578063e492814f146102de578063f2fde38b14610343578063f74640b314610387576100a9565b806332994a27146100ae5780635cbe6c54146100d457806362127da814610130578063715018a6146101f85780637579000b14610202575b600080fd5b6100b66103df565b604051808261ffff1661ffff16815260200191505060405180910390f35b610116600480360360208110156100ea57600080fd5b81019080803573ffffffffffffffffffffffffffffffffffffffff1690602001909291905050506103f3565b604051808215151515815260200191505060405180910390f35b6101de6004803603608081101561014657600080fd5b81019080803573ffffffffffffffffffffffffffffffffffffffff1690602001909291908035906020019064010000000081111561018357600080fd5b82018360208201111561019557600080fd5b803590602001918460018302840111640100000000831117156101b757600080fd5b9091929391929390803560ff169060200190929190803590602001909291905050506104f9565b604051808215151515815260200191505060405180910390f35b610200611338565b005b61020a61149f565b604051808261ffff1661ffff16815260200191505060405180910390f35b6102306114b3565b604051808273ffffffffffffffffffffffffffffffffffffffff1673ffffffffffffffffffffffffffffffffffffffff16815260200191505060405180910390f35b61027a6114dd565b604051808215151515815260200191505060405180910390f35b61029c611535565b604051808273ffffffffffffffffffffffffffffffffffffffff1673ffffffffffffffffffffffffffffffffffffffff16815260200191505060405180910390f35b610320600480360360208110156102f457600080fd5b81019080803573ffffffffffffffffffffffffffffffffffffffff16906020019092919050505061155b565b604051808360ff1660ff1681526020018281526020019250505060405180910390f35b6103856004803603602081101561035957600080fd5b81019080803573ffffffffffffffffffffffffffffffffffffffff169060200190929190505050611d6b565b005b6103c96004803603602081101561039d57600080fd5b81019080803573ffffffffffffffffffffffffffffffffffffffff169060200190929190505050611e1d565b6040518082815260200191505060405180910390f35b600160029054906101000a900461ffff1681565b6000600160049054906101000a900473ffffffffffffffffffffffffffffffffffffffff1673ffffffffffffffffffffffffffffffffffffffff163373ffffffffffffffffffffffffffffffffffffffff161461049b576040517f08c379a00000000000000000000000000000000000000000000000000000000081526004018080602001828103825260268152602001806122486026913960400191505060405180910390fd5b6000600260008473ffffffffffffffffffffffffffffffffffffffff1673ffffffffffffffffffffffffffffffffffffffff16815260200190815260200160002060010160009054906101000a900460ff1660ff1614159050919050565b6000600160049054906101000a900473ffffffffffffffffffffffffffffffffffffffff1673ffffffffffffffffffffffffffffffffffffffff163373ffffffffffffffffffffffffffffffffffffffff16146105a1576040517f08c379a00000000000000000000000000000000000000000000000000000000081526004018080602001828103825260268152602001806122486026913960400191505060405180910390fd5b6000600260008873ffffffffffffffffffffffffffffffffffffffff1673ffffffffffffffffffffffffffffffffffffffff16815260200190815260200160002060010160009054906101000a900460ff1660ff1614156000151581151514610672576040517f08c379a000000000000000000000000000000000000000000000000000000000815260040180806020018281038252601c8152602001807f546865726520697320616c72656164792061206265742072656164790000000081525060200191505060405180910390fd5b600080905060008090506106ff88888080601f016020809104026020016040519081016040528093929190818152602001838380828437600081840152601f19601f820116905080830192505050505050506040518060400160405280600681526020017f53696e676c65000000000000000000000000000000000000000000000000000081525061203d565b15610731578560ff1660001115801561071c575060248660ff1611155b1561072c57600191508560ff1690505b6111b0565b6107b488888080601f016020809104026020016040519081016040528093929190818152602001838380828437600081840152601f19601f820116905080830192505050505050506040518060400160405280601081526020017f486f72697a6f6e74616c2073706c69740000000000000000000000000000000081525061203d565b15610828578560ff166001111580156107d1575060238660ff1611155b80156107ee5750600060038760ff16816107e757fe5b0660ff1614155b15610823576002915060036001870360ff168161080757fe5b0660036001880360ff168161081857fe5b046002020160ff1690505b6111af565b6108ab88888080601f016020809104026020016040519081016040528093929190818152602001838380828437600081840152601f19601f820116905080830192505050505050506040518060400160405280600e81526020017f566572746963616c2073706c697400000000000000000000000000000000000081525061203d565b156108e0578560ff166001111580156108c8575060218660ff1611155b156108db57600291508560170160ff1690505b6111ae565b61096388888080601f016020809104026020016040519081016040528093929190818152602001838380828437600081840152601f19601f820116905080830192505050505050506040518060400160405280600681526020017f537472656574000000000000000000000000000000000000000000000000000081525061203d565b15610998578560ff166001111580156109805750600c8660ff1611155b1561099357600391506001860360ff1690505b6111ad565b610a1b88888080601f016020809104026020016040519081016040528093929190818152602001838380828437600081840152601f19601f820116905080830192505050505050506040518060400160405280600681526020017f537175617265000000000000000000000000000000000000000000000000000081525061203d565b15610a8f578560ff16600111158015610a38575060208660ff1611155b8015610a555750600060038760ff1681610a4e57fe5b0660ff1614155b15610a8a576004915060036001870360ff1681610a6e57fe5b0660036001880360ff1681610a7f57fe5b046002020160ff1690505b6111ac565b610b1288888080601f016020809104026020016040519081016040528093929190818152602001838380828437600081840152601f19601f820116905080830192505050505050506040518060400160405280600d81526020017f446f75626c65207374726565740000000000000000000000000000000000000081525061203d565b15610b47578560ff16600111158015610b2f5750600b8660ff1611155b15610b4257600691506001860360ff1690505b6111ab565b610bca88888080601f016020809104026020016040519081016040528093929190818152602001838380828437600081840152601f19601f820116905080830192505050505050506040518060400160405280600681526020017f436f6c756d6e000000000000000000000000000000000000000000000000000081525061203d565b15610bff578560ff16600111158015610be7575060038660ff1611155b15610bfa57600c91506001860360ff1690505b6111aa565b610c8288888080601f016020809104026020016040519081016040528093929190818152602001838380828437600081840152601f19601f820116905080830192505050505050506040518060400160405280600581526020017f446f7a656e00000000000000000000000000000000000000000000000000000081525061203d565b15610cb7578560ff16600111158015610c9f575060038660ff1611155b15610cb257600c91508560020160ff1690505b6111a9565b610d3a88888080601f016020809104026020016040519081016040528093929190818152602001838380828437600081840152601f19601f820116905080830192505050505050506040518060400160405280600381526020017f4c6f77000000000000000000000000000000000000000000000000000000000081525061203d565b15610d4c5760129150600090506111a8565b610dcf88888080601f016020809104026020016040519081016040528093929190818152602001838380828437600081840152601f19601f820116905080830192505050505050506040518060400160405280600481526020017f486967680000000000000000000000000000000000000000000000000000000081525061203d565b15610de15760129150600190506111a7565b610e6488888080601f016020809104026020016040519081016040528093929190818152602001838380828437600081840152601f19601f820116905080830192505050505050506040518060400160405280600381526020017f526564000000000000000000000000000000000000000000000000000000000081525061203d565b15610e765760129150600290506111a6565b610ef988888080601f016020809104026020016040519081016040528093929190818152602001838380828437600081840152601f19601f820116905080830192505050505050506040518060400160405280600581526020017f426c61636b00000000000000000000000000000000000000000000000000000081525061203d565b15610f0b5760129150600390506111a5565b610f8e88888080601f016020809104026020016040519081016040528093929190818152602001838380828437600081840152601f19601f820116905080830192505050505050506040518060400160405280600481526020017f4576656e0000000000000000000000000000000000000000000000000000000081525061203d565b15610fa05760129150600490506111a4565b61102388888080601f016020809104026020016040519081016040528093929190818152602001838380828437600081840152601f19601f820116905080830192505050505050506040518060400160405280600381526020017f4f6464000000000000000000000000000000000000000000000000000000000081525061203d565b156110355760129150600590506111a3565b6110b888888080601f016020809104026020016040519081016040528093929190818152602001838380828437600081840152601f19601f820116905080830192505050505050506040518060400160405280600d81526020017f446f75626c6520636f6c756d6e0000000000000000000000000000000000000081525061203d565b156110ed578560ff166001111580156110d5575060028660ff1611155b156110e857601891506001860360ff1690505b6111a2565b61117088888080601f016020809104026020016040519081016040528093929190818152602001838380828437600081840152601f19601f820116905080830192505050505050506040518060400160405280600c81526020017f446f75626c6520646f7a656e000000000000000000000000000000000000000081525061203d565b156111a1578560ff1660011115801561118d575060028660ff1611155b156111a057601891508560010160ff1690505b5b5b5b5b5b5b5b5b5b5b5b5b5b5b5b5b60008083141590508061122b576040517f08c379a00000000000000000000000000000000000000000000000000000000081526004018080602001828103825260138152602001807f496e76616c69642074797065206f66206265740000000000000000000000000081525060200191505060405180910390fd5b85600260008c73ffffffffffffffffffffffffffffffffffffffff1673ffffffffffffffffffffffffffffffffffffffff1681526020019081526020016000206000018190555082600260008c73ffffffffffffffffffffffffffffffffffffffff1673ffffffffffffffffffffffffffffffffffffffff16815260200190815260200160002060010160006101000a81548160ff021916908360ff16021790555081600260008c73ffffffffffffffffffffffffffffffffffffffff1673ffffffffffffffffffffffffffffffffffffffff16815260200190815260200160002060010160016101000a81548160ff021916908360ff1602179055508094505050505095945050505050565b600160049054906101000a900473ffffffffffffffffffffffffffffffffffffffff1673ffffffffffffffffffffffffffffffffffffffff163373ffffffffffffffffffffffffffffffffffffffff16146113de576040517f08c379a00000000000000000000000000000000000000000000000000000000081526004018080602001828103825260268152602001806122486026913960400191505060405180910390fd5b600073ffffffffffffffffffffffffffffffffffffffff16600160049054906101000a900473ffffffffffffffffffffffffffffffffffffffff1673ffffffffffffffffffffffffffffffffffffffff167f8be0079c531659141344cd1fd0a4f28419497f9722a3daafe3b4186f6b6457e060405160405180910390a36000600160046101000a81548173ffffffffffffffffffffffffffffffffffffffff021916908373ffffffffffffffffffffffffffffffffffffffff160217905550565b600160009054906101000a900461ffff1681565b6000600160049054906101000a900473ffffffffffffffffffffffffffffffffffffffff16905090565b6000600160049054906101000a900473ffffffffffffffffffffffffffffffffffffffff1673ffffffffffffffffffffffffffffffffffffffff163373ffffffffffffffffffffffffffffffffffffffff1614905090565b600160049054906101000a900473ffffffffffffffffffffffffffffffffffffffff1681565b600080600160049054906101000a900473ffffffffffffffffffffffffffffffffffffffff1673ffffffffffffffffffffffffffffffffffffffff163373ffffffffffffffffffffffffffffffffffffffff1614611604576040517f08c379a00000000000000000000000000000000000000000000000000000000081526004018080602001828103825260268152602001806122486026913960400191505060405180910390fd5b6000600260008573ffffffffffffffffffffffffffffffffffffffff1673ffffffffffffffffffffffffffffffffffffffff16815260200190815260200160002060010160009054906101000a900460ff1660ff16141560011515811515146116d5576040517f08c379a000000000000000000000000000000000000000000000000000000000815260040180806020018281038252601e8152602001807f596f75206e65656420746f20626574206265666f726520706c6179696e67000081525060200191505060405180910390fd5b60006116e360006024612058565b905060008090506116f2612220565b600260008873ffffffffffffffffffffffffffffffffffffffff1673ffffffffffffffffffffffffffffffffffffffff168152602001908152602001600020604051806060016040529081600082015481526020016001820160009054906101000a900460ff1660ff1660ff1681526020016001820160019054906101000a900460ff1660ff1660ff168152505090506001816020015160ff1614156117ae57806040015160ff168360ff1614156117a957600191505b611c98565b6002816020015160ff161415611861576017816040015160ff161161182857600060016002836040015160ff16816117e257fe5b066002846040015160ff16816117f457fe5b04600302010190508060ff168460ff16148061181857506001810160ff168460ff16145b1561182257600192505b5061185c565b6000601782604001510390508060ff168460ff16148061185057506003810160ff168460ff16145b1561185a57600192505b505b611c97565b6003816020015160ff1614156118c2576000600182604001516003020190508360ff168160ff161115801561189f57506001810160ff168460ff1611155b806118b257506002810160ff168460ff16145b156118bc57600192505b50611c96565b6004816020015160ff16141561195357600060016002836040015160ff16816118e757fe5b066002846040015160ff16816118f957fe5b04600302010190508060ff168460ff16148061191d57506001810160ff168460ff16145b8061193057506003810160ff168460ff16145b8061194357506004810160ff168460ff16145b1561194d57600192505b50611c95565b6006816020015160ff1614156119c157600060016002836040015160ff168161197857fe5b066002846040015160ff168161198a57fe5b04600302010190508360ff168160ff16111580156119b157506006810160ff168460ff1611155b156119bb57600192505b50611c94565b600c816020015160ff161415611a4f576002816040015160ff1611611a0c57806040015160ff1660036001850360ff16816119f857fe5b0660ff161415611a0757600191505b611a4a565b8260ff166001600c6003846040015103020160ff1611158015611a3f5750600c60028260400151030260ff168360ff1611155b15611a4957600191505b5b611c93565b6012816020015160ff161415611bea576000816040015160ff161415611a96578260ff16600111158015611a87575060128360ff1611155b15611a9157600191505b611be5565b6001816040015160ff161415611acd578260ff16601311158015611abe575060248360ff1611155b15611ac857600191505b611be4565b6002816040015160ff161415611b255760008360ff1614158015611b16575060036001840360ff1660248110611aff57fe5b602091828204019190069054906101000a900460ff165b15611b2057600191505b611be3565b6003816040015160ff161415611b7e5760008360ff1614158015611b6f575060036001840360ff1660248110611b5757fe5b602091828204019190069054906101000a900460ff16155b15611b7957600191505b611be2565b6004816040015160ff161415611bb157600060028460ff1681611b9d57fe5b0660ff161415611bac57600191505b611be1565b6005816040015160ff161415611be057600160028460ff1681611bd057fe5b0660ff161415611bdf57600191505b5b5b5b5b5b5b611c92565b6018816020015160ff161415611c91576001816040015160ff1611611c5257600060036001850360ff1681611c1b57fe5b069050816040015160ff168160ff161480611c425750600182604001510160ff168160ff16145b15611c4c57600192505b50611c90565b8260ff166001600c6001846040015103020160ff1611158015611c855750600c60018260400151010260ff168360ff1611155b15611c8f57600191505b5b5b5b5b5b5b5b5b5b6000600260008973ffffffffffffffffffffffffffffffffffffffff1673ffffffffffffffffffffffffffffffffffffffff16815260200190815260200160002060010160006101000a81548160ff021916908360ff1602179055508115611d57576000816020015160ff16602481611d0d57fe5b0460ff168260000151029050816020015160ff168260000151836020015160ff16602481611d3757fe5b0660ff160281611d4357fe5b048101905083819650965050505050611d65565b826000809050955095505050505b50915091565b600160049054906101000a900473ffffffffffffffffffffffffffffffffffffffff1673ffffffffffffffffffffffffffffffffffffffff163373ffffffffffffffffffffffffffffffffffffffff1614611e11576040517f08c379a00000000000000000000000000000000000000000000000000000000081526004018080602001828103825260268152602001806122486026913960400191505060405180910390fd5b611e1a8161210a565b50565b6000600160049054906101000a900473ffffffffffffffffffffffffffffffffffffffff1673ffffffffffffffffffffffffffffffffffffffff163373ffffffffffffffffffffffffffffffffffffffff1614611ec5576040517f08c379a00000000000000000000000000000000000000000000000000000000081526004018080602001828103825260268152602001806122486026913960400191505060405180910390fd5b6000600260008473ffffffffffffffffffffffffffffffffffffffff1673ffffffffffffffffffffffffffffffffffffffff16815260200190815260200160002060010160009054906101000a900460ff1660ff1614156001151581151514611f96576040517f08c379a000000000000000000000000000000000000000000000000000000000815260040180806020018281038252601e8152602001807f596f75206e65656420746f20626574206265666f726520706c6179696e67000081525060200191505060405180910390fd5b6000600260008573ffffffffffffffffffffffffffffffffffffffff1673ffffffffffffffffffffffffffffffffffffffff16815260200190815260200160002060010160006101000a81548160ff021916908360ff160217905550600260008473ffffffffffffffffffffffffffffffffffffffff1673ffffffffffffffffffffffffffffffffffffffff16815260200190815260200160002060000154915050919050565b60008180519060200120838051906020012014905092915050565b6000612070600160005461220490919063ffffffff16565b6000819055506121028360ff168360ff164233600054604051602001808481526020018373ffffffffffffffffffffffffffffffffffffffff1673ffffffffffffffffffffffffffffffffffffffff1660601b815260140182815260200193505050506040516020818303038152906040528051906020012060001c816120f357fe5b0661220490919063ffffffff16565b905092915050565b600073ffffffffffffffffffffffffffffffffffffffff168173ffffffffffffffffffffffffffffffffffffffff16141561214457600080fd5b8073ffffffffffffffffffffffffffffffffffffffff16600160049054906101000a900473ffffffffffffffffffffffffffffffffffffffff1673ffffffffffffffffffffffffffffffffffffffff167f8be0079c531659141344cd1fd0a4f28419497f9722a3daafe3b4186f6b6457e060405160405180910390a380600160046101000a81548173ffffffffffffffffffffffffffffffffffffffff021916908373ffffffffffffffffffffffffffffffffffffffff16021790555050565b60008082840190508381101561221657fe5b8091505092915050565b604051806060016040528060008152602001600060ff168152602001600060ff168152509056fe596f7520617265206e6f7420746865206f776e6572206f66207468697320636f6e7472616374a265627a7a723158205218b6d152a2f7f4f3ae9118ae0ab59485bd0fc98128819c03ec67337b65af2164736f6c63430005100032",
  "source": "pragma solidity ^0.5.0;\n\nimport \"./lib/SafeMath.sol\";\nimport \"./lib/Ownable.sol\";\nimport \"./games/Game.sol\";\nimport \"./games/Dice.sol\";\nimport \"./games/Roulette.sol\";\nimport \"./Utility.sol\";\n\ncontract Casino is Utility, Ownable{ //Ownable allows using onlyOwner modifier so we can make admin functions\n\n\tusing SafeMath for uint256; //Using SafeMath lib to avoid overflow errors\n\tusing SafeMath for uint8;\n\n\tGame[] games;\n\tmapping (address => Game) public gamesMap; //address : currentPlayer ; Game : Dice or Roulette contract\n\n\tuint tokenId;\n\tuint tokenPrice = 0.1 ether;\n\tmapping (address => uint) public ownerTokenCount; //address : currentPlayer ; uint : nb tokens\n\tmapping (uint => address) public tokensToOwner; // uint : tokenID ; address : currentPlayer\n\tuint[] public tokens;\n\tevent EventTokenBought(address player, uint tokenBought);\n\tuint gasFee = 0.001 ether;\n\n\t//the player has set the game\n\tevent EventGameSet(address player, uint gameType);\n\t//the player has bet\n\tevent EventBet(address player , string betInfo, uint8 bet, uint256 money);\n\t//the player has played and got this result\n\tevent EventResult(address player, uint8 result);\n\t//current player's bet has been canceled, this amount of money has been sent back\n\tevent EventCancelBet(address player, uint256 amount);\n\t//player won money\n\tevent EventPlayerReceives(address player, uint256 amount);\n\n\t//Constructor\n\tconstructor() public{\n\t\tgames.push(new Dice());\n\t\tgames.push(new Roulette());\n\t}\n\n\t//Modifiers\n\tmodifier isGameSet(){\n\t\trequire(address(gamesMap[msg.sender]) != address(0), \"There is no current game set\");\n\t\t_;\n\t}\n\n\t//Get number of tokens of the user\n\tfunction getNbTokensOf() external view returns(uint){\n\t\treturn ownerTokenCount[msg.sender];\n\t}\n\n\t//Get casino custom tokens\n\tfunction buyCasitokens(uint nbtok) external payable isEnoughMoneyAndToken(msg.value, nbtok, tokenPrice) returns(uint){\n\t\t//Checks if the user bought minimum one token and the amount he paid is enough\n\t\trequire(nbtok > 1 && (msg.value >= (tokenPrice * nbtok)), \"Invalid ether or token number\"); \n\t\tif(msg.value > (tokenPrice * nbtok)){\t\t\t\t\t   \n\t\t\tmsg.sender.transfer(((tokenPrice * nbtok) - msg.value) - gasFee); //Refund in case user paid too much for the tokens in input\n\t\t}\n\t\tfor(uint i = 0; i < nbtok; i++){\n\t\t\tuint id = tokens.push(tokenId++);\n\t\t\ttokensToOwner[id] = msg.sender;\t\t\t\t\t\t   //Save the tokens for the current user\n\t\t\townerTokenCount[msg.sender]++;\t\t\t\t\t\t   //Keeps track of the users balance\n\t\t}\t\t\n\t\temit EventTokenBought(msg.sender, ownerTokenCount[msg.sender]);\t\t\t\t\t   \n\t\treturn ownerTokenCount[msg.sender];\n\t}\n\n\t//Game type setter\n\tfunction setGameType(uint8 gameType) external returns(bool){\n\t\trequire(uint(gameType) <= games.length, \"This game doesn't exist\");\n\t\tgamesMap[msg.sender] = games[gameType.sub(1)];\n\t\temit EventGameSet(msg.sender, gameType);\n\t\treturn (true);\n\t}\n\n\t//Playing game\n\tfunction isBetSetGame() external view isGameSet returns(bool){\n\t\treturn gamesMap[msg.sender].isBetSet(msg.sender);\n\t}\n\n\tfunction betGame(string calldata betInfo, \n\t\t\t\t\t uint8 betData, \n\t\t\t\t\t uint tokenAmount) external enoughTokenBalance(tokenAmount, ownerTokenCount[msg.sender]) \n\t\t\t\t\t\t\t\t\t\t        isGameSet \n\t\t\t\t\t\t\t\t\t\t\t\treturns(bool){\n\t\tbool _success = gamesMap[msg.sender].bet(msg.sender, betInfo, betData, tokenAmount);\n\t\tif(_success){\n\t\t\temit EventBet(msg.sender, betInfo, betData, tokenAmount);\n\t\t\treturn _success;\n\t\t}else{\n\t\t\trevert(\"Incorrect bet\");\n\t\t}\n\t}\n\n\tfunction cancelBetGame() external isGameSet returns(bool){\n\t\tuint256 tokenRefund = gamesMap[msg.sender].cancelBet(msg.sender);\n\t\tif(tokenRefund > 0){\n\t\t\tmsg.sender.transfer((tokenRefund * tokenPrice) - gasFee);\n\t\t\temit EventCancelBet(msg.sender, tokenRefund);\n\t\t\treturn true;\n\t\t}else{\n\t\t\treturn false;\t\t\n\t\t}\t\t\n\t}\t\n\n\tfunction playGame() external isGameSet returns(uint8 , uint256){\n\t\t(uint8 result, uint256 tokenEarned) = gamesMap[msg.sender].play(msg.sender);\n\t\temit EventResult(msg.sender, result);\n\t\tif(tokenEarned > 0){\n\t\t\tmsg.sender.transfer(tokenEarned * tokenPrice - gasFee);\n\t\t\temit EventPlayerReceives(msg.sender, tokenEarned);\n\t\t}\n\t\treturn (result, tokenEarned);\n\t}\n\n    //Admin functions with onlyOwner\n    function addFundsCasinoBalance() external payable onlyOwner{\n    \trequire(msg.value > 0, \"No funds transfered\");\n\t}\n\n    function withdrawCasinoBalance(uint amount) external onlyOwner{\n    \taddress payable casino = address(uint160(address(this))); //conversion trick\n    \trequire(casino.balance >= amount, \"Not enough balance\");\n\t\tmsg.sender.transfer(amount);\n\t}\n\n\tfunction getCasinoBalance() external view onlyOwner returns(uint){\n\t\taddress payable casino = address(uint160(address(this))); //conversion trick\n\t\treturn casino.balance;\n\t}\n\n}\n",
  "sourcePath": "/home/hanzo/Desktop/DecentralizedCasino/dapp/contracts/Casino.sol",
  "compiler": {
    "name": "solc",
    "version": "0.5.16+commit.9c3226ce.Emscripten.clang"
  },
  "schemaVersion": "3.3.4",
  "updatedAt": "2021-03-30T19:20:16.179Z",
  "networkType": "ethereum",
  "devdoc": {
    "methods": {
      "isOwner()": {
        "return": "true if `msg.sender` is the owner of the contract."
      },
      "owner()": {
        "return": "the address of the owner."
      },
      "renounceOwnership()": {
        "details": "Allows the current owner to relinquish control of the contract."
      },
      "transferOwnership(address)": {
        "details": "Allows the current owner to transfer control of the contract to a newOwner.",
        "params": {
          "newOwner": "The address to transfer ownership to."
        }
      }
    }
  },
  "userdoc": {
    "methods": {
      "renounceOwnership()": {
        "notice": "Renouncing to ownership will leave the contract without an owner. It will not be possible to call the functions with the `onlyOwner` modifier anymore."
      }
    }
  }
}