{
  "contractName": "Casino",
  "abi": [
    {
      "anonymous": false,
      "inputs": [
        {
          "indexed": false,
          "internalType": "address",
          "name": "player",
          "type": "address"
        },
        {
          "indexed": false,
          "internalType": "uint256",
          "name": "bet",
          "type": "uint256"
        }
      ],
      "name": "EventBet",
      "type": "event"
    },
    {
      "anonymous": false,
      "inputs": [
        {
          "indexed": false,
          "internalType": "address",
          "name": "player",
          "type": "address"
        }
      ],
      "name": "EventCancelBet",
      "type": "event"
    },
    {
      "anonymous": false,
      "inputs": [
        {
          "indexed": false,
          "internalType": "address",
          "name": "player",
          "type": "address"
        },
        {
          "indexed": false,
          "internalType": "bool",
          "name": "gameSet",
          "type": "bool"
        }
      ],
      "name": "EventGameSet",
      "type": "event"
    },
    {
      "anonymous": false,
      "inputs": [
        {
          "indexed": false,
          "internalType": "address",
          "name": "player",
          "type": "address"
        },
        {
          "indexed": false,
          "internalType": "uint256",
          "name": "amount",
          "type": "uint256"
        }
      ],
      "name": "EventPlayerReceives",
      "type": "event"
    },
    {
      "anonymous": false,
      "inputs": [
        {
          "indexed": false,
          "internalType": "address",
          "name": "player",
          "type": "address"
        },
        {
          "indexed": false,
          "internalType": "uint256",
          "name": "bet",
          "type": "uint256"
        },
        {
          "indexed": false,
          "internalType": "uint256",
          "name": "result",
          "type": "uint256"
        }
      ],
      "name": "EventResult",
      "type": "event"
    },
    {
      "anonymous": false,
      "inputs": [
        {
          "indexed": true,
          "internalType": "address",
          "name": "previousOwner",
          "type": "address"
        },
        {
          "indexed": true,
          "internalType": "address",
          "name": "newOwner",
          "type": "address"
        }
      ],
      "name": "OwnershipTransferred",
      "type": "event"
    },
    {
      "constant": true,
      "inputs": [],
      "name": "_owner",
      "outputs": [
        {
          "internalType": "address",
          "name": "",
          "type": "address"
        }
      ],
      "payable": false,
      "stateMutability": "view",
      "type": "function"
    },
    {
      "constant": true,
      "inputs": [
        {
          "internalType": "address",
          "name": "",
          "type": "address"
        }
      ],
      "name": "gamesMap",
      "outputs": [
        {
          "internalType": "contract Game",
          "name": "",
          "type": "address"
        }
      ],
      "payable": false,
      "stateMutability": "view",
      "type": "function"
    },
    {
      "constant": true,
      "inputs": [],
      "name": "isOwner",
      "outputs": [
        {
          "internalType": "bool",
          "name": "",
          "type": "bool"
        }
      ],
      "payable": false,
      "stateMutability": "view",
      "type": "function"
    },
    {
      "constant": true,
      "inputs": [],
      "name": "owner",
      "outputs": [
        {
          "internalType": "address",
          "name": "",
          "type": "address"
        }
      ],
      "payable": false,
      "stateMutability": "view",
      "type": "function"
    },
    {
      "constant": false,
      "inputs": [],
      "name": "renounceOwnership",
      "outputs": [],
      "payable": false,
      "stateMutability": "nonpayable",
      "type": "function"
    },
    {
      "constant": false,
      "inputs": [
        {
          "internalType": "address",
          "name": "newOwner",
          "type": "address"
        }
      ],
      "name": "transferOwnership",
      "outputs": [],
      "payable": false,
      "stateMutability": "nonpayable",
      "type": "function"
    },
    {
      "constant": false,
      "inputs": [
        {
          "internalType": "uint256",
          "name": "gameType",
          "type": "uint256"
        }
      ],
      "name": "setGameType",
      "outputs": [
        {
          "internalType": "bool",
          "name": "",
          "type": "bool"
        }
      ],
      "payable": false,
      "stateMutability": "nonpayable",
      "type": "function"
    },
    {
      "constant": true,
      "inputs": [],
      "name": "isBetSet",
      "outputs": [
        {
          "internalType": "bool",
          "name": "",
          "type": "bool"
        }
      ],
      "payable": false,
      "stateMutability": "view",
      "type": "function"
    },
    {
      "constant": false,
      "inputs": [
        {
          "internalType": "string",
          "name": "empty",
          "type": "string"
        },
        {
          "internalType": "uint256",
          "name": "playerBet",
          "type": "uint256"
        }
      ],
      "name": "bet",
      "outputs": [
        {
          "internalType": "uint256",
          "name": "",
          "type": "uint256"
        },
        {
          "internalType": "bool",
          "name": "",
          "type": "bool"
        },
        {
          "internalType": "uint256",
          "name": "",
          "type": "uint256"
        }
      ],
      "payable": true,
      "stateMutability": "payable",
      "type": "function"
    },
    {
      "constant": false,
      "inputs": [],
      "name": "cancelBet",
      "outputs": [
        {
          "internalType": "uint256",
          "name": "",
          "type": "uint256"
        }
      ],
      "payable": false,
      "stateMutability": "nonpayable",
      "type": "function"
    },
    {
      "constant": false,
      "inputs": [],
      "name": "play",
      "outputs": [
        {
          "internalType": "uint256",
          "name": "",
          "type": "uint256"
        },
        {
          "internalType": "uint256",
          "name": "",
          "type": "uint256"
        }
      ],
      "payable": false,
      "stateMutability": "nonpayable",
      "type": "function"
    },
    {
      "constant": false,
      "inputs": [],
      "name": "playerReceivesMoney",
      "outputs": [
        {
          "internalType": "uint256",
          "name": "",
          "type": "uint256"
        }
      ],
      "payable": false,
      "stateMutability": "nonpayable",
      "type": "function"
    },
    {
      "constant": false,
      "inputs": [],
      "name": "addFundsCasinoBalance",
      "outputs": [
        {
          "internalType": "uint256",
          "name": "",
          "type": "uint256"
        }
      ],
      "payable": true,
      "stateMutability": "payable",
      "type": "function"
    },
    {
      "constant": false,
      "inputs": [],
      "name": "withdrawCasinoBalance",
      "outputs": [
        {
          "internalType": "uint256",
          "name": "",
          "type": "uint256"
        }
      ],
      "payable": false,
      "stateMutability": "nonpayable",
      "type": "function"
    },
    {
      "constant": true,
      "inputs": [],
      "name": "getCasinoBalance",
      "outputs": [
        {
          "internalType": "uint256",
          "name": "",
          "type": "uint256"
        }
      ],
      "payable": false,
      "stateMutability": "view",
      "type": "function"
    }
  ],
  "bytecode": "0x608060405260006001556000600260146101000a81548160ff021916908315150217905550336000806101000a81548173ffffffffffffffffffffffffffffffffffffffff021916908373ffffffffffffffffffffffffffffffffffffffff1602179055506000809054906101000a900473ffffffffffffffffffffffffffffffffffffffff1673ffffffffffffffffffffffffffffffffffffffff16600073ffffffffffffffffffffffffffffffffffffffff167f8be0079c531659141344cd1fd0a4f28419497f9722a3daafe3b4186f6b6457e060405160405180910390a361278f806100ef6000396000f3fe6080604052600436106100e85760003560e01c80638da5cb5b1161008a578063c24fb94611610059578063c24fb94614610334578063e9c20cb91461035f578063ed10e63614610408578063f2fde38b14610499576100e8565b80638da5cb5b146102255780638f32d59b1461027c57806393e84cd9146102ab578063b2bdfa7b146102dd576100e8565b80633ff2abd8116100c65780633ff2abd81461019a578063715018a6146101c55780637b6d79f1146101dc5780637e1ba4f214610207576100e8565b80631a0843c0146100ed5780631ae651c8146101185780632a86d2d814610147575b600080fd5b3480156100f957600080fd5b506101026104ea565b6040518082815260200191505060405180910390f35b34801561012457600080fd5b5061012d610599565b604051808215151515815260200191505060405180910390f35b34801561015357600080fd5b506101806004803603602081101561016a57600080fd5b8101908080359060200190929190505050610749565b604051808215151515815260200191505060405180910390f35b3480156101a657600080fd5b506101af6109c2565b6040518082815260200191505060405180910390f35b3480156101d157600080fd5b506101da610c3c565b005b3480156101e857600080fd5b506101f1610da0565b6040518082815260200191505060405180910390f35b61020f610fbb565b6040518082815260200191505060405180910390f35b34801561023157600080fd5b5061023a61107a565b604051808273ffffffffffffffffffffffffffffffffffffffff1673ffffffffffffffffffffffffffffffffffffffff16815260200191505060405180910390f35b34801561028857600080fd5b506102916110a3565b604051808215151515815260200191505060405180910390f35b3480156102b757600080fd5b506102c06110fa565b604051808381526020018281526020019250505060405180910390f35b3480156102e957600080fd5b506102f2611337565b604051808273ffffffffffffffffffffffffffffffffffffffff1673ffffffffffffffffffffffffffffffffffffffff16815260200191505060405180910390f35b34801561034057600080fd5b5061034961135c565b6040518082815260200191505060405180910390f35b6103e06004803603604081101561037557600080fd5b810190808035906020019064010000000081111561039257600080fd5b8201836020820111156103a457600080fd5b803590602001918460018302840111640100000000831117156103c657600080fd5b9091929391929390803590602001909291905050506114cc565b6040518084815260200183151515158152602001828152602001935050505060405180910390f35b34801561041457600080fd5b506104576004803603602081101561042b57600080fd5b81019080803573ffffffffffffffffffffffffffffffffffffffff16906020019092919050505061176a565b604051808273ffffffffffffffffffffffffffffffffffffffff1673ffffffffffffffffffffffffffffffffffffffff16815260200191505060405180910390f35b3480156104a557600080fd5b506104e8600480360360208110156104bc57600080fd5b81019080803573ffffffffffffffffffffffffffffffffffffffff16906020019092919050505061179d565b005b60008060009054906101000a900473ffffffffffffffffffffffffffffffffffffffff1673ffffffffffffffffffffffffffffffffffffffff163373ffffffffffffffffffffffffffffffffffffffff1614610591576040517f08c379a00000000000000000000000000000000000000000000000000000000081526004018080602001828103825260268152602001806127356026913960400191505060405180910390fd5b600154905090565b600060011515600460003373ffffffffffffffffffffffffffffffffffffffff1673ffffffffffffffffffffffffffffffffffffffff16815260200190815260200160002060010160009054906101000a900460ff16151514610664576040517f08c379a00000000000000000000000000000000000000000000000000000000081526004018080602001828103825260188152602001807f5468657265206973206e6f2063757272656e742067616d65000000000000000081525060200191505060405180910390fd5b600360003373ffffffffffffffffffffffffffffffffffffffff1673ffffffffffffffffffffffffffffffffffffffff16815260200190815260200160002060009054906101000a900473ffffffffffffffffffffffffffffffffffffffff1673ffffffffffffffffffffffffffffffffffffffff16631ae651c86040518163ffffffff1660e01b815260040160206040518083038186803b15801561070957600080fd5b505afa15801561071d573d6000803e3d6000fd5b505050506040513d602081101561073357600080fd5b8101908080519060200190929190505050905090565b6000600182141561096a5760405161076090611946565b604051809103906000f08015801561077c573d6000803e3d6000fd5b50600360003373ffffffffffffffffffffffffffffffffffffffff1673ffffffffffffffffffffffffffffffffffffffff16815260200190815260200160002060006101000a81548173ffffffffffffffffffffffffffffffffffffffff021916908373ffffffffffffffffffffffffffffffffffffffff1602179055506001600460003373ffffffffffffffffffffffffffffffffffffffff1673ffffffffffffffffffffffffffffffffffffffff16815260200190815260200160002060010160006101000a81548160ff0219169083151502179055507f0ebb942dea6f40cad40cbff551df274fe1896de8aadfb4f13f447442ff815ea333600460003373ffffffffffffffffffffffffffffffffffffffff1673ffffffffffffffffffffffffffffffffffffffff16815260200190815260200160002060010160009054906101000a900460ff16604051808373ffffffffffffffffffffffffffffffffffffffff1673ffffffffffffffffffffffffffffffffffffffff168152602001821515151581526020019250505060405180910390a1600460003373ffffffffffffffffffffffffffffffffffffffff1673ffffffffffffffffffffffffffffffffffffffff16815260200190815260200160002060010160009054906101000a900460ff1690506109bd565b600460003373ffffffffffffffffffffffffffffffffffffffff1673ffffffffffffffffffffffffffffffffffffffff16815260200190815260200160002060010160009054906101000a900460ff1690505b919050565b600060011515600460003373ffffffffffffffffffffffffffffffffffffffff1673ffffffffffffffffffffffffffffffffffffffff16815260200190815260200160002060010160009054906101000a900460ff16151514610a8d576040517f08c379a00000000000000000000000000000000000000000000000000000000081526004018080602001828103825260188152602001807f5468657265206973206e6f2063757272656e742067616d65000000000000000081525060200191505060405180910390fd5b6000600360003373ffffffffffffffffffffffffffffffffffffffff1673ffffffffffffffffffffffffffffffffffffffff16815260200190815260200160002060009054906101000a900473ffffffffffffffffffffffffffffffffffffffff1673ffffffffffffffffffffffffffffffffffffffff16633ff2abd86040518163ffffffff1660e01b8152600401602060405180830381600087803b158015610b3657600080fd5b505af1158015610b4a573d6000803e3d6000fd5b505050506040513d6020811015610b6057600080fd5b81019080805190602001909291905050509050806001600082825403925050819055507f83188de2cb5d7641681aae234acaeaebf71ce5a507e50690788de0f7b5e0bd3f3382604051808373ffffffffffffffffffffffffffffffffffffffff1673ffffffffffffffffffffffffffffffffffffffff1681526020018281526020019250505060405180910390a13373ffffffffffffffffffffffffffffffffffffffff166108fc829081150290604051600060405180830381858888f19350505050158015610c34573d6000803e3d6000fd5b508091505090565b6000809054906101000a900473ffffffffffffffffffffffffffffffffffffffff1673ffffffffffffffffffffffffffffffffffffffff163373ffffffffffffffffffffffffffffffffffffffff1614610ce1576040517f08c379a00000000000000000000000000000000000000000000000000000000081526004018080602001828103825260268152602001806127356026913960400191505060405180910390fd5b600073ffffffffffffffffffffffffffffffffffffffff166000809054906101000a900473ffffffffffffffffffffffffffffffffffffffff1673ffffffffffffffffffffffffffffffffffffffff167f8be0079c531659141344cd1fd0a4f28419497f9722a3daafe3b4186f6b6457e060405160405180910390a360008060006101000a81548173ffffffffffffffffffffffffffffffffffffffff021916908373ffffffffffffffffffffffffffffffffffffffff160217905550565b600060011515600460003373ffffffffffffffffffffffffffffffffffffffff1673ffffffffffffffffffffffffffffffffffffffff16815260200190815260200160002060010160009054906101000a900460ff16151514610e6b576040517f08c379a00000000000000000000000000000000000000000000000000000000081526004018080602001828103825260188152602001807f5468657265206973206e6f2063757272656e742067616d65000000000000000081525060200191505060405180910390fd5b6000600360003373ffffffffffffffffffffffffffffffffffffffff1673ffffffffffffffffffffffffffffffffffffffff16815260200190815260200160002060009054906101000a900473ffffffffffffffffffffffffffffffffffffffff1673ffffffffffffffffffffffffffffffffffffffff16637b6d79f16040518163ffffffff1660e01b8152600401602060405180830381600087803b158015610f1457600080fd5b505af1158015610f28573d6000803e3d6000fd5b505050506040513d6020811015610f3e57600080fd5b810190808051906020019092919050505090507f13684f18ba9ea835d5e044be0b93fc42751bb23220adf533c8d078bba00dd91133604051808273ffffffffffffffffffffffffffffffffffffffff1673ffffffffffffffffffffffffffffffffffffffff16815260200191505060405180910390a18091505090565b60008060009054906101000a900473ffffffffffffffffffffffffffffffffffffffff1673ffffffffffffffffffffffffffffffffffffffff163373ffffffffffffffffffffffffffffffffffffffff1614611062576040517f08c379a00000000000000000000000000000000000000000000000000000000081526004018080602001828103825260268152602001806127356026913960400191505060405180910390fd5b34600160008282540192505081905550600154905090565b60008060009054906101000a900473ffffffffffffffffffffffffffffffffffffffff16905090565b60008060009054906101000a900473ffffffffffffffffffffffffffffffffffffffff1673ffffffffffffffffffffffffffffffffffffffff163373ffffffffffffffffffffffffffffffffffffffff1614905090565b60008060011515600460003373ffffffffffffffffffffffffffffffffffffffff1673ffffffffffffffffffffffffffffffffffffffff16815260200190815260200160002060010160009054906101000a900460ff161515146111c6576040517f08c379a00000000000000000000000000000000000000000000000000000000081526004018080602001828103825260188152602001807f5468657265206973206e6f2063757272656e742067616d65000000000000000081525060200191505060405180910390fd5b600080600360003373ffffffffffffffffffffffffffffffffffffffff1673ffffffffffffffffffffffffffffffffffffffff16815260200190815260200160002060009054906101000a900473ffffffffffffffffffffffffffffffffffffffff1673ffffffffffffffffffffffffffffffffffffffff166393e84cd96040518163ffffffff1660e01b81526004016040805180830381600087803b15801561126f57600080fd5b505af1158015611283573d6000803e3d6000fd5b505050506040513d604081101561129957600080fd5b810190808051906020019092919080519060200190929190505050915091507fa24f90c69066ca987ebdbfe674bcaa71b326ad7149670612160c24a6b0f216f8338383604051808473ffffffffffffffffffffffffffffffffffffffff1673ffffffffffffffffffffffffffffffffffffffff168152602001838152602001828152602001935050505060405180910390a181819350935050509091565b6000809054906101000a900473ffffffffffffffffffffffffffffffffffffffff1681565b60008060009054906101000a900473ffffffffffffffffffffffffffffffffffffffff1673ffffffffffffffffffffffffffffffffffffffff163373ffffffffffffffffffffffffffffffffffffffff1614611403576040517f08c379a00000000000000000000000000000000000000000000000000000000081526004018080602001828103825260268152602001806127356026913960400191505060405180910390fd5b60006001541161147b576040517f08c379a00000000000000000000000000000000000000000000000000000000081526004018080602001828103825260128152602001807f4e6f7420656e6f7567682062616c616e6365000000000000000000000000000081525060200191505060405180910390fd5b3373ffffffffffffffffffffffffffffffffffffffff166108fc6001549081150290604051600060405180830381858888f193505050501580156114c3573d6000803e3d6000fd5b50600154905090565b600080600060011515600460003373ffffffffffffffffffffffffffffffffffffffff1673ffffffffffffffffffffffffffffffffffffffff16815260200190815260200160002060010160009054906101000a900460ff1615151461159a576040517f08c379a00000000000000000000000000000000000000000000000000000000081526004018080602001828103825260188152602001807f5468657265206973206e6f2063757272656e742067616d65000000000000000081525060200191505060405180910390fd5b7f9b32953cc9d558d89c61a62b694b26c617aeb2c2b60be6bfa73f51ba81a32b823385604051808373ffffffffffffffffffffffffffffffffffffffff1673ffffffffffffffffffffffffffffffffffffffff1681526020018281526020019250505060405180910390a16000806000600360003373ffffffffffffffffffffffffffffffffffffffff1673ffffffffffffffffffffffffffffffffffffffff16815260200190815260200160002060009054906101000a900473ffffffffffffffffffffffffffffffffffffffff1673ffffffffffffffffffffffffffffffffffffffff1663e9c20cb98a8a8a6040518463ffffffff1660e01b815260040180806020018381526020018281038252858582818152602001925080828437600081840152601f19601f820116905080830192505050945050505050606060405180830381600087803b1580156116f057600080fd5b505af1158015611704573d6000803e3d6000fd5b505050506040513d606081101561171a57600080fd5b810190808051906020019092919080519060200190929190805190602001909291905050509250925092508060016000828254019250508190555082828295509550955050505093509350939050565b60036020528060005260406000206000915054906101000a900473ffffffffffffffffffffffffffffffffffffffff1681565b6000809054906101000a900473ffffffffffffffffffffffffffffffffffffffff1673ffffffffffffffffffffffffffffffffffffffff163373ffffffffffffffffffffffffffffffffffffffff1614611842576040517f08c379a00000000000000000000000000000000000000000000000000000000081526004018080602001828103825260268152602001806127356026913960400191505060405180910390fd5b61184b8161184e565b50565b600073ffffffffffffffffffffffffffffffffffffffff168173ffffffffffffffffffffffffffffffffffffffff16141561188857600080fd5b8073ffffffffffffffffffffffffffffffffffffffff166000809054906101000a900473ffffffffffffffffffffffffffffffffffffffff1673ffffffffffffffffffffffffffffffffffffffff167f8be0079c531659141344cd1fd0a4f28419497f9722a3daafe3b4186f6b6457e060405160405180910390a3806000806101000a81548173ffffffffffffffffffffffffffffffffffffffff021916908373ffffffffffffffffffffffffffffffffffffffff16021790555050565b610de1806119548339019056fe608060405260008055678ac7230489e800006001556000600255600a60045534801561002a57600080fd5b50610da78061003a6000396000f3fe6080604052600436106100705760003560e01c80637b6d79f11161004e5780637b6d79f1146100fa57806393e84cd914610125578063c32ec33614610157578063e9c20cb91461018257610070565b80631ae651c8146100755780633ff2abd8146100a45780635d5ae245146100cf575b600080fd5b34801561008157600080fd5b5061008a61022b565b604051808215151515815260200191505060405180910390f35b3480156100b057600080fd5b506100b9610282565b6040518082815260200191505060405180910390f35b3480156100db57600080fd5b506100e46102d5565b6040518082815260200191505060405180910390f35b34801561010657600080fd5b5061010f6102db565b6040518082815260200191505060405180910390f35b34801561013157600080fd5b5061013a610529565b604051808381526020018281526020019250505060405180910390f35b34801561016357600080fd5b5061016c61083f565b6040518082815260200191505060405180910390f35b6102036004803603604081101561019857600080fd5b81019080803590602001906401000000008111156101b557600080fd5b8201836020820111156101c757600080fd5b803590602001918460018302840111640100000000831117156101e957600080fd5b909192939192939080359060200190929190505050610845565b6040518084815260200183151515158152602001828152602001935050505060405180910390f35b6000600360003373ffffffffffffffffffffffffffffffffffffffff1673ffffffffffffffffffffffffffffffffffffffff16815260200190815260200160002060000160009054906101000a900460ff16905090565b600080600454600360003373ffffffffffffffffffffffffffffffffffffffff1673ffffffffffffffffffffffffffffffffffffffff168152602001908152602001600020600101540290508091505090565b60025481565b6000600360003373ffffffffffffffffffffffffffffffffffffffff1673ffffffffffffffffffffffffffffffffffffffff16815260200190815260200160002060000160009054906101000a900460ff1660011515811515146103a7576040517f08c379a000000000000000000000000000000000000000000000000000000000815260040180806020018281038252601e8152602001807f596f75206e65656420746f20626574206265666f726520706c6179696e67000081525060200191505060405180910390fd5b6000600360003373ffffffffffffffffffffffffffffffffffffffff1673ffffffffffffffffffffffffffffffffffffffff168152602001908152602001600020600201819055506000600360003373ffffffffffffffffffffffffffffffffffffffff1673ffffffffffffffffffffffffffffffffffffffff16815260200190815260200160002060000160006101000a81548160ff0219169083151502179055506000600360003373ffffffffffffffffffffffffffffffffffffffff1673ffffffffffffffffffffffffffffffffffffffff168152602001908152602001600020600301819055506000600360003373ffffffffffffffffffffffffffffffffffffffff1673ffffffffffffffffffffffffffffffffffffffff1681526020019081526020016000206001015490506000600360003373ffffffffffffffffffffffffffffffffffffffff1673ffffffffffffffffffffffffffffffffffffffff16815260200190815260200160002060010181905550809250505090565b600080600360003373ffffffffffffffffffffffffffffffffffffffff1673ffffffffffffffffffffffffffffffffffffffff16815260200190815260200160002060000160009054906101000a900460ff1660011515811515146105f6576040517f08c379a000000000000000000000000000000000000000000000000000000000815260040180806020018281038252601e8152602001807f596f75206e65656420746f20626574206265666f726520706c6179696e67000081525060200191505060405180910390fd5b6105fe610cc1565b600360003373ffffffffffffffffffffffffffffffffffffffff1673ffffffffffffffffffffffffffffffffffffffff168152602001908152602001600020600301819055506000600360003373ffffffffffffffffffffffffffffffffffffffff1673ffffffffffffffffffffffffffffffffffffffff16815260200190815260200160002060000160006101000a81548160ff021916908315150217905550600360003373ffffffffffffffffffffffffffffffffffffffff1673ffffffffffffffffffffffffffffffffffffffff16815260200190815260200160002060020154600360003373ffffffffffffffffffffffffffffffffffffffff1673ffffffffffffffffffffffffffffffffffffffff1681526020019081526020016000206003015414156107b0573073ffffffffffffffffffffffffffffffffffffffff16633ff2abd86040518163ffffffff1660e01b8152600401602060405180830381600087803b15801561077357600080fd5b505af1158015610787573d6000803e3d6000fd5b505050506040513d602081101561079d57600080fd5b8101908080519060200190929190505050505b600360003373ffffffffffffffffffffffffffffffffffffffff1673ffffffffffffffffffffffffffffffffffffffff16815260200190815260200160002060020154600360003373ffffffffffffffffffffffffffffffffffffffff1673ffffffffffffffffffffffffffffffffffffffff1681526020019081526020016000206003015492509250509091565b60015481565b60008060006002543410156108c2576040517f08c379a00000000000000000000000000000000000000000000000000000000081526004018080602001828103825260118152602001807f546f6f206c6f77206265742076616c756500000000000000000000000000000081525060200191505060405180910390fd5b60015434111561093a576040517f08c379a00000000000000000000000000000000000000000000000000000000081526004018080602001828103825260128152602001807f546f6f2068696768206265742076616c7565000000000000000000000000000081525060200191505060405180910390fd5b600360003373ffffffffffffffffffffffffffffffffffffffff1673ffffffffffffffffffffffffffffffffffffffff16815260200190815260200160002060000160009054906101000a900460ff166000151581151514610a04576040517f08c379a000000000000000000000000000000000000000000000000000000000815260040180806020018281038252601c8152602001807f546865726520697320616c72656164792061206265742072656164790000000081525060200191505060405180910390fd5b6002851015610a7b576040517f08c379a000000000000000000000000000000000000000000000000000000000815260040180806020018281038252601c8152602001807f426574206d757374206265206265747765656e203220616e642031320000000081525060200191505060405180910390fd5b600c851115610af2576040517f08c379a000000000000000000000000000000000000000000000000000000000815260040180806020018281038252601c8152602001807f426574206d757374206265206265747765656e203220616e642031320000000081525060200191505060405180910390fd5b84600360003373ffffffffffffffffffffffffffffffffffffffff1673ffffffffffffffffffffffffffffffffffffffff168152602001908152602001600020600201819055506001600360003373ffffffffffffffffffffffffffffffffffffffff1673ffffffffffffffffffffffffffffffffffffffff16815260200190815260200160002060000160006101000a81548160ff02191690831515021790555034600360003373ffffffffffffffffffffffffffffffffffffffff1673ffffffffffffffffffffffffffffffffffffffff16815260200190815260200160002060010181905550600360003373ffffffffffffffffffffffffffffffffffffffff1673ffffffffffffffffffffffffffffffffffffffff16815260200190815260200160002060020154600360003373ffffffffffffffffffffffffffffffffffffffff1673ffffffffffffffffffffffffffffffffffffffff16815260200190815260200160002060000160009054906101000a900460ff16600360003373ffffffffffffffffffffffffffffffffffffffff1673ffffffffffffffffffffffffffffffffffffffff168152602001908152602001600020600101549350935093505093509350939050565b6000610ccf60016006610ce1565b610cdb60016006610ce1565b01905090565b6000806000815480929190600101919050555082824233600054604051602001808481526020018373ffffffffffffffffffffffffffffffffffffffff1673ffffffffffffffffffffffffffffffffffffffff1660601b815260140182815260200193505050506040516020818303038152906040528051906020012060001c81610d6857fe5b060190509291505056fea265627a7a72315820aca45a979c11da90b5e003fbddb8d7c9887c9cda9ae52ff2d0a72ffe705f292464736f6c63430005100032596f7520617265206e6f7420746865206f776e6572206f66207468697320636f6e7472616374a265627a7a72315820fa1dfd5992b58d2d9d72a3bfd8c086dcb87cc247e02b787372249b7896d38df564736f6c63430005100032",
  "source": "pragma solidity ^0.5.0;\n\nimport \"./SafeMath.sol\";\nimport \"./Ownable.sol\";\nimport \"./Game.sol\";\nimport \"./Dice.sol\";\nimport \"./Utility.sol\";\n\ncontract Casino is Ownable{ //Ownable allows use onlyOwner modifier so we can make admin functions\n\n\n\n\tusing SafeMath for uint256; //Using SafeMath lib to avoid overflow erros\n\n\n\n\t//Variables\n\tuint casinoBalance = 0;\n\tGame game;\n\tbool gameSet = false;\n\tstruct PlayerInfo{\n\t\tstring name;\n\t\tbool gameSet;\n\t}\n\tmapping (address => Game) public gamesMap; //address : currentPlayer ; Game : Dice or Roulette contract\n\tmapping (address => PlayerInfo) playerInfoMap; //address : currentPlayer ; PlayerInfo : player infos structure\n\n\n\n\t//Events\n\tevent EventGameSet(address player, bool gameSet);\n\tevent EventBet(address player , uint bet);\n\tevent EventResult(address player, uint bet , uint result);\n\tevent EventCancelBet(address player);\n\tevent EventPlayerReceives(address player, uint amount);\n\n\n\n\t//Modifiers\n\tmodifier isGameSet(){\n\t\trequire(playerInfoMap[msg.sender].gameSet == true, \"There is no current game\");\n\t\t_;\n\t}\n\n\n\n\t//Game type setter\n\tfunction setGameType(uint gameType) external returns(bool){\n\t\tif(gameType == 1){\n\t\t\tgamesMap[msg.sender] = new Dice();\n\t\t\tplayerInfoMap[msg.sender].gameSet = true;\n\t\t\temit EventGameSet(msg.sender, playerInfoMap[msg.sender].gameSet);\n\t\t\treturn playerInfoMap[msg.sender].gameSet;\n\t\t}\n\t\telse if(gameType == 2){\n\t\t\t//gamesMap[msg.sender] = new Roulette();\n\t\t\t//playerInfoMap[msg.sender].gameSet = true;\n\t\t\t//emit EventGameSet(msg.sender, playerInfoMap[msg.sender].gameSet);\n\t\t\t//return playerInfoMap[msg.sender].gameSet;\n\t\t}\n\t\treturn playerInfoMap[msg.sender].gameSet;\n\t}\n\n\n\n\t//Playing game\n\tfunction isBetSet() external view isGameSet returns(bool){\n\t\treturn gamesMap[msg.sender].isBetSet();\n\t}\n\tfunction bet(string calldata empty, uint playerBet) external payable isGameSet returns(uint, bool, uint){\n\t\temit EventBet(msg.sender, playerBet);\n\t\t(uint betValue, bool isSet, uint moneyBet) = gamesMap[msg.sender].bet(empty, playerBet);\n\t\tcasinoBalance += moneyBet; \n\t\treturn (betValue, isSet, moneyBet);\n\t}\n\tfunction cancelBet() external isGameSet returns(uint){\n\t\tuint moneyBack = gamesMap[msg.sender].cancelBet();\n\t\temit EventCancelBet(msg.sender);\n\t\t//msg.sender.transfer(betsMap[msg.sender].moneyBet);\n\t\treturn moneyBack;\n\t}\t\n\tfunction play() external isGameSet returns(uint , uint){\n\t\t(uint betValue, uint result) = gamesMap[msg.sender].play();\n\t\temit EventResult(msg.sender, betValue, result);\n\t\treturn (betValue, result);\n\t}\n\tfunction playerReceivesMoney() isGameSet external returns(uint){\n\t\tuint moneyWin = gamesMap[msg.sender].playerReceivesMoney();\n\t\tcasinoBalance -= moneyWin;\n\t\temit EventPlayerReceives(msg.sender, moneyWin);\n\t\tmsg.sender.transfer(moneyWin);\n\t\treturn moneyWin;\n\t}\n\n\n\n    //Admin functions with onlyOwner\n    function addFundsCasinoBalance() external payable onlyOwner returns(uint){\n    \t//require(msg.value > 0, \"No funds transfered\");\n\t\tcasinoBalance += msg.value;\n\t\treturn casinoBalance;\n\t}\n    function withdrawCasinoBalance() external onlyOwner returns(uint){\n    \trequire(casinoBalance > 0, \"Not enough balance\");\n\t\tmsg.sender.transfer(casinoBalance);\n\t\treturn casinoBalance;\n\t}\n\tfunction getCasinoBalance() external view onlyOwner returns(uint){\n\t\treturn casinoBalance;\n\t}\n\tfunction increaseCasinoBalance(uint amount) internal{\n\t\tcasinoBalance += amount;\n\t}\n\n\n\n}",
  "sourcePath": "/home/hanzo/Desktop/DecentralizedCasino/dapp/contracts/Casino.sol",
  "compiler": {
    "name": "solc",
    "version": "0.5.16+commit.9c3226ce.Emscripten.clang"
  },
  "schemaVersion": "3.3.4",
  "updatedAt": "2021-03-12T01:53:57.002Z",
  "networkType": "ethereum",
  "devdoc": {
    "methods": {
      "isOwner()": {
        "return": "true if `msg.sender` is the owner of the contract."
      },
      "owner()": {
        "return": "the address of the owner."
      },
      "renounceOwnership()": {
        "details": "Allows the current owner to relinquish control of the contract."
      },
      "transferOwnership(address)": {
        "details": "Allows the current owner to transfer control of the contract to a newOwner.",
        "params": {
          "newOwner": "The address to transfer ownership to."
        }
      }
    }
  },
  "userdoc": {
    "methods": {
      "renounceOwnership()": {
        "notice": "Renouncing to ownership will leave the contract without an owner. It will not be possible to call the functions with the `onlyOwner` modifier anymore."
      }
    }
  }
}