{
  "contractName": "Casino",
  "abi": [
    {
      "inputs": [],
      "payable": false,
      "stateMutability": "nonpayable",
      "type": "constructor"
    },
    {
      "anonymous": false,
      "inputs": [
        {
          "indexed": false,
          "internalType": "address",
          "name": "player",
          "type": "address"
        },
        {
          "indexed": false,
          "internalType": "string",
          "name": "betInfo",
          "type": "string"
        },
        {
          "indexed": false,
          "internalType": "uint8",
          "name": "bet",
          "type": "uint8"
        },
        {
          "indexed": false,
          "internalType": "uint256",
          "name": "money",
          "type": "uint256"
        }
      ],
      "name": "EventBet",
      "type": "event"
    },
    {
      "anonymous": false,
      "inputs": [
        {
          "indexed": false,
          "internalType": "address",
          "name": "player",
          "type": "address"
        },
        {
          "indexed": false,
          "internalType": "uint256",
          "name": "amount",
          "type": "uint256"
        }
      ],
      "name": "EventCancelBet",
      "type": "event"
    },
    {
      "anonymous": false,
      "inputs": [
        {
          "indexed": false,
          "internalType": "address",
          "name": "player",
          "type": "address"
        },
        {
          "indexed": false,
          "internalType": "uint256",
          "name": "gameType",
          "type": "uint256"
        }
      ],
      "name": "EventGameSet",
      "type": "event"
    },
    {
      "anonymous": false,
      "inputs": [
        {
          "indexed": false,
          "internalType": "address",
          "name": "player",
          "type": "address"
        },
        {
          "indexed": false,
          "internalType": "uint256",
          "name": "amount",
          "type": "uint256"
        }
      ],
      "name": "EventPlayerReceives",
      "type": "event"
    },
    {
      "anonymous": false,
      "inputs": [
        {
          "indexed": false,
          "internalType": "address",
          "name": "player",
          "type": "address"
        },
        {
          "indexed": false,
          "internalType": "uint8",
          "name": "result",
          "type": "uint8"
        }
      ],
      "name": "EventResult",
      "type": "event"
    },
    {
      "anonymous": false,
      "inputs": [
        {
          "indexed": true,
          "internalType": "address",
          "name": "previousOwner",
          "type": "address"
        },
        {
          "indexed": true,
          "internalType": "address",
          "name": "newOwner",
          "type": "address"
        }
      ],
      "name": "OwnershipTransferred",
      "type": "event"
    },
    {
      "constant": true,
      "inputs": [],
      "name": "_owner",
      "outputs": [
        {
          "internalType": "address",
          "name": "",
          "type": "address"
        }
      ],
      "payable": false,
      "stateMutability": "view",
      "type": "function"
    },
    {
      "constant": true,
      "inputs": [
        {
          "internalType": "address",
          "name": "",
          "type": "address"
        }
      ],
      "name": "gamesMap",
      "outputs": [
        {
          "internalType": "contract Game",
          "name": "",
          "type": "address"
        }
      ],
      "payable": false,
      "stateMutability": "view",
      "type": "function"
    },
    {
      "constant": true,
      "inputs": [],
      "name": "isOwner",
      "outputs": [
        {
          "internalType": "bool",
          "name": "",
          "type": "bool"
        }
      ],
      "payable": false,
      "stateMutability": "view",
      "type": "function"
    },
    {
      "constant": true,
      "inputs": [],
      "name": "owner",
      "outputs": [
        {
          "internalType": "address",
          "name": "",
          "type": "address"
        }
      ],
      "payable": false,
      "stateMutability": "view",
      "type": "function"
    },
    {
      "constant": false,
      "inputs": [],
      "name": "renounceOwnership",
      "outputs": [],
      "payable": false,
      "stateMutability": "nonpayable",
      "type": "function"
    },
    {
      "constant": false,
      "inputs": [
        {
          "internalType": "address",
          "name": "newOwner",
          "type": "address"
        }
      ],
      "name": "transferOwnership",
      "outputs": [],
      "payable": false,
      "stateMutability": "nonpayable",
      "type": "function"
    },
    {
      "constant": false,
      "inputs": [
        {
          "internalType": "uint8",
          "name": "gameType",
          "type": "uint8"
        }
      ],
      "name": "setGameType",
      "outputs": [
        {
          "internalType": "bool",
          "name": "",
          "type": "bool"
        }
      ],
      "payable": false,
      "stateMutability": "nonpayable",
      "type": "function"
    },
    {
      "constant": true,
      "inputs": [],
      "name": "isBetSetGame",
      "outputs": [
        {
          "internalType": "bool",
          "name": "",
          "type": "bool"
        }
      ],
      "payable": false,
      "stateMutability": "view",
      "type": "function"
    },
    {
      "constant": false,
      "inputs": [
        {
          "internalType": "string",
          "name": "betInfo",
          "type": "string"
        },
        {
          "internalType": "uint8",
          "name": "betData",
          "type": "uint8"
        }
      ],
      "name": "betGame",
      "outputs": [
        {
          "internalType": "bool",
          "name": "",
          "type": "bool"
        }
      ],
      "payable": true,
      "stateMutability": "payable",
      "type": "function"
    },
    {
      "constant": false,
      "inputs": [],
      "name": "cancelBetGame",
      "outputs": [
        {
          "internalType": "bool",
          "name": "",
          "type": "bool"
        }
      ],
      "payable": false,
      "stateMutability": "nonpayable",
      "type": "function"
    },
    {
      "constant": false,
      "inputs": [],
      "name": "playGame",
      "outputs": [
        {
          "internalType": "uint8",
          "name": "",
          "type": "uint8"
        },
        {
          "internalType": "uint256",
          "name": "",
          "type": "uint256"
        }
      ],
      "payable": false,
      "stateMutability": "nonpayable",
      "type": "function"
    },
    {
      "constant": false,
      "inputs": [],
      "name": "addFundsCasinoBalance",
      "outputs": [],
      "payable": true,
      "stateMutability": "payable",
      "type": "function"
    },
    {
      "constant": false,
      "inputs": [
        {
          "internalType": "uint256",
          "name": "amount",
          "type": "uint256"
        }
      ],
      "name": "withdrawCasinoBalance",
      "outputs": [],
      "payable": false,
      "stateMutability": "nonpayable",
      "type": "function"
    },
    {
      "constant": true,
      "inputs": [],
      "name": "getCasinoBalance",
      "outputs": [
        {
          "internalType": "uint256",
          "name": "",
          "type": "uint256"
        }
      ],
      "payable": false,
      "stateMutability": "view",
      "type": "function"
    }
  ],
  "bytecode": "0x60806040523480156200001157600080fd5b50336000806101000a81548173ffffffffffffffffffffffffffffffffffffffff021916908373ffffffffffffffffffffffffffffffffffffffff1602179055506000809054906101000a900473ffffffffffffffffffffffffffffffffffffffff1673ffffffffffffffffffffffffffffffffffffffff16600073ffffffffffffffffffffffffffffffffffffffff167f8be0079c531659141344cd1fd0a4f28419497f9722a3daafe3b4186f6b6457e060405160405180910390a36001604051620000de90620001f6565b604051809103906000f080158015620000fb573d6000803e3d6000fd5b5090806001815401808255809150509060018203906000526020600020016000909192909190916101000a81548173ffffffffffffffffffffffffffffffffffffffff021916908373ffffffffffffffffffffffffffffffffffffffff1602179055505060016040516200016f9062000204565b604051809103906000f0801580156200018c573d6000803e3d6000fd5b5090806001815401808255809150509060018203906000526020600020016000909192909190916101000a81548173ffffffffffffffffffffffffffffffffffffffff021916908373ffffffffffffffffffffffffffffffffffffffff1602179055505062000212565b6114838062001c6583390190565b6126d180620030e883390190565b611a4380620002226000396000f3fe6080604052600436106100dd5760003560e01c80638f32d59b1161007f578063b2bdfa7b11610059578063b2bdfa7b1461034a578063da436d35146103a1578063ed10e636146103d0578063f2fde38b14610461576100dd565b80638f32d59b146102b4578063af899735146102e3578063b18a82ab1461031b576100dd565b8063715018a6116100bb578063715018a6146102015780637b12f6d3146102185780637e1ba4f2146102535780638da5cb5b1461025d576100dd565b80631a0843c0146100e2578063437de86f1461010d5780636f80e30a14610163575b600080fd5b3480156100ee57600080fd5b506100f76104b2565b6040518082815260200191505060405180910390f35b34801561011957600080fd5b506101496004803603602081101561013057600080fd5b81019080803560ff16906020019092919050505061057c565b604051808215151515815260200191505060405180910390f35b6101e76004803603604081101561017957600080fd5b810190808035906020019064010000000081111561019657600080fd5b8201836020820111156101a857600080fd5b803590602001918460018302840111640100000000831117156101ca57600080fd5b9091929391929390803560ff16906020019092919050505061073e565b604051808215151515815260200191505060405180910390f35b34801561020d57600080fd5b50610216610ad9565b005b34801561022457600080fd5b506102516004803603602081101561023b57600080fd5b8101908080359060200190929190505050610c3d565b005b61025b610dbf565b005b34801561026957600080fd5b50610272610edc565b604051808273ffffffffffffffffffffffffffffffffffffffff1673ffffffffffffffffffffffffffffffffffffffff16815260200191505060405180910390f35b3480156102c057600080fd5b506102c9610f05565b604051808215151515815260200191505060405180910390f35b3480156102ef57600080fd5b506102f8610f5c565b604051808360ff1660ff1681526020018281526020019250505060405180910390f35b34801561032757600080fd5b506103306112c3565b604051808215151515815260200191505060405180910390f35b34801561035657600080fd5b5061035f6115b1565b604051808273ffffffffffffffffffffffffffffffffffffffff1673ffffffffffffffffffffffffffffffffffffffff16815260200191505060405180910390f35b3480156103ad57600080fd5b506103b66115d6565b604051808215151515815260200191505060405180910390f35b3480156103dc57600080fd5b5061041f600480360360208110156103f357600080fd5b81019080803573ffffffffffffffffffffffffffffffffffffffff1690602001909291905050506117f5565b604051808273ffffffffffffffffffffffffffffffffffffffff1673ffffffffffffffffffffffffffffffffffffffff16815260200191505060405180910390f35b34801561046d57600080fd5b506104b06004803603602081101561048457600080fd5b81019080803573ffffffffffffffffffffffffffffffffffffffff169060200190929190505050611828565b005b60008060009054906101000a900473ffffffffffffffffffffffffffffffffffffffff1673ffffffffffffffffffffffffffffffffffffffff163373ffffffffffffffffffffffffffffffffffffffff1614610559576040517f08c379a00000000000000000000000000000000000000000000000000000000081526004018080602001828103825260268152602001806119e96026913960400191505060405180910390fd5b60003090508073ffffffffffffffffffffffffffffffffffffffff163191505090565b60006001805490508260ff1611156105fc576040517f08c379a00000000000000000000000000000000000000000000000000000000081526004018080602001828103825260178152602001807f546869732067616d6520646f65736e277420657869737400000000000000000081525060200191505060405180910390fd5b600161061560018460ff166118d990919063ffffffff16565b8154811061061f57fe5b9060005260206000200160009054906101000a900473ffffffffffffffffffffffffffffffffffffffff16600260003373ffffffffffffffffffffffffffffffffffffffff1673ffffffffffffffffffffffffffffffffffffffff16815260200190815260200160002060006101000a81548173ffffffffffffffffffffffffffffffffffffffff021916908373ffffffffffffffffffffffffffffffffffffffff1602179055507fb4b4034191b68cd986ada67a48ab3037785015a1dff2494e7ea519db06715ea63383604051808373ffffffffffffffffffffffffffffffffffffffff1673ffffffffffffffffffffffffffffffffffffffff1681526020018260ff1681526020019250505060405180910390a160019050919050565b60008073ffffffffffffffffffffffffffffffffffffffff16600260003373ffffffffffffffffffffffffffffffffffffffff1673ffffffffffffffffffffffffffffffffffffffff16815260200190815260200160002060009054906101000a900473ffffffffffffffffffffffffffffffffffffffff1673ffffffffffffffffffffffffffffffffffffffff161415610841576040517f08c379a000000000000000000000000000000000000000000000000000000000815260040180806020018281038252601c8152602001807f5468657265206973206e6f2063757272656e742067616d65207365740000000081525060200191505060405180910390fd5b6000600260003373ffffffffffffffffffffffffffffffffffffffff1673ffffffffffffffffffffffffffffffffffffffff16815260200190815260200160002060009054906101000a900473ffffffffffffffffffffffffffffffffffffffff1673ffffffffffffffffffffffffffffffffffffffff166362127da833878787346040518663ffffffff1660e01b8152600401808673ffffffffffffffffffffffffffffffffffffffff1673ffffffffffffffffffffffffffffffffffffffff168152602001806020018460ff1660ff1681526020018381526020018281038252868682818152602001925080828437600081840152601f19601f8201169050808301925050509650505050505050602060405180830381600087803b15801561096b57600080fd5b505af115801561097f573d6000803e3d6000fd5b505050506040513d602081101561099557600080fd5b810190808051906020019092919050505090508015610a64577f267cb178779c6a6b09797e6bc54eb6236adf347c72a6e0617d58e6a6378e89e23386868634604051808673ffffffffffffffffffffffffffffffffffffffff1673ffffffffffffffffffffffffffffffffffffffff168152602001806020018460ff1660ff1681526020018381526020018281038252868682818152602001925080828437600081840152601f19601f820116905080830192505050965050505050505060405180910390a180915050610ad2565b6040517f08c379a000000000000000000000000000000000000000000000000000000000815260040180806020018281038252600d8152602001807f496e636f7272656374206265740000000000000000000000000000000000000081525060200191505060405180910390fd5b9392505050565b6000809054906101000a900473ffffffffffffffffffffffffffffffffffffffff1673ffffffffffffffffffffffffffffffffffffffff163373ffffffffffffffffffffffffffffffffffffffff1614610b7e576040517f08c379a00000000000000000000000000000000000000000000000000000000081526004018080602001828103825260268152602001806119e96026913960400191505060405180910390fd5b600073ffffffffffffffffffffffffffffffffffffffff166000809054906101000a900473ffffffffffffffffffffffffffffffffffffffff1673ffffffffffffffffffffffffffffffffffffffff167f8be0079c531659141344cd1fd0a4f28419497f9722a3daafe3b4186f6b6457e060405160405180910390a360008060006101000a81548173ffffffffffffffffffffffffffffffffffffffff021916908373ffffffffffffffffffffffffffffffffffffffff160217905550565b6000809054906101000a900473ffffffffffffffffffffffffffffffffffffffff1673ffffffffffffffffffffffffffffffffffffffff163373ffffffffffffffffffffffffffffffffffffffff1614610ce2576040517f08c379a00000000000000000000000000000000000000000000000000000000081526004018080602001828103825260268152602001806119e96026913960400191505060405180910390fd5b6000309050818173ffffffffffffffffffffffffffffffffffffffff16311015610d74576040517f08c379a00000000000000000000000000000000000000000000000000000000081526004018080602001828103825260128152602001807f4e6f7420656e6f7567682062616c616e6365000000000000000000000000000081525060200191505060405180910390fd5b3373ffffffffffffffffffffffffffffffffffffffff166108fc839081150290604051600060405180830381858888f19350505050158015610dba573d6000803e3d6000fd5b505050565b6000809054906101000a900473ffffffffffffffffffffffffffffffffffffffff1673ffffffffffffffffffffffffffffffffffffffff163373ffffffffffffffffffffffffffffffffffffffff1614610e64576040517f08c379a00000000000000000000000000000000000000000000000000000000081526004018080602001828103825260268152602001806119e96026913960400191505060405180910390fd5b60003411610eda576040517f08c379a00000000000000000000000000000000000000000000000000000000081526004018080602001828103825260138152602001807f4e6f2066756e6473207472616e7366657265640000000000000000000000000081525060200191505060405180910390fd5b565b60008060009054906101000a900473ffffffffffffffffffffffffffffffffffffffff16905090565b60008060009054906101000a900473ffffffffffffffffffffffffffffffffffffffff1673ffffffffffffffffffffffffffffffffffffffff163373ffffffffffffffffffffffffffffffffffffffff1614905090565b600080600073ffffffffffffffffffffffffffffffffffffffff16600260003373ffffffffffffffffffffffffffffffffffffffff1673ffffffffffffffffffffffffffffffffffffffff16815260200190815260200160002060009054906101000a900473ffffffffffffffffffffffffffffffffffffffff1673ffffffffffffffffffffffffffffffffffffffff161415611061576040517f08c379a000000000000000000000000000000000000000000000000000000000815260040180806020018281038252601c8152602001807f5468657265206973206e6f2063757272656e742067616d65207365740000000081525060200191505060405180910390fd5b600080600260003373ffffffffffffffffffffffffffffffffffffffff1673ffffffffffffffffffffffffffffffffffffffff16815260200190815260200160002060009054906101000a900473ffffffffffffffffffffffffffffffffffffffff1673ffffffffffffffffffffffffffffffffffffffff1663e492814f336040518263ffffffff1660e01b8152600401808273ffffffffffffffffffffffffffffffffffffffff1673ffffffffffffffffffffffffffffffffffffffff1681526020019150506040805180830381600087803b15801561114157600080fd5b505af1158015611155573d6000803e3d6000fd5b505050506040513d604081101561116b57600080fd5b810190808051906020019092919080519060200190929190505050915091507fa6a067cdc40995e0a89d03e63c485b72543d9befa19082c9cebda31b84127cb33383604051808373ffffffffffffffffffffffffffffffffffffffff1673ffffffffffffffffffffffffffffffffffffffff1681526020018260ff1660ff1681526020019250505060405180910390a160008111156112b7573373ffffffffffffffffffffffffffffffffffffffff166108fc829081150290604051600060405180830381858888f1935050505015801561124a573d6000803e3d6000fd5b507f83188de2cb5d7641681aae234acaeaebf71ce5a507e50690788de0f7b5e0bd3f3382604051808373ffffffffffffffffffffffffffffffffffffffff1673ffffffffffffffffffffffffffffffffffffffff1681526020018281526020019250505060405180910390a15b81819350935050509091565b60008073ffffffffffffffffffffffffffffffffffffffff16600260003373ffffffffffffffffffffffffffffffffffffffff1673ffffffffffffffffffffffffffffffffffffffff16815260200190815260200160002060009054906101000a900473ffffffffffffffffffffffffffffffffffffffff1673ffffffffffffffffffffffffffffffffffffffff1614156113c6576040517f08c379a000000000000000000000000000000000000000000000000000000000815260040180806020018281038252601c8152602001807f5468657265206973206e6f2063757272656e742067616d65207365740000000081525060200191505060405180910390fd5b6000600260003373ffffffffffffffffffffffffffffffffffffffff1673ffffffffffffffffffffffffffffffffffffffff16815260200190815260200160002060009054906101000a900473ffffffffffffffffffffffffffffffffffffffff1673ffffffffffffffffffffffffffffffffffffffff1663f74640b3336040518263ffffffff1660e01b8152600401808273ffffffffffffffffffffffffffffffffffffffff1673ffffffffffffffffffffffffffffffffffffffff168152602001915050602060405180830381600087803b1580156114a657600080fd5b505af11580156114ba573d6000803e3d6000fd5b505050506040513d60208110156114d057600080fd5b8101908080519060200190929190505050905060008111156115a8573373ffffffffffffffffffffffffffffffffffffffff166108fc829081150290604051600060405180830381858888f19350505050158015611532573d6000803e3d6000fd5b507fd4a208b1b444c7e2d115b4367a20a153a705ea4d7122c910203cdcb71ed69b1e3382604051808373ffffffffffffffffffffffffffffffffffffffff1673ffffffffffffffffffffffffffffffffffffffff1681526020018281526020019250505060405180910390a160019150506115ae565b60009150505b90565b6000809054906101000a900473ffffffffffffffffffffffffffffffffffffffff1681565b60008073ffffffffffffffffffffffffffffffffffffffff16600260003373ffffffffffffffffffffffffffffffffffffffff1673ffffffffffffffffffffffffffffffffffffffff16815260200190815260200160002060009054906101000a900473ffffffffffffffffffffffffffffffffffffffff1673ffffffffffffffffffffffffffffffffffffffff1614156116d9576040517f08c379a000000000000000000000000000000000000000000000000000000000815260040180806020018281038252601c8152602001807f5468657265206973206e6f2063757272656e742067616d65207365740000000081525060200191505060405180910390fd5b600260003373ffffffffffffffffffffffffffffffffffffffff1673ffffffffffffffffffffffffffffffffffffffff16815260200190815260200160002060009054906101000a900473ffffffffffffffffffffffffffffffffffffffff1673ffffffffffffffffffffffffffffffffffffffff16635cbe6c54336040518263ffffffff1660e01b8152600401808273ffffffffffffffffffffffffffffffffffffffff1673ffffffffffffffffffffffffffffffffffffffff16815260200191505060206040518083038186803b1580156117b557600080fd5b505afa1580156117c9573d6000803e3d6000fd5b505050506040513d60208110156117df57600080fd5b8101908080519060200190929190505050905090565b60026020528060005260406000206000915054906101000a900473ffffffffffffffffffffffffffffffffffffffff1681565b6000809054906101000a900473ffffffffffffffffffffffffffffffffffffffff1673ffffffffffffffffffffffffffffffffffffffff163373ffffffffffffffffffffffffffffffffffffffff16146118cd576040517f08c379a00000000000000000000000000000000000000000000000000000000081526004018080602001828103825260268152602001806119e96026913960400191505060405180910390fd5b6118d6816118f0565b50565b6000828211156118e557fe5b818303905092915050565b600073ffffffffffffffffffffffffffffffffffffffff168173ffffffffffffffffffffffffffffffffffffffff16141561192a57600080fd5b8073ffffffffffffffffffffffffffffffffffffffff166000809054906101000a900473ffffffffffffffffffffffffffffffffffffffff1673ffffffffffffffffffffffffffffffffffffffff167f8be0079c531659141344cd1fd0a4f28419497f9722a3daafe3b4186f6b6457e060405160405180910390a3806000806101000a81548173ffffffffffffffffffffffffffffffffffffffff021916908373ffffffffffffffffffffffffffffffffffffffff1602179055505056fe596f7520617265206e6f7420746865206f776e6572206f66207468697320636f6e7472616374a265627a7a72315820484209c878c7b1360846661de8d07a4178040e69d887d491d1c1132be579b44364736f6c63430005100032608060405260008055678ac7230489e800006001556000600255600660055533600360006101000a81548173ffffffffffffffffffffffffffffffffffffffff021916908373ffffffffffffffffffffffffffffffffffffffff160217905550600360009054906101000a900473ffffffffffffffffffffffffffffffffffffffff1673ffffffffffffffffffffffffffffffffffffffff16600073ffffffffffffffffffffffffffffffffffffffff167f8be0079c531659141344cd1fd0a4f28419497f9722a3daafe3b4186f6b6457e060405160405180910390a3611398806100eb6000396000f3fe608060405234801561001057600080fd5b50600436106100a95760003560e01c80638f32d59b116100715780638f32d59b14610244578063b2bdfa7b14610266578063c32ec336146102b0578063e492814f146102ce578063f2fde38b14610333578063f74640b314610377576100a9565b80635cbe6c54146100ae5780635d5ae2451461010a57806362127da814610128578063715018a6146101f05780638da5cb5b146101fa575b600080fd5b6100f0600480360360208110156100c457600080fd5b81019080803573ffffffffffffffffffffffffffffffffffffffff1690602001909291905050506103cf565b604051808215151515815260200191505060405180910390f35b6101126104ce565b6040518082815260200191505060405180910390f35b6101d66004803603608081101561013e57600080fd5b81019080803573ffffffffffffffffffffffffffffffffffffffff1690602001909291908035906020019064010000000081111561017b57600080fd5b82018360208201111561018d57600080fd5b803590602001918460018302840111640100000000831117156101af57600080fd5b9091929391929390803560ff169060200190929190803590602001909291905050506104d4565b604051808215151515815260200191505060405180910390f35b6101f8610985565b005b610202610aec565b604051808273ffffffffffffffffffffffffffffffffffffffff1673ffffffffffffffffffffffffffffffffffffffff16815260200191505060405180910390f35b61024c610b16565b604051808215151515815260200191505060405180910390f35b61026e610b6e565b604051808273ffffffffffffffffffffffffffffffffffffffff1673ffffffffffffffffffffffffffffffffffffffff16815260200191505060405180910390f35b6102b8610b94565b6040518082815260200191505060405180910390f35b610310600480360360208110156102e457600080fd5b81019080803573ffffffffffffffffffffffffffffffffffffffff169060200190929190505050610b9a565b604051808360ff1660ff1681526020018281526020019250505060405180910390f35b6103756004803603602081101561034957600080fd5b81019080803573ffffffffffffffffffffffffffffffffffffffff169060200190929190505050610e3e565b005b6103b96004803603602081101561038d57600080fd5b81019080803573ffffffffffffffffffffffffffffffffffffffff169060200190929190505050610ef0565b6040518082815260200191505060405180910390f35b6000600360009054906101000a900473ffffffffffffffffffffffffffffffffffffffff1673ffffffffffffffffffffffffffffffffffffffff163373ffffffffffffffffffffffffffffffffffffffff1614610477576040517f08c379a000000000000000000000000000000000000000000000000000000000815260040180806020018281038252602681526020018061133e6026913960400191505060405180910390fd5b600460008373ffffffffffffffffffffffffffffffffffffffff1673ffffffffffffffffffffffffffffffffffffffff16815260200190815260200160002060000160009054906101000a900460ff169050919050565b60025481565b6000600360009054906101000a900473ffffffffffffffffffffffffffffffffffffffff1673ffffffffffffffffffffffffffffffffffffffff163373ffffffffffffffffffffffffffffffffffffffff161461057c576040517f08c379a000000000000000000000000000000000000000000000000000000000815260040180806020018281038252602681526020018061133e6026913960400191505060405180910390fd5b816002548110156105f5576040517f08c379a00000000000000000000000000000000000000000000000000000000081526004018080602001828103825260118152602001807f546f6f206c6f77206265742076616c756500000000000000000000000000000081525060200191505060405180910390fd5b60015481111561066d576040517f08c379a00000000000000000000000000000000000000000000000000000000081526004018080602001828103825260128152602001807f546f6f2068696768206265742076616c7565000000000000000000000000000081525060200191505060405180910390fd5b600460008873ffffffffffffffffffffffffffffffffffffffff1673ffffffffffffffffffffffffffffffffffffffff16815260200190815260200160002060000160009054906101000a900460ff166000151581151514610737576040517f08c379a000000000000000000000000000000000000000000000000000000000815260040180806020018281038252601c8152602001807f546865726520697320616c72656164792061206265742072656164790000000081525060200191505060405180910390fd5b60028560ff1610156107b1576040517f08c379a000000000000000000000000000000000000000000000000000000000815260040180806020018281038252601c8152602001807f426574206d757374206265206265747765656e203220616e642031320000000081525060200191505060405180910390fd5b600c8560ff16111561082b576040517f08c379a000000000000000000000000000000000000000000000000000000000815260040180806020018281038252601c8152602001807f426574206d757374206265206265747765656e203220616e642031320000000081525060200191505060405180910390fd5b84600460008a73ffffffffffffffffffffffffffffffffffffffff1673ffffffffffffffffffffffffffffffffffffffff16815260200190815260200160002060020160006101000a81548160ff021916908360ff1602179055506001600460008a73ffffffffffffffffffffffffffffffffffffffff1673ffffffffffffffffffffffffffffffffffffffff16815260200190815260200160002060000160006101000a81548160ff02191690831515021790555083600460008a73ffffffffffffffffffffffffffffffffffffffff1673ffffffffffffffffffffffffffffffffffffffff16815260200190815260200160002060010181905550600460008973ffffffffffffffffffffffffffffffffffffffff1673ffffffffffffffffffffffffffffffffffffffff16815260200190815260200160002060000160009054906101000a900460ff169250505095945050505050565b600360009054906101000a900473ffffffffffffffffffffffffffffffffffffffff1673ffffffffffffffffffffffffffffffffffffffff163373ffffffffffffffffffffffffffffffffffffffff1614610a2b576040517f08c379a000000000000000000000000000000000000000000000000000000000815260040180806020018281038252602681526020018061133e6026913960400191505060405180910390fd5b600073ffffffffffffffffffffffffffffffffffffffff16600360009054906101000a900473ffffffffffffffffffffffffffffffffffffffff1673ffffffffffffffffffffffffffffffffffffffff167f8be0079c531659141344cd1fd0a4f28419497f9722a3daafe3b4186f6b6457e060405160405180910390a36000600360006101000a81548173ffffffffffffffffffffffffffffffffffffffff021916908373ffffffffffffffffffffffffffffffffffffffff160217905550565b6000600360009054906101000a900473ffffffffffffffffffffffffffffffffffffffff16905090565b6000600360009054906101000a900473ffffffffffffffffffffffffffffffffffffffff1673ffffffffffffffffffffffffffffffffffffffff163373ffffffffffffffffffffffffffffffffffffffff1614905090565b600360009054906101000a900473ffffffffffffffffffffffffffffffffffffffff1681565b60015481565b600080600360009054906101000a900473ffffffffffffffffffffffffffffffffffffffff1673ffffffffffffffffffffffffffffffffffffffff163373ffffffffffffffffffffffffffffffffffffffff1614610c43576040517f08c379a000000000000000000000000000000000000000000000000000000000815260040180806020018281038252602681526020018061133e6026913960400191505060405180910390fd5b600460008473ffffffffffffffffffffffffffffffffffffffff1673ffffffffffffffffffffffffffffffffffffffff16815260200190815260200160002060000160009054906101000a900460ff166001151581151514610d0d576040517f08c379a000000000000000000000000000000000000000000000000000000000815260040180806020018281038252601e8152602001807f596f75206e65656420746f20626574206265666f726520706c6179696e67000081525060200191505060405180910390fd5b6000610d17611108565b90506000809050600460008773ffffffffffffffffffffffffffffffffffffffff1673ffffffffffffffffffffffffffffffffffffffff16815260200190815260200160002060020160009054906101000a900460ff1660ff168260ff161415610dd557610dd2600554600460008973ffffffffffffffffffffffffffffffffffffffff1673ffffffffffffffffffffffffffffffffffffffff1681526020019081526020016000206001015461113e90919063ffffffff16565b90505b6000600460008873ffffffffffffffffffffffffffffffffffffffff1673ffffffffffffffffffffffffffffffffffffffff16815260200190815260200160002060000160006101000a81548160ff021916908315150217905550818194509450505050915091565b600360009054906101000a900473ffffffffffffffffffffffffffffffffffffffff1673ffffffffffffffffffffffffffffffffffffffff163373ffffffffffffffffffffffffffffffffffffffff1614610ee4576040517f08c379a000000000000000000000000000000000000000000000000000000000815260040180806020018281038252602681526020018061133e6026913960400191505060405180910390fd5b610eed81611175565b50565b6000600360009054906101000a900473ffffffffffffffffffffffffffffffffffffffff1673ffffffffffffffffffffffffffffffffffffffff163373ffffffffffffffffffffffffffffffffffffffff1614610f98576040517f08c379a000000000000000000000000000000000000000000000000000000000815260040180806020018281038252602681526020018061133e6026913960400191505060405180910390fd5b600460008373ffffffffffffffffffffffffffffffffffffffff1673ffffffffffffffffffffffffffffffffffffffff16815260200190815260200160002060000160009054906101000a900460ff166001151581151514611062576040517f08c379a000000000000000000000000000000000000000000000000000000000815260040180806020018281038252601e8152602001807f596f75206e65656420746f20626574206265666f726520706c6179696e67000081525060200191505060405180910390fd5b6000600460008573ffffffffffffffffffffffffffffffffffffffff1673ffffffffffffffffffffffffffffffffffffffff16815260200190815260200160002060000160006101000a81548160ff021916908315150217905550600460008473ffffffffffffffffffffffffffffffffffffffff1673ffffffffffffffffffffffffffffffffffffffff16815260200190815260200160002060010154915050919050565b60006111396111196001600661126f565b60ff166111286001600661126f565b60ff1661132190919063ffffffff16565b905090565b600080831415611151576000905061116f565b600082840290508284828161116257fe5b041461116a57fe5b809150505b92915050565b600073ffffffffffffffffffffffffffffffffffffffff168173ffffffffffffffffffffffffffffffffffffffff1614156111af57600080fd5b8073ffffffffffffffffffffffffffffffffffffffff16600360009054906101000a900473ffffffffffffffffffffffffffffffffffffffff1673ffffffffffffffffffffffffffffffffffffffff167f8be0079c531659141344cd1fd0a4f28419497f9722a3daafe3b4186f6b6457e060405160405180910390a380600360006101000a81548173ffffffffffffffffffffffffffffffffffffffff021916908373ffffffffffffffffffffffffffffffffffffffff16021790555050565b6000611287600160005461132190919063ffffffff16565b6000819055506113198360ff168360ff164233600054604051602001808481526020018373ffffffffffffffffffffffffffffffffffffffff1673ffffffffffffffffffffffffffffffffffffffff1660601b815260140182815260200193505050506040516020818303038152906040528051906020012060001c8161130a57fe5b0661132190919063ffffffff16565b905092915050565b60008082840190508381101561133357fe5b809150509291505056fe596f7520617265206e6f7420746865206f776e6572206f66207468697320636f6e7472616374a265627a7a723158205ae04f1acc6acae47241af4176e0edc2266b7910ecb99b271fc27c7bfd77fd4864736f6c63430005100032608060405260008055678ac7230489e800006001556000600255604051806104800160405280600115151515815260200160001515151581526020016001151515158152602001600015151515815260200160011515151581526020016000151515158152602001600115151515815260200160001515151581526020016001151515158152602001600015151515815260200160001515151581526020016001151515158152602001600015151515815260200160011515151581526020016000151515158152602001600115151515815260200160001515151581526020016001151515158152602001600115151515815260200160001515151581526020016001151515158152602001600015151515815260200160011515151581526020016000151515158152602001600115151515815260200160001515151581526020016001151515158152602001600015151515815260200160001515151581526020016001151515158152602001600015151515815260200160011515151581526020016000151515158152602001600115151515815260200160001515151581526020016001151515158152506005906024620001c192919062000286565b5033600360006101000a81548173ffffffffffffffffffffffffffffffffffffffff021916908373ffffffffffffffffffffffffffffffffffffffff160217905550600360009054906101000a900473ffffffffffffffffffffffffffffffffffffffff1673ffffffffffffffffffffffffffffffffffffffff16600073ffffffffffffffffffffffffffffffffffffffff167f8be0079c531659141344cd1fd0a4f28419497f9722a3daafe3b4186f6b6457e060405160405180910390a362000359565b826024601f01602090048101928215620003135791602002820160005b83821115620002e257835183826101000a81548160ff0219169083151502179055509260200192600101602081600001049283019260010302620002a3565b8015620003115782816101000a81549060ff0219169055600101602081600001049283019260010302620002e2565b505b50905062000322919062000326565b5090565b6200035691905b808211156200035257600081816101000a81549060ff0219169055506001016200032d565b5090565b90565b61236880620003696000396000f3fe608060405234801561001057600080fd5b50600436106100a95760003560e01c80638f32d59b116100715780638f32d59b14610244578063b2bdfa7b14610266578063c32ec336146102b0578063e492814f146102ce578063f2fde38b14610333578063f74640b314610377576100a9565b80635cbe6c54146100ae5780635d5ae2451461010a57806362127da814610128578063715018a6146101f05780638da5cb5b146101fa575b600080fd5b6100f0600480360360208110156100c457600080fd5b81019080803573ffffffffffffffffffffffffffffffffffffffff1690602001909291905050506103cf565b604051808215151515815260200191505060405180910390f35b6101126104d5565b6040518082815260200191505060405180910390f35b6101d66004803603608081101561013e57600080fd5b81019080803573ffffffffffffffffffffffffffffffffffffffff1690602001909291908035906020019064010000000081111561017b57600080fd5b82018360208201111561018d57600080fd5b803590602001918460018302840111640100000000831117156101af57600080fd5b9091929391929390803560ff169060200190929190803590602001909291905050506104db565b604051808215151515815260200191505060405180910390f35b6101f861140c565b005b610202611573565b604051808273ffffffffffffffffffffffffffffffffffffffff1673ffffffffffffffffffffffffffffffffffffffff16815260200191505060405180910390f35b61024c61159d565b604051808215151515815260200191505060405180910390f35b61026e6115f5565b604051808273ffffffffffffffffffffffffffffffffffffffff1673ffffffffffffffffffffffffffffffffffffffff16815260200191505060405180910390f35b6102b861161b565b6040518082815260200191505060405180910390f35b610310600480360360208110156102e457600080fd5b81019080803573ffffffffffffffffffffffffffffffffffffffff169060200190929190505050611621565b604051808360ff1660ff1681526020018281526020019250505060405180910390f35b6103756004803603602081101561034957600080fd5b81019080803573ffffffffffffffffffffffffffffffffffffffff169060200190929190505050611e31565b005b6103b96004803603602081101561038d57600080fd5b81019080803573ffffffffffffffffffffffffffffffffffffffff169060200190929190505050611ee3565b6040518082815260200191505060405180910390f35b6000600360009054906101000a900473ffffffffffffffffffffffffffffffffffffffff1673ffffffffffffffffffffffffffffffffffffffff163373ffffffffffffffffffffffffffffffffffffffff1614610477576040517f08c379a000000000000000000000000000000000000000000000000000000000815260040180806020018281038252602681526020018061230e6026913960400191505060405180910390fd5b6000600460008473ffffffffffffffffffffffffffffffffffffffff1673ffffffffffffffffffffffffffffffffffffffff16815260200190815260200160002060010160009054906101000a900460ff1660ff1614159050919050565b60025481565b6000600360009054906101000a900473ffffffffffffffffffffffffffffffffffffffff1673ffffffffffffffffffffffffffffffffffffffff163373ffffffffffffffffffffffffffffffffffffffff1614610583576040517f08c379a000000000000000000000000000000000000000000000000000000000815260040180806020018281038252602681526020018061230e6026913960400191505060405180910390fd5b816002548110156105fc576040517f08c379a00000000000000000000000000000000000000000000000000000000081526004018080602001828103825260118152602001807f546f6f206c6f77206265742076616c756500000000000000000000000000000081525060200191505060405180910390fd5b600154811115610674576040517f08c379a00000000000000000000000000000000000000000000000000000000081526004018080602001828103825260128152602001807f546f6f2068696768206265742076616c7565000000000000000000000000000081525060200191505060405180910390fd5b6000600460008973ffffffffffffffffffffffffffffffffffffffff1673ffffffffffffffffffffffffffffffffffffffff16815260200190815260200160002060010160009054906101000a900460ff1660ff1614156000151581151514610745576040517f08c379a000000000000000000000000000000000000000000000000000000000815260040180806020018281038252601c8152602001807f546865726520697320616c72656164792061206265742072656164790000000081525060200191505060405180910390fd5b600080905060008090506107d289898080601f016020809104026020016040519081016040528093929190818152602001838380828437600081840152601f19601f820116905080830192505050505050506040518060400160405280600681526020017f53696e676c650000000000000000000000000000000000000000000000000000815250612103565b15610804578660ff166000111580156107ef575060248760ff1611155b156107ff57600191508660ff1690505b611283565b61088789898080601f016020809104026020016040519081016040528093929190818152602001838380828437600081840152601f19601f820116905080830192505050505050506040518060400160405280601081526020017f486f72697a6f6e74616c2073706c697400000000000000000000000000000000815250612103565b156108fb578660ff166001111580156108a4575060238760ff1611155b80156108c15750600060038860ff16816108ba57fe5b0660ff1614155b156108f6576002915060036001880360ff16816108da57fe5b0660036001890360ff16816108eb57fe5b046002020160ff1690505b611282565b61097e89898080601f016020809104026020016040519081016040528093929190818152602001838380828437600081840152601f19601f820116905080830192505050505050506040518060400160405280600e81526020017f566572746963616c2073706c6974000000000000000000000000000000000000815250612103565b156109b3578660ff1660011115801561099b575060218760ff1611155b156109ae57600291508660170160ff1690505b611281565b610a3689898080601f016020809104026020016040519081016040528093929190818152602001838380828437600081840152601f19601f820116905080830192505050505050506040518060400160405280600681526020017f5374726565740000000000000000000000000000000000000000000000000000815250612103565b15610a6b578660ff16600111158015610a535750600c8760ff1611155b15610a6657600391506001870360ff1690505b611280565b610aee89898080601f016020809104026020016040519081016040528093929190818152602001838380828437600081840152601f19601f820116905080830192505050505050506040518060400160405280600681526020017f5371756172650000000000000000000000000000000000000000000000000000815250612103565b15610b62578660ff16600111158015610b0b575060208760ff1611155b8015610b285750600060038860ff1681610b2157fe5b0660ff1614155b15610b5d576004915060036001880360ff1681610b4157fe5b0660036001890360ff1681610b5257fe5b046002020160ff1690505b61127f565b610be589898080601f016020809104026020016040519081016040528093929190818152602001838380828437600081840152601f19601f820116905080830192505050505050506040518060400160405280600d81526020017f446f75626c652073747265657400000000000000000000000000000000000000815250612103565b15610c1a578660ff16600111158015610c025750600b8760ff1611155b15610c1557600691506001870360ff1690505b61127e565b610c9d89898080601f016020809104026020016040519081016040528093929190818152602001838380828437600081840152601f19601f820116905080830192505050505050506040518060400160405280600681526020017f436f6c756d6e0000000000000000000000000000000000000000000000000000815250612103565b15610cd2578660ff16600111158015610cba575060038760ff1611155b15610ccd57600c91506001870360ff1690505b61127d565b610d5589898080601f016020809104026020016040519081016040528093929190818152602001838380828437600081840152601f19601f820116905080830192505050505050506040518060400160405280600581526020017f446f7a656e000000000000000000000000000000000000000000000000000000815250612103565b15610d8a578660ff16600111158015610d72575060038760ff1611155b15610d8557600c91508660020160ff1690505b61127c565b610e0d89898080601f016020809104026020016040519081016040528093929190818152602001838380828437600081840152601f19601f820116905080830192505050505050506040518060400160405280600381526020017f4c6f770000000000000000000000000000000000000000000000000000000000815250612103565b15610e1f57601291506000905061127b565b610ea289898080601f016020809104026020016040519081016040528093929190818152602001838380828437600081840152601f19601f820116905080830192505050505050506040518060400160405280600481526020017f4869676800000000000000000000000000000000000000000000000000000000815250612103565b15610eb457601291506001905061127a565b610f3789898080601f016020809104026020016040519081016040528093929190818152602001838380828437600081840152601f19601f820116905080830192505050505050506040518060400160405280600381526020017f5265640000000000000000000000000000000000000000000000000000000000815250612103565b15610f49576012915060029050611279565b610fcc89898080601f016020809104026020016040519081016040528093929190818152602001838380828437600081840152601f19601f820116905080830192505050505050506040518060400160405280600581526020017f426c61636b000000000000000000000000000000000000000000000000000000815250612103565b15610fde576012915060039050611278565b61106189898080601f016020809104026020016040519081016040528093929190818152602001838380828437600081840152601f19601f820116905080830192505050505050506040518060400160405280600481526020017f4576656e00000000000000000000000000000000000000000000000000000000815250612103565b15611073576012915060049050611277565b6110f689898080601f016020809104026020016040519081016040528093929190818152602001838380828437600081840152601f19601f820116905080830192505050505050506040518060400160405280600381526020017f4f64640000000000000000000000000000000000000000000000000000000000815250612103565b15611108576012915060059050611276565b61118b89898080601f016020809104026020016040519081016040528093929190818152602001838380828437600081840152601f19601f820116905080830192505050505050506040518060400160405280600d81526020017f446f75626c6520636f6c756d6e00000000000000000000000000000000000000815250612103565b156111c0578660ff166001111580156111a8575060028760ff1611155b156111bb57601891506001870360ff1690505b611275565b61124389898080601f016020809104026020016040519081016040528093929190818152602001838380828437600081840152601f19601f820116905080830192505050505050506040518060400160405280600c81526020017f446f75626c6520646f7a656e0000000000000000000000000000000000000000815250612103565b15611274578660ff16600111158015611260575060028760ff1611155b1561127357601891508660010160ff1690505b5b5b5b5b5b5b5b5b5b5b5b5b5b5b5b5b6000808314159050806112fe576040517f08c379a00000000000000000000000000000000000000000000000000000000081526004018080602001828103825260138152602001807f496e76616c69642074797065206f66206265740000000000000000000000000081525060200191505060405180910390fd5b86600460008d73ffffffffffffffffffffffffffffffffffffffff1673ffffffffffffffffffffffffffffffffffffffff1681526020019081526020016000206000018190555082600460008d73ffffffffffffffffffffffffffffffffffffffff1673ffffffffffffffffffffffffffffffffffffffff16815260200190815260200160002060010160006101000a81548160ff021916908360ff16021790555081600460008d73ffffffffffffffffffffffffffffffffffffffff1673ffffffffffffffffffffffffffffffffffffffff16815260200190815260200160002060010160016101000a81548160ff021916908360ff160217905550809550505050505095945050505050565b600360009054906101000a900473ffffffffffffffffffffffffffffffffffffffff1673ffffffffffffffffffffffffffffffffffffffff163373ffffffffffffffffffffffffffffffffffffffff16146114b2576040517f08c379a000000000000000000000000000000000000000000000000000000000815260040180806020018281038252602681526020018061230e6026913960400191505060405180910390fd5b600073ffffffffffffffffffffffffffffffffffffffff16600360009054906101000a900473ffffffffffffffffffffffffffffffffffffffff1673ffffffffffffffffffffffffffffffffffffffff167f8be0079c531659141344cd1fd0a4f28419497f9722a3daafe3b4186f6b6457e060405160405180910390a36000600360006101000a81548173ffffffffffffffffffffffffffffffffffffffff021916908373ffffffffffffffffffffffffffffffffffffffff160217905550565b6000600360009054906101000a900473ffffffffffffffffffffffffffffffffffffffff16905090565b6000600360009054906101000a900473ffffffffffffffffffffffffffffffffffffffff1673ffffffffffffffffffffffffffffffffffffffff163373ffffffffffffffffffffffffffffffffffffffff1614905090565b600360009054906101000a900473ffffffffffffffffffffffffffffffffffffffff1681565b60015481565b600080600360009054906101000a900473ffffffffffffffffffffffffffffffffffffffff1673ffffffffffffffffffffffffffffffffffffffff163373ffffffffffffffffffffffffffffffffffffffff16146116ca576040517f08c379a000000000000000000000000000000000000000000000000000000000815260040180806020018281038252602681526020018061230e6026913960400191505060405180910390fd5b6000600460008573ffffffffffffffffffffffffffffffffffffffff1673ffffffffffffffffffffffffffffffffffffffff16815260200190815260200160002060010160009054906101000a900460ff1660ff161415600115158115151461179b576040517f08c379a000000000000000000000000000000000000000000000000000000000815260040180806020018281038252601e8152602001807f596f75206e65656420746f20626574206265666f726520706c6179696e67000081525060200191505060405180910390fd5b60006117a96000602461211e565b905060008090506117b86122e6565b600460008873ffffffffffffffffffffffffffffffffffffffff1673ffffffffffffffffffffffffffffffffffffffff168152602001908152602001600020604051806060016040529081600082015481526020016001820160009054906101000a900460ff1660ff1660ff1681526020016001820160019054906101000a900460ff1660ff1660ff168152505090506001816020015160ff16141561187457806040015160ff168360ff16141561186f57600191505b611d5e565b6002816020015160ff161415611927576017816040015160ff16116118ee57600060016002836040015160ff16816118a857fe5b066002846040015160ff16816118ba57fe5b04600302010190508060ff168460ff1614806118de57506001810160ff168460ff16145b156118e857600192505b50611922565b6000601782604001510390508060ff168460ff16148061191657506003810160ff168460ff16145b1561192057600192505b505b611d5d565b6003816020015160ff161415611988576000600182604001516003020190508360ff168160ff161115801561196557506001810160ff168460ff1611155b8061197857506002810160ff168460ff16145b1561198257600192505b50611d5c565b6004816020015160ff161415611a1957600060016002836040015160ff16816119ad57fe5b066002846040015160ff16816119bf57fe5b04600302010190508060ff168460ff1614806119e357506001810160ff168460ff16145b806119f657506003810160ff168460ff16145b80611a0957506004810160ff168460ff16145b15611a1357600192505b50611d5b565b6006816020015160ff161415611a8757600060016002836040015160ff1681611a3e57fe5b066002846040015160ff1681611a5057fe5b04600302010190508360ff168160ff1611158015611a7757506006810160ff168460ff1611155b15611a8157600192505b50611d5a565b600c816020015160ff161415611b15576002816040015160ff1611611ad257806040015160ff1660036001850360ff1681611abe57fe5b0660ff161415611acd57600191505b611b10565b8260ff166001600c6003846040015103020160ff1611158015611b055750600c60028260400151030260ff168360ff1611155b15611b0f57600191505b5b611d59565b6012816020015160ff161415611cb0576000816040015160ff161415611b5c578260ff16600111158015611b4d575060128360ff1611155b15611b5757600191505b611cab565b6001816040015160ff161415611b93578260ff16601311158015611b84575060248360ff1611155b15611b8e57600191505b611caa565b6002816040015160ff161415611beb5760008360ff1614158015611bdc575060056001840360ff1660248110611bc557fe5b602091828204019190069054906101000a900460ff165b15611be657600191505b611ca9565b6003816040015160ff161415611c445760008360ff1614158015611c35575060056001840360ff1660248110611c1d57fe5b602091828204019190069054906101000a900460ff16155b15611c3f57600191505b611ca8565b6004816040015160ff161415611c7757600060028460ff1681611c6357fe5b0660ff161415611c7257600191505b611ca7565b6005816040015160ff161415611ca657600160028460ff1681611c9657fe5b0660ff161415611ca557600191505b5b5b5b5b5b5b611d58565b6018816020015160ff161415611d57576001816040015160ff1611611d1857600060036001850360ff1681611ce157fe5b069050816040015160ff168160ff161480611d085750600182604001510160ff168160ff16145b15611d1257600192505b50611d56565b8260ff166001600c6001846040015103020160ff1611158015611d4b5750600c60018260400151010260ff168360ff1611155b15611d5557600191505b5b5b5b5b5b5b5b5b5b6000600460008973ffffffffffffffffffffffffffffffffffffffff1673ffffffffffffffffffffffffffffffffffffffff16815260200190815260200160002060010160006101000a81548160ff021916908360ff1602179055508115611e1d576000816020015160ff16602481611dd357fe5b0460ff168260000151029050816020015160ff168260000151836020015160ff16602481611dfd57fe5b0660ff160281611e0957fe5b048101905083819650965050505050611e2b565b826000809050955095505050505b50915091565b600360009054906101000a900473ffffffffffffffffffffffffffffffffffffffff1673ffffffffffffffffffffffffffffffffffffffff163373ffffffffffffffffffffffffffffffffffffffff1614611ed7576040517f08c379a000000000000000000000000000000000000000000000000000000000815260040180806020018281038252602681526020018061230e6026913960400191505060405180910390fd5b611ee0816121d0565b50565b6000600360009054906101000a900473ffffffffffffffffffffffffffffffffffffffff1673ffffffffffffffffffffffffffffffffffffffff163373ffffffffffffffffffffffffffffffffffffffff1614611f8b576040517f08c379a000000000000000000000000000000000000000000000000000000000815260040180806020018281038252602681526020018061230e6026913960400191505060405180910390fd5b6000600460008473ffffffffffffffffffffffffffffffffffffffff1673ffffffffffffffffffffffffffffffffffffffff16815260200190815260200160002060010160009054906101000a900460ff1660ff161415600115158115151461205c576040517f08c379a000000000000000000000000000000000000000000000000000000000815260040180806020018281038252601e8152602001807f596f75206e65656420746f20626574206265666f726520706c6179696e67000081525060200191505060405180910390fd5b6000600460008573ffffffffffffffffffffffffffffffffffffffff1673ffffffffffffffffffffffffffffffffffffffff16815260200190815260200160002060010160006101000a81548160ff021916908360ff160217905550600460008473ffffffffffffffffffffffffffffffffffffffff1673ffffffffffffffffffffffffffffffffffffffff16815260200190815260200160002060000154915050919050565b60008180519060200120838051906020012014905092915050565b600061213660016000546122ca90919063ffffffff16565b6000819055506121c88360ff168360ff164233600054604051602001808481526020018373ffffffffffffffffffffffffffffffffffffffff1673ffffffffffffffffffffffffffffffffffffffff1660601b815260140182815260200193505050506040516020818303038152906040528051906020012060001c816121b957fe5b066122ca90919063ffffffff16565b905092915050565b600073ffffffffffffffffffffffffffffffffffffffff168173ffffffffffffffffffffffffffffffffffffffff16141561220a57600080fd5b8073ffffffffffffffffffffffffffffffffffffffff16600360009054906101000a900473ffffffffffffffffffffffffffffffffffffffff1673ffffffffffffffffffffffffffffffffffffffff167f8be0079c531659141344cd1fd0a4f28419497f9722a3daafe3b4186f6b6457e060405160405180910390a380600360006101000a81548173ffffffffffffffffffffffffffffffffffffffff021916908373ffffffffffffffffffffffffffffffffffffffff16021790555050565b6000808284019050838110156122dc57fe5b8091505092915050565b604051806060016040528060008152602001600060ff168152602001600060ff168152509056fe596f7520617265206e6f7420746865206f776e6572206f66207468697320636f6e7472616374a265627a7a723158208c3dd8e44617ffdf350fd6b819ee7881ac9c45d5873ad6f1164850fa8dea205864736f6c63430005100032",
  "source": "pragma solidity ^0.5.0;\n\nimport \"./lib/SafeMath.sol\";\nimport \"./lib/Ownable.sol\";\nimport \"./games/Game.sol\";\nimport \"./games/Dice.sol\";\nimport \"./games/Roulette.sol\";\nimport \"./Utility.sol\";\n\ncontract Casino is Ownable{ //Ownable allows using onlyOwner modifier so we can make admin functions\n\n\tusing SafeMath for uint256; //Using SafeMath lib to avoid overflow errors\n\tusing SafeMath for uint8;\n\n\tGame[] games;\n\tmapping (address => Game) public gamesMap; //address : currentPlayer ; Game : Dice or Roulette contract\n\n\t//Events\n\t//the player is playing to the game\n\tevent EventGameSet(address player, uint gameType);\n\t//the player has bet\n\tevent EventBet(address player , string betInfo, uint8 bet, uint256 money);\n\t//the player has played and got this result\n\tevent EventResult(address player, uint8 result);\n\t//current player's bet has been canceled, this amount of money has been sent back\n\tevent EventCancelBet(address player, uint256 amount);\n\t//player earned the amount of money\n\tevent EventPlayerReceives(address player, uint256 amount);\n\n\t//Constructor\n\tconstructor() public{\n\t\tgames.push(new Dice());\n\t\tgames.push(new Roulette());\n\t}\n\n\t//Modifiers\n\tmodifier isGameSet(){\n\t\trequire(address(gamesMap[msg.sender]) != address(0), \"There is no current game set\");\n\t\t_;\n\t}\n\n\t//Game type setter\n\tfunction setGameType(uint8 gameType) external returns(bool){\n\t\trequire(uint(gameType) <= games.length, \"This game doesn't exist\");\n\t\tgamesMap[msg.sender] = games[gameType.sub(1)];\n\t\temit EventGameSet(msg.sender, gameType);\n\t\treturn (true);\n\t}\n\n\t//Playing game\n\tfunction isBetSetGame() external view isGameSet returns(bool){\n\t\treturn gamesMap[msg.sender].isBetSet(msg.sender);\n\t}\n\n\tfunction betGame(string calldata betInfo, uint8 betData) external payable isGameSet returns(bool){\n\t\tbool _success = gamesMap[msg.sender].bet(msg.sender, betInfo, betData, msg.value);\n\t\tif(_success){\n\t\t\temit EventBet(msg.sender, betInfo, betData, msg.value);\n\t\t\treturn _success;\n\t\t}else{\n\t\t\trevert(\"Incorrect bet\");\n\t\t}\n\t}\n\n\tfunction cancelBetGame() external isGameSet returns(bool){\n\t\tuint256 _moneyBack = gamesMap[msg.sender].cancelBet(msg.sender);\n\t\tif(_moneyBack > 0){\n\t\t\tmsg.sender.transfer(_moneyBack);\n\t\t\temit EventCancelBet(msg.sender, _moneyBack);\n\t\t\treturn true;\n\t\t}else{\n\t\t\treturn false;\t\t\n\t\t}\n\t\t\t\n\t}\t\n\n\tfunction playGame() external isGameSet returns(uint8 , uint256){\n\t\t(uint8 result, uint256 moneyEarned) = gamesMap[msg.sender].play(msg.sender);\n\t\temit EventResult(msg.sender, result);\n\t\tif(moneyEarned > 0){\n\t\t\tmsg.sender.transfer(moneyEarned);\n\t\t\temit EventPlayerReceives(msg.sender, moneyEarned);\n\t\t}\n\t\treturn (result, moneyEarned);\n\t}\n\n    //Admin functions with onlyOwner\n    function addFundsCasinoBalance() external payable onlyOwner{\n    \trequire(msg.value > 0, \"No funds transfered\");\n\t}\n\n    function withdrawCasinoBalance(uint amount) external onlyOwner{\n    \taddress payable casino = address(uint160(address(this))); // conversion trick\n    \trequire(casino.balance >= amount, \"Not enough balance\");\n\t\tmsg.sender.transfer(amount);\n\t}\n\n\tfunction getCasinoBalance() external view onlyOwner returns(uint){\n\t\taddress payable casino = address(uint160(address(this))); // conversion trick\n\t\treturn casino.balance;\n\t}\n\n}\n",
  "sourcePath": "/home/hanzo/Desktop/DecentralizedCasino/dapp/contracts/Casino.sol",
  "compiler": {
    "name": "solc",
    "version": "0.5.16+commit.9c3226ce.Emscripten.clang"
  },
  "schemaVersion": "3.3.4",
  "updatedAt": "2021-03-20T16:57:41.291Z",
  "devdoc": {
    "methods": {
      "isOwner()": {
        "return": "true if `msg.sender` is the owner of the contract."
      },
      "owner()": {
        "return": "the address of the owner."
      },
      "renounceOwnership()": {
        "details": "Allows the current owner to relinquish control of the contract."
      },
      "transferOwnership(address)": {
        "details": "Allows the current owner to transfer control of the contract to a newOwner.",
        "params": {
          "newOwner": "The address to transfer ownership to."
        }
      }
    }
  },
  "userdoc": {
    "methods": {
      "renounceOwnership()": {
        "notice": "Renouncing to ownership will leave the contract without an owner. It will not be possible to call the functions with the `onlyOwner` modifier anymore."
      }
    }
  }
}