{
  "contractName": "Dice",
  "abi": [
    {
      "inputs": [],
      "payable": false,
      "stateMutability": "nonpayable",
      "type": "constructor"
    },
    {
      "anonymous": false,
      "inputs": [
        {
          "indexed": false,
          "internalType": "address",
          "name": "bidder",
          "type": "address"
        },
        {
          "indexed": false,
          "internalType": "uint8",
          "name": "currentBet",
          "type": "uint8"
        },
        {
          "indexed": false,
          "internalType": "uint8",
          "name": "destiny",
          "type": "uint8"
        }
      ],
      "name": "GameResult",
      "type": "event"
    },
    {
      "anonymous": false,
      "inputs": [
        {
          "indexed": false,
          "internalType": "address",
          "name": "bidder",
          "type": "address"
        },
        {
          "indexed": false,
          "internalType": "uint8",
          "name": "currentBet",
          "type": "uint8"
        }
      ],
      "name": "NewBetIsSet",
      "type": "event"
    },
    {
      "payable": true,
      "stateMutability": "payable",
      "type": "fallback"
    },
    {
      "constant": true,
      "inputs": [],
      "name": "isBetSet",
      "outputs": [
        {
          "internalType": "bool",
          "name": "",
          "type": "bool"
        }
      ],
      "payable": false,
      "stateMutability": "view",
      "type": "function"
    },
    {
      "constant": false,
      "inputs": [],
      "name": "getNewbet",
      "outputs": [
        {
          "internalType": "uint8",
          "name": "",
          "type": "uint8"
        }
      ],
      "payable": false,
      "stateMutability": "nonpayable",
      "type": "function"
    },
    {
      "constant": false,
      "inputs": [],
      "name": "roll",
      "outputs": [
        {
          "internalType": "address",
          "name": "",
          "type": "address"
        },
        {
          "internalType": "uint8",
          "name": "",
          "type": "uint8"
        },
        {
          "internalType": "uint8",
          "name": "",
          "type": "uint8"
        }
      ],
      "payable": false,
      "stateMutability": "nonpayable",
      "type": "function"
    }
  ],
  "bytecode": "0x608060405234801561001057600080fd5b50600a600160006101000a81548160ff021916908360ff1602179055506109ef8061003c6000396000f3fe6080604052600436106100345760003560e01c80631ae651c814610036578063cd5e3c5d14610065578063e9b903f4146100d6575b005b34801561004257600080fd5b5061004b610107565b604051808215151515815260200191505060405180910390f35b34801561007157600080fd5b5061007a61015d565b604051808473ffffffffffffffffffffffffffffffffffffffff1673ffffffffffffffffffffffffffffffffffffffff1681526020018360ff1660ff1681526020018260ff1660ff168152602001935050505060405180910390f35b3480156100e257600080fd5b506100eb6106d7565b604051808260ff1660ff16815260200191505060405180910390f35b60008060003373ffffffffffffffffffffffffffffffffffffffff1673ffffffffffffffffffffffffffffffffffffffff16815260200190815260200160002060000160019054906101000a900460ff16905090565b6000806000600115156000803373ffffffffffffffffffffffffffffffffffffffff1673ffffffffffffffffffffffffffffffffffffffff16815260200190815260200160002060000160019054906101000a900460ff161515146101c157600080fd5b6101c9610980565b6000803373ffffffffffffffffffffffffffffffffffffffff1673ffffffffffffffffffffffffffffffffffffffff16815260200190815260200160002060000160026101000a81548160ff021916908360ff1602179055506000803373ffffffffffffffffffffffffffffffffffffffff1673ffffffffffffffffffffffffffffffffffffffff16815260200190815260200160002060000160029054906101000a900460ff16600160008282829054906101000a900460ff160192506101000a81548160ff021916908360ff16021790555060008060003373ffffffffffffffffffffffffffffffffffffffff1673ffffffffffffffffffffffffffffffffffffffff16815260200190815260200160002060000160016101000a81548160ff0219169083151502179055506000803373ffffffffffffffffffffffffffffffffffffffff1673ffffffffffffffffffffffffffffffffffffffff16815260200190815260200160002060000160009054906101000a900460ff1660ff166000803373ffffffffffffffffffffffffffffffffffffffff1673ffffffffffffffffffffffffffffffffffffffff16815260200190815260200160002060000160029054906101000a900460ff1660ff16141561050e573373ffffffffffffffffffffffffffffffffffffffff166108fc655af3107a40009081150290604051600060405180830381858888f193505050501580156103ed573d6000803e3d6000fd5b507ff2c19256ceef03eec7a00ba5e27726b55e9224b711266400dfe19267ac36f44d336000803373ffffffffffffffffffffffffffffffffffffffff1673ffffffffffffffffffffffffffffffffffffffff16815260200190815260200160002060000160009054906101000a900460ff166000803373ffffffffffffffffffffffffffffffffffffffff1673ffffffffffffffffffffffffffffffffffffffff16815260200190815260200160002060000160029054906101000a900460ff16604051808473ffffffffffffffffffffffffffffffffffffffff1673ffffffffffffffffffffffffffffffffffffffff1681526020018360ff1660ff1681526020018260ff1660ff168152602001935050505060405180910390a161062a565b7ff2c19256ceef03eec7a00ba5e27726b55e9224b711266400dfe19267ac36f44d336000803373ffffffffffffffffffffffffffffffffffffffff1673ffffffffffffffffffffffffffffffffffffffff16815260200190815260200160002060000160009054906101000a900460ff166000803373ffffffffffffffffffffffffffffffffffffffff1673ffffffffffffffffffffffffffffffffffffffff16815260200190815260200160002060000160029054906101000a900460ff16604051808473ffffffffffffffffffffffffffffffffffffffff1673ffffffffffffffffffffffffffffffffffffffff1681526020018360ff1660ff1681526020018260ff1660ff168152602001935050505060405180910390a15b336000803373ffffffffffffffffffffffffffffffffffffffff1673ffffffffffffffffffffffffffffffffffffffff16815260200190815260200160002060000160009054906101000a900460ff166000803373ffffffffffffffffffffffffffffffffffffffff1673ffffffffffffffffffffffffffffffffffffffff16815260200190815260200160002060000160029054906101000a900460ff16829250925092509250909192565b60008015156000803373ffffffffffffffffffffffffffffffffffffffff1673ffffffffffffffffffffffffffffffffffffffff16815260200190815260200160002060000160019054906101000a900460ff1615151461073757600080fd5b60016000803373ffffffffffffffffffffffffffffffffffffffff1673ffffffffffffffffffffffffffffffffffffffff16815260200190815260200160002060000160016101000a81548160ff021916908315150217905550610799610980565b6000803373ffffffffffffffffffffffffffffffffffffffff1673ffffffffffffffffffffffffffffffffffffffff16815260200190815260200160002060000160006101000a81548160ff021916908360ff1602179055506000803373ffffffffffffffffffffffffffffffffffffffff1673ffffffffffffffffffffffffffffffffffffffff16815260200190815260200160002060000160009054906101000a900460ff16600160008282829054906101000a900460ff160192506101000a81548160ff021916908360ff1602179055507f1a6d1c7cdda3e4348ddfb32842a3b51955212e84b454ebc11b068be843ee3b12336000803373ffffffffffffffffffffffffffffffffffffffff1673ffffffffffffffffffffffffffffffffffffffff16815260200190815260200160002060000160009054906101000a900460ff16604051808373ffffffffffffffffffffffffffffffffffffffff1673ffffffffffffffffffffffffffffffffffffffff1681526020018260ff1660ff1681526020019250505060405180910390a16000803373ffffffffffffffffffffffffffffffffffffffff1673ffffffffffffffffffffffffffffffffffffffff16815260200190815260200160002060000160009054906101000a900460ff16905090565b6000804260014303014060001c9050600160009054906101000a900460ff1660ff16810190506001600582816109b257fe5b06019150509056fea265627a7a72315820fbe89ca3db54198fdc76a677b5358ccc51b028ec8e9efb1061a3d8bcfd28824b64736f6c63430005100032",
  "source": "pragma solidity ^0.5.0;\n\ncontract Dice{\n\n\tstruct Bet{\n\t\tuint8  currentBet;\n\t\tbool  isBetSet; //default value is false\t\n\t\tuint8  destiny;\n\t}\n\n\tmapping(address => Bet) private bets;\n\n\tuint8 private randomFactor;\n\n\tevent NewBetIsSet(address bidder , uint8 currentBet);\n\tevent GameResult(address bidder, uint8 currentBet , uint8 destiny);\n\n\tconstructor() public{\n\t\trandomFactor = 10;\n\t}\n\n\tfunction() external payable{}\n\n\tfunction isBetSet() public view returns(bool){\n\t\treturn bets[msg.sender].isBetSet;\n\t}\n\n\tfunction getNewbet() public returns(uint8){\n\t\trequire(bets[msg.sender].isBetSet == false);\n\t\tbets[msg.sender].isBetSet = true;\n\t\tbets[msg.sender].currentBet = random();\n\t\trandomFactor += bets[msg.sender].currentBet;\n\t\temit NewBetIsSet(msg.sender,bets[msg.sender].currentBet);\n\t\treturn bets[msg.sender].currentBet;\n\t}\n\n\tfunction roll() public returns(address , uint8 , uint8){\n\t\trequire(bets[msg.sender].isBetSet == true);\n\t\tbets[msg.sender].destiny = random();\n\t\trandomFactor += bets[msg.sender].destiny;\n\t\tbets[msg.sender].isBetSet = false;\n\t\tif(bets[msg.sender].destiny == bets[msg.sender].currentBet){\n\t\t\tmsg.sender.transfer(100000000000000);\n\t\t\temit GameResult(msg.sender, bets[msg.sender].currentBet, bets[msg.sender].destiny);\t\t\t\n\t\t}else{\n\t\t\temit GameResult(msg.sender, bets[msg.sender].currentBet, bets[msg.sender].destiny);\n\t\t}\n\t\treturn (msg.sender , bets[msg.sender].currentBet , bets[msg.sender].destiny);\n\t}\n\n\n    function random() private view returns (uint8) {\n       \tuint256 blockValue = uint256(blockhash(block.number-1 + block.timestamp));\n        blockValue = blockValue + uint256(randomFactor);\n        return uint8(blockValue % 5) + 1;\n    }\n\t\n}",
  "sourcePath": "/home/hanzo/Desktop/DecentralizedCasino/dapp/contracts/DiceGame.sol",
  "compiler": {
    "name": "solc",
    "version": "0.5.16+commit.9c3226ce.Emscripten.clang"
  },
  "schemaVersion": "3.3.4",
  "updatedAt": "2021-03-07T21:30:25.643Z",
  "devdoc": {
    "methods": {}
  },
  "userdoc": {
    "methods": {}
  }
}