{
  "contractName": "Dice",
  "abi": [
    {
      "constant": true,
      "inputs": [],
      "name": "maximumBetValue",
      "outputs": [
        {
          "internalType": "uint256",
          "name": "",
          "type": "uint256"
        }
      ],
      "payable": false,
      "stateMutability": "view",
      "type": "function"
    },
    {
      "constant": true,
      "inputs": [],
      "name": "minimumBetValue",
      "outputs": [
        {
          "internalType": "uint256",
          "name": "",
          "type": "uint256"
        }
      ],
      "payable": false,
      "stateMutability": "view",
      "type": "function"
    },
    {
      "constant": true,
      "inputs": [],
      "name": "isBetSet",
      "outputs": [
        {
          "internalType": "bool",
          "name": "",
          "type": "bool"
        }
      ],
      "payable": false,
      "stateMutability": "view",
      "type": "function"
    },
    {
      "constant": false,
      "inputs": [
        {
          "internalType": "string",
          "name": "empty",
          "type": "string"
        },
        {
          "internalType": "uint8",
          "name": "playerBet",
          "type": "uint8"
        }
      ],
      "name": "bet",
      "outputs": [
        {
          "internalType": "uint8",
          "name": "",
          "type": "uint8"
        },
        {
          "internalType": "bool",
          "name": "",
          "type": "bool"
        },
        {
          "internalType": "uint256",
          "name": "",
          "type": "uint256"
        }
      ],
      "payable": true,
      "stateMutability": "payable",
      "type": "function"
    },
    {
      "constant": false,
      "inputs": [],
      "name": "cancelBet",
      "outputs": [
        {
          "internalType": "uint256",
          "name": "",
          "type": "uint256"
        }
      ],
      "payable": false,
      "stateMutability": "nonpayable",
      "type": "function"
    },
    {
      "constant": false,
      "inputs": [],
      "name": "play",
      "outputs": [
        {
          "internalType": "uint8",
          "name": "",
          "type": "uint8"
        },
        {
          "internalType": "uint8",
          "name": "",
          "type": "uint8"
        }
      ],
      "payable": false,
      "stateMutability": "nonpayable",
      "type": "function"
    },
    {
      "constant": false,
      "inputs": [],
      "name": "playerMoneyWin",
      "outputs": [
        {
          "internalType": "uint256",
          "name": "",
          "type": "uint256"
        }
      ],
      "payable": false,
      "stateMutability": "nonpayable",
      "type": "function"
    }
  ],
  "bytecode": "0x608060405260008055678ac7230489e800006001556000600255600a600460006101000a81548160ff021916908360ff16021790555034801561004157600080fd5b50610eb7806100516000396000f3fe6080604052600436106100705760003560e01c80637b6d79f11161004e5780637b6d79f1146100fa57806385e77b2a1461012557806393e84cd9146101d7578063c32ec3361461021557610070565b8063168b47b9146100755780631ae651c8146100a05780635d5ae245146100cf575b600080fd5b34801561008157600080fd5b5061008a610240565b6040518082815260200191505060405180910390f35b3480156100ac57600080fd5b506100b56102eb565b604051808215151515815260200191505060405180910390f35b3480156100db57600080fd5b506100e4610342565b6040518082815260200191505060405180910390f35b34801561010657600080fd5b5061010f610348565b6040518082815260200191505060405180910390f35b6101a96004803603604081101561013b57600080fd5b810190808035906020019064010000000081111561015857600080fd5b82018360208201111561016a57600080fd5b8035906020019184600183028401116401000000008311171561018c57600080fd5b9091929391929390803560ff1690602001909291905050506105be565b604051808460ff1660ff16815260200183151515158152602001828152602001935050505060405180910390f35b3480156101e357600080fd5b506101ec610a61565b604051808360ff1660ff1681526020018260ff1660ff1681526020019250505060405180910390f35b34801561022157600080fd5b5061022a610dc5565b6040518082815260200191505060405180910390f35b600080600460009054906101000a900460ff1660ff16600360003373ffffffffffffffffffffffffffffffffffffffff1673ffffffffffffffffffffffffffffffffffffffff168152602001908152602001600020600101540290506000600360003373ffffffffffffffffffffffffffffffffffffffff1673ffffffffffffffffffffffffffffffffffffffff168152602001908152602001600020600101819055508091505090565b6000600360003373ffffffffffffffffffffffffffffffffffffffff1673ffffffffffffffffffffffffffffffffffffffff16815260200190815260200160002060000160009054906101000a900460ff16905090565b60025481565b6000600360003373ffffffffffffffffffffffffffffffffffffffff1673ffffffffffffffffffffffffffffffffffffffff16815260200190815260200160002060000160009054906101000a900460ff166001151581151514610414576040517f08c379a000000000000000000000000000000000000000000000000000000000815260040180806020018281038252601e8152602001807f596f75206e65656420746f20626574206265666f726520706c6179696e67000081525060200191505060405180910390fd5b6000600360003373ffffffffffffffffffffffffffffffffffffffff1673ffffffffffffffffffffffffffffffffffffffff16815260200190815260200160002060020160006101000a81548160ff021916908360ff1602179055506000600360003373ffffffffffffffffffffffffffffffffffffffff1673ffffffffffffffffffffffffffffffffffffffff16815260200190815260200160002060000160006101000a81548160ff0219169083151502179055506000600360003373ffffffffffffffffffffffffffffffffffffffff1673ffffffffffffffffffffffffffffffffffffffff16815260200190815260200160002060020160016101000a81548160ff021916908360ff1602179055506000600360003373ffffffffffffffffffffffffffffffffffffffff1673ffffffffffffffffffffffffffffffffffffffff1681526020019081526020016000206001015490506000600360003373ffffffffffffffffffffffffffffffffffffffff1673ffffffffffffffffffffffffffffffffffffffff16815260200190815260200160002060010181905550809250505090565b600080600060025434101561063b576040517f08c379a00000000000000000000000000000000000000000000000000000000081526004018080602001828103825260118152602001807f546f6f206c6f77206265742076616c756500000000000000000000000000000081525060200191505060405180910390fd5b6001543411156106b3576040517f08c379a00000000000000000000000000000000000000000000000000000000081526004018080602001828103825260128152602001807f546f6f2068696768206265742076616c7565000000000000000000000000000081525060200191505060405180910390fd5b600360003373ffffffffffffffffffffffffffffffffffffffff1673ffffffffffffffffffffffffffffffffffffffff16815260200190815260200160002060000160009054906101000a900460ff16600015158115151461077d576040517f08c379a000000000000000000000000000000000000000000000000000000000815260040180806020018281038252601c8152602001807f546865726520697320616c72656164792061206265742072656164790000000081525060200191505060405180910390fd5b60028560ff1610156107f7576040517f08c379a000000000000000000000000000000000000000000000000000000000815260040180806020018281038252601c8152602001807f426574206d757374206265206265747765656e203220616e642031320000000081525060200191505060405180910390fd5b600c8560ff161115610871576040517f08c379a000000000000000000000000000000000000000000000000000000000815260040180806020018281038252601c8152602001807f426574206d757374206265206265747765656e203220616e642031320000000081525060200191505060405180910390fd5b84600360003373ffffffffffffffffffffffffffffffffffffffff1673ffffffffffffffffffffffffffffffffffffffff16815260200190815260200160002060020160006101000a81548160ff021916908360ff1602179055506001600360003373ffffffffffffffffffffffffffffffffffffffff1673ffffffffffffffffffffffffffffffffffffffff16815260200190815260200160002060000160006101000a81548160ff02191690831515021790555034600360003373ffffffffffffffffffffffffffffffffffffffff1673ffffffffffffffffffffffffffffffffffffffff16815260200190815260200160002060010181905550600360003373ffffffffffffffffffffffffffffffffffffffff1673ffffffffffffffffffffffffffffffffffffffff16815260200190815260200160002060020160009054906101000a900460ff16600360003373ffffffffffffffffffffffffffffffffffffffff1673ffffffffffffffffffffffffffffffffffffffff16815260200190815260200160002060000160009054906101000a900460ff16600360003373ffffffffffffffffffffffffffffffffffffffff1673ffffffffffffffffffffffffffffffffffffffff168152602001908152602001600020600101549350935093505093509350939050565b600080600360003373ffffffffffffffffffffffffffffffffffffffff1673ffffffffffffffffffffffffffffffffffffffff16815260200190815260200160002060000160009054906101000a900460ff166001151581151514610b2e576040517f08c379a000000000000000000000000000000000000000000000000000000000815260040180806020018281038252601e8152602001807f596f75206e65656420746f20626574206265666f726520706c6179696e67000081525060200191505060405180910390fd5b610b36610dcb565b600360003373ffffffffffffffffffffffffffffffffffffffff1673ffffffffffffffffffffffffffffffffffffffff16815260200190815260200160002060020160016101000a81548160ff021916908360ff1602179055506000600360003373ffffffffffffffffffffffffffffffffffffffff1673ffffffffffffffffffffffffffffffffffffffff16815260200190815260200160002060000160006101000a81548160ff021916908315150217905550600360003373ffffffffffffffffffffffffffffffffffffffff1673ffffffffffffffffffffffffffffffffffffffff16815260200190815260200160002060020160009054906101000a900460ff1660ff16600360003373ffffffffffffffffffffffffffffffffffffffff1673ffffffffffffffffffffffffffffffffffffffff16815260200190815260200160002060020160019054906101000a900460ff1660ff161415610d1c573073ffffffffffffffffffffffffffffffffffffffff1663168b47b96040518163ffffffff1660e01b8152600401602060405180830381600087803b158015610cdf57600080fd5b505af1158015610cf3573d6000803e3d6000fd5b505050506040513d6020811015610d0957600080fd5b8101908080519060200190929190505050505b600360003373ffffffffffffffffffffffffffffffffffffffff1673ffffffffffffffffffffffffffffffffffffffff16815260200190815260200160002060020160009054906101000a900460ff16600360003373ffffffffffffffffffffffffffffffffffffffff1673ffffffffffffffffffffffffffffffffffffffff16815260200190815260200160002060020160019054906101000a900460ff1692509250509091565b60015481565b6000610dd960016006610deb565b610de560016006610deb565b01905090565b600080600081548092919060010191905055508260ff168260ff164233600054604051602001808481526020018373ffffffffffffffffffffffffffffffffffffffff1673ffffffffffffffffffffffffffffffffffffffff1660601b815260140182815260200193505050506040516020818303038152906040528051906020012060001c81610e7857fe5b060190509291505056fea265627a7a72315820076fd89de633b225d744e82ed54692d74327fc9c5f21b4a1f7fa2f5dc6e57d1264736f6c63430005100032",
  "source": "pragma solidity ^0.5.0;\n\nimport \"./SafeMath.sol\";\nimport \"./Game.sol\";\nimport \"./Utility.sol\";\n\ncontract Dice is Game, Utility{ //Ownable allows use onlyOwner modifier so we can make admin functions\n\n\n\n\tusing SafeMath for uint256; //Using SafeMath lib to avoid overflow erros\n\n\n\n\t//Variables\n\tstruct Bet{\n\t\tbool isSet; \n\t\tuint256 moneyBet;\n\t\tuint8 diceBet;\n\t\tuint8 diceResult;\n\t}\n\tmapping(address => Bet) private betsMap;\n\tuint8 diceBetMultiplier = 10;\n\n\n\n\t//Dice game functions\n\tfunction isBetSet() external view returns(bool){\n\t\treturn betsMap[msg.sender].isSet;\n\t}\n\tfunction bet(string calldata empty, uint8 playerBet) external payable isEnoughMoney currentBetIsNotSet(betsMap[msg.sender].isSet) returns(uint8, bool, uint256){\n\t\trequire(playerBet >= 2, \"Bet must be between 2 and 12\");\n\t\trequire(playerBet <= 12, \"Bet must be between 2 and 12\");\n\t\tbetsMap[msg.sender].diceBet = playerBet;\n\t\tbetsMap[msg.sender].isSet = true;\n\t\tbetsMap[msg.sender].moneyBet = msg.value;\n\t\treturn (betsMap[msg.sender].diceBet, betsMap[msg.sender].isSet, betsMap[msg.sender].moneyBet);\n\t}\n\tfunction cancelBet() external currentBetIsSet(betsMap[msg.sender].isSet) returns(uint256){\n\t\tbetsMap[msg.sender].diceBet = 0;\n\t\tbetsMap[msg.sender].isSet = false;\n\t\tbetsMap[msg.sender].diceResult = 0;\n\t\tuint256 moneyBetSave = betsMap[msg.sender].moneyBet;\n\t\tbetsMap[msg.sender].moneyBet = 0;\n\t\treturn moneyBetSave;\n\t}\n\tfunction play() external currentBetIsSet(betsMap[msg.sender].isSet) returns(uint8 , uint8){\t\t\t\t\t\t\t\t\t\t\t\t\t\t\t\t\n\t\tbetsMap[msg.sender].diceResult = randomDoubleDice();\t\t\t\t\t\t\t\t\t\t\t\t\t\t\t\n\t\tbetsMap[msg.sender].isSet = false;\n\t\tif(betsMap[msg.sender].diceResult == betsMap[msg.sender].diceBet){\t\n\t\t\tthis.playerMoneyWin();\n\t\t}\n\t\treturn (betsMap[msg.sender].diceBet , betsMap[msg.sender].diceResult);\n\t}\n    function playerMoneyWin() external returns(uint256){\n    \tuint256 amount = betsMap[msg.sender].moneyBet * diceBetMultiplier;\t\n    \tbetsMap[msg.sender].moneyBet = 0;\n\t\treturn amount;\n\t}\n\tfunction randomDoubleDice() internal returns (uint8){\n\t\treturn randomUintBetween(1, 6) + randomUintBetween(1, 6);\n    }\n\n\n\t\n}",
  "sourcePath": "/home/hanzo/Desktop/DecentralizedCasino/dapp/contracts/Dice.sol",
  "compiler": {
    "name": "solc",
    "version": "0.5.16+commit.9c3226ce.Emscripten.clang"
  },
  "schemaVersion": "3.3.4",
  "updatedAt": "2021-03-16T21:22:40.753Z",
  "devdoc": {
    "methods": {}
  },
  "userdoc": {
    "methods": {}
  }
}