{
  "contractName": "Dice",
  "abi": [
    {
      "constant": true,
      "inputs": [],
      "name": "maximumBetValue",
      "outputs": [
        {
          "internalType": "uint256",
          "name": "",
          "type": "uint256"
        }
      ],
      "payable": false,
      "stateMutability": "view",
      "type": "function"
    },
    {
      "constant": true,
      "inputs": [],
      "name": "minimumBetValue",
      "outputs": [
        {
          "internalType": "uint256",
          "name": "",
          "type": "uint256"
        }
      ],
      "payable": false,
      "stateMutability": "view",
      "type": "function"
    },
    {
      "constant": true,
      "inputs": [],
      "name": "isBetSet",
      "outputs": [
        {
          "internalType": "bool",
          "name": "",
          "type": "bool"
        }
      ],
      "payable": false,
      "stateMutability": "view",
      "type": "function"
    },
    {
      "constant": false,
      "inputs": [
        {
          "internalType": "string",
          "name": "empty",
          "type": "string"
        },
        {
          "internalType": "uint256",
          "name": "playerBet",
          "type": "uint256"
        }
      ],
      "name": "bet",
      "outputs": [
        {
          "internalType": "uint256",
          "name": "",
          "type": "uint256"
        },
        {
          "internalType": "bool",
          "name": "",
          "type": "bool"
        },
        {
          "internalType": "uint256",
          "name": "",
          "type": "uint256"
        }
      ],
      "payable": true,
      "stateMutability": "payable",
      "type": "function"
    },
    {
      "constant": false,
      "inputs": [],
      "name": "cancelBet",
      "outputs": [
        {
          "internalType": "uint256",
          "name": "",
          "type": "uint256"
        }
      ],
      "payable": false,
      "stateMutability": "nonpayable",
      "type": "function"
    },
    {
      "constant": false,
      "inputs": [],
      "name": "play",
      "outputs": [
        {
          "internalType": "uint256",
          "name": "",
          "type": "uint256"
        },
        {
          "internalType": "uint256",
          "name": "",
          "type": "uint256"
        }
      ],
      "payable": false,
      "stateMutability": "nonpayable",
      "type": "function"
    },
    {
      "constant": false,
      "inputs": [],
      "name": "playerMoneyWin",
      "outputs": [
        {
          "internalType": "uint256",
          "name": "",
          "type": "uint256"
        }
      ],
      "payable": false,
      "stateMutability": "nonpayable",
      "type": "function"
    }
  ],
  "bytecode": "0x608060405260008055678ac7230489e800006001556000600255600a60045534801561002a57600080fd5b50610def8061003a6000396000f3fe6080604052600436106100705760003560e01c80637b6d79f11161004e5780637b6d79f1146100fa57806393e84cd914610125578063c32ec33614610157578063e9c20cb91461018257610070565b8063168b47b9146100755780631ae651c8146100a05780635d5ae245146100cf575b600080fd5b34801561008157600080fd5b5061008a61022b565b6040518082815260200191505060405180910390f35b3480156100ac57600080fd5b506100b56102c6565b604051808215151515815260200191505060405180910390f35b3480156100db57600080fd5b506100e461031d565b6040518082815260200191505060405180910390f35b34801561010657600080fd5b5061010f610323565b6040518082815260200191505060405180910390f35b34801561013157600080fd5b5061013a610571565b604051808381526020018281526020019250505060405180910390f35b34801561016357600080fd5b5061016c610887565b6040518082815260200191505060405180910390f35b6102036004803603604081101561019857600080fd5b81019080803590602001906401000000008111156101b557600080fd5b8201836020820111156101c757600080fd5b803590602001918460018302840111640100000000831117156101e957600080fd5b90919293919293908035906020019092919050505061088d565b6040518084815260200183151515158152602001828152602001935050505060405180910390f35b600080600454600360003373ffffffffffffffffffffffffffffffffffffffff1673ffffffffffffffffffffffffffffffffffffffff168152602001908152602001600020600101540290506000600360003373ffffffffffffffffffffffffffffffffffffffff1673ffffffffffffffffffffffffffffffffffffffff168152602001908152602001600020600101819055508091505090565b6000600360003373ffffffffffffffffffffffffffffffffffffffff1673ffffffffffffffffffffffffffffffffffffffff16815260200190815260200160002060000160009054906101000a900460ff16905090565b60025481565b6000600360003373ffffffffffffffffffffffffffffffffffffffff1673ffffffffffffffffffffffffffffffffffffffff16815260200190815260200160002060000160009054906101000a900460ff1660011515811515146103ef576040517f08c379a000000000000000000000000000000000000000000000000000000000815260040180806020018281038252601e8152602001807f596f75206e65656420746f20626574206265666f726520706c6179696e67000081525060200191505060405180910390fd5b6000600360003373ffffffffffffffffffffffffffffffffffffffff1673ffffffffffffffffffffffffffffffffffffffff168152602001908152602001600020600201819055506000600360003373ffffffffffffffffffffffffffffffffffffffff1673ffffffffffffffffffffffffffffffffffffffff16815260200190815260200160002060000160006101000a81548160ff0219169083151502179055506000600360003373ffffffffffffffffffffffffffffffffffffffff1673ffffffffffffffffffffffffffffffffffffffff168152602001908152602001600020600301819055506000600360003373ffffffffffffffffffffffffffffffffffffffff1673ffffffffffffffffffffffffffffffffffffffff1681526020019081526020016000206001015490506000600360003373ffffffffffffffffffffffffffffffffffffffff1673ffffffffffffffffffffffffffffffffffffffff16815260200190815260200160002060010181905550809250505090565b600080600360003373ffffffffffffffffffffffffffffffffffffffff1673ffffffffffffffffffffffffffffffffffffffff16815260200190815260200160002060000160009054906101000a900460ff16600115158115151461063e576040517f08c379a000000000000000000000000000000000000000000000000000000000815260040180806020018281038252601e8152602001807f596f75206e65656420746f20626574206265666f726520706c6179696e67000081525060200191505060405180910390fd5b610646610d09565b600360003373ffffffffffffffffffffffffffffffffffffffff1673ffffffffffffffffffffffffffffffffffffffff168152602001908152602001600020600301819055506000600360003373ffffffffffffffffffffffffffffffffffffffff1673ffffffffffffffffffffffffffffffffffffffff16815260200190815260200160002060000160006101000a81548160ff021916908315150217905550600360003373ffffffffffffffffffffffffffffffffffffffff1673ffffffffffffffffffffffffffffffffffffffff16815260200190815260200160002060020154600360003373ffffffffffffffffffffffffffffffffffffffff1673ffffffffffffffffffffffffffffffffffffffff1681526020019081526020016000206003015414156107f8573073ffffffffffffffffffffffffffffffffffffffff1663168b47b96040518163ffffffff1660e01b8152600401602060405180830381600087803b1580156107bb57600080fd5b505af11580156107cf573d6000803e3d6000fd5b505050506040513d60208110156107e557600080fd5b8101908080519060200190929190505050505b600360003373ffffffffffffffffffffffffffffffffffffffff1673ffffffffffffffffffffffffffffffffffffffff16815260200190815260200160002060020154600360003373ffffffffffffffffffffffffffffffffffffffff1673ffffffffffffffffffffffffffffffffffffffff1681526020019081526020016000206003015492509250509091565b60015481565b600080600060025434101561090a576040517f08c379a00000000000000000000000000000000000000000000000000000000081526004018080602001828103825260118152602001807f546f6f206c6f77206265742076616c756500000000000000000000000000000081525060200191505060405180910390fd5b600154341115610982576040517f08c379a00000000000000000000000000000000000000000000000000000000081526004018080602001828103825260128152602001807f546f6f2068696768206265742076616c7565000000000000000000000000000081525060200191505060405180910390fd5b600360003373ffffffffffffffffffffffffffffffffffffffff1673ffffffffffffffffffffffffffffffffffffffff16815260200190815260200160002060000160009054906101000a900460ff166000151581151514610a4c576040517f08c379a000000000000000000000000000000000000000000000000000000000815260040180806020018281038252601c8152602001807f546865726520697320616c72656164792061206265742072656164790000000081525060200191505060405180910390fd5b6002851015610ac3576040517f08c379a000000000000000000000000000000000000000000000000000000000815260040180806020018281038252601c8152602001807f426574206d757374206265206265747765656e203220616e642031320000000081525060200191505060405180910390fd5b600c851115610b3a576040517f08c379a000000000000000000000000000000000000000000000000000000000815260040180806020018281038252601c8152602001807f426574206d757374206265206265747765656e203220616e642031320000000081525060200191505060405180910390fd5b84600360003373ffffffffffffffffffffffffffffffffffffffff1673ffffffffffffffffffffffffffffffffffffffff168152602001908152602001600020600201819055506001600360003373ffffffffffffffffffffffffffffffffffffffff1673ffffffffffffffffffffffffffffffffffffffff16815260200190815260200160002060000160006101000a81548160ff02191690831515021790555034600360003373ffffffffffffffffffffffffffffffffffffffff1673ffffffffffffffffffffffffffffffffffffffff16815260200190815260200160002060010181905550600360003373ffffffffffffffffffffffffffffffffffffffff1673ffffffffffffffffffffffffffffffffffffffff16815260200190815260200160002060020154600360003373ffffffffffffffffffffffffffffffffffffffff1673ffffffffffffffffffffffffffffffffffffffff16815260200190815260200160002060000160009054906101000a900460ff16600360003373ffffffffffffffffffffffffffffffffffffffff1673ffffffffffffffffffffffffffffffffffffffff168152602001908152602001600020600101549350935093505093509350939050565b6000610d1760016006610d29565b610d2360016006610d29565b01905090565b6000806000815480929190600101919050555082824233600054604051602001808481526020018373ffffffffffffffffffffffffffffffffffffffff1673ffffffffffffffffffffffffffffffffffffffff1660601b815260140182815260200193505050506040516020818303038152906040528051906020012060001c81610db057fe5b060190509291505056fea265627a7a723158205beaa9fa25e027723521125db15a4a14d9b8240a3539ae24ced2f2d0a8df912664736f6c63430005100032",
  "source": "pragma solidity ^0.5.0;\n\nimport \"./SafeMath.sol\";\nimport \"./Game.sol\";\nimport \"./Utility.sol\";\n\ncontract Dice is Game, Utility{ //Ownable allows use onlyOwner modifier so we can make admin functions\n\n\n\n\tusing SafeMath for uint256; //Using SafeMath lib to avoid overflow erros\n\n\n\n\t//Variables\n\tstruct Bet{\n\t\tbool isSet; \n\t\tuint moneyBet;\n\t\tuint diceBet;\n\t\tuint diceResult;\n\t}\n\tmapping(address => Bet) private betsMap;\n\tuint diceBetMultiplier = 10;\n\n\n\n\t//Dice game functions\n\tfunction isBetSet() external view returns(bool){\n\t\treturn betsMap[msg.sender].isSet;\n\t}\n\tfunction bet(string calldata empty, uint playerBet) external payable isEnoughMoney currentBetIsNotSet(betsMap[msg.sender].isSet) returns(uint, bool, uint){\n\t\trequire(playerBet >= 2, \"Bet must be between 2 and 12\");\n\t\trequire(playerBet <= 12, \"Bet must be between 2 and 12\");\n\t\tbetsMap[msg.sender].diceBet = playerBet;\n\t\tbetsMap[msg.sender].isSet = true;\n\t\tbetsMap[msg.sender].moneyBet = msg.value;\n\t\treturn (betsMap[msg.sender].diceBet, betsMap[msg.sender].isSet, betsMap[msg.sender].moneyBet);\n\t}\n\tfunction cancelBet() external currentBetIsSet(betsMap[msg.sender].isSet) returns(uint){\n\t\tbetsMap[msg.sender].diceBet = 0;\n\t\tbetsMap[msg.sender].isSet = false;\n\t\tbetsMap[msg.sender].diceResult = 0;\n\t\tuint moneyBetSave = betsMap[msg.sender].moneyBet;\n\t\tbetsMap[msg.sender].moneyBet = 0;\n\t\treturn moneyBetSave;\n\t}\n\tfunction play() external currentBetIsSet(betsMap[msg.sender].isSet) returns(uint , uint){\t\t\t\t\t\t\t\t\t\t\t\t\t\t\t\t\n\t\tbetsMap[msg.sender].diceResult = randomDoubleDice();\t\t\t\t\t\t\t\t\t\t\t\t\t\t\t\n\t\tbetsMap[msg.sender].isSet = false;\n\t\tif(betsMap[msg.sender].diceResult == betsMap[msg.sender].diceBet){\t\n\t\t\tthis.playerMoneyWin();\n\t\t}\n\t\treturn (betsMap[msg.sender].diceBet , betsMap[msg.sender].diceResult);\n\t}\n    function playerMoneyWin() external returns(uint){\n    \tuint amount = betsMap[msg.sender].moneyBet * diceBetMultiplier;\t\n    \tbetsMap[msg.sender].moneyBet = 0;\n\t\treturn amount;\n\t}\n\tfunction randomDoubleDice() internal returns (uint){\n\t\treturn randomUintBetween(1, 6) + randomUintBetween(1, 6);\n    }\n\n\n\t\n}",
  "sourcePath": "/home/hanzo/Desktop/DecentralizedCasino/dapp/contracts/Dice.sol",
  "compiler": {
    "name": "solc",
    "version": "0.5.16+commit.9c3226ce.Emscripten.clang"
  },
  "schemaVersion": "3.3.4",
  "updatedAt": "2021-03-16T21:05:20.643Z",
  "devdoc": {
    "methods": {}
  },
  "userdoc": {
    "methods": {}
  }
}