{
  "contractName": "DiceGame",
  "abi": [
    {
      "inputs": [],
      "payable": false,
      "stateMutability": "nonpayable",
      "type": "constructor"
    },
    {
      "anonymous": false,
      "inputs": [
        {
          "indexed": false,
          "internalType": "address",
          "name": "player",
          "type": "address"
        }
      ],
      "name": "EventCancelBet",
      "type": "event"
    },
    {
      "anonymous": false,
      "inputs": [
        {
          "indexed": false,
          "internalType": "address",
          "name": "player",
          "type": "address"
        },
        {
          "indexed": false,
          "internalType": "uint256",
          "name": "diceBet",
          "type": "uint256"
        }
      ],
      "name": "EventDiceBet",
      "type": "event"
    },
    {
      "anonymous": false,
      "inputs": [
        {
          "indexed": false,
          "internalType": "address",
          "name": "player",
          "type": "address"
        },
        {
          "indexed": false,
          "internalType": "uint256",
          "name": "diceBet",
          "type": "uint256"
        },
        {
          "indexed": false,
          "internalType": "uint256",
          "name": "diceResult",
          "type": "uint256"
        }
      ],
      "name": "EventDiceResult",
      "type": "event"
    },
    {
      "anonymous": false,
      "inputs": [
        {
          "indexed": false,
          "internalType": "address",
          "name": "player",
          "type": "address"
        },
        {
          "indexed": false,
          "internalType": "string",
          "name": "rouletteBet",
          "type": "string"
        }
      ],
      "name": "EventRouletteBet",
      "type": "event"
    },
    {
      "anonymous": false,
      "inputs": [
        {
          "indexed": false,
          "internalType": "address",
          "name": "player",
          "type": "address"
        },
        {
          "indexed": false,
          "internalType": "string",
          "name": "rouletteBet",
          "type": "string"
        },
        {
          "indexed": false,
          "internalType": "string",
          "name": "rouletteResultNb",
          "type": "string"
        }
      ],
      "name": "EventRouletteResult",
      "type": "event"
    },
    {
      "anonymous": false,
      "inputs": [
        {
          "indexed": true,
          "internalType": "address",
          "name": "previousOwner",
          "type": "address"
        },
        {
          "indexed": true,
          "internalType": "address",
          "name": "newOwner",
          "type": "address"
        }
      ],
      "name": "OwnershipTransferred",
      "type": "event"
    },
    {
      "constant": true,
      "inputs": [],
      "name": "_owner",
      "outputs": [
        {
          "internalType": "address",
          "name": "",
          "type": "address"
        }
      ],
      "payable": false,
      "stateMutability": "view",
      "type": "function"
    },
    {
      "constant": true,
      "inputs": [],
      "name": "diceBetMultiplier",
      "outputs": [
        {
          "internalType": "uint256",
          "name": "",
          "type": "uint256"
        }
      ],
      "payable": false,
      "stateMutability": "view",
      "type": "function"
    },
    {
      "constant": true,
      "inputs": [],
      "name": "gameType",
      "outputs": [
        {
          "internalType": "uint256",
          "name": "",
          "type": "uint256"
        }
      ],
      "payable": false,
      "stateMutability": "view",
      "type": "function"
    },
    {
      "constant": true,
      "inputs": [],
      "name": "isOwner",
      "outputs": [
        {
          "internalType": "bool",
          "name": "",
          "type": "bool"
        }
      ],
      "payable": false,
      "stateMutability": "view",
      "type": "function"
    },
    {
      "constant": true,
      "inputs": [],
      "name": "maxDiceValue",
      "outputs": [
        {
          "internalType": "uint256",
          "name": "",
          "type": "uint256"
        }
      ],
      "payable": false,
      "stateMutability": "view",
      "type": "function"
    },
    {
      "constant": true,
      "inputs": [],
      "name": "maximumBetValue",
      "outputs": [
        {
          "internalType": "uint256",
          "name": "",
          "type": "uint256"
        }
      ],
      "payable": false,
      "stateMutability": "view",
      "type": "function"
    },
    {
      "constant": true,
      "inputs": [],
      "name": "minDiceValue",
      "outputs": [
        {
          "internalType": "uint256",
          "name": "",
          "type": "uint256"
        }
      ],
      "payable": false,
      "stateMutability": "view",
      "type": "function"
    },
    {
      "constant": true,
      "inputs": [],
      "name": "minimumBetValue",
      "outputs": [
        {
          "internalType": "uint256",
          "name": "",
          "type": "uint256"
        }
      ],
      "payable": false,
      "stateMutability": "view",
      "type": "function"
    },
    {
      "constant": true,
      "inputs": [],
      "name": "owner",
      "outputs": [
        {
          "internalType": "address",
          "name": "",
          "type": "address"
        }
      ],
      "payable": false,
      "stateMutability": "view",
      "type": "function"
    },
    {
      "constant": false,
      "inputs": [],
      "name": "renounceOwnership",
      "outputs": [],
      "payable": false,
      "stateMutability": "nonpayable",
      "type": "function"
    },
    {
      "constant": false,
      "inputs": [
        {
          "internalType": "address",
          "name": "newOwner",
          "type": "address"
        }
      ],
      "name": "transferOwnership",
      "outputs": [],
      "payable": false,
      "stateMutability": "nonpayable",
      "type": "function"
    },
    {
      "constant": false,
      "inputs": [],
      "name": "playerReceivesMoney",
      "outputs": [],
      "payable": false,
      "stateMutability": "nonpayable",
      "type": "function"
    },
    {
      "constant": true,
      "inputs": [],
      "name": "isBetSet",
      "outputs": [
        {
          "internalType": "bool",
          "name": "",
          "type": "bool"
        }
      ],
      "payable": false,
      "stateMutability": "view",
      "type": "function"
    },
    {
      "constant": false,
      "inputs": [],
      "name": "cancelBet",
      "outputs": [
        {
          "internalType": "bool",
          "name": "",
          "type": "bool"
        }
      ],
      "payable": false,
      "stateMutability": "nonpayable",
      "type": "function"
    },
    {
      "constant": false,
      "inputs": [
        {
          "internalType": "uint256",
          "name": "playerBet",
          "type": "uint256"
        }
      ],
      "name": "getDiceBet",
      "outputs": [
        {
          "internalType": "uint256",
          "name": "",
          "type": "uint256"
        },
        {
          "internalType": "bool",
          "name": "",
          "type": "bool"
        },
        {
          "internalType": "uint256",
          "name": "",
          "type": "uint256"
        }
      ],
      "payable": true,
      "stateMutability": "payable",
      "type": "function"
    },
    {
      "constant": false,
      "inputs": [],
      "name": "playDice",
      "outputs": [
        {
          "internalType": "address",
          "name": "",
          "type": "address"
        },
        {
          "internalType": "uint256",
          "name": "",
          "type": "uint256"
        },
        {
          "internalType": "uint256",
          "name": "",
          "type": "uint256"
        }
      ],
      "payable": false,
      "stateMutability": "nonpayable",
      "type": "function"
    },
    {
      "constant": false,
      "inputs": [
        {
          "internalType": "string",
          "name": "playerBet",
          "type": "string"
        }
      ],
      "name": "getRouletteBet",
      "outputs": [
        {
          "internalType": "string",
          "name": "",
          "type": "string"
        },
        {
          "internalType": "bool",
          "name": "",
          "type": "bool"
        },
        {
          "internalType": "uint256",
          "name": "",
          "type": "uint256"
        }
      ],
      "payable": true,
      "stateMutability": "payable",
      "type": "function"
    },
    {
      "constant": false,
      "inputs": [],
      "name": "playRoulette",
      "outputs": [
        {
          "internalType": "address",
          "name": "",
          "type": "address"
        },
        {
          "internalType": "string",
          "name": "",
          "type": "string"
        },
        {
          "internalType": "string",
          "name": "",
          "type": "string"
        }
      ],
      "payable": false,
      "stateMutability": "nonpayable",
      "type": "function"
    },
    {
      "constant": false,
      "inputs": [],
      "name": "addFundsContractBalance",
      "outputs": [],
      "payable": true,
      "stateMutability": "payable",
      "type": "function"
    },
    {
      "constant": false,
      "inputs": [],
      "name": "withdrawContractBalance",
      "outputs": [],
      "payable": false,
      "stateMutability": "nonpayable",
      "type": "function"
    },
    {
      "constant": true,
      "inputs": [],
      "name": "getContractBalance",
      "outputs": [
        {
          "internalType": "uint256",
          "name": "",
          "type": "uint256"
        }
      ],
      "payable": false,
      "stateMutability": "view",
      "type": "function"
    }
  ],
  "bytecode": "0x608060405260006003556000600455670de0b6b3a764000060055566038d7ea4c6800060065560006007556002600855600c600955600a805534801561004457600080fd5b50336000806101000a81548173ffffffffffffffffffffffffffffffffffffffff021916908373ffffffffffffffffffffffffffffffffffffffff1602179055506000809054906101000a900473ffffffffffffffffffffffffffffffffffffffff1673ffffffffffffffffffffffffffffffffffffffff16600073ffffffffffffffffffffffffffffffffffffffff167f8be0079c531659141344cd1fd0a4f28419497f9722a3daafe3b4186f6b6457e060405160405180910390a3600260009054906101000a9050506140ff8061011e6000396000f3fe60806040526004361061012a5760003560e01c80638da5cb5b116100ab578063bfab3db91161006f578063bfab3db91461060f578063c32ec33614610626578063dd89a38814610651578063f2fde38b146106b6578063f5666c2314610707578063f5c9c586146107115761012a565b80638da5cb5b146104dc5780638f32d59b14610533578063b2bdfa7b14610562578063b61218c0146105b9578063bbdc02db146105e45761012a565b806363afc887116100f257806363afc887146103115780636f9fb98a1461033c578063715018a6146103675780637826393b1461037e5780637b6d79f1146104ad5761012a565b806311e1a5e61461012f5780631ae651c81461015a5780633ff2abd814610189578063485e743f146101a05780635d5ae245146102e6575b600080fd5b34801561013b57600080fd5b50610144610765565b6040518082815260200191505060405180910390f35b34801561016657600080fd5b5061016f61076b565b604051808215151515815260200191505060405180910390f35b34801561019557600080fd5b5061019e6107e4565b005b610259600480360360208110156101b657600080fd5b81019080803590602001906401000000008111156101d357600080fd5b8201836020820111156101e557600080fd5b8035906020019184600183028401116401000000008311171561020757600080fd5b91908080601f016020809104026020016040519081016040528093929190818152602001838380828437600081840152601f19601f8201169050808301925050505050505091929192905050506109c3565b604051808060200184151515158152602001838152602001828103825285818151815260200191508051906020019080838360005b838110156102a957808201518184015260208101905061028e565b50505050905090810190601f1680156102d65780820380516001836020036101000a031916815260200191505b5094505050505060405180910390f35b3480156102f257600080fd5b506102fb611010565b6040518082815260200191505060405180910390f35b34801561031d57600080fd5b50610326611016565b6040518082815260200191505060405180910390f35b34801561034857600080fd5b5061035161101c565b6040518082815260200191505060405180910390f35b34801561037357600080fd5b5061037c61107f565b005b34801561038a57600080fd5b50610393611197565b604051808473ffffffffffffffffffffffffffffffffffffffff1673ffffffffffffffffffffffffffffffffffffffff1681526020018060200180602001838103835285818151815260200191508051906020019080838360005b838110156104095780820151818401526020810190506103ee565b50505050905090810190601f1680156104365780820380516001836020036101000a031916815260200191505b50838103825284818151815260200191508051906020019080838360005b8381101561046f578082015181840152602081019050610454565b50505050905090810190601f16801561049c5780820380516001836020036101000a031916815260200191505b509550505050505060405180910390f35b3480156104b957600080fd5b506104c261181c565b604051808215151515815260200191505060405180910390f35b3480156104e857600080fd5b506104f1611c83565b604051808273ffffffffffffffffffffffffffffffffffffffff1673ffffffffffffffffffffffffffffffffffffffff16815260200191505060405180910390f35b34801561053f57600080fd5b50610548611cac565b604051808215151515815260200191505060405180910390f35b34801561056e57600080fd5b50610577611d03565b604051808273ffffffffffffffffffffffffffffffffffffffff1673ffffffffffffffffffffffffffffffffffffffff16815260200191505060405180910390f35b3480156105c557600080fd5b506105ce611d28565b6040518082815260200191505060405180910390f35b3480156105f057600080fd5b506105f9611d2e565b6040518082815260200191505060405180910390f35b34801561061b57600080fd5b50610624611d34565b005b34801561063257600080fd5b5061063b611dd8565b6040518082815260200191505060405180910390f35b34801561065d57600080fd5b50610666611dde565b604051808473ffffffffffffffffffffffffffffffffffffffff1673ffffffffffffffffffffffffffffffffffffffff168152602001838152602001828152602001935050505060405180910390f35b3480156106c257600080fd5b50610705600480360360208110156106d957600080fd5b81019080803573ffffffffffffffffffffffffffffffffffffffff169060200190929190505050612349565b005b61070f6123ae565b005b61073d6004803603602081101561072757600080fd5b810190808035906020019092919050505061248f565b6040518084815260200183151515158152602001828152602001935050505060405180910390f35b60085481565b600060016000600260009054906101000a900473ffffffffffffffffffffffffffffffffffffffff1673ffffffffffffffffffffffffffffffffffffffff1673ffffffffffffffffffffffffffffffffffffffff16815260200190815260200160002060000160009054906101000a900460ff16905090565b600160045414156108a3573373ffffffffffffffffffffffffffffffffffffffff166108fc600a5460016000600260009054906101000a900473ffffffffffffffffffffffffffffffffffffffff1673ffffffffffffffffffffffffffffffffffffffff1673ffffffffffffffffffffffffffffffffffffffff16815260200190815260200160002060010154029081150290604051600060405180830381858888f1935050505015801561089d573d6000803e3d6000fd5b506109c1565b600260045414156109c0573373ffffffffffffffffffffffffffffffffffffffff166108fc60016000600260009054906101000a900473ffffffffffffffffffffffffffffffffffffffff1673ffffffffffffffffffffffffffffffffffffffff1673ffffffffffffffffffffffffffffffffffffffff1681526020019081526020016000206009015460016000600260009054906101000a900473ffffffffffffffffffffffffffffffffffffffff1673ffffffffffffffffffffffffffffffffffffffff1673ffffffffffffffffffffffffffffffffffffffff16815260200190815260200160002060010154029081150290604051600060405180830381858888f193505050501580156109be573d6000803e3d6000fd5b505b5b565b6060600080600654341015610a40576040517f08c379a00000000000000000000000000000000000000000000000000000000081526004018080602001828103825260118152602001807f546f6f206c6f77206265742076616c756500000000000000000000000000000081525060200191505060405180910390fd5b600554341115610ab8576040517f08c379a00000000000000000000000000000000000000000000000000000000081526004018080602001828103825260128152602001807f546f6f2068696768206265742076616c7565000000000000000000000000000081525060200191505060405180910390fd5b6000151560016000600260009054906101000a900473ffffffffffffffffffffffffffffffffffffffff1673ffffffffffffffffffffffffffffffffffffffff1673ffffffffffffffffffffffffffffffffffffffff16815260200190815260200160002060000160009054906101000a900460ff16151514610ba3576040517f08c379a000000000000000000000000000000000000000000000000000000000815260040180806020018281038252601c8152602001807f546865726520697320616c72656164792061206265742072656164790000000081525060200191505060405180910390fd5b610bac84612a8e565b610bb557600080fd5b346007600082825401925050819055506001806000600260009054906101000a900473ffffffffffffffffffffffffffffffffffffffff1673ffffffffffffffffffffffffffffffffffffffff1673ffffffffffffffffffffffffffffffffffffffff16815260200190815260200160002060000160006101000a81548160ff0219169083151502179055508360016000600260009054906101000a900473ffffffffffffffffffffffffffffffffffffffff1673ffffffffffffffffffffffffffffffffffffffff1673ffffffffffffffffffffffffffffffffffffffff1681526020019081526020016000206004019080519060200190610cb9929190614025565b507fe6cdeffc935ef7df3f9331aaa0768cf9561fd84515062e65da48ecba3ca992f1600260009054906101000a900473ffffffffffffffffffffffffffffffffffffffff1660016000600260009054906101000a900473ffffffffffffffffffffffffffffffffffffffff1673ffffffffffffffffffffffffffffffffffffffff1673ffffffffffffffffffffffffffffffffffffffff168152602001908152602001600020600401604051808373ffffffffffffffffffffffffffffffffffffffff1673ffffffffffffffffffffffffffffffffffffffff16815260200180602001828103825283818154600181600116156101000203166002900481526020019150805460018160011615610100020316600290048015610e1d5780601f10610df257610100808354040283529160200191610e1d565b820191906000526020600020905b815481529060010190602001808311610e0057829003601f168201915b5050935050505060405180910390a160016000600260009054906101000a900473ffffffffffffffffffffffffffffffffffffffff1673ffffffffffffffffffffffffffffffffffffffff1673ffffffffffffffffffffffffffffffffffffffff16815260200190815260200160002060040160016000600260009054906101000a900473ffffffffffffffffffffffffffffffffffffffff1673ffffffffffffffffffffffffffffffffffffffff1673ffffffffffffffffffffffffffffffffffffffff16815260200190815260200160002060000160009054906101000a900460ff1660016000600260009054906101000a900473ffffffffffffffffffffffffffffffffffffffff1673ffffffffffffffffffffffffffffffffffffffff1673ffffffffffffffffffffffffffffffffffffffff16815260200190815260200160002060010154828054600181600116156101000203166002900480601f016020809104026020016040519081016040528092919081815260200182805460018160011615610100020316600290048015610ffc5780601f10610fd157610100808354040283529160200191610ffc565b820191906000526020600020905b815481529060010190602001808311610fdf57829003601f168201915b505050505092509250925092509193909250565b60065481565b60095481565b60008060009054906101000a900473ffffffffffffffffffffffffffffffffffffffff1673ffffffffffffffffffffffffffffffffffffffff163373ffffffffffffffffffffffffffffffffffffffff161461107757600080fd5b600754905090565b6000809054906101000a900473ffffffffffffffffffffffffffffffffffffffff1673ffffffffffffffffffffffffffffffffffffffff163373ffffffffffffffffffffffffffffffffffffffff16146110d857600080fd5b600073ffffffffffffffffffffffffffffffffffffffff166000809054906101000a900473ffffffffffffffffffffffffffffffffffffffff1673ffffffffffffffffffffffffffffffffffffffff167f8be0079c531659141344cd1fd0a4f28419497f9722a3daafe3b4186f6b6457e060405160405180910390a360008060006101000a81548173ffffffffffffffffffffffffffffffffffffffff021916908373ffffffffffffffffffffffffffffffffffffffff160217905550565b60006060806001151560016000600260009054906101000a900473ffffffffffffffffffffffffffffffffffffffff1673ffffffffffffffffffffffffffffffffffffffff1673ffffffffffffffffffffffffffffffffffffffff16815260200190815260200160002060000160009054906101000a900460ff16151514611287576040517f08c379a000000000000000000000000000000000000000000000000000000000815260040180806020018281038252601e8152602001807f596f75206e65656420746f20626574206265666f726520706c6179696e67000081525060200191505060405180910390fd5b6002600481905550611297612e7b565b600060016000600260009054906101000a900473ffffffffffffffffffffffffffffffffffffffff1673ffffffffffffffffffffffffffffffffffffffff1673ffffffffffffffffffffffffffffffffffffffff16815260200190815260200160002060000160006101000a81548160ff02191690831515021790555060011515611320613456565b15151415611389573073ffffffffffffffffffffffffffffffffffffffff16633ff2abd86040518163ffffffff1660e01b8152600401600060405180830381600087803b15801561137057600080fd5b505af1158015611384573d6000803e3d6000fd5b505050505b7fc89c72a02a5db5f05a0814c7bcb7de56b04c91d70bb9d9319e5062cab5ef6858600260009054906101000a900473ffffffffffffffffffffffffffffffffffffffff1660016000600260009054906101000a900473ffffffffffffffffffffffffffffffffffffffff1673ffffffffffffffffffffffffffffffffffffffff1673ffffffffffffffffffffffffffffffffffffffff16815260200190815260200160002060040160016000600260009054906101000a900473ffffffffffffffffffffffffffffffffffffffff1673ffffffffffffffffffffffffffffffffffffffff1673ffffffffffffffffffffffffffffffffffffffff168152602001908152602001600020600501600001604051808473ffffffffffffffffffffffffffffffffffffffff1673ffffffffffffffffffffffffffffffffffffffff16815260200180602001806020018381038352858181546001816001161561010002031660029004815260200191508054600181600116156101000203166002900480156115575780601f1061152c57610100808354040283529160200191611557565b820191906000526020600020905b81548152906001019060200180831161153a57829003601f168201915b50508381038252848181546001816001161561010002031660029004815260200191508054600181600116156101000203166002900480156115da5780601f106115af576101008083540402835291602001916115da565b820191906000526020600020905b8154815290600101906020018083116115bd57829003601f168201915b50509550505050505060405180910390a1600260009054906101000a900473ffffffffffffffffffffffffffffffffffffffff1660016000600260009054906101000a900473ffffffffffffffffffffffffffffffffffffffff1673ffffffffffffffffffffffffffffffffffffffff1673ffffffffffffffffffffffffffffffffffffffff16815260200190815260200160002060040160016000600260009054906101000a900473ffffffffffffffffffffffffffffffffffffffff1673ffffffffffffffffffffffffffffffffffffffff1673ffffffffffffffffffffffffffffffffffffffff168152602001908152602001600020600501600001818054600181600116156101000203166002900480601f01602080910402602001604051908101604052809291908181526020018280546001816001161561010002031660029004801561176e5780601f106117435761010080835404028352916020019161176e565b820191906000526020600020905b81548152906001019060200180831161175157829003601f168201915b50505050509150808054600181600116156101000203166002900480601f01602080910402602001604051908101604052809291908181526020018280546001816001161561010002031660029004801561180a5780601f106117df5761010080835404028352916020019161180a565b820191906000526020600020905b8154815290600101906020018083116117ed57829003601f168201915b50505050509050925092509250909192565b60006001151560016000600260009054906101000a900473ffffffffffffffffffffffffffffffffffffffff1673ffffffffffffffffffffffffffffffffffffffff1673ffffffffffffffffffffffffffffffffffffffff16815260200190815260200160002060000160009054906101000a900460ff16151514611909576040517f08c379a00000000000000000000000000000000000000000000000000000000081526004018080602001828103825260198152602001807f5468657265206973206e6f206265742063757272656e746c790000000000000081525060200191505060405180910390fd5b600060016000600260009054906101000a900473ffffffffffffffffffffffffffffffffffffffff1673ffffffffffffffffffffffffffffffffffffffff1673ffffffffffffffffffffffffffffffffffffffff168152602001908152602001600020600201819055506040518060200160405280600081525060016000600260009054906101000a900473ffffffffffffffffffffffffffffffffffffffff1673ffffffffffffffffffffffffffffffffffffffff1673ffffffffffffffffffffffffffffffffffffffff16815260200190815260200160002060040190805190602001906119fa929190614025565b50600060016000600260009054906101000a900473ffffffffffffffffffffffffffffffffffffffff1673ffffffffffffffffffffffffffffffffffffffff1673ffffffffffffffffffffffffffffffffffffffff16815260200190815260200160002060000160006101000a81548160ff021916908315150217905550600060016000600260009054906101000a900473ffffffffffffffffffffffffffffffffffffffff1673ffffffffffffffffffffffffffffffffffffffff1673ffffffffffffffffffffffffffffffffffffffff168152602001908152602001600020600301819055503373ffffffffffffffffffffffffffffffffffffffff166108fc60016000600260009054906101000a900473ffffffffffffffffffffffffffffffffffffffff1673ffffffffffffffffffffffffffffffffffffffff1673ffffffffffffffffffffffffffffffffffffffff168152602001908152602001600020600101549081150290604051600060405180830381858888f19350505050158015611b8c573d6000803e3d6000fd5b50600060016000600260009054906101000a900473ffffffffffffffffffffffffffffffffffffffff1673ffffffffffffffffffffffffffffffffffffffff1673ffffffffffffffffffffffffffffffffffffffff168152602001908152602001600020600101819055507f13684f18ba9ea835d5e044be0b93fc42751bb23220adf533c8d078bba00dd911600260009054906101000a900473ffffffffffffffffffffffffffffffffffffffff16604051808273ffffffffffffffffffffffffffffffffffffffff1673ffffffffffffffffffffffffffffffffffffffff16815260200191505060405180910390a16001905090565b60008060009054906101000a900473ffffffffffffffffffffffffffffffffffffffff16905090565b60008060009054906101000a900473ffffffffffffffffffffffffffffffffffffffff1673ffffffffffffffffffffffffffffffffffffffff163373ffffffffffffffffffffffffffffffffffffffff1614905090565b6000809054906101000a900473ffffffffffffffffffffffffffffffffffffffff1681565b600a5481565b60045481565b6000809054906101000a900473ffffffffffffffffffffffffffffffffffffffff1673ffffffffffffffffffffffffffffffffffffffff163373ffffffffffffffffffffffffffffffffffffffff1614611d8d57600080fd5b3373ffffffffffffffffffffffffffffffffffffffff166108fc6007549081150290604051600060405180830381858888f19350505050158015611dd5573d6000803e3d6000fd5b50565b60055481565b60008060006001151560016000600260009054906101000a900473ffffffffffffffffffffffffffffffffffffffff1673ffffffffffffffffffffffffffffffffffffffff1673ffffffffffffffffffffffffffffffffffffffff16815260200190815260200160002060000160009054906101000a900460ff16151514611ece576040517f08c379a000000000000000000000000000000000000000000000000000000000815260040180806020018281038252601e8152602001807f596f75206e65656420746f20626574206265666f726520706c6179696e67000081525060200191505060405180910390fd5b6001600481905550611ede613c97565b60016000600260009054906101000a900473ffffffffffffffffffffffffffffffffffffffff1673ffffffffffffffffffffffffffffffffffffffff1673ffffffffffffffffffffffffffffffffffffffff16815260200190815260200160002060030181905550600060016000600260009054906101000a900473ffffffffffffffffffffffffffffffffffffffff1673ffffffffffffffffffffffffffffffffffffffff1673ffffffffffffffffffffffffffffffffffffffff16815260200190815260200160002060000160006101000a81548160ff02191690831515021790555060016000600260009054906101000a900473ffffffffffffffffffffffffffffffffffffffff1673ffffffffffffffffffffffffffffffffffffffff1673ffffffffffffffffffffffffffffffffffffffff1681526020019081526020016000206002015460016000600260009054906101000a900473ffffffffffffffffffffffffffffffffffffffff1673ffffffffffffffffffffffffffffffffffffffff1673ffffffffffffffffffffffffffffffffffffffff1681526020019081526020016000206003015414156120f4573073ffffffffffffffffffffffffffffffffffffffff16633ff2abd86040518163ffffffff1660e01b8152600401600060405180830381600087803b1580156120db57600080fd5b505af11580156120ef573d6000803e3d6000fd5b505050505b7f9d17d4c6be5535d7018cd8f9d99b8dc459c09b3ee4f44ccfbc3f14dbcf245ee1600260009054906101000a900473ffffffffffffffffffffffffffffffffffffffff1660016000600260009054906101000a900473ffffffffffffffffffffffffffffffffffffffff1673ffffffffffffffffffffffffffffffffffffffff1673ffffffffffffffffffffffffffffffffffffffff1681526020019081526020016000206002015460016000600260009054906101000a900473ffffffffffffffffffffffffffffffffffffffff1673ffffffffffffffffffffffffffffffffffffffff1673ffffffffffffffffffffffffffffffffffffffff16815260200190815260200160002060030154604051808473ffffffffffffffffffffffffffffffffffffffff1673ffffffffffffffffffffffffffffffffffffffff168152602001838152602001828152602001935050505060405180910390a1600260009054906101000a900473ffffffffffffffffffffffffffffffffffffffff1660016000600260009054906101000a900473ffffffffffffffffffffffffffffffffffffffff1673ffffffffffffffffffffffffffffffffffffffff1673ffffffffffffffffffffffffffffffffffffffff1681526020019081526020016000206002015460016000600260009054906101000a900473ffffffffffffffffffffffffffffffffffffffff1673ffffffffffffffffffffffffffffffffffffffff1673ffffffffffffffffffffffffffffffffffffffff16815260200190815260200160002060030154925092509250909192565b6000809054906101000a900473ffffffffffffffffffffffffffffffffffffffff1673ffffffffffffffffffffffffffffffffffffffff163373ffffffffffffffffffffffffffffffffffffffff16146123a257600080fd5b6123ab81613cb7565b50565b6000809054906101000a900473ffffffffffffffffffffffffffffffffffffffff1673ffffffffffffffffffffffffffffffffffffffff163373ffffffffffffffffffffffffffffffffffffffff161461240757600080fd5b6000341161247d576040517f08c379a00000000000000000000000000000000000000000000000000000000081526004018080602001828103825260138152602001807f4e6f2066756e6473207472616e7366657265640000000000000000000000000081525060200191505060405180910390fd5b34600760008282540192505081905550565b600080600060065434101561250c576040517f08c379a00000000000000000000000000000000000000000000000000000000081526004018080602001828103825260118152602001807f546f6f206c6f77206265742076616c756500000000000000000000000000000081525060200191505060405180910390fd5b600554341115612584576040517f08c379a00000000000000000000000000000000000000000000000000000000081526004018080602001828103825260128152602001807f546f6f2068696768206265742076616c7565000000000000000000000000000081525060200191505060405180910390fd5b6000151560016000600260009054906101000a900473ffffffffffffffffffffffffffffffffffffffff1673ffffffffffffffffffffffffffffffffffffffff1673ffffffffffffffffffffffffffffffffffffffff16815260200190815260200160002060000160009054906101000a900460ff1615151461266f576040517f08c379a000000000000000000000000000000000000000000000000000000000815260040180806020018281038252601c8152602001807f546865726520697320616c72656164792061206265742072656164790000000081525060200191505060405180910390fd5b6008548410156126e7576040517f08c379a000000000000000000000000000000000000000000000000000000000815260040180806020018281038252601c8152602001807f426574206d757374206265206265747765656e203220616e642031320000000081525060200191505060405180910390fd5b60095484111561275f576040517f08c379a000000000000000000000000000000000000000000000000000000000815260040180806020018281038252601c8152602001807f426574206d757374206265206265747765656e203220616e642031320000000081525060200191505060405180910390fd5b346007600082825401925050819055506001806000600260009054906101000a900473ffffffffffffffffffffffffffffffffffffffff1673ffffffffffffffffffffffffffffffffffffffff1673ffffffffffffffffffffffffffffffffffffffff16815260200190815260200160002060000160006101000a81548160ff0219169083151502179055508360016000600260009054906101000a900473ffffffffffffffffffffffffffffffffffffffff1673ffffffffffffffffffffffffffffffffffffffff1673ffffffffffffffffffffffffffffffffffffffff168152602001908152602001600020600201819055507f32b805f1e32d0661b35c88f59fbd3050bef812a8300154e5255e0d1f7d1d8738600260009054906101000a900473ffffffffffffffffffffffffffffffffffffffff1660016000600260009054906101000a900473ffffffffffffffffffffffffffffffffffffffff1673ffffffffffffffffffffffffffffffffffffffff1673ffffffffffffffffffffffffffffffffffffffff16815260200190815260200160002060020154604051808373ffffffffffffffffffffffffffffffffffffffff1673ffffffffffffffffffffffffffffffffffffffff1681526020018281526020019250505060405180910390a160016000600260009054906101000a900473ffffffffffffffffffffffffffffffffffffffff1673ffffffffffffffffffffffffffffffffffffffff1673ffffffffffffffffffffffffffffffffffffffff1681526020019081526020016000206002015460016000600260009054906101000a900473ffffffffffffffffffffffffffffffffffffffff1673ffffffffffffffffffffffffffffffffffffffff1673ffffffffffffffffffffffffffffffffffffffff16815260200190815260200160002060000160009054906101000a900460ff1660016000600260009054906101000a900473ffffffffffffffffffffffffffffffffffffffff1673ffffffffffffffffffffffffffffffffffffffff1673ffffffffffffffffffffffffffffffffffffffff168152602001908152602001600020600101549250925092509193909250565b6000612acf826040518060400160405280600581526020017f626c61636b000000000000000000000000000000000000000000000000000000815250613daf565b80612b155750612b14826040518060400160405280600581526020017f7768697465000000000000000000000000000000000000000000000000000000815250613daf565b5b15612b8857600260016000600260009054906101000a900473ffffffffffffffffffffffffffffffffffffffff1673ffffffffffffffffffffffffffffffffffffffff1673ffffffffffffffffffffffffffffffffffffffff168152602001908152602001600020505060019050612e76565b612bc7826040518060400160405280600581526020017f677265656e000000000000000000000000000000000000000000000000000000815250613daf565b15612c3a57602460016000600260009054906101000a900473ffffffffffffffffffffffffffffffffffffffff1673ffffffffffffffffffffffffffffffffffffffff1673ffffffffffffffffffffffffffffffffffffffff168152602001908152602001600020505060019050612e76565b612c79826040518060400160405280600a81526020017f6669727374546869726400000000000000000000000000000000000000000000815250613daf565b80612cbf5750612cbe826040518060400160405280600b81526020017f7365636f6e645468697264000000000000000000000000000000000000000000815250613daf565b5b80612d055750612d04826040518060400160405280600a81526020017f7468697264546869726400000000000000000000000000000000000000000000815250613daf565b5b15612d7857600360016000600260009054906101000a900473ffffffffffffffffffffffffffffffffffffffff1673ffffffffffffffffffffffffffffffffffffffff1673ffffffffffffffffffffffffffffffffffffffff168152602001908152602001600020505060019050612e76565b6000612d8383613dca565b10158015612d9a57506024612d9783613dca565b11155b15612e0d57602460016000600260009054906101000a900473ffffffffffffffffffffffffffffffffffffffff1673ffffffffffffffffffffffffffffffffffffffff1673ffffffffffffffffffffffffffffffffffffffff168152602001908152602001600020505060019050612e76565b6001806000600260009054906101000a900473ffffffffffffffffffffffffffffffffffffffff1673ffffffffffffffffffffffffffffffffffffffff1673ffffffffffffffffffffffffffffffffffffffff1681526020019081526020016000205050600090505b919050565b6000612e8960006024613e3d565b9050612e9481613ef1565b60016000600260009054906101000a900473ffffffffffffffffffffffffffffffffffffffff1673ffffffffffffffffffffffffffffffffffffffff1673ffffffffffffffffffffffffffffffffffffffff1681526020019081526020016000206005016000019080519060200190612f0e929190614025565b50600060028281612f1b57fe5b06148015612f2a575060008114155b15612fe5576040518060400160405280600581526020017f626c61636b00000000000000000000000000000000000000000000000000000081525060016000600260009054906101000a900473ffffffffffffffffffffffffffffffffffffffff1673ffffffffffffffffffffffffffffffffffffffff1673ffffffffffffffffffffffffffffffffffffffff1681526020019081526020016000206005016003019080519060200190612fdf929190614025565b50613097565b6040518060400160405280600581526020017f776869746500000000000000000000000000000000000000000000000000000081525060016000600260009054906101000a900473ffffffffffffffffffffffffffffffffffffffff1673ffffffffffffffffffffffffffffffffffffffff1673ffffffffffffffffffffffffffffffffffffffff1681526020019081526020016000206005016003019080519060200190613095929190614025565b505b6000811180156130a85750600c8111155b15613163576040518060400160405280600a81526020017f666972737454686972640000000000000000000000000000000000000000000081525060016000600260009054906101000a900473ffffffffffffffffffffffffffffffffffffffff1673ffffffffffffffffffffffffffffffffffffffff1673ffffffffffffffffffffffffffffffffffffffff168152602001908152602001600020600501600101908051906020019061315d929190614025565b506132e2565b600c81118015613174575060188111155b1561322f576040518060400160405280600b81526020017f7365636f6e64546869726400000000000000000000000000000000000000000081525060016000600260009054906101000a900473ffffffffffffffffffffffffffffffffffffffff1673ffffffffffffffffffffffffffffffffffffffff1673ffffffffffffffffffffffffffffffffffffffff1681526020019081526020016000206005016001019080519060200190613229929190614025565b506132e1565b6040518060400160405280600b81526020017f74686972644e756d62657200000000000000000000000000000000000000000081525060016000600260009054906101000a900473ffffffffffffffffffffffffffffffffffffffff1673ffffffffffffffffffffffffffffffffffffffff1673ffffffffffffffffffffffffffffffffffffffff16815260200190815260200160002060050160010190805190602001906132df929190614025565b505b5b60008114156133a1576040518060400160405280600481526020017f747275650000000000000000000000000000000000000000000000000000000081525060016000600260009054906101000a900473ffffffffffffffffffffffffffffffffffffffff1673ffffffffffffffffffffffffffffffffffffffff1673ffffffffffffffffffffffffffffffffffffffff168152602001908152602001600020600501600201908051906020019061339b929190614025565b50613453565b6040518060400160405280600581526020017f66616c736500000000000000000000000000000000000000000000000000000081525060016000600260009054906101000a900473ffffffffffffffffffffffffffffffffffffffff1673ffffffffffffffffffffffffffffffffffffffff1673ffffffffffffffffffffffffffffffffffffffff1681526020019081526020016000206005016002019080519060200190613451929190614025565b505b50565b600061365d60016000600260009054906101000a900473ffffffffffffffffffffffffffffffffffffffff1673ffffffffffffffffffffffffffffffffffffffff1673ffffffffffffffffffffffffffffffffffffffff1681526020019081526020016000206004018054600181600116156101000203166002900480601f0160208091040260200160405190810160405280929190818152602001828054600181600116156101000203166002900480156135535780601f1061352857610100808354040283529160200191613553565b820191906000526020600020905b81548152906001019060200180831161353657829003601f168201915b505050505060016000600260009054906101000a900473ffffffffffffffffffffffffffffffffffffffff1673ffffffffffffffffffffffffffffffffffffffff1673ffffffffffffffffffffffffffffffffffffffff1681526020019081526020016000206005016000018054600181600116156101000203166002900480601f0160208091040260200160405190810160405280929190818152602001828054600181600116156101000203166002900480156136535780601f1061362857610100808354040283529160200191613653565b820191906000526020600020905b81548152906001019060200180831161363657829003601f168201915b5050505050613daf565b80613869575061386860016000600260009054906101000a900473ffffffffffffffffffffffffffffffffffffffff1673ffffffffffffffffffffffffffffffffffffffff1673ffffffffffffffffffffffffffffffffffffffff1681526020019081526020016000206004018054600181600116156101000203166002900480601f01602080910402602001604051908101604052809291908181526020018280546001816001161561010002031660029004801561375e5780601f106137335761010080835404028352916020019161375e565b820191906000526020600020905b81548152906001019060200180831161374157829003601f168201915b505050505060016000600260009054906101000a900473ffffffffffffffffffffffffffffffffffffffff1673ffffffffffffffffffffffffffffffffffffffff1673ffffffffffffffffffffffffffffffffffffffff1681526020019081526020016000206005016002018054600181600116156101000203166002900480601f01602080910402602001604051908101604052809291908181526020018280546001816001161561010002031660029004801561385e5780601f106138335761010080835404028352916020019161385e565b820191906000526020600020905b81548152906001019060200180831161384157829003601f168201915b5050505050613daf565b5b80613a755750613a7460016000600260009054906101000a900473ffffffffffffffffffffffffffffffffffffffff1673ffffffffffffffffffffffffffffffffffffffff1673ffffffffffffffffffffffffffffffffffffffff1681526020019081526020016000206004018054600181600116156101000203166002900480601f01602080910402602001604051908101604052809291908181526020018280546001816001161561010002031660029004801561396a5780601f1061393f5761010080835404028352916020019161396a565b820191906000526020600020905b81548152906001019060200180831161394d57829003601f168201915b505050505060016000600260009054906101000a900473ffffffffffffffffffffffffffffffffffffffff1673ffffffffffffffffffffffffffffffffffffffff1673ffffffffffffffffffffffffffffffffffffffff1681526020019081526020016000206005016003018054600181600116156101000203166002900480601f016020809104026020016040519081016040528092919081815260200182805460018160011615610100020316600290048015613a6a5780601f10613a3f57610100808354040283529160200191613a6a565b820191906000526020600020905b815481529060010190602001808311613a4d57829003601f168201915b5050505050613daf565b5b80613c815750613c8060016000600260009054906101000a900473ffffffffffffffffffffffffffffffffffffffff1673ffffffffffffffffffffffffffffffffffffffff1673ffffffffffffffffffffffffffffffffffffffff1681526020019081526020016000206004018054600181600116156101000203166002900480601f016020809104026020016040519081016040528092919081815260200182805460018160011615610100020316600290048015613b765780601f10613b4b57610100808354040283529160200191613b76565b820191906000526020600020905b815481529060010190602001808311613b5957829003601f168201915b505050505060016000600260009054906101000a900473ffffffffffffffffffffffffffffffffffffffff1673ffffffffffffffffffffffffffffffffffffffff1673ffffffffffffffffffffffffffffffffffffffff1681526020019081526020016000206005016001018054600181600116156101000203166002900480601f016020809104026020016040519081016040528092919081815260200182805460018160011615610100020316600290048015613c765780601f10613c4b57610100808354040283529160200191613c76565b820191906000526020600020905b815481529060010190602001808311613c5957829003601f168201915b5050505050613daf565b5b15613c8f5760019050613c94565b600090505b90565b6000613ca560016006613e3d565b613cb160016006613e3d565b01905090565b600073ffffffffffffffffffffffffffffffffffffffff168173ffffffffffffffffffffffffffffffffffffffff161415613cf157600080fd5b8073ffffffffffffffffffffffffffffffffffffffff166000809054906101000a900473ffffffffffffffffffffffffffffffffffffffff1673ffffffffffffffffffffffffffffffffffffffff167f8be0079c531659141344cd1fd0a4f28419497f9722a3daafe3b4186f6b6457e060405160405180910390a3806000806101000a81548173ffffffffffffffffffffffffffffffffffffffff021916908373ffffffffffffffffffffffffffffffffffffffff16021790555050565b60008180519060200120838051906020012014905092915050565b600060608290506000809250600090505b8151811015613e36576000828281518110613df257fe5b602001015160f81c60f81b60f81c60ff16905060308110158015613e17575060398111155b15613e285760308103600a85020193505b508080600101915050613ddb565b5050919050565b6000600360008154809291906001019190505550828242600260009054906101000a900473ffffffffffffffffffffffffffffffffffffffff16600354604051602001808481526020018373ffffffffffffffffffffffffffffffffffffffff1673ffffffffffffffffffffffffffffffffffffffff1660601b815260140182815260200193505050506040516020818303038152906040528051906020012060001c81613ee757fe5b0601905092915050565b606060008290506000811415613f3f576040518060400160405280600181526020017f3000000000000000000000000000000000000000000000000000000000000000815250915050614020565b600081905060005b60008214613f69578080600101915050600a8281613f6157fe5b049150613f47565b6060816040519080825280601f01601f191660200182016040528015613f9e5781602001600182028038833980820191505090505b50905060006001830390505b6000851461401757600a8581613fbc57fe5b0660300160f81b82828060019003935081518110613fd657fe5b60200101907effffffffffffffffffffffffffffffffffffffffffffffffffffffffffffff1916908160001a905350600a858161400f57fe5b049450613faa565b81955050505050505b919050565b828054600181600116156101000203166002900490600052602060002090601f016020900481019282601f1061406657805160ff1916838001178555614094565b82800160010185558215614094579182015b82811115614093578251825591602001919060010190614078565b5b5090506140a191906140a5565b5090565b6140c791905b808211156140c35760008160009055506001016140ab565b5090565b9056fea265627a7a72315820e87115d68b6c476899635541dff735509d1275a6269217350038fa42870862bd64736f6c63430005100032",
  "source": "pragma solidity ^0.5.0;\n\nimport \"./SafeMath.sol\";\nimport \"./Ownable.sol\";\n\ncontract DiceGame is Ownable{ //Ownable allows use onlyOwner modifier so we can make admin functions\n\n\tusing SafeMath for uint256; //Using SafeMath lib to avoid overflow erros\n\n\n\n\t//Variables\n\tstruct RouletteResult{\n\t\tstring number;\n\t\tstring thirdNumber;\n\t\tstring isGreen;\n\t\tstring color;\n\t}\n\tstruct Bet{\n\t\tbool isSet; \n\t\tuint moneyBet;\n\t\tuint diceBet;\n\t\tuint diceResult;\n\t\tstring rouletteBet;\t\n\t\tRouletteResult rouletteResult;\n\t\tuint rouletteBetMultiplier;\t\n\t}\n\tmapping(address => Bet) private betsMap;\n\taddress currentPlayer;\n\tuint randomId = 0;\n\tuint public gameType = 0; //0: null, 1: dice, 2: roulette\n\tuint public maximumBetValue = 1 ether;\n\tuint public minimumBetValue = 0.001 ether;\n\tuint private contractBalance = 0;\n\tuint public minDiceValue = 2;\n\tuint public maxDiceValue = 12;\n\tuint public diceBetMultiplier = 10;\n\n\n\n\t//Events\n\tevent EventCancelBet(address player);\n\tevent EventDiceBet(address player , uint diceBet);\n\tevent EventDiceResult(address player, uint diceBet , uint diceResult);\n\tevent EventRouletteBet(address player , string rouletteBet);\n\tevent EventRouletteResult(address player, string rouletteBet , string rouletteResultNb);\n\n\n\n\t//Constructor\n\tconstructor() public{\n\t\tmsg.sender == currentPlayer;\n\t}\n\n\n\n\t//Modifiers\n\tmodifier isRightPlayer(){\n\t\t\n\t\t_;\n\t}\n\tmodifier isEnoughMoney(){\n\t\trequire(msg.value >= minimumBetValue, \"Too low bet value\");\n\t\trequire(msg.value <= maximumBetValue, \"Too high bet value\");\n\t\t_;\n\t}\n\tmodifier currentBetIsNotSet(){\n\t\trequire(betsMap[currentPlayer].isSet == false, \"There is already a bet ready\");\n\t\t_;\n\t}\n\tmodifier currentBetIsSet(){\n\t\trequire(betsMap[currentPlayer].isSet == true, \"You need to bet before playing\"); \n\t\t_;\n\t}\n\n\n\n\t//General casino functions\n\tfunction playerReceivesMoney() external isRightPlayer{\n\t\tif(gameType == 1){ //1: dice\n\t\t\tmsg.sender.transfer(betsMap[currentPlayer].moneyBet * diceBetMultiplier);\n\t\t}else if(gameType == 2){ //2: roulette\n\t\t\tmsg.sender.transfer(betsMap[currentPlayer].moneyBet * betsMap[currentPlayer].rouletteBetMultiplier);\n\t\t}\n\t}\n\tfunction isBetSet() public view returns(bool){\n\t\treturn betsMap[currentPlayer].isSet;\n\t}\n\tfunction cancelBet() external isRightPlayer returns(bool){\n\t\trequire(betsMap[currentPlayer].isSet == true, \"There is no bet currently\");\n\t\tbetsMap[currentPlayer].diceBet = 0;\n\t\tbetsMap[currentPlayer].rouletteBet = \"\";\n\t\tbetsMap[currentPlayer].isSet = false;\n\t\tbetsMap[currentPlayer].diceResult = 0;\n\t\tmsg.sender.transfer(betsMap[currentPlayer].moneyBet);\n\t\tbetsMap[currentPlayer].moneyBet = 0;\n\t\temit EventCancelBet(currentPlayer);\n\t\treturn true;\n\t}\n\n\n\n\t//Dice game functions\n\tfunction getDiceBet(uint playerBet) public payable isRightPlayer isEnoughMoney currentBetIsNotSet returns(uint, bool, uint){\n\t\trequire(playerBet >= minDiceValue, \"Bet must be between 2 and 12\");\n\t\trequire(playerBet <= maxDiceValue, \"Bet must be between 2 and 12\");\n\t\tcontractBalance += msg.value;\n\t\tbetsMap[currentPlayer].isSet = true;\n\t\tbetsMap[currentPlayer].diceBet = playerBet;\n\t\temit EventDiceBet(currentPlayer, betsMap[currentPlayer].diceBet);\n\t\treturn (betsMap[currentPlayer].diceBet, betsMap[currentPlayer].isSet, betsMap[currentPlayer].moneyBet);\n\t}\n\tfunction playDice() public isRightPlayer currentBetIsSet returns(address , uint , uint){\n\t\tgameType = 1;\t\t\t\t\t\t\t\t\t\t\t\t\t\t\t\t\n\t\tbetsMap[currentPlayer].diceResult = randomDoubleDice();\t\t\t\t\t\t\t\t\t\t\t\t\t\t\t\n\t\tbetsMap[currentPlayer].isSet = false;\n\t\tif(betsMap[currentPlayer].diceResult == betsMap[currentPlayer].diceBet){\t\n\t\t\tthis.playerReceivesMoney();\n\t\t}\n\t\temit EventDiceResult(currentPlayer, betsMap[currentPlayer].diceBet, betsMap[currentPlayer].diceResult);\n\t\treturn (currentPlayer , betsMap[currentPlayer].diceBet , betsMap[currentPlayer].diceResult);\n\t}\n    function randomDoubleDice() private returns (uint){\n\t\treturn randomUintBetween(1, 6) + randomUintBetween(1, 6);\n    }\n\n\n\n    //Roulette game functions\n\tfunction getRouletteBet(string memory playerBet) public payable isRightPlayer isEnoughMoney currentBetIsNotSet returns(string memory, bool, uint){\n\t\trequire(checkRouletteBet(playerBet));\n\t\tcontractBalance += msg.value;\n\t\tbetsMap[currentPlayer].isSet = true;\n\t\tbetsMap[currentPlayer].rouletteBet = playerBet;\n\t\temit EventRouletteBet(currentPlayer, betsMap[currentPlayer].rouletteBet);\n\t\treturn (betsMap[currentPlayer].rouletteBet, betsMap[currentPlayer].isSet, betsMap[currentPlayer].moneyBet);\n\t}\n\tfunction playRoulette() public isRightPlayer currentBetIsSet returns(address, string memory, string memory){\t\n\t\tgameType = 2;\t\n\t\trouletteGame();\t\n\t\tbetsMap[currentPlayer].isSet = false;\n\t\tif(isPlayerWinning() == true){\n\t\t\tthis.playerReceivesMoney();\n\t\t}\t\n\t\temit EventRouletteResult(currentPlayer, betsMap[currentPlayer].rouletteBet, betsMap[currentPlayer].rouletteResult.number);\n\t\treturn (currentPlayer, betsMap[currentPlayer].rouletteBet, betsMap[currentPlayer].rouletteResult.number);\n\t}\n\tfunction isPlayerWinning() private view returns(bool){\n\t\tif((compareStrings(betsMap[currentPlayer].rouletteBet, betsMap[currentPlayer].rouletteResult.number))\n\t\t|| ((compareStrings(betsMap[currentPlayer].rouletteBet, betsMap[currentPlayer].rouletteResult.isGreen)))\n\t\t|| ((compareStrings(betsMap[currentPlayer].rouletteBet, betsMap[currentPlayer].rouletteResult.color)))\n\t\t|| ((compareStrings(betsMap[currentPlayer].rouletteBet, betsMap[currentPlayer].rouletteResult.thirdNumber)))){\n\t\t\treturn true;\n\t\t}\n\t\treturn false;\n\t}\n\tfunction rouletteGame() private {\n\t\tuint rouletteNumberResult = randomUintBetween(0, 36);\n\t\t//Number\n\t\tbetsMap[currentPlayer].rouletteResult.number = uintToString(rouletteNumberResult);\n\t\t//Color\n\t\tif(rouletteNumberResult % 2 == 0 && rouletteNumberResult != 0){\n\t\t\tbetsMap[currentPlayer].rouletteResult.color = \"black\";\n\t\t}else{\n\t\t\tbetsMap[currentPlayer].rouletteResult.color = \"white\";\n\t\t}\n\t\t//Third\n\t\tif(rouletteNumberResult > 0 && rouletteNumberResult <= 12){\n\t\t\tbetsMap[currentPlayer].rouletteResult.thirdNumber = \"firstThird\";\n\t\t}else if(rouletteNumberResult > 12 && rouletteNumberResult <= 24){\n\t\t\tbetsMap[currentPlayer].rouletteResult.thirdNumber = \"secondThird\";\n\t\t}else{\n\t\t\tbetsMap[currentPlayer].rouletteResult.thirdNumber = \"thirdNumber\";\n\t\t}\n\t\t//Green\n\t\tif(rouletteNumberResult == 0){\n\t\t\tbetsMap[currentPlayer].rouletteResult.isGreen = \"true\";\n\t\t}else{\n\t\t\tbetsMap[currentPlayer].rouletteResult.isGreen = \"false\";\n\t\t}\n\t}\n\tfunction checkRouletteBet(string memory playerBet) private view returns(bool){\n\t\tif((compareStrings(playerBet, \"black\")) \n\t\t|| (compareStrings(playerBet, \"white\"))){\n\t\t\tbetsMap[currentPlayer].rouletteBetMultiplier == 2;\n\t\t\treturn true;\n\t\t}else if(compareStrings(playerBet, \"green\")){\n\t\t\tbetsMap[currentPlayer].rouletteBetMultiplier == 36;\n\t\t\treturn true;\n\t\t}else if((compareStrings(playerBet, \"firstThird\")) \n\t\t\t  || (compareStrings(playerBet, \"secondThird\"))\n\t\t\t  || (compareStrings(playerBet, \"thirdThird\"))){\n\t\t\tbetsMap[currentPlayer].rouletteBetMultiplier == 3;\n\t\t\treturn true;\n\t\t}else if(stringToUint(playerBet) >= 0 && stringToUint(playerBet) <= 36){\n\t\t\tbetsMap[currentPlayer].rouletteBetMultiplier == 36;\n\t\t\treturn true;\n\t\t}else{ //If the bet is not right\n\t\t\tbetsMap[currentPlayer].rouletteBetMultiplier == 1;\n\t\t\treturn false;\n\t\t}\n\t}\n\n\n\n    //Admin functions with onlyOwner\n    function addFundsContractBalance() external payable onlyOwner{\n    \trequire(msg.value > 0, \"No funds transfered\");\n\t\tcontractBalance += msg.value;\n\t}\n    function withdrawContractBalance() external onlyOwner{\n\t\tmsg.sender.transfer(contractBalance);\n\t}\n\tfunction getContractBalance() external view onlyOwner returns(uint){\n\t\treturn contractBalance;\n\t}\n\n\n\n\t//Utility functions\n\tfunction randomUintBetween(uint min, uint max) private returns(uint){\n\t\trandomId++;\n\t\treturn uint(keccak256(abi.encodePacked(now, currentPlayer, randomId))) % max + min;\n\t}\n\tfunction stringToUint(string memory s) internal pure returns (uint result) {\n        bytes memory b = bytes(s);\n        uint i;\n        result = 0;\n        for (i = 0; i < b.length; i++) {\n            uint c = uint(uint8(b[i])); //Conversion trick\n            if (c >= 48 && c <= 57) {\n                result = result * 10 + (c - 48);\n            }\n        }\n    }\n    function uintToString(uint _i) internal pure returns (string memory _uintAsString) {\n        uint number = _i;\n        if (number == 0) {\n            return \"0\";\n        }\n        uint j = number;\n        uint len;\n        while (j != 0) {\n            len++;\n            j /= 10;\n        }\n        bytes memory bstr = new bytes(len);\n        uint k = len - 1;\n        while (number != 0) {\n            bstr[k--] = byte(uint8(48 + number % 10));\n            number /= 10;\n        }\n        return string(bstr);\n    }\n    function compareStrings(string memory a, string memory b) internal pure returns(bool){\n    \treturn keccak256(bytes(a)) == keccak256(bytes(b));\n    }\n\t\n}",
  "sourcePath": "/home/hanzo/Desktop/DecentralizedCasino/dapp/contracts/DiceGame.sol",
  "compiler": {
    "name": "solc",
    "version": "0.5.16+commit.9c3226ce.Emscripten.clang"
  },
  "schemaVersion": "3.3.4",
  "updatedAt": "2021-03-11T00:01:51.603Z",
  "networkType": "ethereum",
  "devdoc": {
    "methods": {
      "isOwner()": {
        "return": "true if `msg.sender` is the owner of the contract."
      },
      "owner()": {
        "return": "the address of the owner."
      },
      "renounceOwnership()": {
        "details": "Allows the current owner to relinquish control of the contract."
      },
      "transferOwnership(address)": {
        "details": "Allows the current owner to transfer control of the contract to a newOwner.",
        "params": {
          "newOwner": "The address to transfer ownership to."
        }
      }
    }
  },
  "userdoc": {
    "methods": {
      "renounceOwnership()": {
        "notice": "Renouncing to ownership will leave the contract without an owner. It will not be possible to call the functions with the `onlyOwner` modifier anymore."
      }
    }
  }
}