{
  "contractName": "Dice",
  "abi": [
    {
      "anonymous": false,
      "inputs": [
        {
          "indexed": true,
          "internalType": "address",
          "name": "previousOwner",
          "type": "address"
        },
        {
          "indexed": true,
          "internalType": "address",
          "name": "newOwner",
          "type": "address"
        }
      ],
      "name": "OwnershipTransferred",
      "type": "event"
    },
    {
      "constant": true,
      "inputs": [],
      "name": "_owner",
      "outputs": [
        {
          "internalType": "address",
          "name": "",
          "type": "address"
        }
      ],
      "payable": false,
      "stateMutability": "view",
      "type": "function"
    },
    {
      "constant": true,
      "inputs": [],
      "name": "isOwner",
      "outputs": [
        {
          "internalType": "bool",
          "name": "",
          "type": "bool"
        }
      ],
      "payable": false,
      "stateMutability": "view",
      "type": "function"
    },
    {
      "constant": true,
      "inputs": [],
      "name": "maximumTokenValue",
      "outputs": [
        {
          "internalType": "uint16",
          "name": "",
          "type": "uint16"
        }
      ],
      "payable": false,
      "stateMutability": "view",
      "type": "function"
    },
    {
      "constant": true,
      "inputs": [],
      "name": "minimumTokenValue",
      "outputs": [
        {
          "internalType": "uint16",
          "name": "",
          "type": "uint16"
        }
      ],
      "payable": false,
      "stateMutability": "view",
      "type": "function"
    },
    {
      "constant": true,
      "inputs": [],
      "name": "owner",
      "outputs": [
        {
          "internalType": "address",
          "name": "",
          "type": "address"
        }
      ],
      "payable": false,
      "stateMutability": "view",
      "type": "function"
    },
    {
      "constant": false,
      "inputs": [],
      "name": "renounceOwnership",
      "outputs": [],
      "payable": false,
      "stateMutability": "nonpayable",
      "type": "function"
    },
    {
      "constant": false,
      "inputs": [
        {
          "internalType": "address",
          "name": "newOwner",
          "type": "address"
        }
      ],
      "name": "transferOwnership",
      "outputs": [],
      "payable": false,
      "stateMutability": "nonpayable",
      "type": "function"
    },
    {
      "constant": true,
      "inputs": [
        {
          "internalType": "address",
          "name": "player",
          "type": "address"
        }
      ],
      "name": "isBetSet",
      "outputs": [
        {
          "internalType": "bool",
          "name": "",
          "type": "bool"
        }
      ],
      "payable": false,
      "stateMutability": "view",
      "type": "function"
    },
    {
      "constant": false,
      "inputs": [
        {
          "internalType": "address",
          "name": "player",
          "type": "address"
        },
        {
          "internalType": "string",
          "name": "",
          "type": "string"
        },
        {
          "internalType": "uint8",
          "name": "betData",
          "type": "uint8"
        },
        {
          "internalType": "uint256",
          "name": "tokenAmount",
          "type": "uint256"
        }
      ],
      "name": "bet",
      "outputs": [
        {
          "internalType": "bool",
          "name": "",
          "type": "bool"
        }
      ],
      "payable": false,
      "stateMutability": "nonpayable",
      "type": "function"
    },
    {
      "constant": false,
      "inputs": [
        {
          "internalType": "address",
          "name": "player",
          "type": "address"
        }
      ],
      "name": "cancelBet",
      "outputs": [
        {
          "internalType": "uint256",
          "name": "",
          "type": "uint256"
        }
      ],
      "payable": false,
      "stateMutability": "nonpayable",
      "type": "function"
    },
    {
      "constant": false,
      "inputs": [
        {
          "internalType": "address",
          "name": "player",
          "type": "address"
        }
      ],
      "name": "play",
      "outputs": [
        {
          "internalType": "uint8",
          "name": "",
          "type": "uint8"
        },
        {
          "internalType": "uint256",
          "name": "",
          "type": "uint256"
        }
      ],
      "payable": false,
      "stateMutability": "nonpayable",
      "type": "function"
    }
  ],
  "bytecode": "0x6080604052600080556103e8600160006101000a81548161ffff021916908361ffff16021790555060018060026101000a81548161ffff021916908361ffff160217905550600660035533600160046101000a81548173ffffffffffffffffffffffffffffffffffffffff021916908373ffffffffffffffffffffffffffffffffffffffff160217905550600160049054906101000a900473ffffffffffffffffffffffffffffffffffffffff1673ffffffffffffffffffffffffffffffffffffffff16600073ffffffffffffffffffffffffffffffffffffffff167f8be0079c531659141344cd1fd0a4f28419497f9722a3daafe3b4186f6b6457e060405160405180910390a36112d2806101166000396000f3fe608060405234801561001057600080fd5b50600436106100a95760003560e01c80638da5cb5b116100715780638da5cb5b146102285780638f32d59b14610272578063b2bdfa7b14610294578063e492814f146102de578063f2fde38b14610343578063f74640b314610387576100a9565b806332994a27146100ae5780635cbe6c54146100d457806362127da814610130578063715018a6146101f85780637579000b14610202575b600080fd5b6100b66103df565b604051808261ffff1661ffff16815260200191505060405180910390f35b610116600480360360208110156100ea57600080fd5b81019080803573ffffffffffffffffffffffffffffffffffffffff1690602001909291905050506103f3565b604051808215151515815260200191505060405180910390f35b6101de6004803603608081101561014657600080fd5b81019080803573ffffffffffffffffffffffffffffffffffffffff1690602001909291908035906020019064010000000081111561018357600080fd5b82018360208201111561019557600080fd5b803590602001918460018302840111640100000000831117156101b757600080fd5b9091929391929390803560ff169060200190929190803590602001909291905050506104f2565b604051808215151515815260200191505060405180910390f35b6102006108b1565b005b61020a610a18565b604051808261ffff1661ffff16815260200191505060405180910390f35b610230610a2c565b604051808273ffffffffffffffffffffffffffffffffffffffff1673ffffffffffffffffffffffffffffffffffffffff16815260200191505060405180910390f35b61027a610a56565b604051808215151515815260200191505060405180910390f35b61029c610aae565b604051808273ffffffffffffffffffffffffffffffffffffffff1673ffffffffffffffffffffffffffffffffffffffff16815260200191505060405180910390f35b610320600480360360208110156102f457600080fd5b81019080803573ffffffffffffffffffffffffffffffffffffffff169060200190929190505050610ad4565b604051808360ff1660ff1681526020018281526020019250505060405180910390f35b6103856004803603602081101561035957600080fd5b81019080803573ffffffffffffffffffffffffffffffffffffffff169060200190929190505050610d78565b005b6103c96004803603602081101561039d57600080fd5b81019080803573ffffffffffffffffffffffffffffffffffffffff169060200190929190505050610e2a565b6040518082815260200191505060405180910390f35b600160029054906101000a900461ffff1681565b6000600160049054906101000a900473ffffffffffffffffffffffffffffffffffffffff1673ffffffffffffffffffffffffffffffffffffffff163373ffffffffffffffffffffffffffffffffffffffff161461049b576040517f08c379a00000000000000000000000000000000000000000000000000000000081526004018080602001828103825260268152602001806112786026913960400191505060405180910390fd5b600260008373ffffffffffffffffffffffffffffffffffffffff1673ffffffffffffffffffffffffffffffffffffffff16815260200190815260200160002060000160009054906101000a900460ff169050919050565b6000600160049054906101000a900473ffffffffffffffffffffffffffffffffffffffff1673ffffffffffffffffffffffffffffffffffffffff163373ffffffffffffffffffffffffffffffffffffffff161461059a576040517f08c379a00000000000000000000000000000000000000000000000000000000081526004018080602001828103825260268152602001806112786026913960400191505060405180910390fd5b600260008773ffffffffffffffffffffffffffffffffffffffff1673ffffffffffffffffffffffffffffffffffffffff16815260200190815260200160002060000160009054906101000a900460ff166000151581151514610664576040517f08c379a000000000000000000000000000000000000000000000000000000000815260040180806020018281038252601c8152602001807f546865726520697320616c72656164792061206265742072656164790000000081525060200191505060405180910390fd5b60028460ff1610156106de576040517f08c379a000000000000000000000000000000000000000000000000000000000815260040180806020018281038252601c8152602001807f426574206d757374206265206265747765656e203220616e642031320000000081525060200191505060405180910390fd5b600c8460ff161115610758576040517f08c379a000000000000000000000000000000000000000000000000000000000815260040180806020018281038252601c8152602001807f426574206d757374206265206265747765656e203220616e642031320000000081525060200191505060405180910390fd5b83600260008973ffffffffffffffffffffffffffffffffffffffff1673ffffffffffffffffffffffffffffffffffffffff16815260200190815260200160002060020160006101000a81548160ff021916908360ff1602179055506001600260008973ffffffffffffffffffffffffffffffffffffffff1673ffffffffffffffffffffffffffffffffffffffff16815260200190815260200160002060000160006101000a81548160ff02191690831515021790555082600260008973ffffffffffffffffffffffffffffffffffffffff1673ffffffffffffffffffffffffffffffffffffffff16815260200190815260200160002060010181905550600260008873ffffffffffffffffffffffffffffffffffffffff1673ffffffffffffffffffffffffffffffffffffffff16815260200190815260200160002060000160009054906101000a900460ff1691505095945050505050565b600160049054906101000a900473ffffffffffffffffffffffffffffffffffffffff1673ffffffffffffffffffffffffffffffffffffffff163373ffffffffffffffffffffffffffffffffffffffff1614610957576040517f08c379a00000000000000000000000000000000000000000000000000000000081526004018080602001828103825260268152602001806112786026913960400191505060405180910390fd5b600073ffffffffffffffffffffffffffffffffffffffff16600160049054906101000a900473ffffffffffffffffffffffffffffffffffffffff1673ffffffffffffffffffffffffffffffffffffffff167f8be0079c531659141344cd1fd0a4f28419497f9722a3daafe3b4186f6b6457e060405160405180910390a36000600160046101000a81548173ffffffffffffffffffffffffffffffffffffffff021916908373ffffffffffffffffffffffffffffffffffffffff160217905550565b600160009054906101000a900461ffff1681565b6000600160049054906101000a900473ffffffffffffffffffffffffffffffffffffffff16905090565b6000600160049054906101000a900473ffffffffffffffffffffffffffffffffffffffff1673ffffffffffffffffffffffffffffffffffffffff163373ffffffffffffffffffffffffffffffffffffffff1614905090565b600160049054906101000a900473ffffffffffffffffffffffffffffffffffffffff1681565b600080600160049054906101000a900473ffffffffffffffffffffffffffffffffffffffff1673ffffffffffffffffffffffffffffffffffffffff163373ffffffffffffffffffffffffffffffffffffffff1614610b7d576040517f08c379a00000000000000000000000000000000000000000000000000000000081526004018080602001828103825260268152602001806112786026913960400191505060405180910390fd5b600260008473ffffffffffffffffffffffffffffffffffffffff1673ffffffffffffffffffffffffffffffffffffffff16815260200190815260200160002060000160009054906101000a900460ff166001151581151514610c47576040517f08c379a000000000000000000000000000000000000000000000000000000000815260040180806020018281038252601e8152602001807f596f75206e65656420746f20626574206265666f726520706c6179696e67000081525060200191505060405180910390fd5b6000610c51611042565b90506000809050600260008773ffffffffffffffffffffffffffffffffffffffff1673ffffffffffffffffffffffffffffffffffffffff16815260200190815260200160002060020160009054906101000a900460ff1660ff168260ff161415610d0f57610d0c600354600260008973ffffffffffffffffffffffffffffffffffffffff1673ffffffffffffffffffffffffffffffffffffffff1681526020019081526020016000206001015461107890919063ffffffff16565b90505b6000600260008873ffffffffffffffffffffffffffffffffffffffff1673ffffffffffffffffffffffffffffffffffffffff16815260200190815260200160002060000160006101000a81548160ff021916908315150217905550818194509450505050915091565b600160049054906101000a900473ffffffffffffffffffffffffffffffffffffffff1673ffffffffffffffffffffffffffffffffffffffff163373ffffffffffffffffffffffffffffffffffffffff1614610e1e576040517f08c379a00000000000000000000000000000000000000000000000000000000081526004018080602001828103825260268152602001806112786026913960400191505060405180910390fd5b610e27816110af565b50565b6000600160049054906101000a900473ffffffffffffffffffffffffffffffffffffffff1673ffffffffffffffffffffffffffffffffffffffff163373ffffffffffffffffffffffffffffffffffffffff1614610ed2576040517f08c379a00000000000000000000000000000000000000000000000000000000081526004018080602001828103825260268152602001806112786026913960400191505060405180910390fd5b600260008373ffffffffffffffffffffffffffffffffffffffff1673ffffffffffffffffffffffffffffffffffffffff16815260200190815260200160002060000160009054906101000a900460ff166001151581151514610f9c576040517f08c379a000000000000000000000000000000000000000000000000000000000815260040180806020018281038252601e8152602001807f596f75206e65656420746f20626574206265666f726520706c6179696e67000081525060200191505060405180910390fd5b6000600260008573ffffffffffffffffffffffffffffffffffffffff1673ffffffffffffffffffffffffffffffffffffffff16815260200190815260200160002060000160006101000a81548160ff021916908315150217905550600260008473ffffffffffffffffffffffffffffffffffffffff1673ffffffffffffffffffffffffffffffffffffffff16815260200190815260200160002060010154915050919050565b6000611073611053600160066111a9565b60ff16611062600160066111a9565b60ff1661125b90919063ffffffff16565b905090565b60008083141561108b57600090506110a9565b600082840290508284828161109c57fe5b04146110a457fe5b809150505b92915050565b600073ffffffffffffffffffffffffffffffffffffffff168173ffffffffffffffffffffffffffffffffffffffff1614156110e957600080fd5b8073ffffffffffffffffffffffffffffffffffffffff16600160049054906101000a900473ffffffffffffffffffffffffffffffffffffffff1673ffffffffffffffffffffffffffffffffffffffff167f8be0079c531659141344cd1fd0a4f28419497f9722a3daafe3b4186f6b6457e060405160405180910390a380600160046101000a81548173ffffffffffffffffffffffffffffffffffffffff021916908373ffffffffffffffffffffffffffffffffffffffff16021790555050565b60006111c1600160005461125b90919063ffffffff16565b6000819055506112538360ff168360ff164233600054604051602001808481526020018373ffffffffffffffffffffffffffffffffffffffff1673ffffffffffffffffffffffffffffffffffffffff1660601b815260140182815260200193505050506040516020818303038152906040528051906020012060001c8161124457fe5b0661125b90919063ffffffff16565b905092915050565b60008082840190508381101561126d57fe5b809150509291505056fe596f7520617265206e6f7420746865206f776e6572206f66207468697320636f6e7472616374a265627a7a723158202aaa4c54fae50bc17af9251e3709257bb061cef6c19d34d5f9f7a4eebf834e8864736f6c63430005100032",
  "source": "pragma solidity ^0.5.0;\n\nimport \"./../lib/SafeMath.sol\";\nimport \"./../lib/Ownable.sol\";\nimport \"./../Utility.sol\";\nimport \"./Game.sol\";\n\ncontract Dice is Game, Utility, Ownable{ //Ownable allows use onlyOwner modifier so we can make admin functions\n\n\tusing SafeMath for uint256; //Using SafeMath lib to avoid overflow errors\n\tusing SafeMath for uint8;\n\n\t//Variables\n\tstruct Bet{\n\t\tbool isSet; \n\t\tuint256 tokenAmount;\n\t\tuint8 diceBet;\n\t}\n\tmapping(address => Bet) private betsMap;\n\tuint256 diceBetMultiplier = 6;\n\n\t//Dice game functions\n\tfunction isBetSet(address player) external view onlyOwner returns(bool){\n\t\treturn betsMap[player].isSet;\n\t}\n\n\tfunction bet(address player, \n\t\t\t\t string calldata /*betInfo*/, \n\t\t\t\t uint8 betData, \n\t\t\t\t uint tokenAmount) external onlyOwner\n\t\t\t\t\t\t\t\t\t        currentBetIsNotSet(betsMap[player].isSet) \n\t\t\t\t\t\t\t\t\t        returns(bool){\n\t\trequire(betData >= 2, \"Bet must be between 2 and 12\");\n\t\trequire(betData <= 12, \"Bet must be between 2 and 12\");\n\t\tbetsMap[player].diceBet = betData;\n\t\tbetsMap[player].isSet = true;\n\t\tbetsMap[player].tokenAmount = tokenAmount;\n\t\treturn betsMap[player].isSet;\n\t}\n\n\tfunction cancelBet(address player) external onlyOwner currentBetIsSet(betsMap[player].isSet) returns(uint256){\n\t\tbetsMap[player].isSet = false;\n\t\treturn betsMap[player].tokenAmount;\n\t}\n\n\tfunction play(address player) external onlyOwner currentBetIsSet(betsMap[player].isSet) returns(uint8 , uint256){\t\t\t\t\t\t\t\t\t\t\t\t\t\t\t\t\n\t\tuint8 diceResult = randomDoubleDice();\t\t\t\t\t\t\t\t\t\t\t\t\t\t\t\n\t   \tuint256 amount = 0;\n\t\tif(diceResult == betsMap[player].diceBet){\t\n\t\t\tamount = betsMap[player].tokenAmount.mul(diceBetMultiplier);\n\t\t}\n\t\tbetsMap[player].isSet = false;\n\t\treturn (diceResult, amount);\n\t}\n\n\tfunction randomDoubleDice() internal returns (uint8){\n\t\treturn uint8(randomUintBetween(1, 6).add(randomUintBetween(1, 6)));\n    }\n\t\n}\n",
  "sourcePath": "/home/hanzo/Desktop/DecentralizedCasino/dapp/contracts/games/Dice.sol",
  "compiler": {
    "name": "solc",
    "version": "0.5.16+commit.9c3226ce.Emscripten.clang"
  },
  "schemaVersion": "3.3.4",
  "updatedAt": "2021-03-23T15:36:45.674Z",
  "devdoc": {
    "methods": {
      "isOwner()": {
        "return": "true if `msg.sender` is the owner of the contract."
      },
      "owner()": {
        "return": "the address of the owner."
      },
      "renounceOwnership()": {
        "details": "Allows the current owner to relinquish control of the contract."
      },
      "transferOwnership(address)": {
        "details": "Allows the current owner to transfer control of the contract to a newOwner.",
        "params": {
          "newOwner": "The address to transfer ownership to."
        }
      }
    }
  },
  "userdoc": {
    "methods": {
      "renounceOwnership()": {
        "notice": "Renouncing to ownership will leave the contract without an owner. It will not be possible to call the functions with the `onlyOwner` modifier anymore."
      }
    }
  }
}