{
  "contractName": "DiceGame",
  "abi": [
    {
      "inputs": [],
      "payable": false,
      "stateMutability": "nonpayable",
      "type": "constructor"
    },
    {
      "anonymous": false,
      "inputs": [
        {
          "indexed": false,
          "internalType": "address",
          "name": "player",
          "type": "address"
        }
      ],
      "name": "HasPaid",
      "type": "event"
    },
    {
      "anonymous": false,
      "inputs": [
        {
          "indexed": false,
          "internalType": "address",
          "name": "player",
          "type": "address"
        }
      ],
      "name": "Lost",
      "type": "event"
    },
    {
      "anonymous": false,
      "inputs": [
        {
          "indexed": false,
          "internalType": "address",
          "name": "player",
          "type": "address"
        }
      ],
      "name": "Won",
      "type": "event"
    },
    {
      "constant": true,
      "inputs": [],
      "name": "player",
      "outputs": [
        {
          "internalType": "address",
          "name": "",
          "type": "address"
        }
      ],
      "payable": false,
      "stateMutability": "view",
      "type": "function"
    },
    {
      "constant": false,
      "inputs": [],
      "name": "pay",
      "outputs": [],
      "payable": true,
      "stateMutability": "payable",
      "type": "function"
    },
    {
      "constant": false,
      "inputs": [],
      "name": "receive",
      "outputs": [],
      "payable": true,
      "stateMutability": "payable",
      "type": "function"
    },
    {
      "constant": false,
      "inputs": [
        {
          "internalType": "uint256",
          "name": "betNb",
          "type": "uint256"
        }
      ],
      "name": "play",
      "outputs": [],
      "payable": false,
      "stateMutability": "nonpayable",
      "type": "function"
    }
  ],
  "bytecode": "0x608060405266038d7ea4c68000600155674563918244f40000600255600060035534801561002c57600080fd5b50336000806101000a81548173ffffffffffffffffffffffffffffffffffffffff021916908373ffffffffffffffffffffffffffffffffffffffff1602179055506105288061007c6000396000f3fe60806040526004361061003f5760003560e01c80631b9265b81461004457806348db5f891461004e5780636898f82b146100a5578063a3e76c0f146100e0575b600080fd5b61004c6100ea565b005b34801561005a57600080fd5b50610063610194565b604051808273ffffffffffffffffffffffffffffffffffffffff1673ffffffffffffffffffffffffffffffffffffffff16815260200191505060405180910390f35b3480156100b157600080fd5b506100de600480360360208110156100c857600080fd5b81019080803590602001909291905050506101b9565b005b6100e861034f565b005b6001543410156100f957600080fd5b600254341061010757600080fd5b7ffbe1211396cc4519a442a7111b018140023ebb06d5d1a84f4462a1acf7d281566000809054906101000a900473ffffffffffffffffffffffffffffffffffffffff16604051808273ffffffffffffffffffffffffffffffffffffffff1673ffffffffffffffffffffffffffffffffffffffff16815260200191505060405180910390a147600381905550565b6000809054906101000a900473ffffffffffffffffffffffffffffffffffffffff1681565b6000600354146101c857600080fd5b60006101d261039d565b905060038214156102c6573073ffffffffffffffffffffffffffffffffffffffff1663a3e76c0f6040518163ffffffff1660e01b8152600401600060405180830381600087803b15801561022557600080fd5b505af1158015610239573d6000803e3d6000fd5b505050507ff4ec34d629bd19fe7c2b2142541d4574ed8b77466f7dc5acc7eb1e83ed66441a6000809054906101000a900473ffffffffffffffffffffffffffffffffffffffff16604051808273ffffffffffffffffffffffffffffffffffffffff1673ffffffffffffffffffffffffffffffffffffffff16815260200191505060405180910390a161034b565b7f85a3875b3a6e376ada779e06d99beed4fbf471788c1d2719f27718958bfc826b6000809054906101000a900473ffffffffffffffffffffffffffffffffffffffff16604051808273ffffffffffffffffffffffffffffffffffffffff1673ffffffffffffffffffffffffffffffffffffffff16815260200191505060405180910390a15b5050565b3373ffffffffffffffffffffffffffffffffffffffff166108fc600b600354029081150290604051600060405180830381858888f1935050505015801561039a573d6000803e3d6000fd5b50565b60008060009050600060016006426000809054906101000a900473ffffffffffffffffffffffffffffffffffffffff1685604051602001808481526020018373ffffffffffffffffffffffffffffffffffffffff1673ffffffffffffffffffffffffffffffffffffffff1660601b815260140182815260200193505050506040516020818303038152906040528051906020012060001c8161043b57fe5b060190508180600101925050600060016006426000809054906101000a900473ffffffffffffffffffffffffffffffffffffffff1686604051602001808481526020018373ffffffffffffffffffffffffffffffffffffffff1673ffffffffffffffffffffffffffffffffffffffff1660601b815260140182815260200193505050506040516020818303038152906040528051906020012060001c816104de57fe5b0601905060008183019050809450505050509056fea265627a7a723158203744efce58359cc4c569ceb3210c1bae1d3b34dc9cdb8f7fc4a7690f55e95a0064736f6c63430005100032",
  "source": "pragma solidity ^0.5.0;\n\ncontract DiceGame{\n\n\taddress public player;\n\tuint minimumBet = 0.001 ether;\n\tuint maximumBet = 5 ether;\n\tuint betValue = 0 ether;\n\n\tevent HasPaid(address player);\n    event Won(address player);\n    event Lost(address player);\n\n\tconstructor() public{\n\t\tplayer = msg.sender;\n\t}\n\n\tmodifier payed(){\n\t\trequire(betValue ==0 ether);\n\t\t_;\n\t}\n\n\tfunction computeDoubleDice() private view returns(uint){\n      \tuint randNonce = 0;\n\t\tuint dice1 = uint(keccak256(abi.encodePacked(now, player, randNonce))) % 6 + 1;\n\t\trandNonce++;\n\t\tuint dice2 = uint(keccak256(abi.encodePacked(now, player, randNonce))) % 6 + 1;\n\t\tuint doubleDice = dice1 + dice2;\n\t\treturn doubleDice;\n\t}\n\n\tfunction pay() external payable{\n\t\trequire(msg.value >= minimumBet);\n\t\trequire(msg.value < maximumBet);\n\t\temit HasPaid(player);\n\t\tbetValue = address(this).balance;\n  \t}\n\n  \tfunction receive() external payable{\n  \t\tmsg.sender.transfer(betValue*11);\n  \t}\n\n  \tfunction play(uint betNb) external payed(){\n  \t\tuint doubleDice = computeDoubleDice();\n  \t\tif(betNb == 3){\n  \t\t\tthis.receive();\n  \t\t\temit Won(player);\n  \t\t}else{\n  \t\t\temit Lost(player);\n  \t\t}\n  \t}\n\n}",
  "sourcePath": "/home/hanzo/Desktop/DecentralizedCasino/dapp/contracts/DiceGame.sol",
  "compiler": {
    "name": "solc",
    "version": "0.5.16+commit.9c3226ce.Emscripten.clang"
  },
  "schemaVersion": "3.3.4",
  "updatedAt": "2021-03-07T19:44:05.921Z",
  "networkType": "ethereum",
  "devdoc": {
    "methods": {}
  },
  "userdoc": {
    "methods": {}
  }
}