{
  "contractName": "DiceGame",
  "abi": [
    {
      "inputs": [],
      "payable": false,
      "stateMutability": "nonpayable",
      "type": "constructor"
    },
    {
      "anonymous": false,
      "inputs": [
        {
          "indexed": false,
          "internalType": "address",
          "name": "player",
          "type": "address"
        }
      ],
      "name": "EventCancelBet",
      "type": "event"
    },
    {
      "anonymous": false,
      "inputs": [
        {
          "indexed": false,
          "internalType": "address",
          "name": "player",
          "type": "address"
        },
        {
          "indexed": false,
          "internalType": "uint256",
          "name": "diceBet",
          "type": "uint256"
        }
      ],
      "name": "EventDiceBet",
      "type": "event"
    },
    {
      "anonymous": false,
      "inputs": [
        {
          "indexed": false,
          "internalType": "address",
          "name": "player",
          "type": "address"
        },
        {
          "indexed": false,
          "internalType": "uint256",
          "name": "diceBet",
          "type": "uint256"
        },
        {
          "indexed": false,
          "internalType": "uint256",
          "name": "diceResult",
          "type": "uint256"
        }
      ],
      "name": "EventDiceResult",
      "type": "event"
    },
    {
      "anonymous": false,
      "inputs": [
        {
          "indexed": false,
          "internalType": "address",
          "name": "player",
          "type": "address"
        },
        {
          "indexed": false,
          "internalType": "string",
          "name": "rouletteBet",
          "type": "string"
        }
      ],
      "name": "EventRouletteBet",
      "type": "event"
    },
    {
      "anonymous": false,
      "inputs": [
        {
          "indexed": false,
          "internalType": "address",
          "name": "player",
          "type": "address"
        },
        {
          "indexed": false,
          "internalType": "string",
          "name": "rouletteBet",
          "type": "string"
        },
        {
          "indexed": false,
          "internalType": "string",
          "name": "rouletteResultNb",
          "type": "string"
        }
      ],
      "name": "EventRouletteResult",
      "type": "event"
    },
    {
      "anonymous": false,
      "inputs": [
        {
          "indexed": true,
          "internalType": "address",
          "name": "previousOwner",
          "type": "address"
        },
        {
          "indexed": true,
          "internalType": "address",
          "name": "newOwner",
          "type": "address"
        }
      ],
      "name": "OwnershipTransferred",
      "type": "event"
    },
    {
      "constant": true,
      "inputs": [],
      "name": "_owner",
      "outputs": [
        {
          "internalType": "address",
          "name": "",
          "type": "address"
        }
      ],
      "payable": false,
      "stateMutability": "view",
      "type": "function"
    },
    {
      "constant": true,
      "inputs": [],
      "name": "diceBetMultiplier",
      "outputs": [
        {
          "internalType": "uint256",
          "name": "",
          "type": "uint256"
        }
      ],
      "payable": false,
      "stateMutability": "view",
      "type": "function"
    },
    {
      "constant": true,
      "inputs": [],
      "name": "gameType",
      "outputs": [
        {
          "internalType": "uint256",
          "name": "",
          "type": "uint256"
        }
      ],
      "payable": false,
      "stateMutability": "view",
      "type": "function"
    },
    {
      "constant": true,
      "inputs": [],
      "name": "isOwner",
      "outputs": [
        {
          "internalType": "bool",
          "name": "",
          "type": "bool"
        }
      ],
      "payable": false,
      "stateMutability": "view",
      "type": "function"
    },
    {
      "constant": true,
      "inputs": [],
      "name": "maxDiceValue",
      "outputs": [
        {
          "internalType": "uint256",
          "name": "",
          "type": "uint256"
        }
      ],
      "payable": false,
      "stateMutability": "view",
      "type": "function"
    },
    {
      "constant": true,
      "inputs": [],
      "name": "maximumBetValue",
      "outputs": [
        {
          "internalType": "uint256",
          "name": "",
          "type": "uint256"
        }
      ],
      "payable": false,
      "stateMutability": "view",
      "type": "function"
    },
    {
      "constant": true,
      "inputs": [],
      "name": "minDiceValue",
      "outputs": [
        {
          "internalType": "uint256",
          "name": "",
          "type": "uint256"
        }
      ],
      "payable": false,
      "stateMutability": "view",
      "type": "function"
    },
    {
      "constant": true,
      "inputs": [],
      "name": "minimumBetValue",
      "outputs": [
        {
          "internalType": "uint256",
          "name": "",
          "type": "uint256"
        }
      ],
      "payable": false,
      "stateMutability": "view",
      "type": "function"
    },
    {
      "constant": true,
      "inputs": [],
      "name": "owner",
      "outputs": [
        {
          "internalType": "address",
          "name": "",
          "type": "address"
        }
      ],
      "payable": false,
      "stateMutability": "view",
      "type": "function"
    },
    {
      "constant": false,
      "inputs": [],
      "name": "renounceOwnership",
      "outputs": [],
      "payable": false,
      "stateMutability": "nonpayable",
      "type": "function"
    },
    {
      "constant": false,
      "inputs": [
        {
          "internalType": "address",
          "name": "newOwner",
          "type": "address"
        }
      ],
      "name": "transferOwnership",
      "outputs": [],
      "payable": false,
      "stateMutability": "nonpayable",
      "type": "function"
    },
    {
      "constant": false,
      "inputs": [],
      "name": "playerReceivesMoney",
      "outputs": [],
      "payable": false,
      "stateMutability": "nonpayable",
      "type": "function"
    },
    {
      "constant": true,
      "inputs": [],
      "name": "isBetSet",
      "outputs": [
        {
          "internalType": "bool",
          "name": "",
          "type": "bool"
        }
      ],
      "payable": false,
      "stateMutability": "view",
      "type": "function"
    },
    {
      "constant": false,
      "inputs": [],
      "name": "cancelBet",
      "outputs": [
        {
          "internalType": "bool",
          "name": "",
          "type": "bool"
        }
      ],
      "payable": false,
      "stateMutability": "nonpayable",
      "type": "function"
    },
    {
      "constant": false,
      "inputs": [
        {
          "internalType": "uint256",
          "name": "playerBet",
          "type": "uint256"
        }
      ],
      "name": "getDiceBet",
      "outputs": [
        {
          "internalType": "uint256",
          "name": "",
          "type": "uint256"
        },
        {
          "internalType": "bool",
          "name": "",
          "type": "bool"
        },
        {
          "internalType": "uint256",
          "name": "",
          "type": "uint256"
        }
      ],
      "payable": true,
      "stateMutability": "payable",
      "type": "function"
    },
    {
      "constant": false,
      "inputs": [],
      "name": "playDice",
      "outputs": [
        {
          "internalType": "address",
          "name": "",
          "type": "address"
        },
        {
          "internalType": "uint256",
          "name": "",
          "type": "uint256"
        },
        {
          "internalType": "uint256",
          "name": "",
          "type": "uint256"
        }
      ],
      "payable": false,
      "stateMutability": "nonpayable",
      "type": "function"
    },
    {
      "constant": false,
      "inputs": [
        {
          "internalType": "string",
          "name": "playerBet",
          "type": "string"
        }
      ],
      "name": "getRouletteBet",
      "outputs": [
        {
          "internalType": "string",
          "name": "",
          "type": "string"
        },
        {
          "internalType": "bool",
          "name": "",
          "type": "bool"
        },
        {
          "internalType": "uint256",
          "name": "",
          "type": "uint256"
        }
      ],
      "payable": true,
      "stateMutability": "payable",
      "type": "function"
    },
    {
      "constant": false,
      "inputs": [],
      "name": "playRoulette",
      "outputs": [
        {
          "internalType": "address",
          "name": "",
          "type": "address"
        },
        {
          "internalType": "string",
          "name": "",
          "type": "string"
        },
        {
          "internalType": "string",
          "name": "",
          "type": "string"
        }
      ],
      "payable": false,
      "stateMutability": "nonpayable",
      "type": "function"
    },
    {
      "constant": false,
      "inputs": [],
      "name": "addFundsContractBalance",
      "outputs": [],
      "payable": true,
      "stateMutability": "payable",
      "type": "function"
    },
    {
      "constant": false,
      "inputs": [],
      "name": "withdrawContractBalance",
      "outputs": [],
      "payable": false,
      "stateMutability": "nonpayable",
      "type": "function"
    },
    {
      "constant": true,
      "inputs": [],
      "name": "getContractBalance",
      "outputs": [
        {
          "internalType": "uint256",
          "name": "",
          "type": "uint256"
        }
      ],
      "payable": false,
      "stateMutability": "view",
      "type": "function"
    }
  ],
  "bytecode": "0x608060405260006003556000600455670de0b6b3a764000060055566038d7ea4c6800060065560006007556002600855600c600955600a805534801561004457600080fd5b50336000806101000a81548173ffffffffffffffffffffffffffffffffffffffff021916908373ffffffffffffffffffffffffffffffffffffffff1602179055506000809054906101000a900473ffffffffffffffffffffffffffffffffffffffff1673ffffffffffffffffffffffffffffffffffffffff16600073ffffffffffffffffffffffffffffffffffffffff167f8be0079c531659141344cd1fd0a4f28419497f9722a3daafe3b4186f6b6457e060405160405180910390a333600260006101000a81548173ffffffffffffffffffffffffffffffffffffffff021916908373ffffffffffffffffffffffffffffffffffffffff160217905550614585806101516000396000f3fe60806040526004361061012a5760003560e01c80638da5cb5b116100ab578063bfab3db91161006f578063bfab3db91461060f578063c32ec33614610626578063dd89a38814610651578063f2fde38b146106b6578063f5666c2314610707578063f5c9c586146107115761012a565b80638da5cb5b146104dc5780638f32d59b14610533578063b2bdfa7b14610562578063b61218c0146105b9578063bbdc02db146105e45761012a565b806363afc887116100f257806363afc887146103115780636f9fb98a1461033c578063715018a6146103675780637826393b1461037e5780637b6d79f1146104ad5761012a565b806311e1a5e61461012f5780631ae651c81461015a5780633ff2abd814610189578063485e743f146101a05780635d5ae245146102e6575b600080fd5b34801561013b57600080fd5b50610144610765565b6040518082815260200191505060405180910390f35b34801561016657600080fd5b5061016f61076b565b604051808215151515815260200191505060405180910390f35b34801561019557600080fd5b5061019e6107e4565b005b610259600480360360208110156101b657600080fd5b81019080803590602001906401000000008111156101d357600080fd5b8201836020820111156101e557600080fd5b8035906020019184600183028401116401000000008311171561020757600080fd5b91908080601f016020809104026020016040519081016040528093929190818152602001838380828437600081840152601f19601f820116905080830192505050505050509192919290505050610a86565b604051808060200184151515158152602001838152602001828103825285818151815260200191508051906020019080838360005b838110156102a957808201518184015260208101905061028e565b50505050905090810190601f1680156102d65780820380516001836020036101000a031916815260200191505b5094505050505060405180910390f35b3480156102f257600080fd5b506102fb611196565b6040518082815260200191505060405180910390f35b34801561031d57600080fd5b5061032661119c565b6040518082815260200191505060405180910390f35b34801561034857600080fd5b506103516111a2565b6040518082815260200191505060405180910390f35b34801561037357600080fd5b5061037c611205565b005b34801561038a57600080fd5b5061039361131d565b604051808473ffffffffffffffffffffffffffffffffffffffff1673ffffffffffffffffffffffffffffffffffffffff1681526020018060200180602001838103835285818151815260200191508051906020019080838360005b838110156104095780820151818401526020810190506103ee565b50505050905090810190601f1680156104365780820380516001836020036101000a031916815260200191505b50838103825284818151815260200191508051906020019080838360005b8381101561046f578082015181840152602081019050610454565b50505050905090810190601f16801561049c5780820380516001836020036101000a031916815260200191505b509550505050505060405180910390f35b3480156104b957600080fd5b506104c2611a59565b604051808215151515815260200191505060405180910390f35b3480156104e857600080fd5b506104f1611f83565b604051808273ffffffffffffffffffffffffffffffffffffffff1673ffffffffffffffffffffffffffffffffffffffff16815260200191505060405180910390f35b34801561053f57600080fd5b50610548611fac565b604051808215151515815260200191505060405180910390f35b34801561056e57600080fd5b50610577612003565b604051808273ffffffffffffffffffffffffffffffffffffffff1673ffffffffffffffffffffffffffffffffffffffff16815260200191505060405180910390f35b3480156105c557600080fd5b506105ce612028565b6040518082815260200191505060405180910390f35b3480156105f057600080fd5b506105f961202e565b6040518082815260200191505060405180910390f35b34801561061b57600080fd5b50610624612034565b005b34801561063257600080fd5b5061063b6120d8565b6040518082815260200191505060405180910390f35b34801561065d57600080fd5b506106666120de565b604051808473ffffffffffffffffffffffffffffffffffffffff1673ffffffffffffffffffffffffffffffffffffffff168152602001838152602001828152602001935050505060405180910390f35b3480156106c257600080fd5b50610705600480360360208110156106d957600080fd5b81019080803573ffffffffffffffffffffffffffffffffffffffff16906020019092919050505061270c565b005b61070f612771565b005b61073d6004803603602081101561072757600080fd5b8101908080359060200190929190505050612852565b6040518084815260200183151515158152602001828152602001935050505060405180910390f35b60085481565b600060016000600260009054906101000a900473ffffffffffffffffffffffffffffffffffffffff1673ffffffffffffffffffffffffffffffffffffffff1673ffffffffffffffffffffffffffffffffffffffff16815260200190815260200160002060000160009054906101000a900460ff16905090565b600260009054906101000a900473ffffffffffffffffffffffffffffffffffffffff1673ffffffffffffffffffffffffffffffffffffffff163373ffffffffffffffffffffffffffffffffffffffff16146108a7576040517f08c379a000000000000000000000000000000000000000000000000000000000815260040180806020018281038252601e8152602001807f596f7520617265206e6f74207468652063757272656e7420706c61796572000081525060200191505060405180910390fd5b60016004541415610966573373ffffffffffffffffffffffffffffffffffffffff166108fc600a5460016000600260009054906101000a900473ffffffffffffffffffffffffffffffffffffffff1673ffffffffffffffffffffffffffffffffffffffff1673ffffffffffffffffffffffffffffffffffffffff16815260200190815260200160002060010154029081150290604051600060405180830381858888f19350505050158015610960573d6000803e3d6000fd5b50610a84565b60026004541415610a83573373ffffffffffffffffffffffffffffffffffffffff166108fc60016000600260009054906101000a900473ffffffffffffffffffffffffffffffffffffffff1673ffffffffffffffffffffffffffffffffffffffff1673ffffffffffffffffffffffffffffffffffffffff1681526020019081526020016000206009015460016000600260009054906101000a900473ffffffffffffffffffffffffffffffffffffffff1673ffffffffffffffffffffffffffffffffffffffff1673ffffffffffffffffffffffffffffffffffffffff16815260200190815260200160002060010154029081150290604051600060405180830381858888f19350505050158015610a81573d6000803e3d6000fd5b505b5b565b6060600080600260009054906101000a900473ffffffffffffffffffffffffffffffffffffffff1673ffffffffffffffffffffffffffffffffffffffff163373ffffffffffffffffffffffffffffffffffffffff1614610b4e576040517f08c379a000000000000000000000000000000000000000000000000000000000815260040180806020018281038252601e8152602001807f596f7520617265206e6f74207468652063757272656e7420706c61796572000081525060200191505060405180910390fd5b600654341015610bc6576040517f08c379a00000000000000000000000000000000000000000000000000000000081526004018080602001828103825260118152602001807f546f6f206c6f77206265742076616c756500000000000000000000000000000081525060200191505060405180910390fd5b600554341115610c3e576040517f08c379a00000000000000000000000000000000000000000000000000000000081526004018080602001828103825260128152602001807f546f6f2068696768206265742076616c7565000000000000000000000000000081525060200191505060405180910390fd5b6000151560016000600260009054906101000a900473ffffffffffffffffffffffffffffffffffffffff1673ffffffffffffffffffffffffffffffffffffffff1673ffffffffffffffffffffffffffffffffffffffff16815260200190815260200160002060000160009054906101000a900460ff16151514610d29576040517f08c379a000000000000000000000000000000000000000000000000000000000815260040180806020018281038252601c8152602001807f546865726520697320616c72656164792061206265742072656164790000000081525060200191505060405180910390fd5b610d3284612f14565b610d3b57600080fd5b346007600082825401925050819055506001806000600260009054906101000a900473ffffffffffffffffffffffffffffffffffffffff1673ffffffffffffffffffffffffffffffffffffffff1673ffffffffffffffffffffffffffffffffffffffff16815260200190815260200160002060000160006101000a81548160ff0219169083151502179055508360016000600260009054906101000a900473ffffffffffffffffffffffffffffffffffffffff1673ffffffffffffffffffffffffffffffffffffffff1673ffffffffffffffffffffffffffffffffffffffff1681526020019081526020016000206004019080519060200190610e3f9291906144ab565b507fe6cdeffc935ef7df3f9331aaa0768cf9561fd84515062e65da48ecba3ca992f1600260009054906101000a900473ffffffffffffffffffffffffffffffffffffffff1660016000600260009054906101000a900473ffffffffffffffffffffffffffffffffffffffff1673ffffffffffffffffffffffffffffffffffffffff1673ffffffffffffffffffffffffffffffffffffffff168152602001908152602001600020600401604051808373ffffffffffffffffffffffffffffffffffffffff1673ffffffffffffffffffffffffffffffffffffffff16815260200180602001828103825283818154600181600116156101000203166002900481526020019150805460018160011615610100020316600290048015610fa35780601f10610f7857610100808354040283529160200191610fa3565b820191906000526020600020905b815481529060010190602001808311610f8657829003601f168201915b5050935050505060405180910390a160016000600260009054906101000a900473ffffffffffffffffffffffffffffffffffffffff1673ffffffffffffffffffffffffffffffffffffffff1673ffffffffffffffffffffffffffffffffffffffff16815260200190815260200160002060040160016000600260009054906101000a900473ffffffffffffffffffffffffffffffffffffffff1673ffffffffffffffffffffffffffffffffffffffff1673ffffffffffffffffffffffffffffffffffffffff16815260200190815260200160002060000160009054906101000a900460ff1660016000600260009054906101000a900473ffffffffffffffffffffffffffffffffffffffff1673ffffffffffffffffffffffffffffffffffffffff1673ffffffffffffffffffffffffffffffffffffffff16815260200190815260200160002060010154828054600181600116156101000203166002900480601f0160208091040260200160405190810160405280929190818152602001828054600181600116156101000203166002900480156111825780601f1061115757610100808354040283529160200191611182565b820191906000526020600020905b81548152906001019060200180831161116557829003601f168201915b505050505092509250925092509193909250565b60065481565b60095481565b60008060009054906101000a900473ffffffffffffffffffffffffffffffffffffffff1673ffffffffffffffffffffffffffffffffffffffff163373ffffffffffffffffffffffffffffffffffffffff16146111fd57600080fd5b600754905090565b6000809054906101000a900473ffffffffffffffffffffffffffffffffffffffff1673ffffffffffffffffffffffffffffffffffffffff163373ffffffffffffffffffffffffffffffffffffffff161461125e57600080fd5b600073ffffffffffffffffffffffffffffffffffffffff166000809054906101000a900473ffffffffffffffffffffffffffffffffffffffff1673ffffffffffffffffffffffffffffffffffffffff167f8be0079c531659141344cd1fd0a4f28419497f9722a3daafe3b4186f6b6457e060405160405180910390a360008060006101000a81548173ffffffffffffffffffffffffffffffffffffffff021916908373ffffffffffffffffffffffffffffffffffffffff160217905550565b6000606080600260009054906101000a900473ffffffffffffffffffffffffffffffffffffffff1673ffffffffffffffffffffffffffffffffffffffff163373ffffffffffffffffffffffffffffffffffffffff16146113e5576040517f08c379a000000000000000000000000000000000000000000000000000000000815260040180806020018281038252601e8152602001807f596f7520617265206e6f74207468652063757272656e7420706c61796572000081525060200191505060405180910390fd5b6001151560016000600260009054906101000a900473ffffffffffffffffffffffffffffffffffffffff1673ffffffffffffffffffffffffffffffffffffffff1673ffffffffffffffffffffffffffffffffffffffff16815260200190815260200160002060000160009054906101000a900460ff161515146114d0576040517f08c379a000000000000000000000000000000000000000000000000000000000815260040180806020018281038252601e8152602001807f596f75206e65656420746f20626574206265666f726520706c6179696e67000081525060200191505060405180910390fd5b60026004819055506114e0613301565b600060016000600260009054906101000a900473ffffffffffffffffffffffffffffffffffffffff1673ffffffffffffffffffffffffffffffffffffffff1673ffffffffffffffffffffffffffffffffffffffff16815260200190815260200160002060000160006101000a81548160ff0219169083151502179055506115656138dc565b503073ffffffffffffffffffffffffffffffffffffffff16633ff2abd86040518163ffffffff1660e01b8152600401600060405180830381600087803b1580156115ae57600080fd5b505af11580156115c2573d6000803e3d6000fd5b505050507fc89c72a02a5db5f05a0814c7bcb7de56b04c91d70bb9d9319e5062cab5ef6858600260009054906101000a900473ffffffffffffffffffffffffffffffffffffffff1660016000600260009054906101000a900473ffffffffffffffffffffffffffffffffffffffff1673ffffffffffffffffffffffffffffffffffffffff1673ffffffffffffffffffffffffffffffffffffffff16815260200190815260200160002060040160016000600260009054906101000a900473ffffffffffffffffffffffffffffffffffffffff1673ffffffffffffffffffffffffffffffffffffffff1673ffffffffffffffffffffffffffffffffffffffff168152602001908152602001600020600501600001604051808473ffffffffffffffffffffffffffffffffffffffff1673ffffffffffffffffffffffffffffffffffffffff16815260200180602001806020018381038352858181546001816001161561010002031660029004815260200191508054600181600116156101000203166002900480156117945780601f1061176957610100808354040283529160200191611794565b820191906000526020600020905b81548152906001019060200180831161177757829003601f168201915b50508381038252848181546001816001161561010002031660029004815260200191508054600181600116156101000203166002900480156118175780601f106117ec57610100808354040283529160200191611817565b820191906000526020600020905b8154815290600101906020018083116117fa57829003601f168201915b50509550505050505060405180910390a1600260009054906101000a900473ffffffffffffffffffffffffffffffffffffffff1660016000600260009054906101000a900473ffffffffffffffffffffffffffffffffffffffff1673ffffffffffffffffffffffffffffffffffffffff1673ffffffffffffffffffffffffffffffffffffffff16815260200190815260200160002060040160016000600260009054906101000a900473ffffffffffffffffffffffffffffffffffffffff1673ffffffffffffffffffffffffffffffffffffffff1673ffffffffffffffffffffffffffffffffffffffff168152602001908152602001600020600501600001818054600181600116156101000203166002900480601f0160208091040260200160405190810160405280929190818152602001828054600181600116156101000203166002900480156119ab5780601f10611980576101008083540402835291602001916119ab565b820191906000526020600020905b81548152906001019060200180831161198e57829003601f168201915b50505050509150808054600181600116156101000203166002900480601f016020809104026020016040519081016040528092919081815260200182805460018160011615610100020316600290048015611a475780601f10611a1c57610100808354040283529160200191611a47565b820191906000526020600020905b815481529060010190602001808311611a2a57829003601f168201915b50505050509050925092509250909192565b6000600260009054906101000a900473ffffffffffffffffffffffffffffffffffffffff1673ffffffffffffffffffffffffffffffffffffffff163373ffffffffffffffffffffffffffffffffffffffff1614611b1e576040517f08c379a000000000000000000000000000000000000000000000000000000000815260040180806020018281038252601e8152602001807f596f7520617265206e6f74207468652063757272656e7420706c61796572000081525060200191505060405180910390fd5b6001151560016000600260009054906101000a900473ffffffffffffffffffffffffffffffffffffffff1673ffffffffffffffffffffffffffffffffffffffff1673ffffffffffffffffffffffffffffffffffffffff16815260200190815260200160002060000160009054906101000a900460ff16151514611c09576040517f08c379a00000000000000000000000000000000000000000000000000000000081526004018080602001828103825260198152602001807f5468657265206973206e6f206265742063757272656e746c790000000000000081525060200191505060405180910390fd5b600060016000600260009054906101000a900473ffffffffffffffffffffffffffffffffffffffff1673ffffffffffffffffffffffffffffffffffffffff1673ffffffffffffffffffffffffffffffffffffffff168152602001908152602001600020600201819055506040518060200160405280600081525060016000600260009054906101000a900473ffffffffffffffffffffffffffffffffffffffff1673ffffffffffffffffffffffffffffffffffffffff1673ffffffffffffffffffffffffffffffffffffffff1681526020019081526020016000206004019080519060200190611cfa9291906144ab565b50600060016000600260009054906101000a900473ffffffffffffffffffffffffffffffffffffffff1673ffffffffffffffffffffffffffffffffffffffff1673ffffffffffffffffffffffffffffffffffffffff16815260200190815260200160002060000160006101000a81548160ff021916908315150217905550600060016000600260009054906101000a900473ffffffffffffffffffffffffffffffffffffffff1673ffffffffffffffffffffffffffffffffffffffff1673ffffffffffffffffffffffffffffffffffffffff168152602001908152602001600020600301819055503373ffffffffffffffffffffffffffffffffffffffff166108fc60016000600260009054906101000a900473ffffffffffffffffffffffffffffffffffffffff1673ffffffffffffffffffffffffffffffffffffffff1673ffffffffffffffffffffffffffffffffffffffff168152602001908152602001600020600101549081150290604051600060405180830381858888f19350505050158015611e8c573d6000803e3d6000fd5b50600060016000600260009054906101000a900473ffffffffffffffffffffffffffffffffffffffff1673ffffffffffffffffffffffffffffffffffffffff1673ffffffffffffffffffffffffffffffffffffffff168152602001908152602001600020600101819055507f13684f18ba9ea835d5e044be0b93fc42751bb23220adf533c8d078bba00dd911600260009054906101000a900473ffffffffffffffffffffffffffffffffffffffff16604051808273ffffffffffffffffffffffffffffffffffffffff1673ffffffffffffffffffffffffffffffffffffffff16815260200191505060405180910390a16001905090565b60008060009054906101000a900473ffffffffffffffffffffffffffffffffffffffff16905090565b60008060009054906101000a900473ffffffffffffffffffffffffffffffffffffffff1673ffffffffffffffffffffffffffffffffffffffff163373ffffffffffffffffffffffffffffffffffffffff1614905090565b6000809054906101000a900473ffffffffffffffffffffffffffffffffffffffff1681565b600a5481565b60045481565b6000809054906101000a900473ffffffffffffffffffffffffffffffffffffffff1673ffffffffffffffffffffffffffffffffffffffff163373ffffffffffffffffffffffffffffffffffffffff161461208d57600080fd5b3373ffffffffffffffffffffffffffffffffffffffff166108fc6007549081150290604051600060405180830381858888f193505050501580156120d5573d6000803e3d6000fd5b50565b60055481565b6000806000600260009054906101000a900473ffffffffffffffffffffffffffffffffffffffff1673ffffffffffffffffffffffffffffffffffffffff163373ffffffffffffffffffffffffffffffffffffffff16146121a6576040517f08c379a000000000000000000000000000000000000000000000000000000000815260040180806020018281038252601e8152602001807f596f7520617265206e6f74207468652063757272656e7420706c61796572000081525060200191505060405180910390fd5b6001151560016000600260009054906101000a900473ffffffffffffffffffffffffffffffffffffffff1673ffffffffffffffffffffffffffffffffffffffff1673ffffffffffffffffffffffffffffffffffffffff16815260200190815260200160002060000160009054906101000a900460ff16151514612291576040517f08c379a000000000000000000000000000000000000000000000000000000000815260040180806020018281038252601e8152602001807f596f75206e65656420746f20626574206265666f726520706c6179696e67000081525060200191505060405180910390fd5b60016004819055506122a161411d565b60016000600260009054906101000a900473ffffffffffffffffffffffffffffffffffffffff1673ffffffffffffffffffffffffffffffffffffffff1673ffffffffffffffffffffffffffffffffffffffff16815260200190815260200160002060030181905550600060016000600260009054906101000a900473ffffffffffffffffffffffffffffffffffffffff1673ffffffffffffffffffffffffffffffffffffffff1673ffffffffffffffffffffffffffffffffffffffff16815260200190815260200160002060000160006101000a81548160ff02191690831515021790555060016000600260009054906101000a900473ffffffffffffffffffffffffffffffffffffffff1673ffffffffffffffffffffffffffffffffffffffff1673ffffffffffffffffffffffffffffffffffffffff1681526020019081526020016000206002015460016000600260009054906101000a900473ffffffffffffffffffffffffffffffffffffffff1673ffffffffffffffffffffffffffffffffffffffff1673ffffffffffffffffffffffffffffffffffffffff1681526020019081526020016000206003015414156124b7573073ffffffffffffffffffffffffffffffffffffffff16633ff2abd86040518163ffffffff1660e01b8152600401600060405180830381600087803b15801561249e57600080fd5b505af11580156124b2573d6000803e3d6000fd5b505050505b7f9d17d4c6be5535d7018cd8f9d99b8dc459c09b3ee4f44ccfbc3f14dbcf245ee1600260009054906101000a900473ffffffffffffffffffffffffffffffffffffffff1660016000600260009054906101000a900473ffffffffffffffffffffffffffffffffffffffff1673ffffffffffffffffffffffffffffffffffffffff1673ffffffffffffffffffffffffffffffffffffffff1681526020019081526020016000206002015460016000600260009054906101000a900473ffffffffffffffffffffffffffffffffffffffff1673ffffffffffffffffffffffffffffffffffffffff1673ffffffffffffffffffffffffffffffffffffffff16815260200190815260200160002060030154604051808473ffffffffffffffffffffffffffffffffffffffff1673ffffffffffffffffffffffffffffffffffffffff168152602001838152602001828152602001935050505060405180910390a1600260009054906101000a900473ffffffffffffffffffffffffffffffffffffffff1660016000600260009054906101000a900473ffffffffffffffffffffffffffffffffffffffff1673ffffffffffffffffffffffffffffffffffffffff1673ffffffffffffffffffffffffffffffffffffffff1681526020019081526020016000206002015460016000600260009054906101000a900473ffffffffffffffffffffffffffffffffffffffff1673ffffffffffffffffffffffffffffffffffffffff1673ffffffffffffffffffffffffffffffffffffffff16815260200190815260200160002060030154925092509250909192565b6000809054906101000a900473ffffffffffffffffffffffffffffffffffffffff1673ffffffffffffffffffffffffffffffffffffffff163373ffffffffffffffffffffffffffffffffffffffff161461276557600080fd5b61276e8161413d565b50565b6000809054906101000a900473ffffffffffffffffffffffffffffffffffffffff1673ffffffffffffffffffffffffffffffffffffffff163373ffffffffffffffffffffffffffffffffffffffff16146127ca57600080fd5b60003411612840576040517f08c379a00000000000000000000000000000000000000000000000000000000081526004018080602001828103825260138152602001807f4e6f2066756e6473207472616e7366657265640000000000000000000000000081525060200191505060405180910390fd5b34600760008282540192505081905550565b6000806000600260009054906101000a900473ffffffffffffffffffffffffffffffffffffffff1673ffffffffffffffffffffffffffffffffffffffff163373ffffffffffffffffffffffffffffffffffffffff161461291a576040517f08c379a000000000000000000000000000000000000000000000000000000000815260040180806020018281038252601e8152602001807f596f7520617265206e6f74207468652063757272656e7420706c61796572000081525060200191505060405180910390fd5b600654341015612992576040517f08c379a00000000000000000000000000000000000000000000000000000000081526004018080602001828103825260118152602001807f546f6f206c6f77206265742076616c756500000000000000000000000000000081525060200191505060405180910390fd5b600554341115612a0a576040517f08c379a00000000000000000000000000000000000000000000000000000000081526004018080602001828103825260128152602001807f546f6f2068696768206265742076616c7565000000000000000000000000000081525060200191505060405180910390fd5b6000151560016000600260009054906101000a900473ffffffffffffffffffffffffffffffffffffffff1673ffffffffffffffffffffffffffffffffffffffff1673ffffffffffffffffffffffffffffffffffffffff16815260200190815260200160002060000160009054906101000a900460ff16151514612af5576040517f08c379a000000000000000000000000000000000000000000000000000000000815260040180806020018281038252601c8152602001807f546865726520697320616c72656164792061206265742072656164790000000081525060200191505060405180910390fd5b600854841015612b6d576040517f08c379a000000000000000000000000000000000000000000000000000000000815260040180806020018281038252601c8152602001807f426574206d757374206265206265747765656e203220616e642031320000000081525060200191505060405180910390fd5b600954841115612be5576040517f08c379a000000000000000000000000000000000000000000000000000000000815260040180806020018281038252601c8152602001807f426574206d757374206265206265747765656e203220616e642031320000000081525060200191505060405180910390fd5b346007600082825401925050819055506001806000600260009054906101000a900473ffffffffffffffffffffffffffffffffffffffff1673ffffffffffffffffffffffffffffffffffffffff1673ffffffffffffffffffffffffffffffffffffffff16815260200190815260200160002060000160006101000a81548160ff0219169083151502179055508360016000600260009054906101000a900473ffffffffffffffffffffffffffffffffffffffff1673ffffffffffffffffffffffffffffffffffffffff1673ffffffffffffffffffffffffffffffffffffffff168152602001908152602001600020600201819055507f32b805f1e32d0661b35c88f59fbd3050bef812a8300154e5255e0d1f7d1d8738600260009054906101000a900473ffffffffffffffffffffffffffffffffffffffff1660016000600260009054906101000a900473ffffffffffffffffffffffffffffffffffffffff1673ffffffffffffffffffffffffffffffffffffffff1673ffffffffffffffffffffffffffffffffffffffff16815260200190815260200160002060020154604051808373ffffffffffffffffffffffffffffffffffffffff1673ffffffffffffffffffffffffffffffffffffffff1681526020018281526020019250505060405180910390a160016000600260009054906101000a900473ffffffffffffffffffffffffffffffffffffffff1673ffffffffffffffffffffffffffffffffffffffff1673ffffffffffffffffffffffffffffffffffffffff1681526020019081526020016000206002015460016000600260009054906101000a900473ffffffffffffffffffffffffffffffffffffffff1673ffffffffffffffffffffffffffffffffffffffff1673ffffffffffffffffffffffffffffffffffffffff16815260200190815260200160002060000160009054906101000a900460ff1660016000600260009054906101000a900473ffffffffffffffffffffffffffffffffffffffff1673ffffffffffffffffffffffffffffffffffffffff1673ffffffffffffffffffffffffffffffffffffffff168152602001908152602001600020600101549250925092509193909250565b6000612f55826040518060400160405280600581526020017f626c61636b000000000000000000000000000000000000000000000000000000815250614235565b80612f9b5750612f9a826040518060400160405280600581526020017f7768697465000000000000000000000000000000000000000000000000000000815250614235565b5b1561300e57600260016000600260009054906101000a900473ffffffffffffffffffffffffffffffffffffffff1673ffffffffffffffffffffffffffffffffffffffff1673ffffffffffffffffffffffffffffffffffffffff1681526020019081526020016000205050600190506132fc565b61304d826040518060400160405280600581526020017f677265656e000000000000000000000000000000000000000000000000000000815250614235565b156130c057602460016000600260009054906101000a900473ffffffffffffffffffffffffffffffffffffffff1673ffffffffffffffffffffffffffffffffffffffff1673ffffffffffffffffffffffffffffffffffffffff1681526020019081526020016000205050600190506132fc565b6130ff826040518060400160405280600a81526020017f6669727374546869726400000000000000000000000000000000000000000000815250614235565b806131455750613144826040518060400160405280600b81526020017f7365636f6e645468697264000000000000000000000000000000000000000000815250614235565b5b8061318b575061318a826040518060400160405280600a81526020017f7468697264546869726400000000000000000000000000000000000000000000815250614235565b5b156131fe57600360016000600260009054906101000a900473ffffffffffffffffffffffffffffffffffffffff1673ffffffffffffffffffffffffffffffffffffffff1673ffffffffffffffffffffffffffffffffffffffff1681526020019081526020016000205050600190506132fc565b600061320983614250565b101580156132205750602461321d83614250565b11155b1561329357602460016000600260009054906101000a900473ffffffffffffffffffffffffffffffffffffffff1673ffffffffffffffffffffffffffffffffffffffff1673ffffffffffffffffffffffffffffffffffffffff1681526020019081526020016000205050600190506132fc565b6001806000600260009054906101000a900473ffffffffffffffffffffffffffffffffffffffff1673ffffffffffffffffffffffffffffffffffffffff1673ffffffffffffffffffffffffffffffffffffffff1681526020019081526020016000205050600090505b919050565b600061330f600060246142c3565b905061331a81614377565b60016000600260009054906101000a900473ffffffffffffffffffffffffffffffffffffffff1673ffffffffffffffffffffffffffffffffffffffff1673ffffffffffffffffffffffffffffffffffffffff16815260200190815260200160002060050160000190805190602001906133949291906144ab565b506000600282816133a157fe5b061480156133b0575060008114155b1561346b576040518060400160405280600581526020017f626c61636b00000000000000000000000000000000000000000000000000000081525060016000600260009054906101000a900473ffffffffffffffffffffffffffffffffffffffff1673ffffffffffffffffffffffffffffffffffffffff1673ffffffffffffffffffffffffffffffffffffffff16815260200190815260200160002060050160030190805190602001906134659291906144ab565b5061351d565b6040518060400160405280600581526020017f776869746500000000000000000000000000000000000000000000000000000081525060016000600260009054906101000a900473ffffffffffffffffffffffffffffffffffffffff1673ffffffffffffffffffffffffffffffffffffffff1673ffffffffffffffffffffffffffffffffffffffff168152602001908152602001600020600501600301908051906020019061351b9291906144ab565b505b60008111801561352e5750600c8111155b156135e9576040518060400160405280600a81526020017f666972737454686972640000000000000000000000000000000000000000000081525060016000600260009054906101000a900473ffffffffffffffffffffffffffffffffffffffff1673ffffffffffffffffffffffffffffffffffffffff1673ffffffffffffffffffffffffffffffffffffffff16815260200190815260200160002060050160010190805190602001906135e39291906144ab565b50613768565b600c811180156135fa575060188111155b156136b5576040518060400160405280600b81526020017f7365636f6e64546869726400000000000000000000000000000000000000000081525060016000600260009054906101000a900473ffffffffffffffffffffffffffffffffffffffff1673ffffffffffffffffffffffffffffffffffffffff1673ffffffffffffffffffffffffffffffffffffffff16815260200190815260200160002060050160010190805190602001906136af9291906144ab565b50613767565b6040518060400160405280600b81526020017f74686972644e756d62657200000000000000000000000000000000000000000081525060016000600260009054906101000a900473ffffffffffffffffffffffffffffffffffffffff1673ffffffffffffffffffffffffffffffffffffffff1673ffffffffffffffffffffffffffffffffffffffff16815260200190815260200160002060050160010190805190602001906137659291906144ab565b505b5b6000811415613827576040518060400160405280600481526020017f747275650000000000000000000000000000000000000000000000000000000081525060016000600260009054906101000a900473ffffffffffffffffffffffffffffffffffffffff1673ffffffffffffffffffffffffffffffffffffffff1673ffffffffffffffffffffffffffffffffffffffff16815260200190815260200160002060050160020190805190602001906138219291906144ab565b506138d9565b6040518060400160405280600581526020017f66616c736500000000000000000000000000000000000000000000000000000081525060016000600260009054906101000a900473ffffffffffffffffffffffffffffffffffffffff1673ffffffffffffffffffffffffffffffffffffffff1673ffffffffffffffffffffffffffffffffffffffff16815260200190815260200160002060050160020190805190602001906138d79291906144ab565b505b50565b6000613ae360016000600260009054906101000a900473ffffffffffffffffffffffffffffffffffffffff1673ffffffffffffffffffffffffffffffffffffffff1673ffffffffffffffffffffffffffffffffffffffff1681526020019081526020016000206004018054600181600116156101000203166002900480601f0160208091040260200160405190810160405280929190818152602001828054600181600116156101000203166002900480156139d95780601f106139ae576101008083540402835291602001916139d9565b820191906000526020600020905b8154815290600101906020018083116139bc57829003601f168201915b505050505060016000600260009054906101000a900473ffffffffffffffffffffffffffffffffffffffff1673ffffffffffffffffffffffffffffffffffffffff1673ffffffffffffffffffffffffffffffffffffffff1681526020019081526020016000206005016000018054600181600116156101000203166002900480601f016020809104026020016040519081016040528092919081815260200182805460018160011615610100020316600290048015613ad95780601f10613aae57610100808354040283529160200191613ad9565b820191906000526020600020905b815481529060010190602001808311613abc57829003601f168201915b5050505050614235565b80613cef5750613cee60016000600260009054906101000a900473ffffffffffffffffffffffffffffffffffffffff1673ffffffffffffffffffffffffffffffffffffffff1673ffffffffffffffffffffffffffffffffffffffff1681526020019081526020016000206004018054600181600116156101000203166002900480601f016020809104026020016040519081016040528092919081815260200182805460018160011615610100020316600290048015613be45780601f10613bb957610100808354040283529160200191613be4565b820191906000526020600020905b815481529060010190602001808311613bc757829003601f168201915b505050505060016000600260009054906101000a900473ffffffffffffffffffffffffffffffffffffffff1673ffffffffffffffffffffffffffffffffffffffff1673ffffffffffffffffffffffffffffffffffffffff1681526020019081526020016000206005016002018054600181600116156101000203166002900480601f016020809104026020016040519081016040528092919081815260200182805460018160011615610100020316600290048015613ce45780601f10613cb957610100808354040283529160200191613ce4565b820191906000526020600020905b815481529060010190602001808311613cc757829003601f168201915b5050505050614235565b5b80613efb5750613efa60016000600260009054906101000a900473ffffffffffffffffffffffffffffffffffffffff1673ffffffffffffffffffffffffffffffffffffffff1673ffffffffffffffffffffffffffffffffffffffff1681526020019081526020016000206004018054600181600116156101000203166002900480601f016020809104026020016040519081016040528092919081815260200182805460018160011615610100020316600290048015613df05780601f10613dc557610100808354040283529160200191613df0565b820191906000526020600020905b815481529060010190602001808311613dd357829003601f168201915b505050505060016000600260009054906101000a900473ffffffffffffffffffffffffffffffffffffffff1673ffffffffffffffffffffffffffffffffffffffff1673ffffffffffffffffffffffffffffffffffffffff1681526020019081526020016000206005016003018054600181600116156101000203166002900480601f016020809104026020016040519081016040528092919081815260200182805460018160011615610100020316600290048015613ef05780601f10613ec557610100808354040283529160200191613ef0565b820191906000526020600020905b815481529060010190602001808311613ed357829003601f168201915b5050505050614235565b5b80614107575061410660016000600260009054906101000a900473ffffffffffffffffffffffffffffffffffffffff1673ffffffffffffffffffffffffffffffffffffffff1673ffffffffffffffffffffffffffffffffffffffff1681526020019081526020016000206004018054600181600116156101000203166002900480601f016020809104026020016040519081016040528092919081815260200182805460018160011615610100020316600290048015613ffc5780601f10613fd157610100808354040283529160200191613ffc565b820191906000526020600020905b815481529060010190602001808311613fdf57829003601f168201915b505050505060016000600260009054906101000a900473ffffffffffffffffffffffffffffffffffffffff1673ffffffffffffffffffffffffffffffffffffffff1673ffffffffffffffffffffffffffffffffffffffff1681526020019081526020016000206005016001018054600181600116156101000203166002900480601f0160208091040260200160405190810160405280929190818152602001828054600181600116156101000203166002900480156140fc5780601f106140d1576101008083540402835291602001916140fc565b820191906000526020600020905b8154815290600101906020018083116140df57829003601f168201915b5050505050614235565b5b15614115576001905061411a565b600090505b90565b600061412b600160066142c3565b614137600160066142c3565b01905090565b600073ffffffffffffffffffffffffffffffffffffffff168173ffffffffffffffffffffffffffffffffffffffff16141561417757600080fd5b8073ffffffffffffffffffffffffffffffffffffffff166000809054906101000a900473ffffffffffffffffffffffffffffffffffffffff1673ffffffffffffffffffffffffffffffffffffffff167f8be0079c531659141344cd1fd0a4f28419497f9722a3daafe3b4186f6b6457e060405160405180910390a3806000806101000a81548173ffffffffffffffffffffffffffffffffffffffff021916908373ffffffffffffffffffffffffffffffffffffffff16021790555050565b60008180519060200120838051906020012014905092915050565b600060608290506000809250600090505b81518110156142bc57600082828151811061427857fe5b602001015160f81c60f81b60f81c60ff1690506030811015801561429d575060398111155b156142ae5760308103600a85020193505b508080600101915050614261565b5050919050565b6000600360008154809291906001019190505550828242600260009054906101000a900473ffffffffffffffffffffffffffffffffffffffff16600354604051602001808481526020018373ffffffffffffffffffffffffffffffffffffffff1673ffffffffffffffffffffffffffffffffffffffff1660601b815260140182815260200193505050506040516020818303038152906040528051906020012060001c8161436d57fe5b0601905092915050565b6060600082905060008114156143c5576040518060400160405280600181526020017f30000000000000000000000000000000000000000000000000000000000000008152509150506144a6565b600081905060005b600082146143ef578080600101915050600a82816143e757fe5b0491506143cd565b6060816040519080825280601f01601f1916602001820160405280156144245781602001600182028038833980820191505090505b50905060006001830390505b6000851461449d57600a858161444257fe5b0660300160f81b8282806001900393508151811061445c57fe5b60200101907effffffffffffffffffffffffffffffffffffffffffffffffffffffffffffff1916908160001a905350600a858161449557fe5b049450614430565b81955050505050505b919050565b828054600181600116156101000203166002900490600052602060002090601f016020900481019282601f106144ec57805160ff191683800117855561451a565b8280016001018555821561451a579182015b828111156145195782518255916020019190600101906144fe565b5b509050614527919061452b565b5090565b61454d91905b80821115614549576000816000905550600101614531565b5090565b9056fea265627a7a72315820ade9368129ab698f7ece055796845eaf9041cec1a3ac899c7df609e26b62462364736f6c63430005100032",
  "source": "pragma solidity ^0.5.0;\n\nimport \"./SafeMath.sol\";\nimport \"./Ownable.sol\";\n\ncontract DiceGame is Ownable{ //Ownable allows use onlyOwner modifier so we can make admin functions\n\n\tusing SafeMath for uint256; //Using SafeMath lib to avoid overflow erros\n\n\n\n\t//Variables\n\tstruct RouletteResult{\n\t\tstring number;\n\t\tstring thirdNumber;\n\t\tstring isGreen;\n\t\tstring color;\n\t}\n\tstruct Bet{\n\t\tbool isSet; \n\t\tuint moneyBet;\n\t\tuint diceBet;\n\t\tuint diceResult;\n\t\tstring rouletteBet;\t\n\t\tRouletteResult rouletteResult;\n\t\tuint rouletteBetMultiplier;\t\n\t}\n\tmapping(address => Bet) private betsMap;\n\taddress currentPlayer;\n\tuint randomId = 0;\n\tuint public gameType = 0; //0: null, 1: dice, 2: roulette\n\tuint public maximumBetValue = 1 ether;\n\tuint public minimumBetValue = 0.001 ether;\n\tuint private contractBalance = 0;\n\tuint public minDiceValue = 2;\n\tuint public maxDiceValue = 12;\n\tuint public diceBetMultiplier = 10;\n\n\n\n\t//Events\n\tevent EventCancelBet(address player);\n\tevent EventDiceBet(address player , uint diceBet);\n\tevent EventDiceResult(address player, uint diceBet , uint diceResult);\n\tevent EventRouletteBet(address player , string rouletteBet);\n\tevent EventRouletteResult(address player, string rouletteBet , string rouletteResultNb);\n\n\n\n\t//Constructor\n\tconstructor() public{\n\t\tcurrentPlayer = msg.sender;\n\t}\n\n\n\n\t//Modifiers\n\tmodifier isRightPlayer(){\n\t\trequire(msg.sender == currentPlayer, \"You are not the current player\");\n\t\t_;\n\t}\n\tmodifier isEnoughMoney(){\n\t\trequire(msg.value >= minimumBetValue, \"Too low bet value\");\n\t\trequire(msg.value <= maximumBetValue, \"Too high bet value\");\n\t\t_;\n\t}\n\tmodifier currentBetIsNotSet(){\n\t\trequire(betsMap[currentPlayer].isSet == false, \"There is already a bet ready\");\n\t\t_;\n\t}\n\tmodifier currentBetIsSet(){\n\t\trequire(betsMap[currentPlayer].isSet == true, \"You need to bet before playing\"); \n\t\t_;\n\t}\n\n\n\n\t//General casino functions\n\tfunction playerReceivesMoney() external isRightPlayer{\n\t\tif(gameType == 1){ //1: dice\n\t\t\tmsg.sender.transfer(betsMap[currentPlayer].moneyBet * diceBetMultiplier);\n\t\t}else if(gameType == 2){ //2: roulette\n\t\t\tmsg.sender.transfer(betsMap[currentPlayer].moneyBet * betsMap[currentPlayer].rouletteBetMultiplier);\n\t\t}\n\t}\n\tfunction isBetSet() public view returns(bool){\n\t\treturn betsMap[currentPlayer].isSet;\n\t}\n\tfunction cancelBet() external isRightPlayer returns(bool){\n\t\trequire(betsMap[currentPlayer].isSet == true, \"There is no bet currently\");\n\t\tbetsMap[currentPlayer].diceBet = 0;\n\t\tbetsMap[currentPlayer].rouletteBet = \"\";\n\t\tbetsMap[currentPlayer].isSet = false;\n\t\tbetsMap[currentPlayer].diceResult = 0;\n\t\tmsg.sender.transfer(betsMap[currentPlayer].moneyBet);\n\t\tbetsMap[currentPlayer].moneyBet = 0;\n\t\temit EventCancelBet(currentPlayer);\n\t\treturn true;\n\t}\n\n\n\n\t//Dice game functions\n\tfunction getDiceBet(uint playerBet) public payable isRightPlayer isEnoughMoney currentBetIsNotSet returns(uint, bool, uint){\n\t\trequire(playerBet >= minDiceValue, \"Bet must be between 2 and 12\");\n\t\trequire(playerBet <= maxDiceValue, \"Bet must be between 2 and 12\");\n\t\tcontractBalance += msg.value;\n\t\tbetsMap[currentPlayer].isSet = true;\n\t\tbetsMap[currentPlayer].diceBet = playerBet;\n\t\temit EventDiceBet(currentPlayer, betsMap[currentPlayer].diceBet);\n\t\treturn (betsMap[currentPlayer].diceBet, betsMap[currentPlayer].isSet, betsMap[currentPlayer].moneyBet);\n\t}\n\tfunction playDice() public isRightPlayer currentBetIsSet returns(address , uint , uint){\n\t\tgameType = 1;\t\t\t\t\t\t\t\t\t\t\t\t\t\t\t\t\n\t\tbetsMap[currentPlayer].diceResult = randomDoubleDice();\t\t\t\t\t\t\t\t\t\t\t\t\t\t\t\n\t\tbetsMap[currentPlayer].isSet = false;\n\t\tif(betsMap[currentPlayer].diceResult == betsMap[currentPlayer].diceBet){\t\n\t\t\tthis.playerReceivesMoney();\n\t\t}\n\t\temit EventDiceResult(currentPlayer, betsMap[currentPlayer].diceBet, betsMap[currentPlayer].diceResult);\n\t\treturn (currentPlayer , betsMap[currentPlayer].diceBet , betsMap[currentPlayer].diceResult);\n\t}\n    function randomDoubleDice() private returns (uint){\n\t\treturn randomUintBetween(1, 6) + randomUintBetween(1, 6);\n    }\n\n\n\n    //Roulette game functions\n\tfunction getRouletteBet(string memory playerBet) public payable isRightPlayer isEnoughMoney currentBetIsNotSet returns(string memory, bool, uint){\n\t\trequire(checkRouletteBet(playerBet));\n\t\tcontractBalance += msg.value;\n\t\tbetsMap[currentPlayer].isSet = true;\n\t\tbetsMap[currentPlayer].rouletteBet = playerBet;\n\t\temit EventRouletteBet(currentPlayer, betsMap[currentPlayer].rouletteBet);\n\t\treturn (betsMap[currentPlayer].rouletteBet, betsMap[currentPlayer].isSet, betsMap[currentPlayer].moneyBet);\n\t}\n\tfunction playRoulette() public isRightPlayer currentBetIsSet returns(address, string memory, string memory){\t\n\t\tgameType = 2;\t\n\t\trouletteGame();\t\n\t\tbetsMap[currentPlayer].isSet = false;\n\t\tisPlayerWinning();\n\t\tthis.playerReceivesMoney();\n\t\temit EventRouletteResult(currentPlayer, betsMap[currentPlayer].rouletteBet, betsMap[currentPlayer].rouletteResult.number);\n\t\treturn (currentPlayer, betsMap[currentPlayer].rouletteBet, betsMap[currentPlayer].rouletteResult.number);\n\t}\n\tfunction isPlayerWinning() private view returns(bool){\n\t\tif((compareStrings(betsMap[currentPlayer].rouletteBet, betsMap[currentPlayer].rouletteResult.number))\n\t\t|| ((compareStrings(betsMap[currentPlayer].rouletteBet, betsMap[currentPlayer].rouletteResult.isGreen)))\n\t\t|| ((compareStrings(betsMap[currentPlayer].rouletteBet, betsMap[currentPlayer].rouletteResult.color)))\n\t\t|| ((compareStrings(betsMap[currentPlayer].rouletteBet, betsMap[currentPlayer].rouletteResult.thirdNumber)))){\n\t\t\treturn true;\n\t\t}\n\t\treturn false;\n\t}\n\tfunction rouletteGame() private {\n\t\tuint rouletteNumberResult = randomUintBetween(0, 36);\n\t\t//Number\n\t\tbetsMap[currentPlayer].rouletteResult.number = uintToString(rouletteNumberResult);\n\t\t//Color\n\t\tif(rouletteNumberResult % 2 == 0 && rouletteNumberResult != 0){\n\t\t\tbetsMap[currentPlayer].rouletteResult.color = \"black\";\n\t\t}else{\n\t\t\tbetsMap[currentPlayer].rouletteResult.color = \"white\";\n\t\t}\n\t\t//Third\n\t\tif(rouletteNumberResult > 0 && rouletteNumberResult <= 12){\n\t\t\tbetsMap[currentPlayer].rouletteResult.thirdNumber = \"firstThird\";\n\t\t}else if(rouletteNumberResult > 12 && rouletteNumberResult <= 24){\n\t\t\tbetsMap[currentPlayer].rouletteResult.thirdNumber = \"secondThird\";\n\t\t}else{\n\t\t\tbetsMap[currentPlayer].rouletteResult.thirdNumber = \"thirdNumber\";\n\t\t}\n\t\t//Green\n\t\tif(rouletteNumberResult == 0){\n\t\t\tbetsMap[currentPlayer].rouletteResult.isGreen = \"true\";\n\t\t}else{\n\t\t\tbetsMap[currentPlayer].rouletteResult.isGreen = \"false\";\n\t\t}\n\t}\n\tfunction checkRouletteBet(string memory playerBet) private view returns(bool){\n\t\tif((compareStrings(playerBet, \"black\")) \n\t\t|| (compareStrings(playerBet, \"white\"))){\n\t\t\tbetsMap[currentPlayer].rouletteBetMultiplier == 2;\n\t\t\treturn true;\n\t\t}else if(compareStrings(playerBet, \"green\")){\n\t\t\tbetsMap[currentPlayer].rouletteBetMultiplier == 36;\n\t\t\treturn true;\n\t\t}else if((compareStrings(playerBet, \"firstThird\")) \n\t\t\t  || (compareStrings(playerBet, \"secondThird\"))\n\t\t\t  || (compareStrings(playerBet, \"thirdThird\"))){\n\t\t\tbetsMap[currentPlayer].rouletteBetMultiplier == 3;\n\t\t\treturn true;\n\t\t}else if(stringToUint(playerBet) >= 0 && stringToUint(playerBet) <= 36){\n\t\t\tbetsMap[currentPlayer].rouletteBetMultiplier == 36;\n\t\t\treturn true;\n\t\t}else{ //If the bet is not right\n\t\t\tbetsMap[currentPlayer].rouletteBetMultiplier == 1;\n\t\t\treturn false;\n\t\t}\n\t}\n\n\n\n    //Admin functions with onlyOwner\n    function addFundsContractBalance() external payable onlyOwner{\n    \trequire(msg.value > 0, \"No funds transfered\");\n\t\tcontractBalance += msg.value;\n\t}\n    function withdrawContractBalance() external onlyOwner{\n\t\tmsg.sender.transfer(contractBalance);\n\t}\n\tfunction getContractBalance() external view onlyOwner returns(uint){\n\t\treturn contractBalance;\n\t}\n\n\n\n\t//Utility functions\n\tfunction randomUintBetween(uint min, uint max) private returns(uint){\n\t\trandomId++;\n\t\treturn uint(keccak256(abi.encodePacked(now, currentPlayer, randomId))) % max + min;\n\t}\n\tfunction stringToUint(string memory s) internal pure returns (uint result) {\n        bytes memory b = bytes(s);\n        uint i;\n        result = 0;\n        for (i = 0; i < b.length; i++) {\n            uint c = uint(uint8(b[i])); //Conversion trick\n            if (c >= 48 && c <= 57) {\n                result = result * 10 + (c - 48);\n            }\n        }\n    }\n    function uintToString(uint _i) internal pure returns (string memory _uintAsString) {\n        uint number = _i;\n        if (number == 0) {\n            return \"0\";\n        }\n        uint j = number;\n        uint len;\n        while (j != 0) {\n            len++;\n            j /= 10;\n        }\n        bytes memory bstr = new bytes(len);\n        uint k = len - 1;\n        while (number != 0) {\n            bstr[k--] = byte(uint8(48 + number % 10));\n            number /= 10;\n        }\n        return string(bstr);\n    }\n    function compareStrings(string memory a, string memory b) internal pure returns(bool){\n    \treturn keccak256(bytes(a)) == keccak256(bytes(b));\n    }\n\t\n}",
  "sourcePath": "/home/hanzo/Desktop/DecentralizedCasino/dapp/contracts/DiceGame.sol",
  "compiler": {
    "name": "solc",
    "version": "0.5.16+commit.9c3226ce.Emscripten.clang"
  },
  "schemaVersion": "3.3.4",
  "updatedAt": "2021-03-10T23:49:05.294Z",
  "networkType": "ethereum",
  "devdoc": {
    "methods": {
      "isOwner()": {
        "return": "true if `msg.sender` is the owner of the contract."
      },
      "owner()": {
        "return": "the address of the owner."
      },
      "renounceOwnership()": {
        "details": "Allows the current owner to relinquish control of the contract."
      },
      "transferOwnership(address)": {
        "details": "Allows the current owner to transfer control of the contract to a newOwner.",
        "params": {
          "newOwner": "The address to transfer ownership to."
        }
      }
    }
  },
  "userdoc": {
    "methods": {
      "renounceOwnership()": {
        "notice": "Renouncing to ownership will leave the contract without an owner. It will not be possible to call the functions with the `onlyOwner` modifier anymore."
      }
    }
  }
}