{
  "contractName": "Roulette",
  "abi": [
    {
      "anonymous": false,
      "inputs": [
        {
          "indexed": true,
          "internalType": "address",
          "name": "previousOwner",
          "type": "address"
        },
        {
          "indexed": true,
          "internalType": "address",
          "name": "newOwner",
          "type": "address"
        }
      ],
      "name": "OwnershipTransferred",
      "type": "event"
    },
    {
      "constant": true,
      "inputs": [],
      "name": "_owner",
      "outputs": [
        {
          "internalType": "address",
          "name": "",
          "type": "address"
        }
      ],
      "payable": false,
      "stateMutability": "view",
      "type": "function"
    },
    {
      "constant": true,
      "inputs": [],
      "name": "isOwner",
      "outputs": [
        {
          "internalType": "bool",
          "name": "",
          "type": "bool"
        }
      ],
      "payable": false,
      "stateMutability": "view",
      "type": "function"
    },
    {
      "constant": true,
      "inputs": [],
      "name": "maximumTokenValue",
      "outputs": [
        {
          "internalType": "uint16",
          "name": "",
          "type": "uint16"
        }
      ],
      "payable": false,
      "stateMutability": "view",
      "type": "function"
    },
    {
      "constant": true,
      "inputs": [],
      "name": "minimumTokenValue",
      "outputs": [
        {
          "internalType": "uint16",
          "name": "",
          "type": "uint16"
        }
      ],
      "payable": false,
      "stateMutability": "view",
      "type": "function"
    },
    {
      "constant": true,
      "inputs": [],
      "name": "owner",
      "outputs": [
        {
          "internalType": "address",
          "name": "",
          "type": "address"
        }
      ],
      "payable": false,
      "stateMutability": "view",
      "type": "function"
    },
    {
      "constant": false,
      "inputs": [],
      "name": "renounceOwnership",
      "outputs": [],
      "payable": false,
      "stateMutability": "nonpayable",
      "type": "function"
    },
    {
      "constant": true,
      "inputs": [],
      "name": "tokenPrice",
      "outputs": [
        {
          "internalType": "uint256",
          "name": "",
          "type": "uint256"
        }
      ],
      "payable": false,
      "stateMutability": "view",
      "type": "function"
    },
    {
      "constant": false,
      "inputs": [
        {
          "internalType": "address",
          "name": "newOwner",
          "type": "address"
        }
      ],
      "name": "transferOwnership",
      "outputs": [],
      "payable": false,
      "stateMutability": "nonpayable",
      "type": "function"
    },
    {
      "constant": true,
      "inputs": [
        {
          "internalType": "address",
          "name": "player",
          "type": "address"
        }
      ],
      "name": "isBetSet",
      "outputs": [
        {
          "internalType": "bool",
          "name": "",
          "type": "bool"
        }
      ],
      "payable": false,
      "stateMutability": "view",
      "type": "function"
    },
    {
      "constant": false,
      "inputs": [
        {
          "internalType": "address",
          "name": "player",
          "type": "address"
        },
        {
          "internalType": "string",
          "name": "_typeOfCard",
          "type": "string"
        },
        {
          "internalType": "uint8",
          "name": "_dataOfBet",
          "type": "uint8"
        },
        {
          "internalType": "uint256",
          "name": "tokenAmount",
          "type": "uint256"
        }
      ],
      "name": "bet",
      "outputs": [
        {
          "internalType": "bool",
          "name": "",
          "type": "bool"
        }
      ],
      "payable": false,
      "stateMutability": "nonpayable",
      "type": "function"
    },
    {
      "constant": false,
      "inputs": [
        {
          "internalType": "address",
          "name": "player",
          "type": "address"
        }
      ],
      "name": "cancelBet",
      "outputs": [
        {
          "internalType": "uint256",
          "name": "",
          "type": "uint256"
        }
      ],
      "payable": false,
      "stateMutability": "nonpayable",
      "type": "function"
    },
    {
      "constant": false,
      "inputs": [
        {
          "internalType": "address",
          "name": "player",
          "type": "address"
        }
      ],
      "name": "play",
      "outputs": [
        {
          "internalType": "uint8",
          "name": "",
          "type": "uint8"
        },
        {
          "internalType": "uint256",
          "name": "",
          "type": "uint256"
        }
      ],
      "payable": false,
      "stateMutability": "nonpayable",
      "type": "function"
    }
  ],
  "bytecode": "0x608060405260008055612710600160006101000a81548161ffff021916908361ffff16021790555060018060026101000a81548161ffff021916908361ffff1602179055506001600255604051806104800160405280600115151515815260200160001515151581526020016001151515158152602001600015151515815260200160011515151581526020016000151515158152602001600115151515815260200160001515151581526020016001151515158152602001600015151515815260200160001515151581526020016001151515158152602001600015151515815260200160011515151581526020016000151515158152602001600115151515815260200160001515151581526020016001151515158152602001600115151515815260200160001515151581526020016001151515158152602001600015151515815260200160011515151581526020016000151515158152602001600115151515815260200160001515151581526020016001151515158152602001600015151515815260200160001515151581526020016001151515158152602001600015151515815260200160011515151581526020016000151515158152602001600115151515815260200160001515151581526020016001151515158152506005906024620001f1929190620002b6565b5033600360006101000a81548173ffffffffffffffffffffffffffffffffffffffff021916908373ffffffffffffffffffffffffffffffffffffffff160217905550600360009054906101000a900473ffffffffffffffffffffffffffffffffffffffff1673ffffffffffffffffffffffffffffffffffffffff16600073ffffffffffffffffffffffffffffffffffffffff167f8be0079c531659141344cd1fd0a4f28419497f9722a3daafe3b4186f6b6457e060405160405180910390a362000389565b826024601f01602090048101928215620003435791602002820160005b838211156200031257835183826101000a81548160ff0219169083151502179055509260200192600101602081600001049283019260010302620002d3565b8015620003415782816101000a81549060ff021916905560010160208160000104928301926001030262000312565b505b50905062000352919062000356565b5090565b6200038691905b808211156200038257600081816101000a81549060ff0219169055506001016200035d565b5090565b90565b6122d180620003996000396000f3fe608060405234801561001057600080fd5b50600436106100b45760003560e01c80638da5cb5b116100715780638da5cb5b146102515780638f32d59b1461029b578063b2bdfa7b146102bd578063e492814f14610307578063f2fde38b1461036c578063f74640b3146103b0576100b4565b806332994a27146100b95780635cbe6c54146100df57806362127da81461013b578063715018a6146102035780637579000b1461020d5780637ff9b59614610233575b600080fd5b6100c1610408565b604051808261ffff1661ffff16815260200191505060405180910390f35b610121600480360360208110156100f557600080fd5b81019080803573ffffffffffffffffffffffffffffffffffffffff16906020019092919050505061041c565b604051808215151515815260200191505060405180910390f35b6101e96004803603608081101561015157600080fd5b81019080803573ffffffffffffffffffffffffffffffffffffffff1690602001909291908035906020019064010000000081111561018e57600080fd5b8201836020820111156101a057600080fd5b803590602001918460018302840111640100000000831117156101c257600080fd5b9091929391929390803560ff16906020019092919080359060200190929190505050610522565b604051808215151515815260200191505060405180910390f35b61020b611361565b005b6102156114c8565b604051808261ffff1661ffff16815260200191505060405180910390f35b61023b6114dc565b6040518082815260200191505060405180910390f35b6102596114e2565b604051808273ffffffffffffffffffffffffffffffffffffffff1673ffffffffffffffffffffffffffffffffffffffff16815260200191505060405180910390f35b6102a361150c565b604051808215151515815260200191505060405180910390f35b6102c5611564565b604051808273ffffffffffffffffffffffffffffffffffffffff1673ffffffffffffffffffffffffffffffffffffffff16815260200191505060405180910390f35b6103496004803603602081101561031d57600080fd5b81019080803573ffffffffffffffffffffffffffffffffffffffff16906020019092919050505061158a565b604051808360ff1660ff1681526020018281526020019250505060405180910390f35b6103ae6004803603602081101561038257600080fd5b81019080803573ffffffffffffffffffffffffffffffffffffffff169060200190929190505050611d9a565b005b6103f2600480360360208110156103c657600080fd5b81019080803573ffffffffffffffffffffffffffffffffffffffff169060200190929190505050611e4c565b6040518082815260200191505060405180910390f35b600160029054906101000a900461ffff1681565b6000600360009054906101000a900473ffffffffffffffffffffffffffffffffffffffff1673ffffffffffffffffffffffffffffffffffffffff163373ffffffffffffffffffffffffffffffffffffffff16146104c4576040517f08c379a00000000000000000000000000000000000000000000000000000000081526004018080602001828103825260268152602001806122776026913960400191505060405180910390fd5b6000600460008473ffffffffffffffffffffffffffffffffffffffff1673ffffffffffffffffffffffffffffffffffffffff16815260200190815260200160002060010160009054906101000a900460ff1660ff1614159050919050565b6000600360009054906101000a900473ffffffffffffffffffffffffffffffffffffffff1673ffffffffffffffffffffffffffffffffffffffff163373ffffffffffffffffffffffffffffffffffffffff16146105ca576040517f08c379a00000000000000000000000000000000000000000000000000000000081526004018080602001828103825260268152602001806122776026913960400191505060405180910390fd5b6000600460008873ffffffffffffffffffffffffffffffffffffffff1673ffffffffffffffffffffffffffffffffffffffff16815260200190815260200160002060010160009054906101000a900460ff1660ff161415600015158115151461069b576040517f08c379a000000000000000000000000000000000000000000000000000000000815260040180806020018281038252601c8152602001807f546865726520697320616c72656164792061206265742072656164790000000081525060200191505060405180910390fd5b6000809050600080905061072888888080601f016020809104026020016040519081016040528093929190818152602001838380828437600081840152601f19601f820116905080830192505050505050506040518060400160405280600681526020017f53696e676c65000000000000000000000000000000000000000000000000000081525061206c565b1561075a578560ff16600011158015610745575060248660ff1611155b1561075557600191508560ff1690505b6111d9565b6107dd88888080601f016020809104026020016040519081016040528093929190818152602001838380828437600081840152601f19601f820116905080830192505050505050506040518060400160405280601081526020017f486f72697a6f6e74616c2073706c69740000000000000000000000000000000081525061206c565b15610851578560ff166001111580156107fa575060238660ff1611155b80156108175750600060038760ff168161081057fe5b0660ff1614155b1561084c576002915060036001870360ff168161083057fe5b0660036001880360ff168161084157fe5b046002020160ff1690505b6111d8565b6108d488888080601f016020809104026020016040519081016040528093929190818152602001838380828437600081840152601f19601f820116905080830192505050505050506040518060400160405280600e81526020017f566572746963616c2073706c697400000000000000000000000000000000000081525061206c565b15610909578560ff166001111580156108f1575060218660ff1611155b1561090457600291508560170160ff1690505b6111d7565b61098c88888080601f016020809104026020016040519081016040528093929190818152602001838380828437600081840152601f19601f820116905080830192505050505050506040518060400160405280600681526020017f537472656574000000000000000000000000000000000000000000000000000081525061206c565b156109c1578560ff166001111580156109a95750600c8660ff1611155b156109bc57600391506001860360ff1690505b6111d6565b610a4488888080601f016020809104026020016040519081016040528093929190818152602001838380828437600081840152601f19601f820116905080830192505050505050506040518060400160405280600681526020017f537175617265000000000000000000000000000000000000000000000000000081525061206c565b15610ab8578560ff16600111158015610a61575060208660ff1611155b8015610a7e5750600060038760ff1681610a7757fe5b0660ff1614155b15610ab3576004915060036001870360ff1681610a9757fe5b0660036001880360ff1681610aa857fe5b046002020160ff1690505b6111d5565b610b3b88888080601f016020809104026020016040519081016040528093929190818152602001838380828437600081840152601f19601f820116905080830192505050505050506040518060400160405280600d81526020017f446f75626c65207374726565740000000000000000000000000000000000000081525061206c565b15610b70578560ff16600111158015610b585750600b8660ff1611155b15610b6b57600691506001860360ff1690505b6111d4565b610bf388888080601f016020809104026020016040519081016040528093929190818152602001838380828437600081840152601f19601f820116905080830192505050505050506040518060400160405280600681526020017f436f6c756d6e000000000000000000000000000000000000000000000000000081525061206c565b15610c28578560ff16600111158015610c10575060038660ff1611155b15610c2357600c91506001860360ff1690505b6111d3565b610cab88888080601f016020809104026020016040519081016040528093929190818152602001838380828437600081840152601f19601f820116905080830192505050505050506040518060400160405280600581526020017f446f7a656e00000000000000000000000000000000000000000000000000000081525061206c565b15610ce0578560ff16600111158015610cc8575060038660ff1611155b15610cdb57600c91508560020160ff1690505b6111d2565b610d6388888080601f016020809104026020016040519081016040528093929190818152602001838380828437600081840152601f19601f820116905080830192505050505050506040518060400160405280600381526020017f4c6f77000000000000000000000000000000000000000000000000000000000081525061206c565b15610d755760129150600090506111d1565b610df888888080601f016020809104026020016040519081016040528093929190818152602001838380828437600081840152601f19601f820116905080830192505050505050506040518060400160405280600481526020017f486967680000000000000000000000000000000000000000000000000000000081525061206c565b15610e0a5760129150600190506111d0565b610e8d88888080601f016020809104026020016040519081016040528093929190818152602001838380828437600081840152601f19601f820116905080830192505050505050506040518060400160405280600381526020017f526564000000000000000000000000000000000000000000000000000000000081525061206c565b15610e9f5760129150600290506111cf565b610f2288888080601f016020809104026020016040519081016040528093929190818152602001838380828437600081840152601f19601f820116905080830192505050505050506040518060400160405280600581526020017f426c61636b00000000000000000000000000000000000000000000000000000081525061206c565b15610f345760129150600390506111ce565b610fb788888080601f016020809104026020016040519081016040528093929190818152602001838380828437600081840152601f19601f820116905080830192505050505050506040518060400160405280600481526020017f4576656e0000000000000000000000000000000000000000000000000000000081525061206c565b15610fc95760129150600490506111cd565b61104c88888080601f016020809104026020016040519081016040528093929190818152602001838380828437600081840152601f19601f820116905080830192505050505050506040518060400160405280600381526020017f4f6464000000000000000000000000000000000000000000000000000000000081525061206c565b1561105e5760129150600590506111cc565b6110e188888080601f016020809104026020016040519081016040528093929190818152602001838380828437600081840152601f19601f820116905080830192505050505050506040518060400160405280600d81526020017f446f75626c6520636f6c756d6e0000000000000000000000000000000000000081525061206c565b15611116578560ff166001111580156110fe575060028660ff1611155b1561111157601891506001860360ff1690505b6111cb565b61119988888080601f016020809104026020016040519081016040528093929190818152602001838380828437600081840152601f19601f820116905080830192505050505050506040518060400160405280600c81526020017f446f75626c6520646f7a656e000000000000000000000000000000000000000081525061206c565b156111ca578560ff166001111580156111b6575060028660ff1611155b156111c957601891508560010160ff1690505b5b5b5b5b5b5b5b5b5b5b5b5b5b5b5b5b600080831415905080611254576040517f08c379a00000000000000000000000000000000000000000000000000000000081526004018080602001828103825260138152602001807f496e76616c69642074797065206f66206265740000000000000000000000000081525060200191505060405180910390fd5b85600460008c73ffffffffffffffffffffffffffffffffffffffff1673ffffffffffffffffffffffffffffffffffffffff1681526020019081526020016000206000018190555082600460008c73ffffffffffffffffffffffffffffffffffffffff1673ffffffffffffffffffffffffffffffffffffffff16815260200190815260200160002060010160006101000a81548160ff021916908360ff16021790555081600460008c73ffffffffffffffffffffffffffffffffffffffff1673ffffffffffffffffffffffffffffffffffffffff16815260200190815260200160002060010160016101000a81548160ff021916908360ff1602179055508094505050505095945050505050565b600360009054906101000a900473ffffffffffffffffffffffffffffffffffffffff1673ffffffffffffffffffffffffffffffffffffffff163373ffffffffffffffffffffffffffffffffffffffff1614611407576040517f08c379a00000000000000000000000000000000000000000000000000000000081526004018080602001828103825260268152602001806122776026913960400191505060405180910390fd5b600073ffffffffffffffffffffffffffffffffffffffff16600360009054906101000a900473ffffffffffffffffffffffffffffffffffffffff1673ffffffffffffffffffffffffffffffffffffffff167f8be0079c531659141344cd1fd0a4f28419497f9722a3daafe3b4186f6b6457e060405160405180910390a36000600360006101000a81548173ffffffffffffffffffffffffffffffffffffffff021916908373ffffffffffffffffffffffffffffffffffffffff160217905550565b600160009054906101000a900461ffff1681565b60025481565b6000600360009054906101000a900473ffffffffffffffffffffffffffffffffffffffff16905090565b6000600360009054906101000a900473ffffffffffffffffffffffffffffffffffffffff1673ffffffffffffffffffffffffffffffffffffffff163373ffffffffffffffffffffffffffffffffffffffff1614905090565b600360009054906101000a900473ffffffffffffffffffffffffffffffffffffffff1681565b600080600360009054906101000a900473ffffffffffffffffffffffffffffffffffffffff1673ffffffffffffffffffffffffffffffffffffffff163373ffffffffffffffffffffffffffffffffffffffff1614611633576040517f08c379a00000000000000000000000000000000000000000000000000000000081526004018080602001828103825260268152602001806122776026913960400191505060405180910390fd5b6000600460008573ffffffffffffffffffffffffffffffffffffffff1673ffffffffffffffffffffffffffffffffffffffff16815260200190815260200160002060010160009054906101000a900460ff1660ff1614156001151581151514611704576040517f08c379a000000000000000000000000000000000000000000000000000000000815260040180806020018281038252601e8152602001807f596f75206e65656420746f20626574206265666f726520706c6179696e67000081525060200191505060405180910390fd5b600061171260006024612087565b9050600080905061172161224f565b600460008873ffffffffffffffffffffffffffffffffffffffff1673ffffffffffffffffffffffffffffffffffffffff168152602001908152602001600020604051806060016040529081600082015481526020016001820160009054906101000a900460ff1660ff1660ff1681526020016001820160019054906101000a900460ff1660ff1660ff168152505090506001816020015160ff1614156117dd57806040015160ff168360ff1614156117d857600191505b611cc7565b6002816020015160ff161415611890576017816040015160ff161161185757600060016002836040015160ff168161181157fe5b066002846040015160ff168161182357fe5b04600302010190508060ff168460ff16148061184757506001810160ff168460ff16145b1561185157600192505b5061188b565b6000601782604001510390508060ff168460ff16148061187f57506003810160ff168460ff16145b1561188957600192505b505b611cc6565b6003816020015160ff1614156118f1576000600182604001516003020190508360ff168160ff16111580156118ce57506001810160ff168460ff1611155b806118e157506002810160ff168460ff16145b156118eb57600192505b50611cc5565b6004816020015160ff16141561198257600060016002836040015160ff168161191657fe5b066002846040015160ff168161192857fe5b04600302010190508060ff168460ff16148061194c57506001810160ff168460ff16145b8061195f57506003810160ff168460ff16145b8061197257506004810160ff168460ff16145b1561197c57600192505b50611cc4565b6006816020015160ff1614156119f057600060016002836040015160ff16816119a757fe5b066002846040015160ff16816119b957fe5b04600302010190508360ff168160ff16111580156119e057506006810160ff168460ff1611155b156119ea57600192505b50611cc3565b600c816020015160ff161415611a7e576002816040015160ff1611611a3b57806040015160ff1660036001850360ff1681611a2757fe5b0660ff161415611a3657600191505b611a79565b8260ff166001600c6003846040015103020160ff1611158015611a6e5750600c60028260400151030260ff168360ff1611155b15611a7857600191505b5b611cc2565b6012816020015160ff161415611c19576000816040015160ff161415611ac5578260ff16600111158015611ab6575060128360ff1611155b15611ac057600191505b611c14565b6001816040015160ff161415611afc578260ff16601311158015611aed575060248360ff1611155b15611af757600191505b611c13565b6002816040015160ff161415611b545760008360ff1614158015611b45575060056001840360ff1660248110611b2e57fe5b602091828204019190069054906101000a900460ff165b15611b4f57600191505b611c12565b6003816040015160ff161415611bad5760008360ff1614158015611b9e575060056001840360ff1660248110611b8657fe5b602091828204019190069054906101000a900460ff16155b15611ba857600191505b611c11565b6004816040015160ff161415611be057600060028460ff1681611bcc57fe5b0660ff161415611bdb57600191505b611c10565b6005816040015160ff161415611c0f57600160028460ff1681611bff57fe5b0660ff161415611c0e57600191505b5b5b5b5b5b5b611cc1565b6018816020015160ff161415611cc0576001816040015160ff1611611c8157600060036001850360ff1681611c4a57fe5b069050816040015160ff168160ff161480611c715750600182604001510160ff168160ff16145b15611c7b57600192505b50611cbf565b8260ff166001600c6001846040015103020160ff1611158015611cb45750600c60018260400151010260ff168360ff1611155b15611cbe57600191505b5b5b5b5b5b5b5b5b5b6000600460008973ffffffffffffffffffffffffffffffffffffffff1673ffffffffffffffffffffffffffffffffffffffff16815260200190815260200160002060010160006101000a81548160ff021916908360ff1602179055508115611d86576000816020015160ff16602481611d3c57fe5b0460ff168260000151029050816020015160ff168260000151836020015160ff16602481611d6657fe5b0660ff160281611d7257fe5b048101905083819650965050505050611d94565b826000809050955095505050505b50915091565b600360009054906101000a900473ffffffffffffffffffffffffffffffffffffffff1673ffffffffffffffffffffffffffffffffffffffff163373ffffffffffffffffffffffffffffffffffffffff1614611e40576040517f08c379a00000000000000000000000000000000000000000000000000000000081526004018080602001828103825260268152602001806122776026913960400191505060405180910390fd5b611e4981612139565b50565b6000600360009054906101000a900473ffffffffffffffffffffffffffffffffffffffff1673ffffffffffffffffffffffffffffffffffffffff163373ffffffffffffffffffffffffffffffffffffffff1614611ef4576040517f08c379a00000000000000000000000000000000000000000000000000000000081526004018080602001828103825260268152602001806122776026913960400191505060405180910390fd5b6000600460008473ffffffffffffffffffffffffffffffffffffffff1673ffffffffffffffffffffffffffffffffffffffff16815260200190815260200160002060010160009054906101000a900460ff1660ff1614156001151581151514611fc5576040517f08c379a000000000000000000000000000000000000000000000000000000000815260040180806020018281038252601e8152602001807f596f75206e65656420746f20626574206265666f726520706c6179696e67000081525060200191505060405180910390fd5b6000600460008573ffffffffffffffffffffffffffffffffffffffff1673ffffffffffffffffffffffffffffffffffffffff16815260200190815260200160002060010160006101000a81548160ff021916908360ff160217905550600460008473ffffffffffffffffffffffffffffffffffffffff1673ffffffffffffffffffffffffffffffffffffffff16815260200190815260200160002060000154915050919050565b60008180519060200120838051906020012014905092915050565b600061209f600160005461223390919063ffffffff16565b6000819055506121318360ff168360ff164233600054604051602001808481526020018373ffffffffffffffffffffffffffffffffffffffff1673ffffffffffffffffffffffffffffffffffffffff1660601b815260140182815260200193505050506040516020818303038152906040528051906020012060001c8161212257fe5b0661223390919063ffffffff16565b905092915050565b600073ffffffffffffffffffffffffffffffffffffffff168173ffffffffffffffffffffffffffffffffffffffff16141561217357600080fd5b8073ffffffffffffffffffffffffffffffffffffffff16600360009054906101000a900473ffffffffffffffffffffffffffffffffffffffff1673ffffffffffffffffffffffffffffffffffffffff167f8be0079c531659141344cd1fd0a4f28419497f9722a3daafe3b4186f6b6457e060405160405180910390a380600360006101000a81548173ffffffffffffffffffffffffffffffffffffffff021916908373ffffffffffffffffffffffffffffffffffffffff16021790555050565b60008082840190508381101561224557fe5b8091505092915050565b604051806060016040528060008152602001600060ff168152602001600060ff168152509056fe596f7520617265206e6f7420746865206f776e6572206f66207468697320636f6e7472616374a265627a7a7231582042664fa48e7baac3a633e4a49cac5fc0d0b2511eb5efc295ea51144063123ad064736f6c63430005100032",
  "source": "pragma solidity ^0.5.0;\n\nimport \"./../lib/SafeMath.sol\";\nimport \"./../lib/Ownable.sol\";\nimport \"./Game.sol\";\nimport \"./../Utility.sol\";\n\ncontract Roulette is Game, Utility, Ownable {\n\n    using SafeMath for uint256; //Using SafeMath lib to avoid overflow errors\n    using SafeMath for uint8;\n\n    /* For details on types of bet of the roulette game,\n    see https://en.wikipedia.org/wiki/Roulette#Types_of_bets */\n    struct RouletteBet {\n        // bool isSet;\n        uint256 tokenAmount;\n        uint8 numberOfCard;\n        /* 1-Single ; 2-Split ; 3-Street ; 4:Square ; 6-DoubleStreet ; 12-Column/Dozen ;\n        18-Low/High/Red/Black/Even/Odd ; 24-DoubleColumn/DoubleDozen */\n        uint8 betData;\n        /*\n        Single                      -> number with the bet (0 <= n <= 36)\n        Split                       -> 0 to 23, horizontal split : left number = 3*(n//2)+n%2+1,\n                                                                    right number = left number + 1\n                                        24+0 to 24+32, vertical split : upper number = n-23,\n                                                                        down number = upper number + 3\n        Street                      -> number of the line with the bet (0 <= n <= 11)\n        Square                      -> 0 to 21, number of the upper left number = 3*(n//2)+n%2+1\n        DoubleStreet                -> number of the upper line with the bet (0 <= n <= 10)\n        Column/Dozen                -> 0 to 2, column (number of the column)\n                                        3+0 to 3+2, dozen (3 : 1-12, 4 : 13-24, 5 : 25-36)\n        Low/High/Red/Black/Even/Odd -> respectively 0/1/2/3/4/5\n        DoubleColummn/DoubleDozen   -> 0 to 1, double column (number of the left column)\n                                        2+0 to 2+1, double dozen (2 : 1-24, 3 : 13-36)\n        */\n    }\n\n    mapping(address => RouletteBet) private _playersBet;\n\n    // reds = [1, 3, 5, 7, 9, 12, 14, 16, 18, 19, 21, 23, 25, 27, 30, 32, 34, 36];\n    // blacks = [2, 4, 6, 8, 10, 11, 13, 15, 17, 20, 22, 24, 26, 28, 29, 31, 33, 35];\n    bool[36] private isNumberRed =\n        [true, false, true, false, true, false, true, false, true, false,\n        false, true, false, true, false, true, false, true, true, false,\n        true, false, true, false, true, false, true, false, false, true,\n        false, true, false, true, false, true];\n\n    function isBetSet(address player) external view onlyOwner returns(bool){\n        return _playersBet[player].numberOfCard != 0;\n    }\n\n    function bet(address player, \n                 string calldata _typeOfCard, \n                 uint8 _dataOfBet, \n                 uint256 tokenAmount) external onlyOwner \n                                               currentBetIsNotSet(_playersBet[player].numberOfCard != 0) \n                                               returns(bool) {\n        uint numberOfCard = 0;\n        uint betData = 0;\n        if(compareStrings(_typeOfCard, \"Single\")){\n            if(0 <= _dataOfBet && _dataOfBet <= 36){\n                numberOfCard = 1;\n                betData = _dataOfBet;\n            }\n        }else if(compareStrings(_typeOfCard, \"Horizontal split\")){\n            if(1 <= _dataOfBet && _dataOfBet <= 35 && _dataOfBet % 3 != 0){\n                numberOfCard = 2;\n                betData = 2*((_dataOfBet-1)/3) + ((_dataOfBet-1)%3);\n            }\n        }else if(compareStrings(_typeOfCard, \"Vertical split\")){\n            if(1 <= _dataOfBet && _dataOfBet <= 33){\n                numberOfCard = 2;\n                betData = 23 + _dataOfBet;\n            }\n        }else if(compareStrings(_typeOfCard, \"Street\")){\n            if(1 <= _dataOfBet && _dataOfBet <= 12){\n                numberOfCard = 3;\n                betData = _dataOfBet-1;\n            }\n        }else if(compareStrings(_typeOfCard, \"Square\")){\n            if(1 <= _dataOfBet && _dataOfBet <= 32 && _dataOfBet % 3 != 0){\n                numberOfCard = 4;\n                betData = 2*((_dataOfBet-1)/3) + ((_dataOfBet-1)%3);\n            }\n        }else if(compareStrings(_typeOfCard, \"Double street\")){\n            if(1 <= _dataOfBet && _dataOfBet <= 11){\n                numberOfCard = 6;\n                betData = _dataOfBet-1;\n            }\n        }else if(compareStrings(_typeOfCard, \"Column\")){\n            if(1 <= _dataOfBet && _dataOfBet <= 3){\n                numberOfCard = 12;\n                betData = _dataOfBet-1;\n            }\n        }else if(compareStrings(_typeOfCard, \"Dozen\")){\n            if(1 <= _dataOfBet && _dataOfBet <= 3){\n                numberOfCard = 12;\n                betData = 2 + _dataOfBet;\n            }\n        }else if(compareStrings(_typeOfCard, \"Low\")){\n            numberOfCard = 18;\n            betData = 0;\n        }else if(compareStrings(_typeOfCard, \"High\")){\n            numberOfCard = 18;\n            betData = 1;\n        }else if(compareStrings(_typeOfCard, \"Red\")){\n            numberOfCard = 18;\n            betData = 2;\n        }else if(compareStrings(_typeOfCard, \"Black\")){\n            numberOfCard = 18;\n            betData = 3;\n        }else if(compareStrings(_typeOfCard, \"Even\")){\n            numberOfCard = 18;\n            betData = 4;\n        }else if(compareStrings(_typeOfCard, \"Odd\")){\n            numberOfCard = 18;\n            betData = 5;\n        }else if(compareStrings(_typeOfCard, \"Double column\")){\n            if(1 <= _dataOfBet && _dataOfBet <= 2){\n                numberOfCard = 24;\n                betData = _dataOfBet-1;\n            }\n        }else if(compareStrings(_typeOfCard, \"Double dozen\")){\n            if(1 <= _dataOfBet && _dataOfBet <= 2){\n                numberOfCard = 24;\n                betData = 1 + _dataOfBet;\n            }\n        }\n        bool _isValid = (numberOfCard != 0);\n        require(_isValid, \"Invalid type of bet\");\n        _playersBet[player].tokenAmount = tokenAmount;\n        _playersBet[player].numberOfCard = uint8(numberOfCard);\n        _playersBet[player].betData = uint8(betData);\n        return _isValid;\n    }\n\n    function cancelBet(address player) external onlyOwner currentBetIsSet(_playersBet[player].numberOfCard != 0) returns(uint256){\n        _playersBet[player].numberOfCard = 0;\n        return _playersBet[player].tokenAmount;\n    }\n\n    function play(address player) external onlyOwner currentBetIsSet(_playersBet[player].numberOfCard != 0) returns (uint8, uint256) {\n        uint8 _result = randomUintBetween(0, 36);\n        bool _hasWon = false;\n        RouletteBet memory _bet = _playersBet[player];\n        if(_bet.numberOfCard == 1){\n            if(_result == _bet.betData){\n                _hasWon = true;\n            }\n        }else if(_bet.numberOfCard == 2){\n            if(_bet.betData <= 23){\n                uint8 _leftNumber = 3*(_bet.betData/2) + (_bet.betData%2) + 1;\n                if(_result == _leftNumber || _result == _leftNumber+1){\n                    _hasWon = true;\n                }\n            }else{\n                uint8 _upperNumber = _bet.betData - 23;\n                if(_result == _upperNumber || _result == _upperNumber+3){\n                    _hasWon = true;\n                }\n            }\n        }else if(_bet.numberOfCard == 3){\n            uint8 _leftNumber = 3*_bet.betData + 1;\n            if(_leftNumber <= _result && _result <= _leftNumber+1\n                || _result == _leftNumber+2){\n                _hasWon = true;\n            }\n        }else if(_bet.numberOfCard == 4){\n            uint8 _leftUpperNumber = 3*(_bet.betData/2) + (_bet.betData%2) + 1;\n            if(_result == _leftUpperNumber || _result == _leftUpperNumber+1\n                || _result == _leftUpperNumber+3 || _result == _leftUpperNumber+4){\n                _hasWon = true;\n            }\n        }else if(_bet.numberOfCard == 6){\n            uint8 _leftUpperNumber = 3*(_bet.betData/2) + (_bet.betData%2) + 1;\n            if(_leftUpperNumber <= _result && _result <= _leftUpperNumber+6){\n                _hasWon = true;\n            }\n        }else if(_bet.numberOfCard == 12){\n            if(_bet.betData <= 2){\n                if((_result-1) % 3 == _bet.betData){\n                    _hasWon = true;\n                }\n            }else{\n                if((_bet.betData-3)*12 + 1 <= _result && _result <= (_bet.betData-2)*12){\n                    _hasWon = true;\n                }\n            }\n        }else if(_bet.numberOfCard == 18){\n            if(_bet.betData == 0){\n                if(1 <= _result && _result <= 18){\n                    _hasWon = true;\n                }\n            }else if(_bet.betData == 1){\n                if(19 <= _result && _result <= 36){\n                    _hasWon = true;\n                }\n            }else if(_bet.betData == 2){\n                if(_result != 0 && isNumberRed[_result-1]){\n                    _hasWon = true;\n                }\n            }else if(_bet.betData == 3){\n                if(_result != 0 && !isNumberRed[_result-1]){\n                    _hasWon = true;\n                }\n            }else if(_bet.betData == 4){\n                if(_result % 2 == 0){\n                    _hasWon = true;\n                }\n            }else if(_bet.betData == 5){\n                if(_result % 2 == 1){\n                    _hasWon = true;\n                }\n            }\n        }else if(_bet.numberOfCard == 24){\n            if(_bet.betData <= 1){\n                uint8 _remainder = (_result-1) % 3;\n                if(_remainder == _bet.betData || _remainder == _bet.betData+1){\n                    _hasWon = true;\n                }\n            }else{\n                if((_bet.betData-1)*12 + 1 <= _result && _result <= (_bet.betData+1)*12){\n                    _hasWon = true;\n                }\n            }\n        }\n        _playersBet[player].numberOfCard = 0;\n        if(_hasWon){\n            uint tokenWon = _bet.tokenAmount * (36/_bet.numberOfCard);\n            tokenWon += ((36 % _bet.numberOfCard) * _bet.tokenAmount) / _bet.numberOfCard;\n            return (_result, tokenWon);\n        }\n        return (_result, 0);\n    }\n\n}\n",
  "sourcePath": "/home/hanzo/Desktop/DecentralizedCasino/dapp/contracts/games/Roulette.sol",
  "compiler": {
    "name": "solc",
    "version": "0.5.16+commit.9c3226ce.Emscripten.clang"
  },
  "schemaVersion": "3.3.4",
  "updatedAt": "2021-03-21T23:49:08.036Z",
  "devdoc": {
    "methods": {
      "isOwner()": {
        "return": "true if `msg.sender` is the owner of the contract."
      },
      "owner()": {
        "return": "the address of the owner."
      },
      "renounceOwnership()": {
        "details": "Allows the current owner to relinquish control of the contract."
      },
      "transferOwnership(address)": {
        "details": "Allows the current owner to transfer control of the contract to a newOwner.",
        "params": {
          "newOwner": "The address to transfer ownership to."
        }
      }
    }
  },
  "userdoc": {
    "methods": {
      "renounceOwnership()": {
        "notice": "Renouncing to ownership will leave the contract without an owner. It will not be possible to call the functions with the `onlyOwner` modifier anymore."
      }
    }
  }
}