{
  "contractName": "RouletteGame",
  "abi": [
    {
      "constant": true,
      "inputs": [],
      "name": "maximumBetValue",
      "outputs": [
        {
          "internalType": "uint256",
          "name": "",
          "type": "uint256"
        }
      ],
      "payable": false,
      "stateMutability": "view",
      "type": "function"
    },
    {
      "constant": true,
      "inputs": [],
      "name": "minimumBetValue",
      "outputs": [
        {
          "internalType": "uint256",
          "name": "",
          "type": "uint256"
        }
      ],
      "payable": false,
      "stateMutability": "view",
      "type": "function"
    },
    {
      "constant": true,
      "inputs": [],
      "name": "isBetSet",
      "outputs": [
        {
          "internalType": "bool",
          "name": "",
          "type": "bool"
        }
      ],
      "payable": false,
      "stateMutability": "view",
      "type": "function"
    },
    {
      "constant": false,
      "inputs": [
        {
          "internalType": "string",
          "name": "_typeOfCard",
          "type": "string"
        },
        {
          "internalType": "uint256",
          "name": "_dataOfBet",
          "type": "uint256"
        }
      ],
      "name": "bet",
      "outputs": [
        {
          "internalType": "uint256",
          "name": "",
          "type": "uint256"
        },
        {
          "internalType": "bool",
          "name": "",
          "type": "bool"
        },
        {
          "internalType": "uint256",
          "name": "",
          "type": "uint256"
        }
      ],
      "payable": true,
      "stateMutability": "payable",
      "type": "function"
    },
    {
      "constant": false,
      "inputs": [],
      "name": "cancelBet",
      "outputs": [
        {
          "internalType": "uint256",
          "name": "",
          "type": "uint256"
        }
      ],
      "payable": false,
      "stateMutability": "nonpayable",
      "type": "function"
    },
    {
      "constant": false,
      "inputs": [],
      "name": "play",
      "outputs": [
        {
          "internalType": "uint256",
          "name": "",
          "type": "uint256"
        },
        {
          "internalType": "uint256",
          "name": "",
          "type": "uint256"
        }
      ],
      "payable": false,
      "stateMutability": "nonpayable",
      "type": "function"
    },
    {
      "constant": false,
      "inputs": [],
      "name": "playerMoneyWin",
      "outputs": [
        {
          "internalType": "uint256",
          "name": "",
          "type": "uint256"
        }
      ],
      "payable": false,
      "stateMutability": "nonpayable",
      "type": "function"
    }
  ],
  "bytecode": "0x608060405260008055678ac7230489e800006001556000600255604051806104800160405280600115151515815260200160001515151581526020016001151515158152602001600015151515815260200160011515151581526020016000151515158152602001600115151515815260200160001515151581526020016001151515158152602001600015151515815260200160001515151581526020016001151515158152602001600015151515815260200160011515151581526020016000151515158152602001600115151515815260200160001515151581526020016001151515158152602001600115151515815260200160001515151581526020016001151515158152602001600015151515815260200160011515151581526020016000151515158152602001600115151515815260200160001515151581526020016001151515158152602001600015151515815260200160001515151581526020016001151515158152602001600015151515815260200160011515151581526020016000151515158152602001600115151515815260200160001515151581526020016001151515158152506004906024620001c1929190620001d6565b50348015620001cf57600080fd5b50620002a9565b826024601f01602090048101928215620002635791602002820160005b838211156200023257835183826101000a81548160ff0219169083151502179055509260200192600101602081600001049283019260010302620001f3565b8015620002615782816101000a81549060ff021916905560010160208160000104928301926001030262000232565b505b50905062000272919062000276565b5090565b620002a691905b80821115620002a257600081816101000a81549060ff0219169055506001016200027d565b5090565b90565b611cbe80620002b96000396000f3fe6080604052600436106100705760003560e01c80637b6d79f11161004e5780637b6d79f1146100fa57806393e84cd914610125578063c32ec33614610157578063e9c20cb91461018257610070565b8063168b47b9146100755780631ae651c8146100a05780635d5ae245146100cf575b600080fd5b34801561008157600080fd5b5061008a61022b565b6040518082815260200191505060405180910390f35b3480156100ac57600080fd5b506100b56103f0565b604051808215151515815260200191505060405180910390f35b3480156100db57600080fd5b506100e4610447565b6040518082815260200191505060405180910390f35b34801561010657600080fd5b5061010f61044d565b6040518082815260200191505060405180910390f35b34801561013157600080fd5b5061013a61069b565b604051808381526020018281526020019250505060405180910390f35b34801561016357600080fd5b5061016c610d36565b6040518082815260200191505060405180910390f35b6102036004803603604081101561019857600080fd5b81019080803590602001906401000000008111156101b557600080fd5b8201836020820111156101c757600080fd5b803590602001918460018302840111640100000000831117156101e957600080fd5b909192939192939080359060200190929190505050610d3c565b6040518084815260200183151515158152602001828152602001935050505060405180910390f35b600080600360003373ffffffffffffffffffffffffffffffffffffffff1673ffffffffffffffffffffffffffffffffffffffff1681526020019081526020016000206002015460248161027a57fe5b04600360003373ffffffffffffffffffffffffffffffffffffffff1673ffffffffffffffffffffffffffffffffffffffff16815260200190815260200160002060010154029050600360003373ffffffffffffffffffffffffffffffffffffffff1673ffffffffffffffffffffffffffffffffffffffff16815260200190815260200160002060020154600360003373ffffffffffffffffffffffffffffffffffffffff1673ffffffffffffffffffffffffffffffffffffffff16815260200190815260200160002060010154600360003373ffffffffffffffffffffffffffffffffffffffff1673ffffffffffffffffffffffffffffffffffffffff1681526020019081526020016000206002015460248161039357fe5b06028161039c57fe5b04810190506000600360003373ffffffffffffffffffffffffffffffffffffffff1673ffffffffffffffffffffffffffffffffffffffff168152602001908152602001600020600101819055508091505090565b6000600360003373ffffffffffffffffffffffffffffffffffffffff1673ffffffffffffffffffffffffffffffffffffffff16815260200190815260200160002060000160009054906101000a900460ff16905090565b60025481565b6000600360003373ffffffffffffffffffffffffffffffffffffffff1673ffffffffffffffffffffffffffffffffffffffff16815260200190815260200160002060000160009054906101000a900460ff166001151581151514610519576040517f08c379a000000000000000000000000000000000000000000000000000000000815260040180806020018281038252601e8152602001807f596f75206e65656420746f20626574206265666f726520706c6179696e67000081525060200191505060405180910390fd5b6000600360003373ffffffffffffffffffffffffffffffffffffffff1673ffffffffffffffffffffffffffffffffffffffff168152602001908152602001600020600301819055506000600360003373ffffffffffffffffffffffffffffffffffffffff1673ffffffffffffffffffffffffffffffffffffffff16815260200190815260200160002060000160006101000a81548160ff0219169083151502179055506000600360003373ffffffffffffffffffffffffffffffffffffffff1673ffffffffffffffffffffffffffffffffffffffff168152602001908152602001600020600201819055506000600360003373ffffffffffffffffffffffffffffffffffffffff1673ffffffffffffffffffffffffffffffffffffffff1681526020019081526020016000206001015490506000600360003373ffffffffffffffffffffffffffffffffffffffff1673ffffffffffffffffffffffffffffffffffffffff16815260200190815260200160002060010181905550809250505090565b600080600360003373ffffffffffffffffffffffffffffffffffffffff1673ffffffffffffffffffffffffffffffffffffffff16815260200190815260200160002060000160009054906101000a900460ff166001151581151514610768576040517f08c379a000000000000000000000000000000000000000000000000000000000815260040180806020018281038252601e8152602001807f596f75206e65656420746f20626574206265666f726520706c6179696e67000081525060200191505060405180910390fd5b6000600360003373ffffffffffffffffffffffffffffffffffffffff1673ffffffffffffffffffffffffffffffffffffffff16815260200190815260200160002060000160006101000a81548160ff02191690831515021790555060006107d160006024611bb3565b905060008090506107e0611c5f565b600360003373ffffffffffffffffffffffffffffffffffffffff1673ffffffffffffffffffffffffffffffffffffffff1681526020019081526020016000206040518060800160405290816000820160009054906101000a900460ff161515151581526020016001820154815260200160028201548152602001600382015481525050905060018160400151141561088857806060015183141561088357600191505b610c8e565b6002816040015114156109175760178160600151116108ea576000600160028360600151816108b357fe5b0660028460600151816108c257fe5b0460030201019050808414806108da57506001810184145b156108e457600192505b50610912565b6000601782606001510390508084148061090657506003810184145b1561091057600192505b505b610c8d565b600381604001511415610963576000600182606001516003020190508381111580156109465750600181018411155b8061095357506002810184145b1561095d57600192505b50610c8c565b6004816040015114156109d35760006001600283606001518161098257fe5b06600284606001518161099157fe5b0460030201019050808414806109a957506001810184145b806109b657506003810184145b806109c357506004810184145b156109cd57600192505b50610c8b565b600681604001511415610a2c576000600160028360600151816109f257fe5b066002846060015181610a0157fe5b0460030201019050838111158015610a1c5750600681018411155b15610a2657600192505b50610c8a565b600c81604001511415610a9f576002816060015111610a6857806060015160036001850381610a5757fe5b061415610a6357600191505b610a9a565b826001600c6003846060015103020111158015610a8f5750600c6002826060015103028311155b15610a9957600191505b5b610c89565b601281604001511415610c0157600081606001511415610ada5782600111158015610acb575060128311155b15610ad557600191505b610bfc565b600181606001511415610b085782601311158015610af9575060248311155b15610b0357600191505b610bfb565b600281606001511415610b575760008314158015610b48575060046001840360248110610b3157fe5b602091828204019190069054906101000a900460ff165b15610b5257600191505b610bfa565b600381606001511415610ba75760008314158015610b98575060046001840360248110610b8057fe5b602091828204019190069054906101000a900460ff16155b15610ba257600191505b610bf9565b600481606001511415610bd157600060028481610bc057fe5b061415610bcc57600191505b610bf8565b600581606001511415610bf757600160028481610bea57fe5b061415610bf657600191505b5b5b5b5b5b5b610c88565b601881604001511415610c87576001816060015111610c5457600060036001850381610c2957fe5b0690508160600151811480610c445750600182606001510181145b15610c4e57600192505b50610c86565b826001600c6001846060015103020111158015610c7b5750600c6001826060015101028311155b15610c8557600191505b5b5b5b5b5b5b5b5b5b600115158215151415610d20573073ffffffffffffffffffffffffffffffffffffffff1663168b47b96040518163ffffffff1660e01b8152600401602060405180830381600087803b158015610ce357600080fd5b505af1158015610cf7573d6000803e3d6000fd5b505050506040513d6020811015610d0d57600080fd5b8101908080519060200190929190505050505b8060600151816040015195509550505050509091565b60015481565b6000806000600254341015610db9576040517f08c379a00000000000000000000000000000000000000000000000000000000081526004018080602001828103825260118152602001807f546f6f206c6f77206265742076616c756500000000000000000000000000000081525060200191505060405180910390fd5b600154341115610e31576040517f08c379a00000000000000000000000000000000000000000000000000000000081526004018080602001828103825260128152602001807f546f6f2068696768206265742076616c7565000000000000000000000000000081525060200191505060405180910390fd5b600360003373ffffffffffffffffffffffffffffffffffffffff1673ffffffffffffffffffffffffffffffffffffffff16815260200190815260200160002060000160009054906101000a900460ff166000151581151514610efb576040517f08c379a000000000000000000000000000000000000000000000000000000000815260040180806020018281038252601c8152602001807f546865726520697320616c72656164792061206265742072656164790000000081525060200191505060405180910390fd5b610f03611c5f565b60405180608001604052806001151581526020013481526020016000815260200160008152509050610fae88888080601f016020809104026020016040519081016040528093929190818152602001838380828437600081840152601f19601f820116905080830192505050505050506040518060400160405280600681526020017f53696e676c650000000000000000000000000000000000000000000000000000815250611c44565b15610fe55785600011158015610fc5575060248611155b15610fe0576001816040018181525050858160600181815250505b611acd565b61106888888080601f016020809104026020016040519081016040528093929190818152602001838380828437600081840152601f19601f820116905080830192505050505050506040518060400160405280601081526020017f486f72697a6f6e74616c2073706c697400000000000000000000000000000000815250611c44565b156110d5578560011115801561107f575060238611155b8015611096575060006003878161109257fe5b0614155b156110d0576002816040018181525050600360018703816110b357fe5b06600360018803816110c157fe5b04600202018160600181815250505b611acc565b61115888888080601f016020809104026020016040519081016040528093929190818152602001838380828437600081840152601f19601f820116905080830192505050505050506040518060400160405280600e81526020017f566572746963616c2073706c6974000000000000000000000000000000000000815250611c44565b15611192578560011115801561116f575060218611155b1561118d576002816040018181525050856017018160600181815250505b611acb565b61121588888080601f016020809104026020016040519081016040528093929190818152602001838380828437600081840152601f19601f820116905080830192505050505050506040518060400160405280600681526020017f5374726565740000000000000000000000000000000000000000000000000000815250611c44565b1561124f578560011115801561122c5750600c8611155b1561124a576003816040018181525050600186038160600181815250505b611aca565b6112d288888080601f016020809104026020016040519081016040528093929190818152602001838380828437600081840152601f19601f820116905080830192505050505050506040518060400160405280600681526020017f5371756172650000000000000000000000000000000000000000000000000000815250611c44565b1561133f57856001111580156112e9575060208611155b801561130057506000600387816112fc57fe5b0614155b1561133a5760048160400181815250506003600187038161131d57fe5b066003600188038161132b57fe5b04600202018160600181815250505b611ac9565b6113c288888080601f016020809104026020016040519081016040528093929190818152602001838380828437600081840152601f19601f820116905080830192505050505050506040518060400160405280600d81526020017f446f75626c652073747265657400000000000000000000000000000000000000815250611c44565b156113fc57856001111580156113d95750600b8611155b156113f7576006816040018181525050600186038160600181815250505b611ac8565b61147f88888080601f016020809104026020016040519081016040528093929190818152602001838380828437600081840152601f19601f820116905080830192505050505050506040518060400160405280600681526020017f436f6c756d6e0000000000000000000000000000000000000000000000000000815250611c44565b156114b95785600111158015611496575060038611155b156114b457600c816040018181525050600186038160600181815250505b611ac7565b61153c88888080601f016020809104026020016040519081016040528093929190818152602001838380828437600081840152601f19601f820116905080830192505050505050506040518060400160405280600581526020017f446f7a656e000000000000000000000000000000000000000000000000000000815250611c44565b156115765785600111158015611553575060038611155b1561157157600c816040018181525050856002018160600181815250505b611ac6565b6115f988888080601f016020809104026020016040519081016040528093929190818152602001838380828437600081840152601f19601f820116905080830192505050505050506040518060400160405280600381526020017f4c6f770000000000000000000000000000000000000000000000000000000000815250611c44565b156116195760128160400181815250506000816060018181525050611ac5565b61169c88888080601f016020809104026020016040519081016040528093929190818152602001838380828437600081840152601f19601f820116905080830192505050505050506040518060400160405280600481526020017f4869676800000000000000000000000000000000000000000000000000000000815250611c44565b156116bc5760128160400181815250506001816060018181525050611ac4565b61173f88888080601f016020809104026020016040519081016040528093929190818152602001838380828437600081840152601f19601f820116905080830192505050505050506040518060400160405280600381526020017f5265640000000000000000000000000000000000000000000000000000000000815250611c44565b1561175f5760128160400181815250506002816060018181525050611ac3565b6117e288888080601f016020809104026020016040519081016040528093929190818152602001838380828437600081840152601f19601f820116905080830192505050505050506040518060400160405280600581526020017f426c61636b000000000000000000000000000000000000000000000000000000815250611c44565b156118025760128160400181815250506003816060018181525050611ac2565b61188588888080601f016020809104026020016040519081016040528093929190818152602001838380828437600081840152601f19601f820116905080830192505050505050506040518060400160405280600481526020017f4576656e00000000000000000000000000000000000000000000000000000000815250611c44565b156118a55760128160400181815250506004816060018181525050611ac1565b61192888888080601f016020809104026020016040519081016040528093929190818152602001838380828437600081840152601f19601f820116905080830192505050505050506040518060400160405280600381526020017f4f64640000000000000000000000000000000000000000000000000000000000815250611c44565b156119485760128160400181815250506005816060018181525050611ac0565b6119cb88888080601f016020809104026020016040519081016040528093929190818152602001838380828437600081840152601f19601f820116905080830192505050505050506040518060400160405280600d81526020017f446f75626c6520636f6c756d6e00000000000000000000000000000000000000815250611c44565b15611a0557856001111580156119e2575060028611155b15611a00576018816040018181525050600186038160600181815250505b611abf565b611a8888888080601f016020809104026020016040519081016040528093929190818152602001838380828437600081840152601f19601f820116905080830192505050505050506040518060400160405280600c81526020017f446f75626c6520646f7a656e0000000000000000000000000000000000000000815250611c44565b15611abe5785600111158015611a9f575060028611155b15611abd576018816040018181525050856001018160600181815250505b5b5b5b5b5b5b5b5b5b5b5b5b5b5b5b5b600081604001511415611b26573373ffffffffffffffffffffffffffffffffffffffff166108fc349081150290604051600060405180830381858888f19350505050158015611b20573d6000803e3d6000fd5b50611ba8565b80600360003373ffffffffffffffffffffffffffffffffffffffff1673ffffffffffffffffffffffffffffffffffffffff16815260200190815260200160002060008201518160000160006101000a81548160ff0219169083151502179055506020820151816001015560408201518160020155606082015181600301559050505b505093509350939050565b6000806000815480929190600101919050555082824233600054604051602001808481526020018373ffffffffffffffffffffffffffffffffffffffff1673ffffffffffffffffffffffffffffffffffffffff1660601b815260140182815260200193505050506040516020818303038152906040528051906020012060001c81611c3a57fe5b0601905092915050565b60008180519060200120838051906020012014905092915050565b6040518060800160405280600015158152602001600081526020016000815260200160008152509056fea265627a7a72315820599e2d691e4500997debbaec63da8f1ffc70fbf727832a3b19f1cbf083b0d78b64736f6c63430005100032",
  "source": "pragma solidity ^0.5.0;\n\nimport \"./SafeMath.sol\";\nimport \"./Game.sol\";\nimport \"./Utility.sol\";\n\ncontract RouletteGame is Game, Utility {\n\n    /* For details on types of bet of the roulette game,\n    see https://en.wikipedia.org/wiki/Roulette#Types_of_bets */\n    struct RouletteBet {\n        bool isSet;\n        uint money;\n        uint numberOfCard;\n        /* 1-Single ; 2-Split ; 3-Street ; 4:Square ; 6-DoubleStreet ; 12-Column/Dozen ;\n        18-Low/High/Red/Black/Even/Odd ; 24-DoubleColumn/DoubleDozen */\n        uint betData;\n        /*\n        Single                      -> number with the bet (0 <= n <= 36)\n        Split                       -> 0 to 23, horizontal split : left number = 3*(n//2)+n%2+1,\n                                                                    right number = left number + 1\n                                        24+0 to 24+32, vertical split : upper number = n-23,\n                                                                        down number = upper number + 3\n        Street                      -> number of the line with the bet (0 <= n <= 11)\n        Square                      -> 0 to 21, number of the upper left number = 3*(n//2)+n%2+1\n        DoubleStreet                -> number of the upper line with the bet (0 <= n <= 10)\n        Column/Dozen                -> 0 to 2, column (number of the column)\n                                        3+0 to 3+2, dozen (3 : 1-12, 4 : 13-24, 5 : 25-36)\n        Low/High/Red/Black/Even/Odd -> respectively 0/1/2/3/4/5\n        DoubleColummn/DoubleDozen   -> 0 to 1, double column (number of the left column)\n                                        2+0 to 2+1, double dozen (2 : 1-24, 3 : 13-36)\n        */\n    }\n\n    mapping(address => RouletteBet) private _playersBet;\n\n    // reds = [1, 3, 5, 7, 9, 12, 14, 16, 18, 19, 21, 23, 25, 27, 30, 32, 34, 36];\n    // blacks = [2, 4, 6, 8, 10, 11, 13, 15, 17, 20, 22, 24, 26, 28, 29, 31, 33, 35];\n    bool[36] private isNumberRed =\n        [true, false, true, false, true, false, true, false, true, false,\n        false, true, false, true, false, true, false, true, true, false,\n        true, false, true, false, true, false, true, false, false, true,\n        false, true, false, true, false, true];\n\n    function isBetSet() external view returns(bool){\n        return _playersBet[msg.sender].isSet;\n    }\n\n    function bet(string calldata _typeOfCard, uint _dataOfBet) external payable isEnoughMoney currentBetIsNotSet(_playersBet[msg.sender].isSet) returns(uint, bool, uint) {\n        RouletteBet memory _newBet = RouletteBet(true, msg.value, 0, 0); \n        if(compareStrings(_typeOfCard, \"Single\")){\n            if(0 <= _dataOfBet && _dataOfBet <= 36){\n                _newBet.numberOfCard = 1;\n                _newBet.betData = _dataOfBet;\n            }\n        }else if(compareStrings(_typeOfCard, \"Horizontal split\")){\n            if(1 <= _dataOfBet && _dataOfBet <= 35 && _dataOfBet % 3 != 0){\n                _newBet.numberOfCard = 2;\n                _newBet.betData = 2*((_dataOfBet-1)/3) + ((_dataOfBet-1)%3);\n            }\n        }else if(compareStrings(_typeOfCard, \"Vertical split\")){\n            if(1 <= _dataOfBet && _dataOfBet <= 33){\n                _newBet.numberOfCard = 2;\n                _newBet.betData = 23 + _dataOfBet;\n            }\n        }else if(compareStrings(_typeOfCard, \"Street\")){\n            if(1 <= _dataOfBet && _dataOfBet <= 12){\n                _newBet.numberOfCard = 3;\n                _newBet.betData = _dataOfBet-1;\n            }\n        }else if(compareStrings(_typeOfCard, \"Square\")){\n            if(1 <= _dataOfBet && _dataOfBet <= 32 && _dataOfBet % 3 != 0){\n                _newBet.numberOfCard = 4;\n                _newBet.betData = 2*((_dataOfBet-1)/3) + ((_dataOfBet-1)%3);\n            }\n        }else if(compareStrings(_typeOfCard, \"Double street\")){\n            if(1 <= _dataOfBet && _dataOfBet <= 11){\n                _newBet.numberOfCard = 6;\n                _newBet.betData = _dataOfBet-1;\n            }\n        }else if(compareStrings(_typeOfCard, \"Column\")){\n            if(1 <= _dataOfBet && _dataOfBet <= 3){\n                _newBet.numberOfCard = 12;\n                _newBet.betData = _dataOfBet-1;\n            }\n        }else if(compareStrings(_typeOfCard, \"Dozen\")){\n            if(1 <= _dataOfBet && _dataOfBet <= 3){\n                _newBet.numberOfCard = 12;\n                _newBet.betData = 2 + _dataOfBet;\n            }\n        }else if(compareStrings(_typeOfCard, \"Low\")){\n            _newBet.numberOfCard = 18;\n            _newBet.betData = 0;\n        }else if(compareStrings(_typeOfCard, \"High\")){\n            _newBet.numberOfCard = 18;\n            _newBet.betData = 1;\n        }else if(compareStrings(_typeOfCard, \"Red\")){\n            _newBet.numberOfCard = 18;\n            _newBet.betData = 2;\n        }else if(compareStrings(_typeOfCard, \"Black\")){\n            _newBet.numberOfCard = 18;\n            _newBet.betData = 3;\n        }else if(compareStrings(_typeOfCard, \"Even\")){\n            _newBet.numberOfCard = 18;\n            _newBet.betData = 4;\n        }else if(compareStrings(_typeOfCard, \"Odd\")){\n            _newBet.numberOfCard = 18;\n            _newBet.betData = 5;\n        }else if(compareStrings(_typeOfCard, \"Double column\")){\n            if(1 <= _dataOfBet && _dataOfBet <= 2){\n                _newBet.numberOfCard = 24;\n                _newBet.betData = _dataOfBet-1;\n            }\n        }else if(compareStrings(_typeOfCard, \"Double dozen\")){\n            if(1 <= _dataOfBet && _dataOfBet <= 2){\n                _newBet.numberOfCard = 24;\n                _newBet.betData = 1 + _dataOfBet;\n            }\n        }\n        if(_newBet.numberOfCard == 0){ // wrong input, sending ethers back\n            msg.sender.transfer(msg.value);\n        }else{\n            _playersBet[msg.sender] = _newBet;\n        }\n    }\n\n    function cancelBet() external currentBetIsSet(_playersBet[msg.sender].isSet) returns(uint){\n        _playersBet[msg.sender].betData = 0;\n        _playersBet[msg.sender].isSet = false;\n        _playersBet[msg.sender].numberOfCard = 0;\n        uint moneyBetSave = _playersBet[msg.sender].money;\n        _playersBet[msg.sender].money = 0;\n        return moneyBetSave;\n    }\n\n    function play() external currentBetIsSet(_playersBet[msg.sender].isSet) returns (uint, uint) {\n        _playersBet[msg.sender].isSet = false;\n        uint _result = randomUintBetween(0, 36);\n        bool _hasWon = false;\n        RouletteBet memory _bet = _playersBet[msg.sender];\n        if(_bet.numberOfCard == 1){\n            if(_result == _bet.betData){\n                _hasWon = true;\n            }\n        }else if(_bet.numberOfCard == 2){\n            if(_bet.betData <= 23){\n                uint _leftNumber = 3*(_bet.betData/2) + (_bet.betData%2) + 1;\n                if(_result == _leftNumber || _result == _leftNumber+1){\n                    _hasWon = true;\n                }\n            }else{\n                uint _upperNumber = _bet.betData - 23;\n                if(_result == _upperNumber || _result == _upperNumber+3){\n                    _hasWon = true;\n                }\n            }\n        }else if(_bet.numberOfCard == 3){\n            uint _leftNumber = 3*_bet.betData + 1;\n            if(_leftNumber <= _result && _result <= _leftNumber+1\n                || _result == _leftNumber+2){\n                _hasWon = true;\n            }\n        }else if(_bet.numberOfCard == 4){\n            uint _leftUpperNumber = 3*(_bet.betData/2) + (_bet.betData%2) + 1;\n            if(_result == _leftUpperNumber || _result == _leftUpperNumber+1\n                || _result == _leftUpperNumber+3 || _result == _leftUpperNumber+4){\n                _hasWon = true;\n            }\n        }else if(_bet.numberOfCard == 6){\n            uint _leftUpperNumber = 3*(_bet.betData/2) + (_bet.betData%2) + 1;\n            if(_leftUpperNumber <= _result && _result <= _leftUpperNumber+6){\n                _hasWon = true;\n            }\n        }else if(_bet.numberOfCard == 12){\n            if(_bet.betData <= 2){\n                if((_result-1) % 3 == _bet.betData){\n                    _hasWon = true;\n                }\n            }else{\n                if((_bet.betData-3)*12 + 1 <= _result && _result <= (_bet.betData-2)*12){\n                    _hasWon = true;\n                }\n            }\n        }else if(_bet.numberOfCard == 18){\n            if(_bet.betData == 0){\n                if(1 <= _result && _result <= 18){\n                    _hasWon = true;\n                }\n            }else if(_bet.betData == 1){\n                if(19 <= _result && _result <= 36){\n                    _hasWon = true;\n                }\n            }else if(_bet.betData == 2){\n                if(_result != 0 && isNumberRed[_result-1]){\n                    _hasWon = true;\n                }\n            }else if(_bet.betData == 3){\n                if(_result != 0 && !isNumberRed[_result-1]){\n                    _hasWon = true;\n                }\n            }else if(_bet.betData == 4){\n                if(_result % 2 == 0){\n                    _hasWon = true;\n                }\n            }else if(_bet.betData == 5){\n                if(_result % 2 == 1){\n                    _hasWon = true;\n                }\n            }\n        }else if(_bet.numberOfCard == 24){\n            if(_bet.betData <= 1){\n                uint _remainder = (_result-1) % 3;\n                if(_remainder == _bet.betData || _remainder == _bet.betData+1){\n                    _hasWon = true;\n                }\n            }else{\n                if((_bet.betData-1)*12 + 1 <= _result && _result <= (_bet.betData+1)*12){\n                    _hasWon = true;\n                }\n            }\n        }\n        if(_hasWon == true){\n            this.playerMoneyWin();\n        }\n        return (_bet.betData, _bet.numberOfCard);\n    }\n\n    function playerMoneyWin() external returns(uint){\n        uint _moneyWon = _playersBet[msg.sender].money * (36/_playersBet[msg.sender].numberOfCard);\n        _moneyWon += ((36 % _playersBet[msg.sender].numberOfCard) * _playersBet[msg.sender].money) / _playersBet[msg.sender].numberOfCard;\n        _playersBet[msg.sender].money = 0;\n        return _moneyWon;\n    }\n\n}\n",
  "sourcePath": "/home/hanzo/Desktop/DecentralizedCasino/dapp/contracts/RouletteGame.sol",
  "compiler": {
    "name": "solc",
    "version": "0.5.16+commit.9c3226ce.Emscripten.clang"
  },
  "schemaVersion": "3.3.4",
  "updatedAt": "2021-03-16T20:48:57.671Z",
  "devdoc": {
    "methods": {}
  },
  "userdoc": {
    "methods": {}
  }
}