{
  "contractName": "Roulette",
  "abi": [
    {
      "anonymous": false,
      "inputs": [
        {
          "indexed": true,
          "internalType": "address",
          "name": "previousOwner",
          "type": "address"
        },
        {
          "indexed": true,
          "internalType": "address",
          "name": "newOwner",
          "type": "address"
        }
      ],
      "name": "OwnershipTransferred",
      "type": "event"
    },
    {
      "constant": true,
      "inputs": [],
      "name": "_owner",
      "outputs": [
        {
          "internalType": "address",
          "name": "",
          "type": "address"
        }
      ],
      "payable": false,
      "stateMutability": "view",
      "type": "function"
    },
    {
      "constant": true,
      "inputs": [],
      "name": "isOwner",
      "outputs": [
        {
          "internalType": "bool",
          "name": "",
          "type": "bool"
        }
      ],
      "payable": false,
      "stateMutability": "view",
      "type": "function"
    },
    {
      "constant": true,
      "inputs": [],
      "name": "maximumBetValue",
      "outputs": [
        {
          "internalType": "uint256",
          "name": "",
          "type": "uint256"
        }
      ],
      "payable": false,
      "stateMutability": "view",
      "type": "function"
    },
    {
      "constant": true,
      "inputs": [],
      "name": "minimumBetValue",
      "outputs": [
        {
          "internalType": "uint256",
          "name": "",
          "type": "uint256"
        }
      ],
      "payable": false,
      "stateMutability": "view",
      "type": "function"
    },
    {
      "constant": true,
      "inputs": [],
      "name": "owner",
      "outputs": [
        {
          "internalType": "address",
          "name": "",
          "type": "address"
        }
      ],
      "payable": false,
      "stateMutability": "view",
      "type": "function"
    },
    {
      "constant": false,
      "inputs": [],
      "name": "renounceOwnership",
      "outputs": [],
      "payable": false,
      "stateMutability": "nonpayable",
      "type": "function"
    },
    {
      "constant": false,
      "inputs": [
        {
          "internalType": "address",
          "name": "newOwner",
          "type": "address"
        }
      ],
      "name": "transferOwnership",
      "outputs": [],
      "payable": false,
      "stateMutability": "nonpayable",
      "type": "function"
    },
    {
      "constant": true,
      "inputs": [
        {
          "internalType": "address",
          "name": "player",
          "type": "address"
        }
      ],
      "name": "isBetSet",
      "outputs": [
        {
          "internalType": "bool",
          "name": "",
          "type": "bool"
        }
      ],
      "payable": false,
      "stateMutability": "view",
      "type": "function"
    },
    {
      "constant": false,
      "inputs": [
        {
          "internalType": "address",
          "name": "player",
          "type": "address"
        },
        {
          "internalType": "string",
          "name": "_typeOfCard",
          "type": "string"
        },
        {
          "internalType": "uint8",
          "name": "_dataOfBet",
          "type": "uint8"
        },
        {
          "internalType": "uint256",
          "name": "money",
          "type": "uint256"
        }
      ],
      "name": "bet",
      "outputs": [
        {
          "internalType": "bool",
          "name": "",
          "type": "bool"
        }
      ],
      "payable": false,
      "stateMutability": "nonpayable",
      "type": "function"
    },
    {
      "constant": false,
      "inputs": [
        {
          "internalType": "address",
          "name": "player",
          "type": "address"
        }
      ],
      "name": "cancelBet",
      "outputs": [
        {
          "internalType": "uint256",
          "name": "",
          "type": "uint256"
        }
      ],
      "payable": false,
      "stateMutability": "nonpayable",
      "type": "function"
    },
    {
      "constant": false,
      "inputs": [
        {
          "internalType": "address",
          "name": "player",
          "type": "address"
        }
      ],
      "name": "play",
      "outputs": [
        {
          "internalType": "uint8",
          "name": "",
          "type": "uint8"
        },
        {
          "internalType": "uint256",
          "name": "",
          "type": "uint256"
        }
      ],
      "payable": false,
      "stateMutability": "nonpayable",
      "type": "function"
    }
  ],
  "bytecode": "0x608060405260008055678ac7230489e800006001556000600255604051806104800160405280600115151515815260200160001515151581526020016001151515158152602001600015151515815260200160011515151581526020016000151515158152602001600115151515815260200160001515151581526020016001151515158152602001600015151515815260200160001515151581526020016001151515158152602001600015151515815260200160011515151581526020016000151515158152602001600115151515815260200160001515151581526020016001151515158152602001600115151515815260200160001515151581526020016001151515158152602001600015151515815260200160011515151581526020016000151515158152602001600115151515815260200160001515151581526020016001151515158152602001600015151515815260200160001515151581526020016001151515158152602001600015151515815260200160011515151581526020016000151515158152602001600115151515815260200160001515151581526020016001151515158152506005906024620001c192919062000286565b5033600360006101000a81548173ffffffffffffffffffffffffffffffffffffffff021916908373ffffffffffffffffffffffffffffffffffffffff160217905550600360009054906101000a900473ffffffffffffffffffffffffffffffffffffffff1673ffffffffffffffffffffffffffffffffffffffff16600073ffffffffffffffffffffffffffffffffffffffff167f8be0079c531659141344cd1fd0a4f28419497f9722a3daafe3b4186f6b6457e060405160405180910390a362000359565b826024601f01602090048101928215620003135791602002820160005b83821115620002e257835183826101000a81548160ff0219169083151502179055509260200192600101602081600001049283019260010302620002a3565b8015620003115782816101000a81549060ff0219169055600101602081600001049283019260010302620002e2565b505b50905062000322919062000326565b5090565b6200035691905b808211156200035257600081816101000a81549060ff0219169055506001016200032d565b5090565b90565b61236880620003696000396000f3fe608060405234801561001057600080fd5b50600436106100a95760003560e01c80638f32d59b116100715780638f32d59b14610244578063b2bdfa7b14610266578063c32ec336146102b0578063e492814f146102ce578063f2fde38b14610333578063f74640b314610377576100a9565b80635cbe6c54146100ae5780635d5ae2451461010a57806362127da814610128578063715018a6146101f05780638da5cb5b146101fa575b600080fd5b6100f0600480360360208110156100c457600080fd5b81019080803573ffffffffffffffffffffffffffffffffffffffff1690602001909291905050506103cf565b604051808215151515815260200191505060405180910390f35b6101126104d5565b6040518082815260200191505060405180910390f35b6101d66004803603608081101561013e57600080fd5b81019080803573ffffffffffffffffffffffffffffffffffffffff1690602001909291908035906020019064010000000081111561017b57600080fd5b82018360208201111561018d57600080fd5b803590602001918460018302840111640100000000831117156101af57600080fd5b9091929391929390803560ff169060200190929190803590602001909291905050506104db565b604051808215151515815260200191505060405180910390f35b6101f861140c565b005b610202611573565b604051808273ffffffffffffffffffffffffffffffffffffffff1673ffffffffffffffffffffffffffffffffffffffff16815260200191505060405180910390f35b61024c61159d565b604051808215151515815260200191505060405180910390f35b61026e6115f5565b604051808273ffffffffffffffffffffffffffffffffffffffff1673ffffffffffffffffffffffffffffffffffffffff16815260200191505060405180910390f35b6102b861161b565b6040518082815260200191505060405180910390f35b610310600480360360208110156102e457600080fd5b81019080803573ffffffffffffffffffffffffffffffffffffffff169060200190929190505050611621565b604051808360ff1660ff1681526020018281526020019250505060405180910390f35b6103756004803603602081101561034957600080fd5b81019080803573ffffffffffffffffffffffffffffffffffffffff169060200190929190505050611e31565b005b6103b96004803603602081101561038d57600080fd5b81019080803573ffffffffffffffffffffffffffffffffffffffff169060200190929190505050611ee3565b6040518082815260200191505060405180910390f35b6000600360009054906101000a900473ffffffffffffffffffffffffffffffffffffffff1673ffffffffffffffffffffffffffffffffffffffff163373ffffffffffffffffffffffffffffffffffffffff1614610477576040517f08c379a000000000000000000000000000000000000000000000000000000000815260040180806020018281038252602681526020018061230e6026913960400191505060405180910390fd5b6000600460008473ffffffffffffffffffffffffffffffffffffffff1673ffffffffffffffffffffffffffffffffffffffff16815260200190815260200160002060010160009054906101000a900460ff1660ff1614159050919050565b60025481565b6000600360009054906101000a900473ffffffffffffffffffffffffffffffffffffffff1673ffffffffffffffffffffffffffffffffffffffff163373ffffffffffffffffffffffffffffffffffffffff1614610583576040517f08c379a000000000000000000000000000000000000000000000000000000000815260040180806020018281038252602681526020018061230e6026913960400191505060405180910390fd5b816002548110156105fc576040517f08c379a00000000000000000000000000000000000000000000000000000000081526004018080602001828103825260118152602001807f546f6f206c6f77206265742076616c756500000000000000000000000000000081525060200191505060405180910390fd5b600154811115610674576040517f08c379a00000000000000000000000000000000000000000000000000000000081526004018080602001828103825260128152602001807f546f6f2068696768206265742076616c7565000000000000000000000000000081525060200191505060405180910390fd5b6000600460008973ffffffffffffffffffffffffffffffffffffffff1673ffffffffffffffffffffffffffffffffffffffff16815260200190815260200160002060010160009054906101000a900460ff1660ff1614156000151581151514610745576040517f08c379a000000000000000000000000000000000000000000000000000000000815260040180806020018281038252601c8152602001807f546865726520697320616c72656164792061206265742072656164790000000081525060200191505060405180910390fd5b600080905060008090506107d289898080601f016020809104026020016040519081016040528093929190818152602001838380828437600081840152601f19601f820116905080830192505050505050506040518060400160405280600681526020017f53696e676c650000000000000000000000000000000000000000000000000000815250612103565b15610804578660ff166000111580156107ef575060248760ff1611155b156107ff57600191508660ff1690505b611283565b61088789898080601f016020809104026020016040519081016040528093929190818152602001838380828437600081840152601f19601f820116905080830192505050505050506040518060400160405280601081526020017f486f72697a6f6e74616c2073706c697400000000000000000000000000000000815250612103565b156108fb578660ff166001111580156108a4575060238760ff1611155b80156108c15750600060038860ff16816108ba57fe5b0660ff1614155b156108f6576002915060036001880360ff16816108da57fe5b0660036001890360ff16816108eb57fe5b046002020160ff1690505b611282565b61097e89898080601f016020809104026020016040519081016040528093929190818152602001838380828437600081840152601f19601f820116905080830192505050505050506040518060400160405280600e81526020017f566572746963616c2073706c6974000000000000000000000000000000000000815250612103565b156109b3578660ff1660011115801561099b575060218760ff1611155b156109ae57600291508660170160ff1690505b611281565b610a3689898080601f016020809104026020016040519081016040528093929190818152602001838380828437600081840152601f19601f820116905080830192505050505050506040518060400160405280600681526020017f5374726565740000000000000000000000000000000000000000000000000000815250612103565b15610a6b578660ff16600111158015610a535750600c8760ff1611155b15610a6657600391506001870360ff1690505b611280565b610aee89898080601f016020809104026020016040519081016040528093929190818152602001838380828437600081840152601f19601f820116905080830192505050505050506040518060400160405280600681526020017f5371756172650000000000000000000000000000000000000000000000000000815250612103565b15610b62578660ff16600111158015610b0b575060208760ff1611155b8015610b285750600060038860ff1681610b2157fe5b0660ff1614155b15610b5d576004915060036001880360ff1681610b4157fe5b0660036001890360ff1681610b5257fe5b046002020160ff1690505b61127f565b610be589898080601f016020809104026020016040519081016040528093929190818152602001838380828437600081840152601f19601f820116905080830192505050505050506040518060400160405280600d81526020017f446f75626c652073747265657400000000000000000000000000000000000000815250612103565b15610c1a578660ff16600111158015610c025750600b8760ff1611155b15610c1557600691506001870360ff1690505b61127e565b610c9d89898080601f016020809104026020016040519081016040528093929190818152602001838380828437600081840152601f19601f820116905080830192505050505050506040518060400160405280600681526020017f436f6c756d6e0000000000000000000000000000000000000000000000000000815250612103565b15610cd2578660ff16600111158015610cba575060038760ff1611155b15610ccd57600c91506001870360ff1690505b61127d565b610d5589898080601f016020809104026020016040519081016040528093929190818152602001838380828437600081840152601f19601f820116905080830192505050505050506040518060400160405280600581526020017f446f7a656e000000000000000000000000000000000000000000000000000000815250612103565b15610d8a578660ff16600111158015610d72575060038760ff1611155b15610d8557600c91508660020160ff1690505b61127c565b610e0d89898080601f016020809104026020016040519081016040528093929190818152602001838380828437600081840152601f19601f820116905080830192505050505050506040518060400160405280600381526020017f4c6f770000000000000000000000000000000000000000000000000000000000815250612103565b15610e1f57601291506000905061127b565b610ea289898080601f016020809104026020016040519081016040528093929190818152602001838380828437600081840152601f19601f820116905080830192505050505050506040518060400160405280600481526020017f4869676800000000000000000000000000000000000000000000000000000000815250612103565b15610eb457601291506001905061127a565b610f3789898080601f016020809104026020016040519081016040528093929190818152602001838380828437600081840152601f19601f820116905080830192505050505050506040518060400160405280600381526020017f5265640000000000000000000000000000000000000000000000000000000000815250612103565b15610f49576012915060029050611279565b610fcc89898080601f016020809104026020016040519081016040528093929190818152602001838380828437600081840152601f19601f820116905080830192505050505050506040518060400160405280600581526020017f426c61636b000000000000000000000000000000000000000000000000000000815250612103565b15610fde576012915060039050611278565b61106189898080601f016020809104026020016040519081016040528093929190818152602001838380828437600081840152601f19601f820116905080830192505050505050506040518060400160405280600481526020017f4576656e00000000000000000000000000000000000000000000000000000000815250612103565b15611073576012915060049050611277565b6110f689898080601f016020809104026020016040519081016040528093929190818152602001838380828437600081840152601f19601f820116905080830192505050505050506040518060400160405280600381526020017f4f64640000000000000000000000000000000000000000000000000000000000815250612103565b15611108576012915060059050611276565b61118b89898080601f016020809104026020016040519081016040528093929190818152602001838380828437600081840152601f19601f820116905080830192505050505050506040518060400160405280600d81526020017f446f75626c6520636f6c756d6e00000000000000000000000000000000000000815250612103565b156111c0578660ff166001111580156111a8575060028760ff1611155b156111bb57601891506001870360ff1690505b611275565b61124389898080601f016020809104026020016040519081016040528093929190818152602001838380828437600081840152601f19601f820116905080830192505050505050506040518060400160405280600c81526020017f446f75626c6520646f7a656e0000000000000000000000000000000000000000815250612103565b15611274578660ff16600111158015611260575060028760ff1611155b1561127357601891508660010160ff1690505b5b5b5b5b5b5b5b5b5b5b5b5b5b5b5b5b6000808314159050806112fe576040517f08c379a00000000000000000000000000000000000000000000000000000000081526004018080602001828103825260138152602001807f496e76616c69642074797065206f66206265740000000000000000000000000081525060200191505060405180910390fd5b86600460008d73ffffffffffffffffffffffffffffffffffffffff1673ffffffffffffffffffffffffffffffffffffffff1681526020019081526020016000206000018190555082600460008d73ffffffffffffffffffffffffffffffffffffffff1673ffffffffffffffffffffffffffffffffffffffff16815260200190815260200160002060010160006101000a81548160ff021916908360ff16021790555081600460008d73ffffffffffffffffffffffffffffffffffffffff1673ffffffffffffffffffffffffffffffffffffffff16815260200190815260200160002060010160016101000a81548160ff021916908360ff160217905550809550505050505095945050505050565b600360009054906101000a900473ffffffffffffffffffffffffffffffffffffffff1673ffffffffffffffffffffffffffffffffffffffff163373ffffffffffffffffffffffffffffffffffffffff16146114b2576040517f08c379a000000000000000000000000000000000000000000000000000000000815260040180806020018281038252602681526020018061230e6026913960400191505060405180910390fd5b600073ffffffffffffffffffffffffffffffffffffffff16600360009054906101000a900473ffffffffffffffffffffffffffffffffffffffff1673ffffffffffffffffffffffffffffffffffffffff167f8be0079c531659141344cd1fd0a4f28419497f9722a3daafe3b4186f6b6457e060405160405180910390a36000600360006101000a81548173ffffffffffffffffffffffffffffffffffffffff021916908373ffffffffffffffffffffffffffffffffffffffff160217905550565b6000600360009054906101000a900473ffffffffffffffffffffffffffffffffffffffff16905090565b6000600360009054906101000a900473ffffffffffffffffffffffffffffffffffffffff1673ffffffffffffffffffffffffffffffffffffffff163373ffffffffffffffffffffffffffffffffffffffff1614905090565b600360009054906101000a900473ffffffffffffffffffffffffffffffffffffffff1681565b60015481565b600080600360009054906101000a900473ffffffffffffffffffffffffffffffffffffffff1673ffffffffffffffffffffffffffffffffffffffff163373ffffffffffffffffffffffffffffffffffffffff16146116ca576040517f08c379a000000000000000000000000000000000000000000000000000000000815260040180806020018281038252602681526020018061230e6026913960400191505060405180910390fd5b6000600460008573ffffffffffffffffffffffffffffffffffffffff1673ffffffffffffffffffffffffffffffffffffffff16815260200190815260200160002060010160009054906101000a900460ff1660ff161415600115158115151461179b576040517f08c379a000000000000000000000000000000000000000000000000000000000815260040180806020018281038252601e8152602001807f596f75206e65656420746f20626574206265666f726520706c6179696e67000081525060200191505060405180910390fd5b60006117a96000602461211e565b905060008090506117b86122e6565b600460008873ffffffffffffffffffffffffffffffffffffffff1673ffffffffffffffffffffffffffffffffffffffff168152602001908152602001600020604051806060016040529081600082015481526020016001820160009054906101000a900460ff1660ff1660ff1681526020016001820160019054906101000a900460ff1660ff1660ff168152505090506001816020015160ff16141561187457806040015160ff168360ff16141561186f57600191505b611d5e565b6002816020015160ff161415611927576017816040015160ff16116118ee57600060016002836040015160ff16816118a857fe5b066002846040015160ff16816118ba57fe5b04600302010190508060ff168460ff1614806118de57506001810160ff168460ff16145b156118e857600192505b50611922565b6000601782604001510390508060ff168460ff16148061191657506003810160ff168460ff16145b1561192057600192505b505b611d5d565b6003816020015160ff161415611988576000600182604001516003020190508360ff168160ff161115801561196557506001810160ff168460ff1611155b8061197857506002810160ff168460ff16145b1561198257600192505b50611d5c565b6004816020015160ff161415611a1957600060016002836040015160ff16816119ad57fe5b066002846040015160ff16816119bf57fe5b04600302010190508060ff168460ff1614806119e357506001810160ff168460ff16145b806119f657506003810160ff168460ff16145b80611a0957506004810160ff168460ff16145b15611a1357600192505b50611d5b565b6006816020015160ff161415611a8757600060016002836040015160ff1681611a3e57fe5b066002846040015160ff1681611a5057fe5b04600302010190508360ff168160ff1611158015611a7757506006810160ff168460ff1611155b15611a8157600192505b50611d5a565b600c816020015160ff161415611b15576002816040015160ff1611611ad257806040015160ff1660036001850360ff1681611abe57fe5b0660ff161415611acd57600191505b611b10565b8260ff166001600c6003846040015103020160ff1611158015611b055750600c60028260400151030260ff168360ff1611155b15611b0f57600191505b5b611d59565b6012816020015160ff161415611cb0576000816040015160ff161415611b5c578260ff16600111158015611b4d575060128360ff1611155b15611b5757600191505b611cab565b6001816040015160ff161415611b93578260ff16601311158015611b84575060248360ff1611155b15611b8e57600191505b611caa565b6002816040015160ff161415611beb5760008360ff1614158015611bdc575060056001840360ff1660248110611bc557fe5b602091828204019190069054906101000a900460ff165b15611be657600191505b611ca9565b6003816040015160ff161415611c445760008360ff1614158015611c35575060056001840360ff1660248110611c1d57fe5b602091828204019190069054906101000a900460ff16155b15611c3f57600191505b611ca8565b6004816040015160ff161415611c7757600060028460ff1681611c6357fe5b0660ff161415611c7257600191505b611ca7565b6005816040015160ff161415611ca657600160028460ff1681611c9657fe5b0660ff161415611ca557600191505b5b5b5b5b5b5b611d58565b6018816020015160ff161415611d57576001816040015160ff1611611d1857600060036001850360ff1681611ce157fe5b069050816040015160ff168160ff161480611d085750600182604001510160ff168160ff16145b15611d1257600192505b50611d56565b8260ff166001600c6001846040015103020160ff1611158015611d4b5750600c60018260400151010260ff168360ff1611155b15611d5557600191505b5b5b5b5b5b5b5b5b5b6000600460008973ffffffffffffffffffffffffffffffffffffffff1673ffffffffffffffffffffffffffffffffffffffff16815260200190815260200160002060010160006101000a81548160ff021916908360ff1602179055508115611e1d576000816020015160ff16602481611dd357fe5b0460ff168260000151029050816020015160ff168260000151836020015160ff16602481611dfd57fe5b0660ff160281611e0957fe5b048101905083819650965050505050611e2b565b826000809050955095505050505b50915091565b600360009054906101000a900473ffffffffffffffffffffffffffffffffffffffff1673ffffffffffffffffffffffffffffffffffffffff163373ffffffffffffffffffffffffffffffffffffffff1614611ed7576040517f08c379a000000000000000000000000000000000000000000000000000000000815260040180806020018281038252602681526020018061230e6026913960400191505060405180910390fd5b611ee0816121d0565b50565b6000600360009054906101000a900473ffffffffffffffffffffffffffffffffffffffff1673ffffffffffffffffffffffffffffffffffffffff163373ffffffffffffffffffffffffffffffffffffffff1614611f8b576040517f08c379a000000000000000000000000000000000000000000000000000000000815260040180806020018281038252602681526020018061230e6026913960400191505060405180910390fd5b6000600460008473ffffffffffffffffffffffffffffffffffffffff1673ffffffffffffffffffffffffffffffffffffffff16815260200190815260200160002060010160009054906101000a900460ff1660ff161415600115158115151461205c576040517f08c379a000000000000000000000000000000000000000000000000000000000815260040180806020018281038252601e8152602001807f596f75206e65656420746f20626574206265666f726520706c6179696e67000081525060200191505060405180910390fd5b6000600460008573ffffffffffffffffffffffffffffffffffffffff1673ffffffffffffffffffffffffffffffffffffffff16815260200190815260200160002060010160006101000a81548160ff021916908360ff160217905550600460008473ffffffffffffffffffffffffffffffffffffffff1673ffffffffffffffffffffffffffffffffffffffff16815260200190815260200160002060000154915050919050565b60008180519060200120838051906020012014905092915050565b600061213660016000546122ca90919063ffffffff16565b6000819055506121c88360ff168360ff164233600054604051602001808481526020018373ffffffffffffffffffffffffffffffffffffffff1673ffffffffffffffffffffffffffffffffffffffff1660601b815260140182815260200193505050506040516020818303038152906040528051906020012060001c816121b957fe5b066122ca90919063ffffffff16565b905092915050565b600073ffffffffffffffffffffffffffffffffffffffff168173ffffffffffffffffffffffffffffffffffffffff16141561220a57600080fd5b8073ffffffffffffffffffffffffffffffffffffffff16600360009054906101000a900473ffffffffffffffffffffffffffffffffffffffff1673ffffffffffffffffffffffffffffffffffffffff167f8be0079c531659141344cd1fd0a4f28419497f9722a3daafe3b4186f6b6457e060405160405180910390a380600360006101000a81548173ffffffffffffffffffffffffffffffffffffffff021916908373ffffffffffffffffffffffffffffffffffffffff16021790555050565b6000808284019050838110156122dc57fe5b8091505092915050565b604051806060016040528060008152602001600060ff168152602001600060ff168152509056fe596f7520617265206e6f7420746865206f776e6572206f66207468697320636f6e7472616374a265627a7a723158209eab79bb6f9ca123287495222c870482e988eeb553092a1ab623e621e9b6cf7164736f6c63430005100032",
  "source": "pragma solidity ^0.5.0;\n\nimport \"./../lib/SafeMath.sol\";\nimport \"./../lib/Ownable.sol\";\nimport \"./Game.sol\";\nimport \"./../Utility.sol\";\n\ncontract Roulette is Game, Utility, Ownable {\n\n    using SafeMath for uint256; //Using SafeMath lib to avoid overflow errors\n    using SafeMath for uint8;\n\n    /* For details on types of bet of the roulette game,\n    see https://en.wikipedia.org/wiki/Roulette#Types_of_bets */\n    struct RouletteBet {\n        // bool isSet;\n        uint256 money;\n        uint8 numberOfCard;\n        /* 1-Single ; 2-Split ; 3-Street ; 4:Square ; 6-DoubleStreet ; 12-Column/Dozen ;\n        18-Low/High/Red/Black/Even/Odd ; 24-DoubleColumn/DoubleDozen */\n        uint8 betData;\n        /*\n        Single                      -> number with the bet (0 <= n <= 36)\n        Split                       -> 0 to 23, horizontal split : left number = 3*(n//2)+n%2+1,\n                                                                    right number = left number + 1\n                                        24+0 to 24+32, vertical split : upper number = n-23,\n                                                                        down number = upper number + 3\n        Street                      -> number of the line with the bet (0 <= n <= 11)\n        Square                      -> 0 to 21, number of the upper left number = 3*(n//2)+n%2+1\n        DoubleStreet                -> number of the upper line with the bet (0 <= n <= 10)\n        Column/Dozen                -> 0 to 2, column (number of the column)\n                                        3+0 to 3+2, dozen (3 : 1-12, 4 : 13-24, 5 : 25-36)\n        Low/High/Red/Black/Even/Odd -> respectively 0/1/2/3/4/5\n        DoubleColummn/DoubleDozen   -> 0 to 1, double column (number of the left column)\n                                        2+0 to 2+1, double dozen (2 : 1-24, 3 : 13-36)\n        */\n    }\n\n    mapping(address => RouletteBet) private _playersBet;\n\n    // reds = [1, 3, 5, 7, 9, 12, 14, 16, 18, 19, 21, 23, 25, 27, 30, 32, 34, 36];\n    // blacks = [2, 4, 6, 8, 10, 11, 13, 15, 17, 20, 22, 24, 26, 28, 29, 31, 33, 35];\n    bool[36] private isNumberRed =\n        [true, false, true, false, true, false, true, false, true, false,\n        false, true, false, true, false, true, false, true, true, false,\n        true, false, true, false, true, false, true, false, false, true,\n        false, true, false, true, false, true];\n\n    function isBetSet(address player) external view onlyOwner returns(bool){\n        return _playersBet[player].numberOfCard != 0;\n    }\n\n    function bet(address player, string calldata _typeOfCard, uint8 _dataOfBet, uint256 money) external onlyOwner isEnoughMoney(money) currentBetIsNotSet(_playersBet[player].numberOfCard != 0) returns(bool) {\n        uint numberOfCard = 0;\n        uint betData = 0;\n        if(compareStrings(_typeOfCard, \"Single\")){\n            if(0 <= _dataOfBet && _dataOfBet <= 36){\n                numberOfCard = 1;\n                betData = _dataOfBet;\n            }\n        }else if(compareStrings(_typeOfCard, \"Horizontal split\")){\n            if(1 <= _dataOfBet && _dataOfBet <= 35 && _dataOfBet % 3 != 0){\n                numberOfCard = 2;\n                betData = 2*((_dataOfBet-1)/3) + ((_dataOfBet-1)%3);\n            }\n        }else if(compareStrings(_typeOfCard, \"Vertical split\")){\n            if(1 <= _dataOfBet && _dataOfBet <= 33){\n                numberOfCard = 2;\n                betData = 23 + _dataOfBet;\n            }\n        }else if(compareStrings(_typeOfCard, \"Street\")){\n            if(1 <= _dataOfBet && _dataOfBet <= 12){\n                numberOfCard = 3;\n                betData = _dataOfBet-1;\n            }\n        }else if(compareStrings(_typeOfCard, \"Square\")){\n            if(1 <= _dataOfBet && _dataOfBet <= 32 && _dataOfBet % 3 != 0){\n                numberOfCard = 4;\n                betData = 2*((_dataOfBet-1)/3) + ((_dataOfBet-1)%3);\n            }\n        }else if(compareStrings(_typeOfCard, \"Double street\")){\n            if(1 <= _dataOfBet && _dataOfBet <= 11){\n                numberOfCard = 6;\n                betData = _dataOfBet-1;\n            }\n        }else if(compareStrings(_typeOfCard, \"Column\")){\n            if(1 <= _dataOfBet && _dataOfBet <= 3){\n                numberOfCard = 12;\n                betData = _dataOfBet-1;\n            }\n        }else if(compareStrings(_typeOfCard, \"Dozen\")){\n            if(1 <= _dataOfBet && _dataOfBet <= 3){\n                numberOfCard = 12;\n                betData = 2 + _dataOfBet;\n            }\n        }else if(compareStrings(_typeOfCard, \"Low\")){\n            numberOfCard = 18;\n            betData = 0;\n        }else if(compareStrings(_typeOfCard, \"High\")){\n            numberOfCard = 18;\n            betData = 1;\n        }else if(compareStrings(_typeOfCard, \"Red\")){\n            numberOfCard = 18;\n            betData = 2;\n        }else if(compareStrings(_typeOfCard, \"Black\")){\n            numberOfCard = 18;\n            betData = 3;\n        }else if(compareStrings(_typeOfCard, \"Even\")){\n            numberOfCard = 18;\n            betData = 4;\n        }else if(compareStrings(_typeOfCard, \"Odd\")){\n            numberOfCard = 18;\n            betData = 5;\n        }else if(compareStrings(_typeOfCard, \"Double column\")){\n            if(1 <= _dataOfBet && _dataOfBet <= 2){\n                numberOfCard = 24;\n                betData = _dataOfBet-1;\n            }\n        }else if(compareStrings(_typeOfCard, \"Double dozen\")){\n            if(1 <= _dataOfBet && _dataOfBet <= 2){\n                numberOfCard = 24;\n                betData = 1 + _dataOfBet;\n            }\n        }\n        bool _isValid = (numberOfCard != 0);\n        require(_isValid, \"Invalid type of bet\");\n        _playersBet[player].money = money;\n        _playersBet[player].numberOfCard = uint8(numberOfCard);\n        _playersBet[player].betData = uint8(betData);\n        return _isValid;\n    }\n\n    function cancelBet(address player) external onlyOwner currentBetIsSet(_playersBet[player].numberOfCard != 0) returns(uint256){\n        _playersBet[player].numberOfCard = 0;\n        return _playersBet[player].money;\n    }\n\n    function play(address player) external onlyOwner currentBetIsSet(_playersBet[player].numberOfCard != 0) returns (uint8, uint256) {\n        uint8 _result = randomUintBetween(0, 36);\n        bool _hasWon = false;\n        RouletteBet memory _bet = _playersBet[player];\n        if(_bet.numberOfCard == 1){\n            if(_result == _bet.betData){\n                _hasWon = true;\n            }\n        }else if(_bet.numberOfCard == 2){\n            if(_bet.betData <= 23){\n                uint8 _leftNumber = 3*(_bet.betData/2) + (_bet.betData%2) + 1;\n                if(_result == _leftNumber || _result == _leftNumber+1){\n                    _hasWon = true;\n                }\n            }else{\n                uint8 _upperNumber = _bet.betData - 23;\n                if(_result == _upperNumber || _result == _upperNumber+3){\n                    _hasWon = true;\n                }\n            }\n        }else if(_bet.numberOfCard == 3){\n            uint8 _leftNumber = 3*_bet.betData + 1;\n            if(_leftNumber <= _result && _result <= _leftNumber+1\n                || _result == _leftNumber+2){\n                _hasWon = true;\n            }\n        }else if(_bet.numberOfCard == 4){\n            uint8 _leftUpperNumber = 3*(_bet.betData/2) + (_bet.betData%2) + 1;\n            if(_result == _leftUpperNumber || _result == _leftUpperNumber+1\n                || _result == _leftUpperNumber+3 || _result == _leftUpperNumber+4){\n                _hasWon = true;\n            }\n        }else if(_bet.numberOfCard == 6){\n            uint8 _leftUpperNumber = 3*(_bet.betData/2) + (_bet.betData%2) + 1;\n            if(_leftUpperNumber <= _result && _result <= _leftUpperNumber+6){\n                _hasWon = true;\n            }\n        }else if(_bet.numberOfCard == 12){\n            if(_bet.betData <= 2){\n                if((_result-1) % 3 == _bet.betData){\n                    _hasWon = true;\n                }\n            }else{\n                if((_bet.betData-3)*12 + 1 <= _result && _result <= (_bet.betData-2)*12){\n                    _hasWon = true;\n                }\n            }\n        }else if(_bet.numberOfCard == 18){\n            if(_bet.betData == 0){\n                if(1 <= _result && _result <= 18){\n                    _hasWon = true;\n                }\n            }else if(_bet.betData == 1){\n                if(19 <= _result && _result <= 36){\n                    _hasWon = true;\n                }\n            }else if(_bet.betData == 2){\n                if(_result != 0 && isNumberRed[_result-1]){\n                    _hasWon = true;\n                }\n            }else if(_bet.betData == 3){\n                if(_result != 0 && !isNumberRed[_result-1]){\n                    _hasWon = true;\n                }\n            }else if(_bet.betData == 4){\n                if(_result % 2 == 0){\n                    _hasWon = true;\n                }\n            }else if(_bet.betData == 5){\n                if(_result % 2 == 1){\n                    _hasWon = true;\n                }\n            }\n        }else if(_bet.numberOfCard == 24){\n            if(_bet.betData <= 1){\n                uint8 _remainder = (_result-1) % 3;\n                if(_remainder == _bet.betData || _remainder == _bet.betData+1){\n                    _hasWon = true;\n                }\n            }else{\n                if((_bet.betData-1)*12 + 1 <= _result && _result <= (_bet.betData+1)*12){\n                    _hasWon = true;\n                }\n            }\n        }\n        _playersBet[player].numberOfCard = 0;\n        if(_hasWon){\n            uint _moneyWon = _bet.money * (36/_bet.numberOfCard);\n            _moneyWon += ((36 % _bet.numberOfCard) * _bet.money) / _bet.numberOfCard;\n            return (_result, _moneyWon);\n        }\n        return (_result, 0);\n    }\n\n}\n",
  "sourcePath": "/home/hanzo/Desktop/DecentralizedCasino/dapp/contracts/games/Roulette.sol",
  "compiler": {
    "name": "solc",
    "version": "0.5.16+commit.9c3226ce.Emscripten.clang"
  },
  "schemaVersion": "3.3.4",
  "updatedAt": "2021-03-21T21:54:56.379Z",
  "devdoc": {
    "methods": {
      "isOwner()": {
        "return": "true if `msg.sender` is the owner of the contract."
      },
      "owner()": {
        "return": "the address of the owner."
      },
      "renounceOwnership()": {
        "details": "Allows the current owner to relinquish control of the contract."
      },
      "transferOwnership(address)": {
        "details": "Allows the current owner to transfer control of the contract to a newOwner.",
        "params": {
          "newOwner": "The address to transfer ownership to."
        }
      }
    }
  },
  "userdoc": {
    "methods": {
      "renounceOwnership()": {
        "notice": "Renouncing to ownership will leave the contract without an owner. It will not be possible to call the functions with the `onlyOwner` modifier anymore."
      }
    }
  }
}