{
  "contractName": "Roulette",
  "abi": [
    {
      "constant": true,
      "inputs": [],
      "name": "maximumBetValue",
      "outputs": [
        {
          "internalType": "uint256",
          "name": "",
          "type": "uint256"
        }
      ],
      "payable": false,
      "stateMutability": "view",
      "type": "function"
    },
    {
      "constant": true,
      "inputs": [],
      "name": "minimumBetValue",
      "outputs": [
        {
          "internalType": "uint256",
          "name": "",
          "type": "uint256"
        }
      ],
      "payable": false,
      "stateMutability": "view",
      "type": "function"
    },
    {
      "constant": true,
      "inputs": [],
      "name": "isBetSet",
      "outputs": [
        {
          "internalType": "bool",
          "name": "",
          "type": "bool"
        }
      ],
      "payable": false,
      "stateMutability": "view",
      "type": "function"
    },
    {
      "constant": false,
      "inputs": [
        {
          "internalType": "string",
          "name": "_typeOfCard",
          "type": "string"
        },
        {
          "internalType": "uint8",
          "name": "_dataOfBet",
          "type": "uint8"
        }
      ],
      "name": "bet",
      "outputs": [
        {
          "internalType": "uint8",
          "name": "",
          "type": "uint8"
        },
        {
          "internalType": "bool",
          "name": "",
          "type": "bool"
        },
        {
          "internalType": "uint256",
          "name": "",
          "type": "uint256"
        }
      ],
      "payable": true,
      "stateMutability": "payable",
      "type": "function"
    },
    {
      "constant": false,
      "inputs": [],
      "name": "cancelBet",
      "outputs": [
        {
          "internalType": "uint256",
          "name": "",
          "type": "uint256"
        }
      ],
      "payable": false,
      "stateMutability": "nonpayable",
      "type": "function"
    },
    {
      "constant": false,
      "inputs": [],
      "name": "play",
      "outputs": [
        {
          "internalType": "uint8",
          "name": "",
          "type": "uint8"
        },
        {
          "internalType": "uint8",
          "name": "",
          "type": "uint8"
        }
      ],
      "payable": false,
      "stateMutability": "nonpayable",
      "type": "function"
    },
    {
      "constant": false,
      "inputs": [],
      "name": "playerMoneyWin",
      "outputs": [
        {
          "internalType": "uint256",
          "name": "",
          "type": "uint256"
        }
      ],
      "payable": false,
      "stateMutability": "nonpayable",
      "type": "function"
    }
  ],
  "bytecode": "0x608060405260008055678ac7230489e800006001556000600255604051806104800160405280600115151515815260200160001515151581526020016001151515158152602001600015151515815260200160011515151581526020016000151515158152602001600115151515815260200160001515151581526020016001151515158152602001600015151515815260200160001515151581526020016001151515158152602001600015151515815260200160011515151581526020016000151515158152602001600115151515815260200160001515151581526020016001151515158152602001600115151515815260200160001515151581526020016001151515158152602001600015151515815260200160011515151581526020016000151515158152602001600115151515815260200160001515151581526020016001151515158152602001600015151515815260200160001515151581526020016001151515158152602001600015151515815260200160011515151581526020016000151515158152602001600115151515815260200160001515151581526020016001151515158152506004906024620001c1929190620001d6565b50348015620001cf57600080fd5b50620002a9565b826024601f01602090048101928215620002635791602002820160005b838211156200023257835183826101000a81548160ff0219169083151502179055509260200192600101602081600001049283019260010302620001f3565b8015620002615782816101000a81549060ff021916905560010160208160000104928301926001030262000232565b505b50905062000272919062000276565b5090565b620002a691905b80821115620002a257600081816101000a81549060ff0219169055506001016200027d565b5090565b90565b6120c480620002b96000396000f3fe6080604052600436106100705760003560e01c80637b6d79f11161004e5780637b6d79f1146100fa57806385e77b2a1461012557806393e84cd9146101d7578063c32ec3361461021557610070565b8063168b47b9146100755780631ae651c8146100a05780635d5ae245146100cf575b600080fd5b34801561008157600080fd5b5061008a610240565b6040518082815260200191505060405180910390f35b3480156100ac57600080fd5b506100b561043b565b604051808215151515815260200191505060405180910390f35b3480156100db57600080fd5b506100e4610492565b6040518082815260200191505060405180910390f35b34801561010657600080fd5b5061010f610498565b6040518082815260200191505060405180910390f35b6101a96004803603604081101561013b57600080fd5b810190808035906020019064010000000081111561015857600080fd5b82018360208201111561016a57600080fd5b8035906020019184600183028401116401000000008311171561018c57600080fd5b9091929391929390803560ff16906020019092919050505061070e565b604051808460ff1660ff16815260200183151515158152602001828152602001935050505060405180910390f35b3480156101e357600080fd5b506101ec6117f9565b604051808360ff1660ff1681526020018260ff1660ff1681526020019250505060405180910390f35b34801561022157600080fd5b5061022a611fa7565b6040518082815260200191505060405180910390f35b600080600360003373ffffffffffffffffffffffffffffffffffffffff1673ffffffffffffffffffffffffffffffffffffffff16815260200190815260200160002060020160009054906101000a900460ff1660ff1660248161029f57fe5b0460ff16600360003373ffffffffffffffffffffffffffffffffffffffff1673ffffffffffffffffffffffffffffffffffffffff16815260200190815260200160002060010154029050600360003373ffffffffffffffffffffffffffffffffffffffff1673ffffffffffffffffffffffffffffffffffffffff16815260200190815260200160002060020160009054906101000a900460ff1660ff16600360003373ffffffffffffffffffffffffffffffffffffffff1673ffffffffffffffffffffffffffffffffffffffff16815260200190815260200160002060010154600360003373ffffffffffffffffffffffffffffffffffffffff1673ffffffffffffffffffffffffffffffffffffffff16815260200190815260200160002060020160009054906101000a900460ff1660ff166024816103db57fe5b0660ff1602816103e757fe5b04810190506000600360003373ffffffffffffffffffffffffffffffffffffffff1673ffffffffffffffffffffffffffffffffffffffff168152602001908152602001600020600101819055508091505090565b6000600360003373ffffffffffffffffffffffffffffffffffffffff1673ffffffffffffffffffffffffffffffffffffffff16815260200190815260200160002060000160009054906101000a900460ff16905090565b60025481565b6000600360003373ffffffffffffffffffffffffffffffffffffffff1673ffffffffffffffffffffffffffffffffffffffff16815260200190815260200160002060000160009054906101000a900460ff166001151581151514610564576040517f08c379a000000000000000000000000000000000000000000000000000000000815260040180806020018281038252601e8152602001807f596f75206e65656420746f20626574206265666f726520706c6179696e67000081525060200191505060405180910390fd5b6000600360003373ffffffffffffffffffffffffffffffffffffffff1673ffffffffffffffffffffffffffffffffffffffff16815260200190815260200160002060020160016101000a81548160ff021916908360ff1602179055506000600360003373ffffffffffffffffffffffffffffffffffffffff1673ffffffffffffffffffffffffffffffffffffffff16815260200190815260200160002060000160006101000a81548160ff0219169083151502179055506000600360003373ffffffffffffffffffffffffffffffffffffffff1673ffffffffffffffffffffffffffffffffffffffff16815260200190815260200160002060020160006101000a81548160ff021916908360ff1602179055506000600360003373ffffffffffffffffffffffffffffffffffffffff1673ffffffffffffffffffffffffffffffffffffffff1681526020019081526020016000206001015490506000600360003373ffffffffffffffffffffffffffffffffffffffff1673ffffffffffffffffffffffffffffffffffffffff16815260200190815260200160002060010181905550809250505090565b600080600060025434101561078b576040517f08c379a00000000000000000000000000000000000000000000000000000000081526004018080602001828103825260118152602001807f546f6f206c6f77206265742076616c756500000000000000000000000000000081525060200191505060405180910390fd5b600154341115610803576040517f08c379a00000000000000000000000000000000000000000000000000000000081526004018080602001828103825260128152602001807f546f6f2068696768206265742076616c7565000000000000000000000000000081525060200191505060405180910390fd5b600360003373ffffffffffffffffffffffffffffffffffffffff1673ffffffffffffffffffffffffffffffffffffffff16815260200190815260200160002060000160009054906101000a900460ff1660001515811515146108cd576040517f08c379a000000000000000000000000000000000000000000000000000000000815260040180806020018281038252601c8152602001807f546865726520697320616c72656164792061206265742072656164790000000081525060200191505060405180910390fd5b6108d561205f565b6040518060800160405280600115158152602001348152602001600060ff168152602001600060ff16815250905061098688888080601f016020809104026020016040519081016040528093929190818152602001838380828437600081840152601f19601f820116905080830192505050505050506040518060400160405280600681526020017f53696e676c650000000000000000000000000000000000000000000000000000815250611fad565b156109d3578560ff166000111580156109a3575060248660ff1611155b156109ce576001816040019060ff16908160ff168152505085816060019060ff16908160ff16815250505b6115f9565b610a5688888080601f016020809104026020016040519081016040528093929190818152602001838380828437600081840152601f19601f820116905080830192505050505050506040518060400160405280601081526020017f486f72697a6f6e74616c2073706c697400000000000000000000000000000000815250611fad565b15610ae5578560ff16600111158015610a73575060238660ff1611155b8015610a905750600060038760ff1681610a8957fe5b0660ff1614155b15610ae0576002816040019060ff16908160ff168152505060036001870360ff1681610ab857fe5b0660036001880360ff1681610ac957fe5b0460020201816060019060ff16908160ff16815250505b6115f8565b610b6888888080601f016020809104026020016040519081016040528093929190818152602001838380828437600081840152601f19601f820116905080830192505050505050506040518060400160405280600e81526020017f566572746963616c2073706c6974000000000000000000000000000000000000815250611fad565b15610bb8578560ff16600111158015610b85575060218660ff1611155b15610bb3576002816040019060ff16908160ff168152505085601701816060019060ff16908160ff16815250505b6115f7565b610c3b88888080601f016020809104026020016040519081016040528093929190818152602001838380828437600081840152601f19601f820116905080830192505050505050506040518060400160405280600681526020017f5374726565740000000000000000000000000000000000000000000000000000815250611fad565b15610c8b578560ff16600111158015610c585750600c8660ff1611155b15610c86576003816040019060ff16908160ff168152505060018603816060019060ff16908160ff16815250505b6115f6565b610d0e88888080601f016020809104026020016040519081016040528093929190818152602001838380828437600081840152601f19601f820116905080830192505050505050506040518060400160405280600681526020017f5371756172650000000000000000000000000000000000000000000000000000815250611fad565b15610d9d578560ff16600111158015610d2b575060208660ff1611155b8015610d485750600060038760ff1681610d4157fe5b0660ff1614155b15610d98576004816040019060ff16908160ff168152505060036001870360ff1681610d7057fe5b0660036001880360ff1681610d8157fe5b0460020201816060019060ff16908160ff16815250505b6115f5565b610e2088888080601f016020809104026020016040519081016040528093929190818152602001838380828437600081840152601f19601f820116905080830192505050505050506040518060400160405280600d81526020017f446f75626c652073747265657400000000000000000000000000000000000000815250611fad565b15610e70578560ff16600111158015610e3d5750600b8660ff1611155b15610e6b576006816040019060ff16908160ff168152505060018603816060019060ff16908160ff16815250505b6115f4565b610ef388888080601f016020809104026020016040519081016040528093929190818152602001838380828437600081840152601f19601f820116905080830192505050505050506040518060400160405280600681526020017f436f6c756d6e0000000000000000000000000000000000000000000000000000815250611fad565b15610f43578560ff16600111158015610f10575060038660ff1611155b15610f3e57600c816040019060ff16908160ff168152505060018603816060019060ff16908160ff16815250505b6115f3565b610fc688888080601f016020809104026020016040519081016040528093929190818152602001838380828437600081840152601f19601f820116905080830192505050505050506040518060400160405280600581526020017f446f7a656e000000000000000000000000000000000000000000000000000000815250611fad565b15611016578560ff16600111158015610fe3575060038660ff1611155b1561101157600c816040019060ff16908160ff168152505085600201816060019060ff16908160ff16815250505b6115f2565b61109988888080601f016020809104026020016040519081016040528093929190818152602001838380828437600081840152601f19601f820116905080830192505050505050506040518060400160405280600381526020017f4c6f770000000000000000000000000000000000000000000000000000000000815250611fad565b156110c9576012816040019060ff16908160ff16815250506000816060019060ff16908160ff16815250506115f1565b61114c88888080601f016020809104026020016040519081016040528093929190818152602001838380828437600081840152601f19601f820116905080830192505050505050506040518060400160405280600481526020017f4869676800000000000000000000000000000000000000000000000000000000815250611fad565b1561117c576012816040019060ff16908160ff16815250506001816060019060ff16908160ff16815250506115f0565b6111ff88888080601f016020809104026020016040519081016040528093929190818152602001838380828437600081840152601f19601f820116905080830192505050505050506040518060400160405280600381526020017f5265640000000000000000000000000000000000000000000000000000000000815250611fad565b1561122f576012816040019060ff16908160ff16815250506002816060019060ff16908160ff16815250506115ef565b6112b288888080601f016020809104026020016040519081016040528093929190818152602001838380828437600081840152601f19601f820116905080830192505050505050506040518060400160405280600581526020017f426c61636b000000000000000000000000000000000000000000000000000000815250611fad565b156112e2576012816040019060ff16908160ff16815250506003816060019060ff16908160ff16815250506115ee565b61136588888080601f016020809104026020016040519081016040528093929190818152602001838380828437600081840152601f19601f820116905080830192505050505050506040518060400160405280600481526020017f4576656e00000000000000000000000000000000000000000000000000000000815250611fad565b15611395576012816040019060ff16908160ff16815250506004816060019060ff16908160ff16815250506115ed565b61141888888080601f016020809104026020016040519081016040528093929190818152602001838380828437600081840152601f19601f820116905080830192505050505050506040518060400160405280600381526020017f4f64640000000000000000000000000000000000000000000000000000000000815250611fad565b15611448576012816040019060ff16908160ff16815250506005816060019060ff16908160ff16815250506115ec565b6114cb88888080601f016020809104026020016040519081016040528093929190818152602001838380828437600081840152601f19601f820116905080830192505050505050506040518060400160405280600d81526020017f446f75626c6520636f6c756d6e00000000000000000000000000000000000000815250611fad565b1561151b578560ff166001111580156114e8575060028660ff1611155b15611516576018816040019060ff16908160ff168152505060018603816060019060ff16908160ff16815250505b6115eb565b61159e88888080601f016020809104026020016040519081016040528093929190818152602001838380828437600081840152601f19601f820116905080830192505050505050506040518060400160405280600c81526020017f446f75626c6520646f7a656e0000000000000000000000000000000000000000815250611fad565b156115ea578560ff166001111580156115bb575060028660ff1611155b156115e9576018816040019060ff16908160ff168152505085600101816060019060ff16908160ff16815250505b5b5b5b5b5b5b5b5b5b5b5b5b5b5b5b5b6000816040015160ff161415611655573373ffffffffffffffffffffffffffffffffffffffff166108fc349081150290604051600060405180830381858888f1935050505015801561164f573d6000803e3d6000fd5b50611705565b80600360003373ffffffffffffffffffffffffffffffffffffffff1673ffffffffffffffffffffffffffffffffffffffff16815260200190815260200160002060008201518160000160006101000a81548160ff0219169083151502179055506020820151816001015560408201518160020160006101000a81548160ff021916908360ff16021790555060608201518160020160016101000a81548160ff021916908360ff1602179055509050505b600360003373ffffffffffffffffffffffffffffffffffffffff1673ffffffffffffffffffffffffffffffffffffffff16815260200190815260200160002060020160019054906101000a900460ff16600360003373ffffffffffffffffffffffffffffffffffffffff1673ffffffffffffffffffffffffffffffffffffffff16815260200190815260200160002060000160009054906101000a900460ff16600360003373ffffffffffffffffffffffffffffffffffffffff1673ffffffffffffffffffffffffffffffffffffffff16815260200190815260200160002060010154945094509450505093509350939050565b600080600360003373ffffffffffffffffffffffffffffffffffffffff1673ffffffffffffffffffffffffffffffffffffffff16815260200190815260200160002060000160009054906101000a900460ff1660011515811515146118c6576040517f08c379a000000000000000000000000000000000000000000000000000000000815260040180806020018281038252601e8152602001807f596f75206e65656420746f20626574206265666f726520706c6179696e67000081525060200191505060405180910390fd5b6000600360003373ffffffffffffffffffffffffffffffffffffffff1673ffffffffffffffffffffffffffffffffffffffff16815260200190815260200160002060000160006101000a81548160ff021916908315150217905550600061192f60006024611fc8565b9050600080905061193e61205f565b600360003373ffffffffffffffffffffffffffffffffffffffff1673ffffffffffffffffffffffffffffffffffffffff1681526020019081526020016000206040518060800160405290816000820160009054906101000a900460ff16151515158152602001600182015481526020016002820160009054906101000a900460ff1660ff1660ff1681526020016002820160019054906101000a900460ff1660ff1660ff168152505090506001816040015160ff161415611a1557806060015160ff168360ff161415611a1057600191505b611eff565b6002816040015160ff161415611ac8576017816060015160ff1611611a8f57600060016002836060015160ff1681611a4957fe5b066002846060015160ff1681611a5b57fe5b04600302010190508060ff168460ff161480611a7f57506001810160ff168460ff16145b15611a8957600192505b50611ac3565b6000601782606001510390508060ff168460ff161480611ab757506003810160ff168460ff16145b15611ac157600192505b505b611efe565b6003816040015160ff161415611b29576000600182606001516003020190508360ff168160ff1611158015611b0657506001810160ff168460ff1611155b80611b1957506002810160ff168460ff16145b15611b2357600192505b50611efd565b6004816040015160ff161415611bba57600060016002836060015160ff1681611b4e57fe5b066002846060015160ff1681611b6057fe5b04600302010190508060ff168460ff161480611b8457506001810160ff168460ff16145b80611b9757506003810160ff168460ff16145b80611baa57506004810160ff168460ff16145b15611bb457600192505b50611efc565b6006816040015160ff161415611c2857600060016002836060015160ff1681611bdf57fe5b066002846060015160ff1681611bf157fe5b04600302010190508360ff168160ff1611158015611c1857506006810160ff168460ff1611155b15611c2257600192505b50611efb565b600c816040015160ff161415611cb6576002816060015160ff1611611c7357806060015160ff1660036001850360ff1681611c5f57fe5b0660ff161415611c6e57600191505b611cb1565b8260ff166001600c6003846060015103020160ff1611158015611ca65750600c60028260600151030260ff168360ff1611155b15611cb057600191505b5b611efa565b6012816040015160ff161415611e51576000816060015160ff161415611cfd578260ff16600111158015611cee575060128360ff1611155b15611cf857600191505b611e4c565b6001816060015160ff161415611d34578260ff16601311158015611d25575060248360ff1611155b15611d2f57600191505b611e4b565b6002816060015160ff161415611d8c5760008360ff1614158015611d7d575060046001840360ff1660248110611d6657fe5b602091828204019190069054906101000a900460ff165b15611d8757600191505b611e4a565b6003816060015160ff161415611de55760008360ff1614158015611dd6575060046001840360ff1660248110611dbe57fe5b602091828204019190069054906101000a900460ff16155b15611de057600191505b611e49565b6004816060015160ff161415611e1857600060028460ff1681611e0457fe5b0660ff161415611e1357600191505b611e48565b6005816060015160ff161415611e4757600160028460ff1681611e3757fe5b0660ff161415611e4657600191505b5b5b5b5b5b5b611ef9565b6018816040015160ff161415611ef8576001816060015160ff1611611eb957600060036001850360ff1681611e8257fe5b069050816060015160ff168160ff161480611ea95750600182606001510160ff168160ff16145b15611eb357600192505b50611ef7565b8260ff166001600c6001846060015103020160ff1611158015611eec5750600c60018260600151010260ff168360ff1611155b15611ef657600191505b5b5b5b5b5b5b5b5b5b600115158215151415611f91573073ffffffffffffffffffffffffffffffffffffffff1663168b47b96040518163ffffffff1660e01b8152600401602060405180830381600087803b158015611f5457600080fd5b505af1158015611f68573d6000803e3d6000fd5b505050506040513d6020811015611f7e57600080fd5b8101908080519060200190929190505050505b8060600151816040015195509550505050509091565b60015481565b60008180519060200120838051906020012014905092915050565b600080600081548092919060010191905055508260ff168260ff164233600054604051602001808481526020018373ffffffffffffffffffffffffffffffffffffffff1673ffffffffffffffffffffffffffffffffffffffff1660601b815260140182815260200193505050506040516020818303038152906040528051906020012060001c8161205557fe5b0601905092915050565b604051806080016040528060001515815260200160008152602001600060ff168152602001600060ff168152509056fea265627a7a723158202a5d67467638957c8745b375ec9acddf318dcf939b08fdcf1a60e09c27378db564736f6c63430005100032",
  "source": "pragma solidity ^0.5.0;\n\nimport \"./SafeMath.sol\";\nimport \"./Game.sol\";\nimport \"./Utility.sol\";\n\ncontract Roulette is Game, Utility {\n\n    /* For details on types of bet of the roulette game,\n    see https://en.wikipedia.org/wiki/Roulette#Types_of_bets */\n    struct RouletteBet {\n        bool isSet;\n        uint256 money;\n        uint8 numberOfCard;\n        /* 1-Single ; 2-Split ; 3-Street ; 4:Square ; 6-DoubleStreet ; 12-Column/Dozen ;\n        18-Low/High/Red/Black/Even/Odd ; 24-DoubleColumn/DoubleDozen */\n        uint8 betData;\n        /*\n        Single                      -> number with the bet (0 <= n <= 36)\n        Split                       -> 0 to 23, horizontal split : left number = 3*(n//2)+n%2+1,\n                                                                    right number = left number + 1\n                                        24+0 to 24+32, vertical split : upper number = n-23,\n                                                                        down number = upper number + 3\n        Street                      -> number of the line with the bet (0 <= n <= 11)\n        Square                      -> 0 to 21, number of the upper left number = 3*(n//2)+n%2+1\n        DoubleStreet                -> number of the upper line with the bet (0 <= n <= 10)\n        Column/Dozen                -> 0 to 2, column (number of the column)\n                                        3+0 to 3+2, dozen (3 : 1-12, 4 : 13-24, 5 : 25-36)\n        Low/High/Red/Black/Even/Odd -> respectively 0/1/2/3/4/5\n        DoubleColummn/DoubleDozen   -> 0 to 1, double column (number of the left column)\n                                        2+0 to 2+1, double dozen (2 : 1-24, 3 : 13-36)\n        */\n    }\n\n    mapping(address => RouletteBet) private _playersBet;\n\n    // reds = [1, 3, 5, 7, 9, 12, 14, 16, 18, 19, 21, 23, 25, 27, 30, 32, 34, 36];\n    // blacks = [2, 4, 6, 8, 10, 11, 13, 15, 17, 20, 22, 24, 26, 28, 29, 31, 33, 35];\n    bool[36] private isNumberRed =\n        [true, false, true, false, true, false, true, false, true, false,\n        false, true, false, true, false, true, false, true, true, false,\n        true, false, true, false, true, false, true, false, false, true,\n        false, true, false, true, false, true];\n\n    function isBetSet() external view returns(bool){\n        return _playersBet[msg.sender].isSet;\n    }\n\n    function bet(string calldata _typeOfCard, uint8 _dataOfBet) external payable isEnoughMoney currentBetIsNotSet(_playersBet[msg.sender].isSet) returns(uint8, bool, uint256) {\n        RouletteBet memory _newBet = RouletteBet(true, msg.value, 0, 0); \n        if(compareStrings(_typeOfCard, \"Single\")){\n            if(0 <= _dataOfBet && _dataOfBet <= 36){\n                _newBet.numberOfCard = 1;\n                _newBet.betData = _dataOfBet;\n            }\n        }else if(compareStrings(_typeOfCard, \"Horizontal split\")){\n            if(1 <= _dataOfBet && _dataOfBet <= 35 && _dataOfBet % 3 != 0){\n                _newBet.numberOfCard = 2;\n                _newBet.betData = 2*((_dataOfBet-1)/3) + ((_dataOfBet-1)%3);\n            }\n        }else if(compareStrings(_typeOfCard, \"Vertical split\")){\n            if(1 <= _dataOfBet && _dataOfBet <= 33){\n                _newBet.numberOfCard = 2;\n                _newBet.betData = 23 + _dataOfBet;\n            }\n        }else if(compareStrings(_typeOfCard, \"Street\")){\n            if(1 <= _dataOfBet && _dataOfBet <= 12){\n                _newBet.numberOfCard = 3;\n                _newBet.betData = _dataOfBet-1;\n            }\n        }else if(compareStrings(_typeOfCard, \"Square\")){\n            if(1 <= _dataOfBet && _dataOfBet <= 32 && _dataOfBet % 3 != 0){\n                _newBet.numberOfCard = 4;\n                _newBet.betData = 2*((_dataOfBet-1)/3) + ((_dataOfBet-1)%3);\n            }\n        }else if(compareStrings(_typeOfCard, \"Double street\")){\n            if(1 <= _dataOfBet && _dataOfBet <= 11){\n                _newBet.numberOfCard = 6;\n                _newBet.betData = _dataOfBet-1;\n            }\n        }else if(compareStrings(_typeOfCard, \"Column\")){\n            if(1 <= _dataOfBet && _dataOfBet <= 3){\n                _newBet.numberOfCard = 12;\n                _newBet.betData = _dataOfBet-1;\n            }\n        }else if(compareStrings(_typeOfCard, \"Dozen\")){\n            if(1 <= _dataOfBet && _dataOfBet <= 3){\n                _newBet.numberOfCard = 12;\n                _newBet.betData = 2 + _dataOfBet;\n            }\n        }else if(compareStrings(_typeOfCard, \"Low\")){\n            _newBet.numberOfCard = 18;\n            _newBet.betData = 0;\n        }else if(compareStrings(_typeOfCard, \"High\")){\n            _newBet.numberOfCard = 18;\n            _newBet.betData = 1;\n        }else if(compareStrings(_typeOfCard, \"Red\")){\n            _newBet.numberOfCard = 18;\n            _newBet.betData = 2;\n        }else if(compareStrings(_typeOfCard, \"Black\")){\n            _newBet.numberOfCard = 18;\n            _newBet.betData = 3;\n        }else if(compareStrings(_typeOfCard, \"Even\")){\n            _newBet.numberOfCard = 18;\n            _newBet.betData = 4;\n        }else if(compareStrings(_typeOfCard, \"Odd\")){\n            _newBet.numberOfCard = 18;\n            _newBet.betData = 5;\n        }else if(compareStrings(_typeOfCard, \"Double column\")){\n            if(1 <= _dataOfBet && _dataOfBet <= 2){\n                _newBet.numberOfCard = 24;\n                _newBet.betData = _dataOfBet-1;\n            }\n        }else if(compareStrings(_typeOfCard, \"Double dozen\")){\n            if(1 <= _dataOfBet && _dataOfBet <= 2){\n                _newBet.numberOfCard = 24;\n                _newBet.betData = 1 + _dataOfBet;\n            }\n        }\n        if(_newBet.numberOfCard == 0){ // wrong input, sending ethers back\n            msg.sender.transfer(msg.value);\n        }else{\n            _playersBet[msg.sender] = _newBet;\n        }\n        return (_playersBet[msg.sender].betData, _playersBet[msg.sender].isSet, _playersBet[msg.sender].money);\n    }\n\n    function cancelBet() external currentBetIsSet(_playersBet[msg.sender].isSet) returns(uint256){\n        _playersBet[msg.sender].betData = 0;\n        _playersBet[msg.sender].isSet = false;\n        _playersBet[msg.sender].numberOfCard = 0;\n        uint moneyBetSave = _playersBet[msg.sender].money;\n        _playersBet[msg.sender].money = 0;\n        return moneyBetSave;\n    }\n\n    function play() external currentBetIsSet(_playersBet[msg.sender].isSet) returns (uint8, uint8) {\n        _playersBet[msg.sender].isSet = false;\n        uint8 _result = randomUintBetween(0, 36);\n        bool _hasWon = false;\n        RouletteBet memory _bet = _playersBet[msg.sender];\n        if(_bet.numberOfCard == 1){\n            if(_result == _bet.betData){\n                _hasWon = true;\n            }\n        }else if(_bet.numberOfCard == 2){\n            if(_bet.betData <= 23){\n                uint8 _leftNumber = 3*(_bet.betData/2) + (_bet.betData%2) + 1;\n                if(_result == _leftNumber || _result == _leftNumber+1){\n                    _hasWon = true;\n                }\n            }else{\n                uint8 _upperNumber = _bet.betData - 23;\n                if(_result == _upperNumber || _result == _upperNumber+3){\n                    _hasWon = true;\n                }\n            }\n        }else if(_bet.numberOfCard == 3){\n            uint8 _leftNumber = 3*_bet.betData + 1;\n            if(_leftNumber <= _result && _result <= _leftNumber+1\n                || _result == _leftNumber+2){\n                _hasWon = true;\n            }\n        }else if(_bet.numberOfCard == 4){\n            uint8 _leftUpperNumber = 3*(_bet.betData/2) + (_bet.betData%2) + 1;\n            if(_result == _leftUpperNumber || _result == _leftUpperNumber+1\n                || _result == _leftUpperNumber+3 || _result == _leftUpperNumber+4){\n                _hasWon = true;\n            }\n        }else if(_bet.numberOfCard == 6){\n            uint8 _leftUpperNumber = 3*(_bet.betData/2) + (_bet.betData%2) + 1;\n            if(_leftUpperNumber <= _result && _result <= _leftUpperNumber+6){\n                _hasWon = true;\n            }\n        }else if(_bet.numberOfCard == 12){\n            if(_bet.betData <= 2){\n                if((_result-1) % 3 == _bet.betData){\n                    _hasWon = true;\n                }\n            }else{\n                if((_bet.betData-3)*12 + 1 <= _result && _result <= (_bet.betData-2)*12){\n                    _hasWon = true;\n                }\n            }\n        }else if(_bet.numberOfCard == 18){\n            if(_bet.betData == 0){\n                if(1 <= _result && _result <= 18){\n                    _hasWon = true;\n                }\n            }else if(_bet.betData == 1){\n                if(19 <= _result && _result <= 36){\n                    _hasWon = true;\n                }\n            }else if(_bet.betData == 2){\n                if(_result != 0 && isNumberRed[_result-1]){\n                    _hasWon = true;\n                }\n            }else if(_bet.betData == 3){\n                if(_result != 0 && !isNumberRed[_result-1]){\n                    _hasWon = true;\n                }\n            }else if(_bet.betData == 4){\n                if(_result % 2 == 0){\n                    _hasWon = true;\n                }\n            }else if(_bet.betData == 5){\n                if(_result % 2 == 1){\n                    _hasWon = true;\n                }\n            }\n        }else if(_bet.numberOfCard == 24){\n            if(_bet.betData <= 1){\n                uint8 _remainder = (_result-1) % 3;\n                if(_remainder == _bet.betData || _remainder == _bet.betData+1){\n                    _hasWon = true;\n                }\n            }else{\n                if((_bet.betData-1)*12 + 1 <= _result && _result <= (_bet.betData+1)*12){\n                    _hasWon = true;\n                }\n            }\n        }\n        if(_hasWon == true){\n            this.playerMoneyWin();\n        }\n        return (_bet.betData, _bet.numberOfCard);\n    }\n\n    function playerMoneyWin() external returns(uint256){\n        uint256 _moneyWon = _playersBet[msg.sender].money * (36/_playersBet[msg.sender].numberOfCard);\n        _moneyWon += ((36 % _playersBet[msg.sender].numberOfCard) * _playersBet[msg.sender].money) / _playersBet[msg.sender].numberOfCard;\n        _playersBet[msg.sender].money = 0;\n        return _moneyWon;\n    }\n\n}\n",
  "sourcePath": "/home/hanzo/Desktop/DecentralizedCasino/dapp/contracts/Roulette.sol",
  "compiler": {
    "name": "solc",
    "version": "0.5.16+commit.9c3226ce.Emscripten.clang"
  },
  "schemaVersion": "3.3.4",
  "updatedAt": "2021-03-16T21:22:40.765Z",
  "devdoc": {
    "methods": {}
  },
  "userdoc": {
    "methods": {}
  }
}