{
  "contractName": "Utility",
  "abi": [
    {
      "constant": true,
      "inputs": [],
      "name": "maximumBetValue",
      "outputs": [
        {
          "internalType": "uint256",
          "name": "",
          "type": "uint256"
        }
      ],
      "payable": false,
      "stateMutability": "view",
      "type": "function"
    },
    {
      "constant": true,
      "inputs": [],
      "name": "minimumBetValue",
      "outputs": [
        {
          "internalType": "uint256",
          "name": "",
          "type": "uint256"
        }
      ],
      "payable": false,
      "stateMutability": "view",
      "type": "function"
    }
  ],
  "bytecode": "0x608060405260008055678ac7230489e80000600155600060025534801561002557600080fd5b5060b0806100346000396000f3fe6080604052348015600f57600080fd5b506004361060325760003560e01c80635d5ae245146037578063c32ec336146053575b600080fd5b603d606f565b6040518082815260200191505060405180910390f35b60596075565b6040518082815260200191505060405180910390f35b60025481565b6001548156fea265627a7a7231582042ef6d7e7c1be62d67304e3bdbcdce2bc6bca1037db7e95036d6db76d44f70a764736f6c63430005100032",
  "source": "pragma solidity ^0.5.0;\n\nimport \"./SafeMath.sol\";\n\ncontract Utility{\n\n\n\n    //Variables\n    uint randomId = 0;\n    uint public maximumBetValue = 10 ether;\n    uint public minimumBetValue = 0 ether;\n\n\n\n    //Modifiers\n    modifier isEnoughMoney(){\n        require(msg.value >= minimumBetValue, \"Too low bet value\");\n        require(msg.value <= maximumBetValue, \"Too high bet value\");\n        _;\n    }\n    modifier currentBetIsNotSet(bool betIsSet){\n        require(betIsSet == false, \"There is already a bet ready\");\n        _;\n    }\n    modifier currentBetIsSet(bool betIsSet){\n        require(betIsSet == true, \"You need to bet before playing\"); \n        _;\n    }\n\n\n\n    //Utility functions\n\tfunction randomUintBetween(uint min, uint max) internal returns(uint){\n\t\trandomId++;\n\t\treturn uint(keccak256(abi.encodePacked(now, msg.sender, randomId))) % max + min;\n\t}\n    function compareStrings(string memory a, string memory b) internal pure returns(bool){\n        return keccak256(bytes(a)) == keccak256(bytes(b));\n    }\n\tfunction stringToUint(string memory s) internal pure returns (uint result) {\n        bytes memory b = bytes(s);\n        uint i;\n        result = 0;\n        for (i = 0; i < b.length; i++) {\n            uint c = uint(uint8(b[i])); //Conversion trick\n            if (c >= 48 && c <= 57) {\n                result = result * 10 + (c - 48);\n            }\n        }\n    }\n    function uintToString(uint _i) internal pure returns (string memory _uintAsString) {\n        uint number = _i;\n        if (number == 0) {\n            return \"0\";\n        }\n        uint j = number;\n        uint len;\n        while (j != 0) {\n            len++;\n            j /= 10;\n        }\n        bytes memory bstr = new bytes(len);\n        uint k = len - 1;\n        while (number != 0) {\n            bstr[k--] = byte(uint8(48 + number % 10));\n            number /= 10;\n        }\n        return string(bstr);\n    }\n\n\n\n}",
  "sourcePath": "/home/hanzo/Desktop/DecentralizedCasino/dapp/contracts/Utility.sol",
  "compiler": {
    "name": "solc",
    "version": "0.5.16+commit.9c3226ce.Emscripten.clang"
  },
  "schemaVersion": "3.3.4",
  "updatedAt": "2021-03-12T01:52:16.232Z",
  "devdoc": {
    "methods": {}
  },
  "userdoc": {
    "methods": {}
  }
}