{
  "contractName": "Utility",
  "abi": [
    {
      "constant": true,
      "inputs": [],
      "name": "maximumTokenValue",
      "outputs": [
        {
          "internalType": "uint16",
          "name": "",
          "type": "uint16"
        }
      ],
      "payable": false,
      "stateMutability": "view",
      "type": "function"
    },
    {
      "constant": true,
      "inputs": [],
      "name": "minimumTokenValue",
      "outputs": [
        {
          "internalType": "uint16",
          "name": "",
          "type": "uint16"
        }
      ],
      "payable": false,
      "stateMutability": "view",
      "type": "function"
    }
  ],
  "bytecode": "0x6080604052600080556064600160006101000a81548161ffff021916908361ffff16021790555060018060026101000a81548161ffff021916908361ffff16021790555034801561004f57600080fd5b5060dc8061005e6000396000f3fe6080604052348015600f57600080fd5b506004361060325760003560e01c806332994a271460375780637579000b14605b575b600080fd5b603d607f565b604051808261ffff1661ffff16815260200191505060405180910390f35b60616093565b604051808261ffff1661ffff16815260200191505060405180910390f35b600160029054906101000a900461ffff1681565b600160009054906101000a900461ffff168156fea265627a7a72315820637c93a317732ca64a85a17a6e235c536ed241a951f2a2bc3b2f250b54aed35964736f6c63430005100032",
  "source": "pragma solidity ^0.5.0;\n\nimport \"./lib/SafeMath.sol\";\n\ncontract Utility{\n\n    using SafeMath for uint256; //Using SafeMath lib to avoid overflow errors\n    using SafeMath for uint8;\n\n    //Variables\n    uint256 randomId = 0;\n    uint16 public maximumTokenValue = 100;\n    uint16 public minimumTokenValue = 1;\n\n    //Modifiers\n    modifier isEnoughMoneyAndToken(uint value, uint nbtoken, uint tokenPrice){\n        require(value >= minimumTokenValue*tokenPrice, \"Too low bet value\");\n        require(value <= maximumTokenValue*tokenPrice, \"Too high bet value\");\n        require(nbtoken >= minimumTokenValue, \"Too low token value\");\n        require(nbtoken <= maximumTokenValue, \"Too high token value\");\n        _;\n    }\n\n    modifier enoughTokenBalance(uint tokenamount, uint tokenbalance){\n        require(tokenbalance >= tokenamount, \"Not enough token in balance\");\n        _;\n    }\n\n    modifier currentBetIsNotSet(bool betIsSet){\n        require(betIsSet == false, \"There is already a bet ready\");\n        _;\n    }\n\n    modifier currentBetIsSet(bool betIsSet){\n        require(betIsSet == true, \"You need to bet before playing\"); \n        _;\n    }\n\n    //Utility functions\n\tfunction randomUintBetween(uint8 min, uint8 max) internal returns(uint8){\n\t\trandomId = randomId.add(1);\n\t\treturn uint8((uint(keccak256(abi.encodePacked(now, msg.sender, randomId))) % max ).add(min));\n\t}\n\n    function compareStrings(string memory a, string memory b) internal pure returns(bool){\n        return keccak256(bytes(a)) == keccak256(bytes(b));\n    }\n\n\tfunction stringToUint(string memory s) internal pure returns (uint256) {\n        bytes memory b = bytes(s);\n        uint256 result = 0;\n        for (uint i = 0; i < b.length; i = i.add(1)) {\n            uint c = uint(uint8(b[i])); //Conversion trick\n            if (c >= 48 && c <= 57) {\n                result = result.mul(10 + c - 48);\n            }\n        }\n    }\n\n    function uintToString(uint _i) internal pure returns (string memory) {\n        uint256 number = _i;\n        if (number == 0) {\n            return \"0\";\n        }\n        uint256 j = number;\n        uint256 len;\n        while (j != 0) {\n            len = len.add(1);\n            j = j.div(10);\n        }\n        bytes memory bstr = new bytes(len);\n        uint256 k = len.sub(1);\n        while (number != 0) {\n            bstr[k = k.sub(1)] = byte(uint8(48 + number % 10));\n            number = number.div(10);\n        }\n        return string(bstr);\n    }\n\n\n\n}\n",
  "sourcePath": "/home/hanzo/Desktop/DecentralizedCasino/dapp/contracts/Utility.sol",
  "compiler": {
    "name": "solc",
    "version": "0.5.16+commit.9c3226ce.Emscripten.clang"
  },
  "schemaVersion": "3.3.4",
  "updatedAt": "2021-03-22T00:45:02.986Z",
  "devdoc": {
    "methods": {}
  },
  "userdoc": {
    "methods": {}
  }
}