{
  "contractName": "Utility",
  "abi": [
    {
      "constant": true,
      "inputs": [],
      "name": "maximumBetValue",
      "outputs": [
        {
          "internalType": "uint256",
          "name": "",
          "type": "uint256"
        }
      ],
      "payable": false,
      "stateMutability": "view",
      "type": "function"
    },
    {
      "constant": true,
      "inputs": [],
      "name": "minimumBetValue",
      "outputs": [
        {
          "internalType": "uint256",
          "name": "",
          "type": "uint256"
        }
      ],
      "payable": false,
      "stateMutability": "view",
      "type": "function"
    }
  ],
  "bytecode": "0x608060405260008055678ac7230489e80000600155600060025534801561002557600080fd5b5060b0806100346000396000f3fe6080604052348015600f57600080fd5b506004361060325760003560e01c80635d5ae245146037578063c32ec336146053575b600080fd5b603d606f565b6040518082815260200191505060405180910390f35b60596075565b6040518082815260200191505060405180910390f35b60025481565b6001548156fea265627a7a72315820f9b0736a491db6c37f1aa5a4e4d8e79158805beebdf75e679f4fd194275d945a64736f6c63430005100032",
  "source": "pragma solidity ^0.5.0;\n\nimport \"./lib/SafeMath.sol\";\n\ncontract Utility{\n\n    using SafeMath for uint256; //Using SafeMath lib to avoid overflow errors\n    using SafeMath for uint8;\n\n    //Variables\n    uint256 randomId = 0;\n    uint256 public maximumBetValue = 10 ether;\n    uint256 public minimumBetValue = 0 ether;\n\n    //Modifiers\n    modifier isEnoughMoney(uint money){\n        require(money >= minimumBetValue, \"Too low bet value\");\n        require(money <= maximumBetValue, \"Too high bet value\");\n        _;\n    }\n\n    modifier currentBetIsNotSet(bool betIsSet){\n        require(betIsSet == false, \"There is already a bet ready\");\n        _;\n    }\n\n    modifier currentBetIsSet(bool betIsSet){\n        require(betIsSet == true, \"You need to bet before playing\"); \n        _;\n    }\n\n    //Utility functions\n\tfunction randomUintBetween(uint8 min, uint8 max) internal returns(uint8){\n\t\trandomId = randomId.add(1);\n\t\treturn uint8((uint(keccak256(abi.encodePacked(now, msg.sender, randomId))) % max ).add(min));\n\t}\n\n    function compareStrings(string memory a, string memory b) internal pure returns(bool){\n        return keccak256(bytes(a)) == keccak256(bytes(b));\n    }\n\n\tfunction stringToUint(string memory s) internal pure returns (uint256) {\n        bytes memory b = bytes(s);\n        uint256 result = 0;\n        for (uint i = 0; i < b.length; i = i.add(1)) {\n            uint c = uint(uint8(b[i])); //Conversion trick\n            if (c >= 48 && c <= 57) {\n                result = result.mul(10 + c - 48);\n            }\n        }\n    }\n\n    function uintToString(uint _i) internal pure returns (string memory) {\n        uint256 number = _i;\n        if (number == 0) {\n            return \"0\";\n        }\n        uint256 j = number;\n        uint256 len;\n        while (j != 0) {\n            len = len.add(1);\n            j = j.div(10);\n        }\n        bytes memory bstr = new bytes(len);\n        uint256 k = len.sub(1);\n        while (number != 0) {\n            bstr[k = k.sub(1)] = byte(uint8(48 + number % 10));\n            number = number.div(10);\n        }\n        return string(bstr);\n    }\n\n\n\n}\n",
  "sourcePath": "/home/hanzo/Desktop/DecentralizedCasino/dapp/contracts/Utility.sol",
  "compiler": {
    "name": "solc",
    "version": "0.5.16+commit.9c3226ce.Emscripten.clang"
  },
  "schemaVersion": "3.3.4",
  "updatedAt": "2021-03-20T16:54:40.425Z",
  "devdoc": {
    "methods": {}
  },
  "userdoc": {
    "methods": {}
  }
}